{
	"contracts/ParamRegistry.sol": {
		"ParamRegistry": {
			"abi": [
				{
					"inputs": [
						{
							"internalType": "bytes32",
							"name": "_pkCA_x",
							"type": "bytes32"
						},
						{
							"internalType": "bytes32",
							"name": "_pkCA_y",
							"type": "bytes32"
						},
						{
							"internalType": "uint8",
							"name": "_t",
							"type": "uint8"
						},
						{
							"internalType": "uint8",
							"name": "_n",
							"type": "uint8"
						},
						{
							"internalType": "string",
							"name": "_hashSpec",
							"type": "string"
						}
					],
					"stateMutability": "nonpayable",
					"type": "constructor"
				},
				{
					"anonymous": false,
					"inputs": [
						{
							"indexed": true,
							"internalType": "bytes32",
							"name": "pkCA_x",
							"type": "bytes32"
						},
						{
							"indexed": true,
							"internalType": "bytes32",
							"name": "pkCA_y",
							"type": "bytes32"
						},
						{
							"indexed": false,
							"internalType": "uint8",
							"name": "t",
							"type": "uint8"
						},
						{
							"indexed": false,
							"internalType": "uint8",
							"name": "n",
							"type": "uint8"
						},
						{
							"indexed": false,
							"internalType": "string",
							"name": "hashSpec",
							"type": "string"
						}
					],
					"name": "ParamsPublished",
					"type": "event"
				},
				{
					"inputs": [],
					"name": "getAllParams",
					"outputs": [
						{
							"internalType": "bytes32",
							"name": "x",
							"type": "bytes32"
						},
						{
							"internalType": "bytes32",
							"name": "y",
							"type": "bytes32"
						},
						{
							"internalType": "uint8",
							"name": "t",
							"type": "uint8"
						},
						{
							"internalType": "uint8",
							"name": "n",
							"type": "uint8"
						},
						{
							"internalType": "string",
							"name": "hash",
							"type": "string"
						}
					],
					"stateMutability": "view",
					"type": "function"
				},
				{
					"inputs": [],
					"name": "getPublicKey",
					"outputs": [
						{
							"internalType": "bytes32",
							"name": "",
							"type": "bytes32"
						},
						{
							"internalType": "bytes32",
							"name": "",
							"type": "bytes32"
						}
					],
					"stateMutability": "view",
					"type": "function"
				},
				{
					"inputs": [],
					"name": "getPublicKeyBytes",
					"outputs": [
						{
							"internalType": "bytes",
							"name": "",
							"type": "bytes"
						}
					],
					"stateMutability": "view",
					"type": "function"
				},
				{
					"inputs": [],
					"name": "getThresholdConfig",
					"outputs": [
						{
							"internalType": "uint8",
							"name": "t",
							"type": "uint8"
						},
						{
							"internalType": "uint8",
							"name": "n",
							"type": "uint8"
						}
					],
					"stateMutability": "view",
					"type": "function"
				},
				{
					"inputs": [],
					"name": "hashSpec",
					"outputs": [
						{
							"internalType": "string",
							"name": "",
							"type": "string"
						}
					],
					"stateMutability": "view",
					"type": "function"
				},
				{
					"inputs": [],
					"name": "pkCA_x",
					"outputs": [
						{
							"internalType": "bytes32",
							"name": "",
							"type": "bytes32"
						}
					],
					"stateMutability": "view",
					"type": "function"
				},
				{
					"inputs": [],
					"name": "pkCA_y",
					"outputs": [
						{
							"internalType": "bytes32",
							"name": "",
							"type": "bytes32"
						}
					],
					"stateMutability": "view",
					"type": "function"
				},
				{
					"inputs": [],
					"name": "thresholdT",
					"outputs": [
						{
							"internalType": "uint8",
							"name": "",
							"type": "uint8"
						}
					],
					"stateMutability": "view",
					"type": "function"
				},
				{
					"inputs": [],
					"name": "totalNodesN",
					"outputs": [
						{
							"internalType": "uint8",
							"name": "",
							"type": "uint8"
						}
					],
					"stateMutability": "view",
					"type": "function"
				}
			],
			"devdoc": {
				"details": "Optimized for gas efficiency using immutable storage",
				"kind": "dev",
				"methods": {
					"constructor": {
						"params": {
							"_hashSpec": "Hash function specification (e.g., \"Keccak256\")",
							"_n": "Total number of CA nodes",
							"_pkCA_x": "X coordinate of CA public key (32 bytes)",
							"_pkCA_y": "Y coordinate of CA public key (32 bytes)",
							"_t": "Threshold (minimum signers required)"
						}
					},
					"getPublicKey()": {
						"returns": {
							"_0": "x coordinate, y coordinate"
						}
					},
					"getPublicKeyBytes()": {
						"returns": {
							"_0": "Full uncompressed public key"
						}
					},
					"getThresholdConfig()": {
						"returns": {
							"t": "(threshold), n (total nodes)"
						}
					}
				},
				"title": "ParamRegistry",
				"version": 1
			},
			"evm": {
				"assembly": "    /* \"contracts/ParamRegistry.sol\":240:2824  contract ParamRegistry {... */\n  mstore(0x40, 0x0100)\n    /* \"contracts/ParamRegistry.sol\":1180:1761  constructor(... */\n  callvalue\n  dup1\n  iszero\n  tag_1\n  jumpi\n  0x00\n  dup1\n  revert\ntag_1:\n  pop\n  mload(0x40)\n  sub(codesize, bytecodeSize)\n  dup1\n  bytecodeSize\n  dup4\n  codecopy\n  dup2\n  add\n  0x40\n  dup2\n  swap1\n  mstore\n  tag_2\n  swap2\n  tag_3\n  jump\t// in\ntag_2:\n    /* \"contracts/ParamRegistry.sol\":1347:1349  _n */\n  dup2\n    /* \"contracts/ParamRegistry.sol\":1342:1349  _t < _n */\n  0xff\n  and\n    /* \"contracts/ParamRegistry.sol\":1342:1344  _t */\n  dup4\n    /* \"contracts/ParamRegistry.sol\":1342:1349  _t < _n */\n  0xff\n  and\n  lt\n    /* \"contracts/ParamRegistry.sol\":1334:1393  require(_t < _n, \"Threshold must be less than total nodes\") */\n  tag_6\n  jumpi\n  mload(0x40)\n  shl(0xe5, 0x461bcd)\n  dup2\n  mstore\n    /* \"#utility.yul\":1956:1958   */\n  0x20\n    /* \"contracts/ParamRegistry.sol\":1334:1393  require(_t < _n, \"Threshold must be less than total nodes\") */\n  0x04\n  dup3\n  add\n    /* \"#utility.yul\":1938:1959   */\n  mstore\n    /* \"#utility.yul\":1995:1997   */\n  0x27\n    /* \"#utility.yul\":1975:1993   */\n  0x24\n  dup3\n  add\n    /* \"#utility.yul\":1968:1998   */\n  mstore\n    /* \"#utility.yul\":2034:2068   */\n  0x5468726573686f6c64206d757374206265206c657373207468616e20746f7461\n    /* \"#utility.yul\":2014:2032   */\n  0x44\n  dup3\n  add\n    /* \"#utility.yul\":2007:2069   */\n  mstore\n  shl(0xc8, 0x6c206e6f646573)\n    /* \"#utility.yul\":2085:2103   */\n  0x64\n  dup3\n  add\n    /* \"#utility.yul\":2078:2115   */\n  mstore\n    /* \"#utility.yul\":2132:2151   */\n  0x84\n  add\n    /* \"contracts/ParamRegistry.sol\":1334:1393  require(_t < _n, \"Threshold must be less than total nodes\") */\ntag_7:\n  mload(0x40)\n  dup1\n  swap2\n  sub\n  swap1\n  revert\ntag_6:\n    /* \"contracts/ParamRegistry.sol\":1418:1419  3 */\n  0x03\n    /* \"contracts/ParamRegistry.sol\":1412:1414  _n */\n  dup3\n    /* \"contracts/ParamRegistry.sol\":1412:1419  _n >= 3 */\n  0xff\n  and\n  lt\n  iszero\n    /* \"contracts/ParamRegistry.sol\":1404:1468  require(_n >= 3, \"Minimum 3 nodes required for fault tolerance\") */\n  tag_9\n  jumpi\n  mload(0x40)\n  shl(0xe5, 0x461bcd)\n  dup2\n  mstore\n    /* \"#utility.yul\":2364:2366   */\n  0x20\n    /* \"contracts/ParamRegistry.sol\":1404:1468  require(_n >= 3, \"Minimum 3 nodes required for fault tolerance\") */\n  0x04\n  dup3\n  add\n    /* \"#utility.yul\":2346:2367   */\n  mstore\n    /* \"#utility.yul\":2403:2405   */\n  0x2c\n    /* \"#utility.yul\":2383:2401   */\n  0x24\n  dup3\n  add\n    /* \"#utility.yul\":2376:2406   */\n  mstore\n    /* \"#utility.yul\":2442:2476   */\n  0x4d696e696d756d2033206e6f64657320726571756972656420666f7220666175\n    /* \"#utility.yul\":2422:2440   */\n  0x44\n  dup3\n  add\n    /* \"#utility.yul\":2415:2477   */\n  mstore\n  shl(0xa0, 0x6c7420746f6c6572616e6365)\n    /* \"#utility.yul\":2493:2511   */\n  0x64\n  dup3\n  add\n    /* \"#utility.yul\":2486:2528   */\n  mstore\n    /* \"#utility.yul\":2545:2564   */\n  0x84\n  add\n    /* \"contracts/ParamRegistry.sol\":1404:1468  require(_n >= 3, \"Minimum 3 nodes required for fault tolerance\") */\n  tag_7\n    /* \"#utility.yul\":2162:2570   */\n  jump\n    /* \"contracts/ParamRegistry.sol\":1404:1468  require(_n >= 3, \"Minimum 3 nodes required for fault tolerance\") */\ntag_9:\n    /* \"contracts/ParamRegistry.sol\":1493:1494  1 */\n  0x01\n    /* \"contracts/ParamRegistry.sol\":1487:1489  _t */\n  dup4\n    /* \"contracts/ParamRegistry.sol\":1487:1494  _t >= 1 */\n  0xff\n  and\n  lt\n  iszero\n    /* \"contracts/ParamRegistry.sol\":1479:1527  require(_t >= 1, \"Threshold must be at least 1\") */\n  tag_12\n  jumpi\n  mload(0x40)\n  shl(0xe5, 0x461bcd)\n  dup2\n  mstore\n    /* \"#utility.yul\":2777:2779   */\n  0x20\n    /* \"contracts/ParamRegistry.sol\":1479:1527  require(_t >= 1, \"Threshold must be at least 1\") */\n  0x04\n  dup3\n  add\n    /* \"#utility.yul\":2759:2780   */\n  mstore\n    /* \"#utility.yul\":2816:2818   */\n  0x1c\n    /* \"#utility.yul\":2796:2814   */\n  0x24\n  dup3\n  add\n    /* \"#utility.yul\":2789:2819   */\n  mstore\n    /* \"#utility.yul\":2855:2885   */\n  0x5468726573686f6c64206d757374206265206174206c65617374203100000000\n    /* \"#utility.yul\":2835:2853   */\n  0x44\n  dup3\n  add\n    /* \"#utility.yul\":2828:2886   */\n  mstore\n    /* \"#utility.yul\":2903:2921   */\n  0x64\n  add\n    /* \"contracts/ParamRegistry.sol\":1479:1527  require(_t >= 1, \"Threshold must be at least 1\") */\n  tag_7\n    /* \"#utility.yul\":2575:2927   */\n  jump\n    /* \"contracts/ParamRegistry.sol\":1479:1527  require(_t >= 1, \"Threshold must be at least 1\") */\ntag_12:\n    /* \"contracts/ParamRegistry.sol\":1548:1564  pkCA_x = _pkCA_x */\n  0x80\n  dup6\n  swap1\n  mstore\n    /* \"contracts/ParamRegistry.sol\":1575:1591  pkCA_y = _pkCA_y */\n  0xa0\n  dup5\n  swap1\n  mstore\n    /* \"contracts/ParamRegistry.sol\":1602:1617  thresholdT = _t */\n  0xff\n  dup1\n  dup5\n  and\n  0xc0\n  mstore\n    /* \"contracts/ParamRegistry.sol\":1628:1644  totalNodesN = _n */\n  dup3\n  and\n  0xe0\n  mstore\n    /* \"contracts/ParamRegistry.sol\":1655:1663  hashSpec */\n  0x00\n    /* \"contracts/ParamRegistry.sol\":1655:1675  hashSpec = _hashSpec */\n  tag_15\n    /* \"contracts/ParamRegistry.sol\":1666:1675  _hashSpec */\n  dup3\n    /* \"contracts/ParamRegistry.sol\":1655:1663  hashSpec */\n  dup3\n    /* \"contracts/ParamRegistry.sol\":1655:1675  hashSpec = _hashSpec */\n  tag_16\n  jump\t// in\ntag_15:\n  pop\n    /* \"contracts/ParamRegistry.sol\":1726:1733  _pkCA_y */\n  dup4\n    /* \"contracts/ParamRegistry.sol\":1717:1724  _pkCA_x */\n  dup6\n    /* \"contracts/ParamRegistry.sol\":1701:1753  ParamsPublished(_pkCA_x, _pkCA_y, _t, _n, _hashSpec) */\n  0x08fdbaba07f64824f5fc29307100a0987b93dc03bfbc2087f3b90b6d867bd078\n    /* \"contracts/ParamRegistry.sol\":1735:1737  _t */\n  dup6\n    /* \"contracts/ParamRegistry.sol\":1739:1741  _n */\n  dup6\n    /* \"contracts/ParamRegistry.sol\":1743:1752  _hashSpec */\n  dup6\n    /* \"contracts/ParamRegistry.sol\":1701:1753  ParamsPublished(_pkCA_x, _pkCA_y, _t, _n, _hashSpec) */\n  mload(0x40)\n  tag_17\n  swap4\n  swap3\n  swap2\n  swap1\n  tag_18\n  jump\t// in\ntag_17:\n  mload(0x40)\n  dup1\n  swap2\n  sub\n  swap1\n  log3\n    /* \"contracts/ParamRegistry.sol\":1180:1761  constructor(... */\n  pop\n  pop\n  pop\n  pop\n  pop\n    /* \"contracts/ParamRegistry.sol\":240:2824  contract ParamRegistry {... */\n  jump(tag_27)\n    /* \"#utility.yul\":14:174   */\ntag_20:\n    /* \"#utility.yul\":91:104   */\n  dup1\n  mload\n    /* \"#utility.yul\":144:148   */\n  0xff\n    /* \"#utility.yul\":133:149   */\n  dup2\n  and\n    /* \"#utility.yul\":123:150   */\n  dup2\n  eq\n    /* \"#utility.yul\":113:168   */\n  tag_29\n  jumpi\n    /* \"#utility.yul\":164:165   */\n  0x00\n    /* \"#utility.yul\":161:162   */\n  dup1\n    /* \"#utility.yul\":154:166   */\n  revert\n    /* \"#utility.yul\":113:168   */\ntag_29:\n    /* \"#utility.yul\":14:174   */\n  swap2\n  swap1\n  pop\n  jump\t// out\n    /* \"#utility.yul\":179:306   */\ntag_21:\n    /* \"#utility.yul\":240:250   */\n  0x4e487b71\n    /* \"#utility.yul\":235:238   */\n  0xe0\n    /* \"#utility.yul\":231:251   */\n  shl\n    /* \"#utility.yul\":228:229   */\n  0x00\n    /* \"#utility.yul\":221:252   */\n  mstore\n    /* \"#utility.yul\":271:275   */\n  0x41\n    /* \"#utility.yul\":268:269   */\n  0x04\n    /* \"#utility.yul\":261:276   */\n  mstore\n    /* \"#utility.yul\":295:299   */\n  0x24\n    /* \"#utility.yul\":292:293   */\n  0x00\n    /* \"#utility.yul\":285:300   */\n  revert\n    /* \"#utility.yul\":311:561   */\ntag_22:\n    /* \"#utility.yul\":396:397   */\n  0x00\n    /* \"#utility.yul\":406:519   */\ntag_32:\n    /* \"#utility.yul\":420:426   */\n  dup4\n    /* \"#utility.yul\":417:418   */\n  dup2\n    /* \"#utility.yul\":414:427   */\n  lt\n    /* \"#utility.yul\":406:519   */\n  iszero\n  tag_34\n  jumpi\n    /* \"#utility.yul\":496:507   */\n  dup2\n  dup2\n  add\n    /* \"#utility.yul\":490:508   */\n  mload\n    /* \"#utility.yul\":477:488   */\n  dup4\n  dup3\n  add\n    /* \"#utility.yul\":470:509   */\n  mstore\n    /* \"#utility.yul\":442:444   */\n  0x20\n    /* \"#utility.yul\":435:445   */\n  add\n    /* \"#utility.yul\":406:519   */\n  jump(tag_32)\ntag_34:\n  pop\n  pop\n    /* \"#utility.yul\":553:554   */\n  0x00\n    /* \"#utility.yul\":535:551   */\n  swap2\n  add\n    /* \"#utility.yul\":528:555   */\n  mstore\n    /* \"#utility.yul\":311:561   */\n  jump\t// out\n    /* \"#utility.yul\":566:1749   */\ntag_3:\n    /* \"#utility.yul\":678:684   */\n  0x00\n    /* \"#utility.yul\":686:692   */\n  dup1\n    /* \"#utility.yul\":694:700   */\n  0x00\n    /* \"#utility.yul\":702:708   */\n  dup1\n    /* \"#utility.yul\":710:716   */\n  0x00\n    /* \"#utility.yul\":763:766   */\n  0xa0\n    /* \"#utility.yul\":751:760   */\n  dup7\n    /* \"#utility.yul\":742:749   */\n  dup9\n    /* \"#utility.yul\":738:761   */\n  sub\n    /* \"#utility.yul\":734:767   */\n  slt\n    /* \"#utility.yul\":731:784   */\n  iszero\n  tag_36\n  jumpi\n    /* \"#utility.yul\":780:781   */\n  0x00\n    /* \"#utility.yul\":777:778   */\n  dup1\n    /* \"#utility.yul\":770:782   */\n  revert\n    /* \"#utility.yul\":731:784   */\ntag_36:\n    /* \"#utility.yul\":809:818   */\n  dup6\n    /* \"#utility.yul\":803:819   */\n  mload\n    /* \"#utility.yul\":793:819   */\n  swap5\n  pop\n    /* \"#utility.yul\":859:861   */\n  0x20\n    /* \"#utility.yul\":848:857   */\n  dup7\n    /* \"#utility.yul\":844:862   */\n  add\n    /* \"#utility.yul\":838:863   */\n  mload\n    /* \"#utility.yul\":828:863   */\n  swap4\n  pop\n    /* \"#utility.yul\":882:929   */\n  tag_37\n    /* \"#utility.yul\":925:927   */\n  0x40\n    /* \"#utility.yul\":914:923   */\n  dup8\n    /* \"#utility.yul\":910:928   */\n  add\n    /* \"#utility.yul\":882:929   */\n  tag_20\n  jump\t// in\ntag_37:\n    /* \"#utility.yul\":872:929   */\n  swap3\n  pop\n    /* \"#utility.yul\":948:995   */\n  tag_38\n    /* \"#utility.yul\":991:993   */\n  0x60\n    /* \"#utility.yul\":980:989   */\n  dup8\n    /* \"#utility.yul\":976:994   */\n  add\n    /* \"#utility.yul\":948:995   */\n  tag_20\n  jump\t// in\ntag_38:\n    /* \"#utility.yul\":1039:1042   */\n  0x80\n    /* \"#utility.yul\":1024:1043   */\n  dup8\n  add\n    /* \"#utility.yul\":1018:1044   */\n  mload\n    /* \"#utility.yul\":938:995   */\n  swap1\n  swap3\n  pop\n  sub(shl(0x40, 0x01), 0x01)\n    /* \"#utility.yul\":1093:1107   */\n  dup1\n  dup3\n  gt\n    /* \"#utility.yul\":1090:1124   */\n  iszero\n  tag_39\n  jumpi\n    /* \"#utility.yul\":1120:1121   */\n  0x00\n    /* \"#utility.yul\":1117:1118   */\n  dup1\n    /* \"#utility.yul\":1110:1122   */\n  revert\n    /* \"#utility.yul\":1090:1124   */\ntag_39:\n    /* \"#utility.yul\":1158:1164   */\n  dup2\n    /* \"#utility.yul\":1147:1156   */\n  dup9\n    /* \"#utility.yul\":1143:1165   */\n  add\n    /* \"#utility.yul\":1133:1165   */\n  swap2\n  pop\n    /* \"#utility.yul\":1203:1210   */\n  dup9\n    /* \"#utility.yul\":1196:1200   */\n  0x1f\n    /* \"#utility.yul\":1192:1194   */\n  dup4\n    /* \"#utility.yul\":1188:1201   */\n  add\n    /* \"#utility.yul\":1184:1211   */\n  slt\n    /* \"#utility.yul\":1174:1229   */\n  tag_40\n  jumpi\n    /* \"#utility.yul\":1225:1226   */\n  0x00\n    /* \"#utility.yul\":1222:1223   */\n  dup1\n    /* \"#utility.yul\":1215:1227   */\n  revert\n    /* \"#utility.yul\":1174:1229   */\ntag_40:\n    /* \"#utility.yul\":1254:1256   */\n  dup2\n    /* \"#utility.yul\":1248:1257   */\n  mload\n    /* \"#utility.yul\":1276:1278   */\n  dup2\n    /* \"#utility.yul\":1272:1274   */\n  dup2\n    /* \"#utility.yul\":1269:1279   */\n  gt\n    /* \"#utility.yul\":1266:1302   */\n  iszero\n  tag_42\n  jumpi\n    /* \"#utility.yul\":1282:1300   */\n  tag_42\n  tag_21\n  jump\t// in\ntag_42:\n    /* \"#utility.yul\":1357:1359   */\n  0x40\n    /* \"#utility.yul\":1351:1360   */\n  mload\n    /* \"#utility.yul\":1325:1327   */\n  0x1f\n    /* \"#utility.yul\":1411:1424   */\n  dup3\n  add\n  not(0x1f)\n    /* \"#utility.yul\":1407:1429   */\n  swap1\n  dup2\n  and\n    /* \"#utility.yul\":1431:1433   */\n  0x3f\n    /* \"#utility.yul\":1403:1434   */\n  add\n    /* \"#utility.yul\":1399:1439   */\n  and\n    /* \"#utility.yul\":1387:1440   */\n  dup2\n  add\n  swap1\n    /* \"#utility.yul\":1455:1473   */\n  dup4\n  dup3\n  gt\n    /* \"#utility.yul\":1475:1497   */\n  dup2\n  dup4\n  lt\n    /* \"#utility.yul\":1452:1498   */\n  or\n    /* \"#utility.yul\":1449:1521   */\n  iszero\n  tag_44\n  jumpi\n    /* \"#utility.yul\":1501:1519   */\n  tag_44\n  tag_21\n  jump\t// in\ntag_44:\n    /* \"#utility.yul\":1541:1551   */\n  dup2\n    /* \"#utility.yul\":1537:1539   */\n  0x40\n    /* \"#utility.yul\":1530:1552   */\n  mstore\n    /* \"#utility.yul\":1576:1578   */\n  dup3\n    /* \"#utility.yul\":1568:1574   */\n  dup2\n    /* \"#utility.yul\":1561:1579   */\n  mstore\n    /* \"#utility.yul\":1616:1623   */\n  dup12\n    /* \"#utility.yul\":1611:1613   */\n  0x20\n    /* \"#utility.yul\":1606:1608   */\n  dup5\n    /* \"#utility.yul\":1602:1604   */\n  dup8\n    /* \"#utility.yul\":1598:1609   */\n  add\n    /* \"#utility.yul\":1594:1614   */\n  add\n    /* \"#utility.yul\":1591:1624   */\n  gt\n    /* \"#utility.yul\":1588:1641   */\n  iszero\n  tag_45\n  jumpi\n    /* \"#utility.yul\":1637:1638   */\n  0x00\n    /* \"#utility.yul\":1634:1635   */\n  dup1\n    /* \"#utility.yul\":1627:1639   */\n  revert\n    /* \"#utility.yul\":1588:1641   */\ntag_45:\n    /* \"#utility.yul\":1650:1718   */\n  tag_46\n    /* \"#utility.yul\":1715:1717   */\n  dup4\n    /* \"#utility.yul\":1710:1712   */\n  0x20\n    /* \"#utility.yul\":1702:1708   */\n  dup4\n    /* \"#utility.yul\":1698:1713   */\n  add\n    /* \"#utility.yul\":1693:1695   */\n  0x20\n    /* \"#utility.yul\":1689:1691   */\n  dup9\n    /* \"#utility.yul\":1685:1696   */\n  add\n    /* \"#utility.yul\":1650:1718   */\n  tag_22\n  jump\t// in\ntag_46:\n    /* \"#utility.yul\":1737:1743   */\n  dup1\n    /* \"#utility.yul\":1727:1743   */\n  swap6\n  pop\n  pop\n  pop\n  pop\n  pop\n  pop\n    /* \"#utility.yul\":566:1749   */\n  swap3\n  swap6\n  pop\n  swap3\n  swap6\n  swap1\n  swap4\n  pop\n  jump\t// out\n    /* \"#utility.yul\":2932:3312   */\ntag_23:\n    /* \"#utility.yul\":3011:3012   */\n  0x01\n    /* \"#utility.yul\":3007:3019   */\n  dup2\n  dup2\n  shr\n  swap1\n    /* \"#utility.yul\":3054:3066   */\n  dup3\n  and\n  dup1\n    /* \"#utility.yul\":3075:3136   */\n  tag_51\n  jumpi\n    /* \"#utility.yul\":3129:3133   */\n  0x7f\n    /* \"#utility.yul\":3121:3127   */\n  dup3\n    /* \"#utility.yul\":3117:3134   */\n  and\n    /* \"#utility.yul\":3107:3134   */\n  swap2\n  pop\n    /* \"#utility.yul\":3075:3136   */\ntag_51:\n    /* \"#utility.yul\":3182:3184   */\n  0x20\n    /* \"#utility.yul\":3174:3180   */\n  dup3\n    /* \"#utility.yul\":3171:3185   */\n  lt\n    /* \"#utility.yul\":3151:3169   */\n  dup2\n    /* \"#utility.yul\":3148:3186   */\n  sub\n    /* \"#utility.yul\":3145:3306   */\n  tag_52\n  jumpi\n    /* \"#utility.yul\":3228:3238   */\n  0x4e487b71\n    /* \"#utility.yul\":3223:3226   */\n  0xe0\n    /* \"#utility.yul\":3219:3239   */\n  shl\n    /* \"#utility.yul\":3216:3217   */\n  0x00\n    /* \"#utility.yul\":3209:3240   */\n  mstore\n    /* \"#utility.yul\":3263:3267   */\n  0x22\n    /* \"#utility.yul\":3260:3261   */\n  0x04\n    /* \"#utility.yul\":3253:3268   */\n  mstore\n    /* \"#utility.yul\":3291:3295   */\n  0x24\n    /* \"#utility.yul\":3288:3289   */\n  0x00\n    /* \"#utility.yul\":3281:3296   */\n  revert\n    /* \"#utility.yul\":3145:3306   */\ntag_52:\n  pop\n    /* \"#utility.yul\":2932:3312   */\n  swap2\n  swap1\n  pop\n  jump\t// out\n    /* \"#utility.yul\":3443:3988   */\ntag_25:\n    /* \"#utility.yul\":3545:3547   */\n  0x1f\n    /* \"#utility.yul\":3540:3543   */\n  dup3\n    /* \"#utility.yul\":3537:3548   */\n  gt\n    /* \"#utility.yul\":3534:3982   */\n  iszero\n  tag_55\n  jumpi\n    /* \"#utility.yul\":3581:3582   */\n  0x00\n    /* \"#utility.yul\":3606:3611   */\n  dup2\n    /* \"#utility.yul\":3602:3604   */\n  dup2\n    /* \"#utility.yul\":3595:3612   */\n  mstore\n    /* \"#utility.yul\":3651:3655   */\n  0x20\n    /* \"#utility.yul\":3647:3649   */\n  dup2\n    /* \"#utility.yul\":3637:3656   */\n  keccak256\n    /* \"#utility.yul\":3721:3723   */\n  0x1f\n    /* \"#utility.yul\":3709:3719   */\n  dup6\n    /* \"#utility.yul\":3705:3724   */\n  add\n    /* \"#utility.yul\":3702:3703   */\n  0x05\n    /* \"#utility.yul\":3698:3725   */\n  shr\n    /* \"#utility.yul\":3692:3696   */\n  dup2\n    /* \"#utility.yul\":3688:3726   */\n  add\n    /* \"#utility.yul\":3757:3761   */\n  0x20\n    /* \"#utility.yul\":3745:3755   */\n  dup7\n    /* \"#utility.yul\":3742:3762   */\n  lt\n    /* \"#utility.yul\":3739:3786   */\n  iszero\n  tag_56\n  jumpi\n  pop\n    /* \"#utility.yul\":3780:3784   */\n  dup1\n    /* \"#utility.yul\":3739:3786   */\ntag_56:\n    /* \"#utility.yul\":3835:3837   */\n  0x1f\n    /* \"#utility.yul\":3830:3833   */\n  dup6\n    /* \"#utility.yul\":3826:3838   */\n  add\n    /* \"#utility.yul\":3823:3824   */\n  0x05\n    /* \"#utility.yul\":3819:3839   */\n  shr\n    /* \"#utility.yul\":3813:3817   */\n  dup3\n    /* \"#utility.yul\":3809:3840   */\n  add\n    /* \"#utility.yul\":3799:3840   */\n  swap2\n  pop\n    /* \"#utility.yul\":3890:3972   */\ntag_57:\n    /* \"#utility.yul\":3908:3910   */\n  dup2\n    /* \"#utility.yul\":3901:3906   */\n  dup2\n    /* \"#utility.yul\":3898:3911   */\n  lt\n    /* \"#utility.yul\":3890:3972   */\n  iszero\n  tag_59\n  jumpi\n    /* \"#utility.yul\":3953:3970   */\n  dup3\n  dup2\n  sstore\n    /* \"#utility.yul\":3934:3935   */\n  0x01\n    /* \"#utility.yul\":3923:3936   */\n  add\n    /* \"#utility.yul\":3890:3972   */\n  jump(tag_57)\ntag_59:\n    /* \"#utility.yul\":3894:3897   */\n  pop\n  pop\n  pop\n    /* \"#utility.yul\":3534:3982   */\ntag_55:\n    /* \"#utility.yul\":3443:3988   */\n  pop\n  pop\n  pop\n  jump\t// out\n    /* \"#utility.yul\":4164:5516   */\ntag_16:\n    /* \"#utility.yul\":4284:4294   */\n  dup2\n  mload\n  sub(shl(0x40, 0x01), 0x01)\n    /* \"#utility.yul\":4306:4336   */\n  dup2\n  gt\n    /* \"#utility.yul\":4303:4359   */\n  iszero\n  tag_63\n  jumpi\n    /* \"#utility.yul\":4339:4357   */\n  tag_63\n  tag_21\n  jump\t// in\ntag_63:\n    /* \"#utility.yul\":4368:4465   */\n  tag_64\n    /* \"#utility.yul\":4458:4464   */\n  dup2\n    /* \"#utility.yul\":4418:4456   */\n  tag_65\n    /* \"#utility.yul\":4450:4454   */\n  dup5\n    /* \"#utility.yul\":4444:4455   */\n  sload\n    /* \"#utility.yul\":4418:4456   */\n  tag_23\n  jump\t// in\ntag_65:\n    /* \"#utility.yul\":4412:4416   */\n  dup5\n    /* \"#utility.yul\":4368:4465   */\n  tag_25\n  jump\t// in\ntag_64:\n    /* \"#utility.yul\":4520:4524   */\n  0x20\n  dup1\n    /* \"#utility.yul\":4584:4586   */\n  0x1f\n    /* \"#utility.yul\":4573:4587   */\n  dup4\n  gt\n    /* \"#utility.yul\":4601:4602   */\n  0x01\n    /* \"#utility.yul\":4596:5259   */\n  dup2\n  eq\n  tag_67\n  jumpi\n    /* \"#utility.yul\":5303:5304   */\n  0x00\n    /* \"#utility.yul\":5320:5326   */\n  dup5\n    /* \"#utility.yul\":5317:5406   */\n  iszero\n  tag_68\n  jumpi\n  pop\n    /* \"#utility.yul\":5372:5391   */\n  dup6\n  dup4\n  add\n    /* \"#utility.yul\":5366:5392   */\n  mload\n    /* \"#utility.yul\":5317:5406   */\ntag_68:\n  not(0x00)\n    /* \"#utility.yul\":4121:4122   */\n  0x03\n    /* \"#utility.yul\":4117:4128   */\n  dup7\n  swap1\n  shl\n    /* \"#utility.yul\":4113:4137   */\n  shr\n    /* \"#utility.yul\":4109:4138   */\n  not\n    /* \"#utility.yul\":4099:4139   */\n  and\n    /* \"#utility.yul\":4145:4146   */\n  0x01\n    /* \"#utility.yul\":4141:4152   */\n  dup6\n  swap1\n  shl\n    /* \"#utility.yul\":4096:4153   */\n  or\n    /* \"#utility.yul\":5419:5500   */\n  dup6\n  sstore\n    /* \"#utility.yul\":4566:5510   */\n  jump(tag_59)\n    /* \"#utility.yul\":4596:5259   */\ntag_67:\n    /* \"#utility.yul\":3390:3391   */\n  0x00\n    /* \"#utility.yul\":3383:3397   */\n  dup6\n  dup2\n  mstore\n    /* \"#utility.yul\":3427:3431   */\n  0x20\n    /* \"#utility.yul\":3414:3432   */\n  dup2\n  keccak256\n  not(0x1f)\n    /* \"#utility.yul\":4632:4652   */\n  dup7\n  and\n  swap2\n    /* \"#utility.yul\":4750:4986   */\ntag_71:\n    /* \"#utility.yul\":4764:4771   */\n  dup3\n    /* \"#utility.yul\":4761:4762   */\n  dup2\n    /* \"#utility.yul\":4758:4772   */\n  lt\n    /* \"#utility.yul\":4750:4986   */\n  iszero\n  tag_73\n  jumpi\n    /* \"#utility.yul\":4853:4872   */\n  dup9\n  dup7\n  add\n    /* \"#utility.yul\":4847:4873   */\n  mload\n    /* \"#utility.yul\":4832:4874   */\n  dup3\n  sstore\n    /* \"#utility.yul\":4945:4972   */\n  swap5\n  dup5\n  add\n  swap5\n    /* \"#utility.yul\":4913:4914   */\n  0x01\n    /* \"#utility.yul\":4901:4915   */\n  swap1\n  swap2\n  add\n  swap1\n    /* \"#utility.yul\":4780:4799   */\n  dup5\n  add\n    /* \"#utility.yul\":4750:4986   */\n  jump(tag_71)\ntag_73:\n    /* \"#utility.yul\":4754:4757   */\n  pop\n    /* \"#utility.yul\":5014:5020   */\n  dup6\n    /* \"#utility.yul\":5005:5012   */\n  dup3\n    /* \"#utility.yul\":5002:5021   */\n  lt\n    /* \"#utility.yul\":4999:5200   */\n  iszero\n  tag_74\n  jumpi\n    /* \"#utility.yul\":5075:5094   */\n  dup8\n  dup6\n  add\n    /* \"#utility.yul\":5069:5095   */\n  mload\n  not(0x00)\n    /* \"#utility.yul\":5158:5159   */\n  0x03\n    /* \"#utility.yul\":5154:5168   */\n  dup9\n  swap1\n  shl\n    /* \"#utility.yul\":5170:5173   */\n  0xf8\n    /* \"#utility.yul\":5150:5174   */\n  and\n    /* \"#utility.yul\":5146:5183   */\n  shr\n    /* \"#utility.yul\":5142:5184   */\n  not\n    /* \"#utility.yul\":5127:5185   */\n  and\n    /* \"#utility.yul\":5112:5186   */\n  dup2\n  sstore\n    /* \"#utility.yul\":4999:5200   */\ntag_74:\n  pop\n  pop\n  pop\n  pop\n  pop\n    /* \"#utility.yul\":5246:5247   */\n  0x01\n    /* \"#utility.yul\":5230:5244   */\n  swap1\n  dup2\n  shl\n    /* \"#utility.yul\":5226:5248   */\n  add\n    /* \"#utility.yul\":5213:5249   */\n  swap1\n  sstore\n  pop\n    /* \"#utility.yul\":4164:5516   */\n  jump\t// out\n    /* \"#utility.yul\":5521:6075   */\ntag_18:\n    /* \"#utility.yul\":5730:5734   */\n  0xff\n    /* \"#utility.yul\":5722:5728   */\n  dup5\n    /* \"#utility.yul\":5718:5735   */\n  and\n    /* \"#utility.yul\":5707:5716   */\n  dup2\n    /* \"#utility.yul\":5700:5736   */\n  mstore\n    /* \"#utility.yul\":5784:5788   */\n  0xff\n    /* \"#utility.yul\":5776:5782   */\n  dup4\n    /* \"#utility.yul\":5772:5789   */\n  and\n    /* \"#utility.yul\":5767:5769   */\n  0x20\n    /* \"#utility.yul\":5756:5765   */\n  dup3\n    /* \"#utility.yul\":5752:5770   */\n  add\n    /* \"#utility.yul\":5745:5790   */\n  mstore\n    /* \"#utility.yul\":5826:5828   */\n  0x60\n    /* \"#utility.yul\":5821:5823   */\n  0x40\n    /* \"#utility.yul\":5810:5819   */\n  dup3\n    /* \"#utility.yul\":5806:5824   */\n  add\n    /* \"#utility.yul\":5799:5829   */\n  mstore\n    /* \"#utility.yul\":5681:5685   */\n  0x00\n    /* \"#utility.yul\":5858:5864   */\n  dup3\n    /* \"#utility.yul\":5852:5865   */\n  mload\n    /* \"#utility.yul\":5901:5907   */\n  dup1\n    /* \"#utility.yul\":5896:5898   */\n  0x60\n    /* \"#utility.yul\":5885:5894   */\n  dup5\n    /* \"#utility.yul\":5881:5899   */\n  add\n    /* \"#utility.yul\":5874:5908   */\n  mstore\n    /* \"#utility.yul\":5917:5997   */\n  tag_76\n    /* \"#utility.yul\":5990:5996   */\n  dup2\n    /* \"#utility.yul\":5984:5987   */\n  0x80\n    /* \"#utility.yul\":5973:5982   */\n  dup6\n    /* \"#utility.yul\":5969:5988   */\n  add\n    /* \"#utility.yul\":5964:5966   */\n  0x20\n    /* \"#utility.yul\":5956:5962   */\n  dup8\n    /* \"#utility.yul\":5952:5967   */\n  add\n    /* \"#utility.yul\":5917:5997   */\n  tag_22\n  jump\t// in\ntag_76:\n    /* \"#utility.yul\":6058:6060   */\n  0x1f\n    /* \"#utility.yul\":6037:6052   */\n  add\n  not(0x1f)\n    /* \"#utility.yul\":6033:6062   */\n  and\n    /* \"#utility.yul\":6018:6063   */\n  swap2\n  swap1\n  swap2\n  add\n    /* \"#utility.yul\":6065:6068   */\n  0x80\n    /* \"#utility.yul\":6014:6069   */\n  add\n  swap5\n    /* \"#utility.yul\":5521:6075   */\n  swap4\n  pop\n  pop\n  pop\n  pop\n  jump\t// out\ntag_27:\n    /* \"contracts/ParamRegistry.sol\":240:2824  contract ParamRegistry {... */\n  mload(0x80)\n  mload(0xa0)\n  mload(0xc0)\n  mload(0xe0)\n  codecopy(0x00, dataOffset(sub_0), dataSize(sub_0))\n  0x00\n  assignImmutable(\"0x1a192fabce13988b84994d4296e6cdc418d55e2f1d7f942188d4040b94fc57ac\")\n  0x00\n  assignImmutable(\"0xe4b1702d9298fee62dfeccc57d322a463ad55ca201256d01f62b45b2e1c21c10\")\n  0x00\n  assignImmutable(\"0xe455bf8ea6e7463a1046a0b52804526e119b4bf5136279614e0b1e8e296a4e2d\")\n  0x00\n  assignImmutable(\"0x13600b294191fc92924bb3ce4b969c1e7e2bab8f4c93c3fc6d0a51733df3c060\")\n  return(0x00, dataSize(sub_0))\nstop\n\nsub_0: assembly {\n        /* \"contracts/ParamRegistry.sol\":240:2824  contract ParamRegistry {... */\n      mstore(0x40, 0x80)\n      callvalue\n      dup1\n      iszero\n      tag_1\n      jumpi\n      0x00\n      dup1\n      revert\n    tag_1:\n      pop\n      jumpi(tag_2, lt(calldatasize, 0x04))\n      shr(0xe0, calldataload(0x00))\n      dup1\n      0x76f64fca\n      gt\n      tag_12\n      jumpi\n      dup1\n      0x76f64fca\n      eq\n      tag_7\n      jumpi\n      dup1\n      0xa170052e\n      eq\n      tag_8\n      jumpi\n      dup1\n      0xacae9fee\n      eq\n      tag_9\n      jumpi\n      dup1\n      0xb71302ce\n      eq\n      tag_10\n      jumpi\n      dup1\n      0xdb82bf1b\n      eq\n      tag_11\n      jumpi\n      0x00\n      dup1\n      revert\n    tag_12:\n      dup1\n      0x046515a7\n      eq\n      tag_3\n      jumpi\n      dup1\n      0x08ba798a\n      eq\n      tag_4\n      jumpi\n      dup1\n      0x2e334452\n      eq\n      tag_5\n      jumpi\n      dup1\n      0x3cb0fc7d\n      eq\n      tag_6\n      jumpi\n    tag_2:\n      0x00\n      dup1\n      revert\n        /* \"contracts/ParamRegistry.sol\":2374:2496  function getThresholdConfig() external view returns (uint8 t, uint8 n) {... */\n    tag_3:\n      0x40\n      dup1\n      mload\n        /* \"#utility.yul\":210:214   */\n      0xff\n        /* \"contracts/ParamRegistry.sol\":2464:2474  thresholdT */\n      immutable(\"0xe4b1702d9298fee62dfeccc57d322a463ad55ca201256d01f62b45b2e1c21c10\")\n        /* \"#utility.yul\":198:215   */\n      dup2\n      and\n        /* \"#utility.yul\":180:216   */\n      dup3\n      mstore\n        /* \"contracts/ParamRegistry.sol\":2476:2487  totalNodesN */\n      immutable(\"0x1a192fabce13988b84994d4296e6cdc418d55e2f1d7f942188d4040b94fc57ac\")\n        /* \"#utility.yul\":252:269   */\n      and\n        /* \"#utility.yul\":247:249   */\n      0x20\n        /* \"#utility.yul\":232:250   */\n      dup3\n      add\n        /* \"#utility.yul\":225:270   */\n      mstore\n        /* \"#utility.yul\":153:171   */\n      add\n        /* \"contracts/ParamRegistry.sol\":2374:2496  function getThresholdConfig() external view returns (uint8 t, uint8 n) {... */\n    tag_15:\n      mload(0x40)\n      dup1\n      swap2\n      sub\n      swap1\n      return\n        /* \"contracts/ParamRegistry.sol\":507:541  uint8 public immutable totalNodesN */\n    tag_4:\n      tag_17\n      immutable(\"0x1a192fabce13988b84994d4296e6cdc418d55e2f1d7f942188d4040b94fc57ac\")\n      dup2\n      jump\n    tag_17:\n      mload(0x40)\n        /* \"#utility.yul\":453:457   */\n      0xff\n        /* \"#utility.yul\":441:458   */\n      swap1\n      swap2\n      and\n        /* \"#utility.yul\":423:459   */\n      dup2\n      mstore\n        /* \"#utility.yul\":411:413   */\n      0x20\n        /* \"#utility.yul\":396:414   */\n      add\n        /* \"contracts/ParamRegistry.sol\":507:541  uint8 public immutable totalNodesN */\n      tag_15\n        /* \"#utility.yul\":281:465   */\n      jump\n        /* \"contracts/ParamRegistry.sol\":1888:1995  function getPublicKey() external view returns (bytes32, bytes32) {... */\n    tag_5:\n      0x40\n      dup1\n      mload\n        /* \"contracts/ParamRegistry.sol\":1972:1978  pkCA_x */\n      immutable(\"0x13600b294191fc92924bb3ce4b969c1e7e2bab8f4c93c3fc6d0a51733df3c060\")\n        /* \"#utility.yul\":644:669   */\n      dup2\n      mstore\n        /* \"contracts/ParamRegistry.sol\":1980:1986  pkCA_y */\n      immutable(\"0xe455bf8ea6e7463a1046a0b52804526e119b4bf5136279614e0b1e8e296a4e2d\")\n        /* \"#utility.yul\":700:702   */\n      0x20\n        /* \"#utility.yul\":685:703   */\n      dup3\n      add\n        /* \"#utility.yul\":678:712   */\n      mstore\n        /* \"#utility.yul\":617:635   */\n      add\n        /* \"contracts/ParamRegistry.sol\":1888:1995  function getPublicKey() external view returns (bytes32, bytes32) {... */\n      tag_15\n        /* \"#utility.yul\":470:718   */\n      jump\n        /* \"contracts/ParamRegistry.sol\":391:422  bytes32 public immutable pkCA_y */\n    tag_6:\n      tag_25\n      immutable(\"0xe455bf8ea6e7463a1046a0b52804526e119b4bf5136279614e0b1e8e296a4e2d\")\n      dup2\n      jump\n    tag_25:\n      mload(0x40)\n        /* \"#utility.yul\":869:894   */\n      swap1\n      dup2\n      mstore\n        /* \"#utility.yul\":857:859   */\n      0x20\n        /* \"#utility.yul\":842:860   */\n      add\n        /* \"contracts/ParamRegistry.sol\":391:422  bytes32 public immutable pkCA_y */\n      tag_15\n        /* \"#utility.yul\":723:900   */\n      jump\n        /* \"contracts/ParamRegistry.sol\":467:500  uint8 public immutable thresholdT */\n    tag_7:\n      tag_17\n      immutable(\"0xe4b1702d9298fee62dfeccc57d322a463ad55ca201256d01f62b45b2e1c21c10\")\n      dup2\n      jump\n        /* \"contracts/ParamRegistry.sol\":2585:2821  function getAllParams() external view returns (... */\n    tag_8:\n      tag_32\n      tag_33\n      jump\t// in\n    tag_32:\n      mload(0x40)\n      tag_15\n      swap6\n      swap5\n      swap4\n      swap3\n      swap2\n      swap1\n      tag_35\n      jump\t// in\n        /* \"contracts/ParamRegistry.sol\":2133:2257  function getPublicKeyBytes() external view returns (bytes memory) {... */\n    tag_9:\n      tag_36\n      tag_37\n      jump\t// in\n    tag_36:\n      mload(0x40)\n      tag_15\n      swap2\n      swap1\n      tag_39\n      jump\t// in\n        /* \"contracts/ParamRegistry.sol\":353:384  bytes32 public immutable pkCA_x */\n    tag_10:\n      tag_25\n      immutable(\"0x13600b294191fc92924bb3ce4b969c1e7e2bab8f4c93c3fc6d0a51733df3c060\")\n      dup2\n      jump\n        /* \"contracts/ParamRegistry.sol\":590:612  string public hashSpec */\n    tag_11:\n      tag_36\n      tag_44\n      jump\t// in\n        /* \"contracts/ParamRegistry.sol\":2585:2821  function getAllParams() external view returns (... */\n    tag_33:\n        /* \"contracts/ParamRegistry.sol\":2642:2651  bytes32 x */\n      0x00\n        /* \"contracts/ParamRegistry.sol\":2662:2671  bytes32 y */\n      dup1\n        /* \"contracts/ParamRegistry.sol\":2682:2689  uint8 t */\n      0x00\n        /* \"contracts/ParamRegistry.sol\":2700:2707  uint8 n */\n      dup1\n        /* \"contracts/ParamRegistry.sol\":2718:2736  string memory hash */\n      0x60\n        /* \"contracts/ParamRegistry.sol\":2763:2769  pkCA_x */\n      immutable(\"0x13600b294191fc92924bb3ce4b969c1e7e2bab8f4c93c3fc6d0a51733df3c060\")\n        /* \"contracts/ParamRegistry.sol\":2771:2777  pkCA_y */\n      immutable(\"0xe455bf8ea6e7463a1046a0b52804526e119b4bf5136279614e0b1e8e296a4e2d\")\n        /* \"contracts/ParamRegistry.sol\":2779:2789  thresholdT */\n      immutable(\"0xe4b1702d9298fee62dfeccc57d322a463ad55ca201256d01f62b45b2e1c21c10\")\n        /* \"contracts/ParamRegistry.sol\":2791:2802  totalNodesN */\n      immutable(\"0x1a192fabce13988b84994d4296e6cdc418d55e2f1d7f942188d4040b94fc57ac\")\n        /* \"contracts/ParamRegistry.sol\":2804:2812  hashSpec */\n      0x00\n        /* \"contracts/ParamRegistry.sol\":2755:2813  return (pkCA_x, pkCA_y, thresholdT, totalNodesN, hashSpec) */\n      dup1\n      dup1\n      sload\n      tag_50\n      swap1\n      tag_51\n      jump\t// in\n    tag_50:\n      dup1\n      0x1f\n      add\n      0x20\n      dup1\n      swap2\n      div\n      mul\n      0x20\n      add\n      mload(0x40)\n      swap1\n      dup2\n      add\n      0x40\n      mstore\n      dup1\n      swap3\n      swap2\n      swap1\n      dup2\n      dup2\n      mstore\n      0x20\n      add\n      dup3\n      dup1\n      sload\n      tag_52\n      swap1\n      tag_51\n      jump\t// in\n    tag_52:\n      dup1\n      iszero\n      tag_53\n      jumpi\n      dup1\n      0x1f\n      lt\n      tag_54\n      jumpi\n      0x0100\n      dup1\n      dup4\n      sload\n      div\n      mul\n      dup4\n      mstore\n      swap2\n      0x20\n      add\n      swap2\n      jump(tag_53)\n    tag_54:\n      dup3\n      add\n      swap2\n      swap1\n      0x00\n      mstore\n      keccak256(0x00, 0x20)\n      swap1\n    tag_55:\n      dup2\n      sload\n      dup2\n      mstore\n      swap1\n      0x01\n      add\n      swap1\n      0x20\n      add\n      dup1\n      dup4\n      gt\n      tag_55\n      jumpi\n      dup3\n      swap1\n      sub\n      0x1f\n      and\n      dup3\n      add\n      swap2\n    tag_53:\n      pop\n      pop\n      pop\n      pop\n      pop\n      swap1\n      pop\n      swap5\n      pop\n      swap5\n      pop\n      swap5\n      pop\n      swap5\n      pop\n      swap5\n      pop\n        /* \"contracts/ParamRegistry.sol\":2585:2821  function getAllParams() external view returns (... */\n      swap1\n      swap2\n      swap3\n      swap4\n      swap5\n      jump\t// out\n        /* \"contracts/ParamRegistry.sol\":2133:2257  function getPublicKeyBytes() external view returns (bytes memory) {... */\n    tag_37:\n        /* \"contracts/ParamRegistry.sol\":2185:2197  bytes memory */\n      0x60\n        /* \"contracts/ParamRegistry.sol\":2234:2240  pkCA_x */\n      immutable(\"0x13600b294191fc92924bb3ce4b969c1e7e2bab8f4c93c3fc6d0a51733df3c060\")\n        /* \"contracts/ParamRegistry.sol\":2242:2248  pkCA_y */\n      immutable(\"0xe455bf8ea6e7463a1046a0b52804526e119b4bf5136279614e0b1e8e296a4e2d\")\n        /* \"contracts/ParamRegistry.sol\":2217:2249  abi.encodePacked(pkCA_x, pkCA_y) */\n      add(0x20, mload(0x40))\n      tag_57\n      swap3\n      swap2\n      swap1\n        /* \"#utility.yul\":2849:2868   */\n      swap2\n      dup3\n      mstore\n        /* \"#utility.yul\":2893:2895   */\n      0x20\n        /* \"#utility.yul\":2884:2896   */\n      dup3\n      add\n        /* \"#utility.yul\":2877:2905   */\n      mstore\n        /* \"#utility.yul\":2930:2932   */\n      0x40\n        /* \"#utility.yul\":2921:2933   */\n      add\n      swap1\n        /* \"#utility.yul\":2692:2939   */\n      jump\n        /* \"contracts/ParamRegistry.sol\":2217:2249  abi.encodePacked(pkCA_x, pkCA_y) */\n    tag_57:\n      mload(0x40)\n      0x20\n      dup2\n      dup4\n      sub\n      sub\n      dup2\n      mstore\n      swap1\n      0x40\n      mstore\n        /* \"contracts/ParamRegistry.sol\":2210:2249  return abi.encodePacked(pkCA_x, pkCA_y) */\n      swap1\n      pop\n        /* \"contracts/ParamRegistry.sol\":2133:2257  function getPublicKeyBytes() external view returns (bytes memory) {... */\n      swap1\n      jump\t// out\n        /* \"contracts/ParamRegistry.sol\":590:612  string public hashSpec */\n    tag_44:\n      0x00\n      dup1\n      sload\n      tag_59\n      swap1\n      tag_51\n      jump\t// in\n    tag_59:\n      dup1\n      0x1f\n      add\n      0x20\n      dup1\n      swap2\n      div\n      mul\n      0x20\n      add\n      mload(0x40)\n      swap1\n      dup2\n      add\n      0x40\n      mstore\n      dup1\n      swap3\n      swap2\n      swap1\n      dup2\n      dup2\n      mstore\n      0x20\n      add\n      dup3\n      dup1\n      sload\n      tag_60\n      swap1\n      tag_51\n      jump\t// in\n    tag_60:\n      dup1\n      iszero\n      tag_61\n      jumpi\n      dup1\n      0x1f\n      lt\n      tag_62\n      jumpi\n      0x0100\n      dup1\n      dup4\n      sload\n      div\n      mul\n      dup4\n      mstore\n      swap2\n      0x20\n      add\n      swap2\n      jump(tag_61)\n    tag_62:\n      dup3\n      add\n      swap2\n      swap1\n      0x00\n      mstore\n      keccak256(0x00, 0x20)\n      swap1\n    tag_63:\n      dup2\n      sload\n      dup2\n      mstore\n      swap1\n      0x01\n      add\n      swap1\n      0x20\n      add\n      dup1\n      dup4\n      gt\n      tag_63\n      jumpi\n      dup3\n      swap1\n      sub\n      0x1f\n      and\n      dup3\n      add\n      swap2\n    tag_61:\n      pop\n      pop\n      pop\n      pop\n      pop\n      dup2\n      jump\t// out\n        /* \"#utility.yul\":905:1328   */\n    tag_64:\n        /* \"#utility.yul\":947:950   */\n      0x00\n        /* \"#utility.yul\":985:990   */\n      dup2\n        /* \"#utility.yul\":979:991   */\n      mload\n        /* \"#utility.yul\":1012:1018   */\n      dup1\n        /* \"#utility.yul\":1007:1010   */\n      dup5\n        /* \"#utility.yul\":1000:1019   */\n      mstore\n        /* \"#utility.yul\":1037:1038   */\n      0x00\n        /* \"#utility.yul\":1047:1209   */\n    tag_71:\n        /* \"#utility.yul\":1061:1067   */\n      dup2\n        /* \"#utility.yul\":1058:1059   */\n      dup2\n        /* \"#utility.yul\":1055:1068   */\n      lt\n        /* \"#utility.yul\":1047:1209   */\n      iszero\n      tag_73\n      jumpi\n        /* \"#utility.yul\":1123:1127   */\n      0x20\n        /* \"#utility.yul\":1179:1192   */\n      dup2\n      dup6\n      add\n        /* \"#utility.yul\":1175:1197   */\n      dup2\n      add\n        /* \"#utility.yul\":1169:1198   */\n      mload\n        /* \"#utility.yul\":1151:1162   */\n      dup7\n      dup4\n      add\n        /* \"#utility.yul\":1147:1167   */\n      dup3\n      add\n        /* \"#utility.yul\":1140:1199   */\n      mstore\n        /* \"#utility.yul\":1076:1088   */\n      add\n        /* \"#utility.yul\":1047:1209   */\n      jump(tag_71)\n    tag_73:\n        /* \"#utility.yul\":1051:1054   */\n      pop\n        /* \"#utility.yul\":1254:1255   */\n      0x00\n        /* \"#utility.yul\":1247:1251   */\n      0x20\n        /* \"#utility.yul\":1238:1244   */\n      dup3\n        /* \"#utility.yul\":1233:1236   */\n      dup7\n        /* \"#utility.yul\":1229:1245   */\n      add\n        /* \"#utility.yul\":1225:1252   */\n      add\n        /* \"#utility.yul\":1218:1256   */\n      mstore\n        /* \"#utility.yul\":1317:1321   */\n      0x20\n        /* \"#utility.yul\":1310:1312   */\n      0x1f\n        /* \"#utility.yul\":1306:1313   */\n      not\n        /* \"#utility.yul\":1301:1303   */\n      0x1f\n        /* \"#utility.yul\":1293:1299   */\n      dup4\n        /* \"#utility.yul\":1289:1304   */\n      add\n        /* \"#utility.yul\":1285:1314   */\n      and\n        /* \"#utility.yul\":1280:1283   */\n      dup6\n        /* \"#utility.yul\":1276:1315   */\n      add\n        /* \"#utility.yul\":1272:1322   */\n      add\n        /* \"#utility.yul\":1265:1322   */\n      swap2\n      pop\n      pop\n        /* \"#utility.yul\":905:1328   */\n      swap3\n      swap2\n      pop\n      pop\n      jump\t// out\n        /* \"#utility.yul\":1333:1854   */\n    tag_35:\n        /* \"#utility.yul\":1586:1592   */\n      dup6\n        /* \"#utility.yul\":1575:1584   */\n      dup2\n        /* \"#utility.yul\":1568:1593   */\n      mstore\n        /* \"#utility.yul\":1629:1635   */\n      dup5\n        /* \"#utility.yul\":1624:1626   */\n      0x20\n        /* \"#utility.yul\":1613:1622   */\n      dup3\n        /* \"#utility.yul\":1609:1627   */\n      add\n        /* \"#utility.yul\":1602:1636   */\n      mstore\n        /* \"#utility.yul\":1684:1688   */\n      0xff\n        /* \"#utility.yul\":1676:1682   */\n      dup5\n        /* \"#utility.yul\":1672:1689   */\n      and\n        /* \"#utility.yul\":1667:1669   */\n      0x40\n        /* \"#utility.yul\":1656:1665   */\n      dup3\n        /* \"#utility.yul\":1652:1670   */\n      add\n        /* \"#utility.yul\":1645:1690   */\n      mstore\n        /* \"#utility.yul\":1738:1742   */\n      0xff\n        /* \"#utility.yul\":1730:1736   */\n      dup4\n        /* \"#utility.yul\":1726:1743   */\n      and\n        /* \"#utility.yul\":1721:1723   */\n      0x60\n        /* \"#utility.yul\":1710:1719   */\n      dup3\n        /* \"#utility.yul\":1706:1724   */\n      add\n        /* \"#utility.yul\":1699:1744   */\n      mstore\n        /* \"#utility.yul\":1781:1784   */\n      0xa0\n        /* \"#utility.yul\":1775:1778   */\n      0x80\n        /* \"#utility.yul\":1764:1773   */\n      dup3\n        /* \"#utility.yul\":1760:1779   */\n      add\n        /* \"#utility.yul\":1753:1785   */\n      mstore\n        /* \"#utility.yul\":1549:1553   */\n      0x00\n        /* \"#utility.yul\":1802:1848   */\n      tag_75\n        /* \"#utility.yul\":1843:1846   */\n      0xa0\n        /* \"#utility.yul\":1832:1841   */\n      dup4\n        /* \"#utility.yul\":1828:1847   */\n      add\n        /* \"#utility.yul\":1820:1826   */\n      dup5\n        /* \"#utility.yul\":1802:1848   */\n      tag_64\n      jump\t// in\n    tag_75:\n        /* \"#utility.yul\":1794:1848   */\n      swap8\n        /* \"#utility.yul\":1333:1854   */\n      swap7\n      pop\n      pop\n      pop\n      pop\n      pop\n      pop\n      pop\n      jump\t// out\n        /* \"#utility.yul\":1859:2077   */\n    tag_39:\n        /* \"#utility.yul\":2006:2008   */\n      0x20\n        /* \"#utility.yul\":1995:2004   */\n      dup2\n        /* \"#utility.yul\":1988:2009   */\n      mstore\n        /* \"#utility.yul\":1969:1973   */\n      0x00\n        /* \"#utility.yul\":2026:2071   */\n      tag_77\n        /* \"#utility.yul\":2067:2069   */\n      0x20\n        /* \"#utility.yul\":2056:2065   */\n      dup4\n        /* \"#utility.yul\":2052:2070   */\n      add\n        /* \"#utility.yul\":2044:2050   */\n      dup5\n        /* \"#utility.yul\":2026:2071   */\n      tag_64\n      jump\t// in\n    tag_77:\n        /* \"#utility.yul\":2018:2071   */\n      swap4\n        /* \"#utility.yul\":1859:2077   */\n      swap3\n      pop\n      pop\n      pop\n      jump\t// out\n        /* \"#utility.yul\":2307:2687   */\n    tag_51:\n        /* \"#utility.yul\":2386:2387   */\n      0x01\n        /* \"#utility.yul\":2382:2394   */\n      dup2\n      dup2\n      shr\n      swap1\n        /* \"#utility.yul\":2429:2441   */\n      dup3\n      and\n      dup1\n        /* \"#utility.yul\":2450:2511   */\n      tag_81\n      jumpi\n        /* \"#utility.yul\":2504:2508   */\n      0x7f\n        /* \"#utility.yul\":2496:2502   */\n      dup3\n        /* \"#utility.yul\":2492:2509   */\n      and\n        /* \"#utility.yul\":2482:2509   */\n      swap2\n      pop\n        /* \"#utility.yul\":2450:2511   */\n    tag_81:\n        /* \"#utility.yul\":2557:2559   */\n      0x20\n        /* \"#utility.yul\":2549:2555   */\n      dup3\n        /* \"#utility.yul\":2546:2560   */\n      lt\n        /* \"#utility.yul\":2526:2544   */\n      dup2\n        /* \"#utility.yul\":2523:2561   */\n      sub\n        /* \"#utility.yul\":2520:2681   */\n      tag_82\n      jumpi\n        /* \"#utility.yul\":2603:2613   */\n      0x4e487b71\n        /* \"#utility.yul\":2598:2601   */\n      0xe0\n        /* \"#utility.yul\":2594:2614   */\n      shl\n        /* \"#utility.yul\":2591:2592   */\n      0x00\n        /* \"#utility.yul\":2584:2615   */\n      mstore\n        /* \"#utility.yul\":2638:2642   */\n      0x22\n        /* \"#utility.yul\":2635:2636   */\n      0x04\n        /* \"#utility.yul\":2628:2643   */\n      mstore\n        /* \"#utility.yul\":2666:2670   */\n      0x24\n        /* \"#utility.yul\":2663:2664   */\n      0x00\n        /* \"#utility.yul\":2656:2671   */\n      revert\n        /* \"#utility.yul\":2520:2681   */\n    tag_82:\n      pop\n        /* \"#utility.yul\":2307:2687   */\n      swap2\n      swap1\n      pop\n      jump\t// out\n\n    auxdata: 0xa2646970667358221220a7106ad02369c7c65eb88dff67e7f809a271e7b9eaafef6562179647032c156564736f6c63430008140033\n}\n",
				"bytecode": {
					"linkReferences": {},
					"object": "61010060405234801562000011575f80fd5b5060405162000a7b38038062000a7b83398101604081905262000034916200021d565b8160ff168360ff16106200009f5760405162461bcd60e51b815260206004820152602760248201527f5468726573686f6c64206d757374206265206c657373207468616e20746f74616044820152666c206e6f64657360c81b60648201526084015b60405180910390fd5b60038260ff1610156200010a5760405162461bcd60e51b815260206004820152602c60248201527f4d696e696d756d2033206e6f64657320726571756972656420666f722066617560448201526b6c7420746f6c6572616e636560a01b606482015260840162000096565b60018360ff161015620001605760405162461bcd60e51b815260206004820152601c60248201527f5468726573686f6c64206d757374206265206174206c65617374203100000000604482015260640162000096565b608085905260a084905260ff80841660c052821660e0525f62000184828262000396565b5083857f08fdbaba07f64824f5fc29307100a0987b93dc03bfbc2087f3b90b6d867bd078858585604051620001bc939291906200045e565b60405180910390a35050505050620004a6565b805160ff81168114620001e0575f80fd5b919050565b634e487b7160e01b5f52604160045260245ffd5b5f5b8381101562000215578181015183820152602001620001fb565b50505f910152565b5f805f805f60a0868803121562000232575f80fd5b85519450602086015193506200024b60408701620001cf565b92506200025b60608701620001cf565b60808701519092506001600160401b038082111562000278575f80fd5b818801915088601f8301126200028c575f80fd5b815181811115620002a157620002a1620001e5565b604051601f8201601f19908116603f01168101908382118183101715620002cc57620002cc620001e5565b816040528281528b6020848701011115620002e5575f80fd5b620002f8836020830160208801620001f9565b80955050505050509295509295909350565b600181811c908216806200031f57607f821691505b6020821081036200033e57634e487b7160e01b5f52602260045260245ffd5b50919050565b601f82111562000391575f81815260208120601f850160051c810160208610156200036c5750805b601f850160051c820191505b818110156200038d5782815560010162000378565b5050505b505050565b81516001600160401b03811115620003b257620003b2620001e5565b620003ca81620003c384546200030a565b8462000344565b602080601f83116001811462000400575f8415620003e85750858301515b5f19600386901b1c1916600185901b1785556200038d565b5f85815260208120601f198616915b8281101562000430578886015182559484019460019091019084016200040f565b50858210156200044e57878501515f19600388901b60f8161c191681555b5050505050600190811b01905550565b60ff8416815260ff83166020820152606060408201525f825180606084015262000490816080850160208701620001f9565b601f01601f191691909101608001949350505050565b60805160a05160c05160e05161055e6200051d5f395f818160c10152818160f601526102a101525f8181609c015281816101b7015261028001525f8181610153015281816101820152818161025f015261038101525f81816101300152818161020c0152818161023e0152610360015261055e5ff3fe608060405234801561000f575f80fd5b5060043610610090575f3560e01c806376f64fca1161006357806376f64fca146101b2578063a170052e146101d9578063acae9fee146101f2578063b71302ce14610207578063db82bf1b1461022e575f80fd5b8063046515a71461009457806308ba798a146100f15780632e3344521461012a5780633cb0fc7d1461017d575b5f80fd5b6040805160ff7f0000000000000000000000000000000000000000000000000000000000000000811682527f0000000000000000000000000000000000000000000000000000000000000000166020820152015b60405180910390f35b6101187f000000000000000000000000000000000000000000000000000000000000000081565b60405160ff90911681526020016100e8565b604080517f000000000000000000000000000000000000000000000000000000000000000081527f00000000000000000000000000000000000000000000000000000000000000006020820152016100e8565b6101a47f000000000000000000000000000000000000000000000000000000000000000081565b6040519081526020016100e8565b6101187f000000000000000000000000000000000000000000000000000000000000000081565b6101e1610236565b6040516100e895949392919061049c565b6101fa61035c565b6040516100e891906104d7565b6101a47f000000000000000000000000000000000000000000000000000000000000000081565b6101fa6103ce565b5f805f8060607f00000000000000000000000000000000000000000000000000000000000000007f00000000000000000000000000000000000000000000000000000000000000007f00000000000000000000000000000000000000000000000000000000000000007f00000000000000000000000000000000000000000000000000000000000000005f8080546102cd906104f0565b80601f01602080910402602001604051908101604052809291908181526020018280546102f9906104f0565b80156103445780601f1061031b57610100808354040283529160200191610344565b820191905f5260205f20905b81548152906001019060200180831161032757829003601f168201915b50505050509050945094509450945094509091929394565b60607f00000000000000000000000000000000000000000000000000000000000000007f00000000000000000000000000000000000000000000000000000000000000006040516020016103ba929190918252602082015260400190565b604051602081830303815290604052905090565b5f80546103da906104f0565b80601f0160208091040260200160405190810160405280929190818152602001828054610406906104f0565b80156104515780601f1061042857610100808354040283529160200191610451565b820191905f5260205f20905b81548152906001019060200180831161043457829003601f168201915b505050505081565b5f81518084525f5b8181101561047d57602081850181015186830182015201610461565b505f602082860101526020601f19601f83011685010191505092915050565b85815284602082015260ff8416604082015260ff8316606082015260a060808201525f6104cc60a0830184610459565b979650505050505050565b602081525f6104e96020830184610459565b9392505050565b600181811c9082168061050457607f821691505b60208210810361052257634e487b7160e01b5f52602260045260245ffd5b5091905056fea2646970667358221220a7106ad02369c7c65eb88dff67e7f809a271e7b9eaafef6562179647032c156564736f6c63430008140033",
					"opcodes": "PUSH2 0x100 PUSH1 0x40 MSTORE CALLVALUE DUP1 ISZERO PUSH3 0x11 JUMPI PUSH0 DUP1 REVERT JUMPDEST POP PUSH1 0x40 MLOAD PUSH3 0xA7B CODESIZE SUB DUP1 PUSH3 0xA7B DUP4 CODECOPY DUP2 ADD PUSH1 0x40 DUP2 SWAP1 MSTORE PUSH3 0x34 SWAP2 PUSH3 0x21D JUMP JUMPDEST DUP2 PUSH1 0xFF AND DUP4 PUSH1 0xFF AND LT PUSH3 0x9F JUMPI PUSH1 0x40 MLOAD PUSH3 0x461BCD PUSH1 0xE5 SHL DUP2 MSTORE PUSH1 0x20 PUSH1 0x4 DUP3 ADD MSTORE PUSH1 0x27 PUSH1 0x24 DUP3 ADD MSTORE PUSH32 0x5468726573686F6C64206D757374206265206C657373207468616E20746F7461 PUSH1 0x44 DUP3 ADD MSTORE PUSH7 0x6C206E6F646573 PUSH1 0xC8 SHL PUSH1 0x64 DUP3 ADD MSTORE PUSH1 0x84 ADD JUMPDEST PUSH1 0x40 MLOAD DUP1 SWAP2 SUB SWAP1 REVERT JUMPDEST PUSH1 0x3 DUP3 PUSH1 0xFF AND LT ISZERO PUSH3 0x10A JUMPI PUSH1 0x40 MLOAD PUSH3 0x461BCD PUSH1 0xE5 SHL DUP2 MSTORE PUSH1 0x20 PUSH1 0x4 DUP3 ADD MSTORE PUSH1 0x2C PUSH1 0x24 DUP3 ADD MSTORE PUSH32 0x4D696E696D756D2033206E6F64657320726571756972656420666F7220666175 PUSH1 0x44 DUP3 ADD MSTORE PUSH12 0x6C7420746F6C6572616E6365 PUSH1 0xA0 SHL PUSH1 0x64 DUP3 ADD MSTORE PUSH1 0x84 ADD PUSH3 0x96 JUMP JUMPDEST PUSH1 0x1 DUP4 PUSH1 0xFF AND LT ISZERO PUSH3 0x160 JUMPI PUSH1 0x40 MLOAD PUSH3 0x461BCD PUSH1 0xE5 SHL DUP2 MSTORE PUSH1 0x20 PUSH1 0x4 DUP3 ADD MSTORE PUSH1 0x1C PUSH1 0x24 DUP3 ADD MSTORE PUSH32 0x5468726573686F6C64206D757374206265206174206C65617374203100000000 PUSH1 0x44 DUP3 ADD MSTORE PUSH1 0x64 ADD PUSH3 0x96 JUMP JUMPDEST PUSH1 0x80 DUP6 SWAP1 MSTORE PUSH1 0xA0 DUP5 SWAP1 MSTORE PUSH1 0xFF DUP1 DUP5 AND PUSH1 0xC0 MSTORE DUP3 AND PUSH1 0xE0 MSTORE PUSH0 PUSH3 0x184 DUP3 DUP3 PUSH3 0x396 JUMP JUMPDEST POP DUP4 DUP6 PUSH32 0x8FDBABA07F64824F5FC29307100A0987B93DC03BFBC2087F3B90B6D867BD078 DUP6 DUP6 DUP6 PUSH1 0x40 MLOAD PUSH3 0x1BC SWAP4 SWAP3 SWAP2 SWAP1 PUSH3 0x45E JUMP JUMPDEST PUSH1 0x40 MLOAD DUP1 SWAP2 SUB SWAP1 LOG3 POP POP POP POP POP PUSH3 0x4A6 JUMP JUMPDEST DUP1 MLOAD PUSH1 0xFF DUP2 AND DUP2 EQ PUSH3 0x1E0 JUMPI PUSH0 DUP1 REVERT JUMPDEST SWAP2 SWAP1 POP JUMP JUMPDEST PUSH4 0x4E487B71 PUSH1 0xE0 SHL PUSH0 MSTORE PUSH1 0x41 PUSH1 0x4 MSTORE PUSH1 0x24 PUSH0 REVERT JUMPDEST PUSH0 JUMPDEST DUP4 DUP2 LT ISZERO PUSH3 0x215 JUMPI DUP2 DUP2 ADD MLOAD DUP4 DUP3 ADD MSTORE PUSH1 0x20 ADD PUSH3 0x1FB JUMP JUMPDEST POP POP PUSH0 SWAP2 ADD MSTORE JUMP JUMPDEST PUSH0 DUP1 PUSH0 DUP1 PUSH0 PUSH1 0xA0 DUP7 DUP9 SUB SLT ISZERO PUSH3 0x232 JUMPI PUSH0 DUP1 REVERT JUMPDEST DUP6 MLOAD SWAP5 POP PUSH1 0x20 DUP7 ADD MLOAD SWAP4 POP PUSH3 0x24B PUSH1 0x40 DUP8 ADD PUSH3 0x1CF JUMP JUMPDEST SWAP3 POP PUSH3 0x25B PUSH1 0x60 DUP8 ADD PUSH3 0x1CF JUMP JUMPDEST PUSH1 0x80 DUP8 ADD MLOAD SWAP1 SWAP3 POP PUSH1 0x1 PUSH1 0x1 PUSH1 0x40 SHL SUB DUP1 DUP3 GT ISZERO PUSH3 0x278 JUMPI PUSH0 DUP1 REVERT JUMPDEST DUP2 DUP9 ADD SWAP2 POP DUP9 PUSH1 0x1F DUP4 ADD SLT PUSH3 0x28C JUMPI PUSH0 DUP1 REVERT JUMPDEST DUP2 MLOAD DUP2 DUP2 GT ISZERO PUSH3 0x2A1 JUMPI PUSH3 0x2A1 PUSH3 0x1E5 JUMP JUMPDEST PUSH1 0x40 MLOAD PUSH1 0x1F DUP3 ADD PUSH1 0x1F NOT SWAP1 DUP2 AND PUSH1 0x3F ADD AND DUP2 ADD SWAP1 DUP4 DUP3 GT DUP2 DUP4 LT OR ISZERO PUSH3 0x2CC JUMPI PUSH3 0x2CC PUSH3 0x1E5 JUMP JUMPDEST DUP2 PUSH1 0x40 MSTORE DUP3 DUP2 MSTORE DUP12 PUSH1 0x20 DUP5 DUP8 ADD ADD GT ISZERO PUSH3 0x2E5 JUMPI PUSH0 DUP1 REVERT JUMPDEST PUSH3 0x2F8 DUP4 PUSH1 0x20 DUP4 ADD PUSH1 0x20 DUP9 ADD PUSH3 0x1F9 JUMP JUMPDEST DUP1 SWAP6 POP POP POP POP POP POP SWAP3 SWAP6 POP SWAP3 SWAP6 SWAP1 SWAP4 POP JUMP JUMPDEST PUSH1 0x1 DUP2 DUP2 SHR SWAP1 DUP3 AND DUP1 PUSH3 0x31F JUMPI PUSH1 0x7F DUP3 AND SWAP2 POP JUMPDEST PUSH1 0x20 DUP3 LT DUP2 SUB PUSH3 0x33E JUMPI PUSH4 0x4E487B71 PUSH1 0xE0 SHL PUSH0 MSTORE PUSH1 0x22 PUSH1 0x4 MSTORE PUSH1 0x24 PUSH0 REVERT JUMPDEST POP SWAP2 SWAP1 POP JUMP JUMPDEST PUSH1 0x1F DUP3 GT ISZERO PUSH3 0x391 JUMPI PUSH0 DUP2 DUP2 MSTORE PUSH1 0x20 DUP2 KECCAK256 PUSH1 0x1F DUP6 ADD PUSH1 0x5 SHR DUP2 ADD PUSH1 0x20 DUP7 LT ISZERO PUSH3 0x36C JUMPI POP DUP1 JUMPDEST PUSH1 0x1F DUP6 ADD PUSH1 0x5 SHR DUP3 ADD SWAP2 POP JUMPDEST DUP2 DUP2 LT ISZERO PUSH3 0x38D JUMPI DUP3 DUP2 SSTORE PUSH1 0x1 ADD PUSH3 0x378 JUMP JUMPDEST POP POP POP JUMPDEST POP POP POP JUMP JUMPDEST DUP2 MLOAD PUSH1 0x1 PUSH1 0x1 PUSH1 0x40 SHL SUB DUP2 GT ISZERO PUSH3 0x3B2 JUMPI PUSH3 0x3B2 PUSH3 0x1E5 JUMP JUMPDEST PUSH3 0x3CA DUP2 PUSH3 0x3C3 DUP5 SLOAD PUSH3 0x30A JUMP JUMPDEST DUP5 PUSH3 0x344 JUMP JUMPDEST PUSH1 0x20 DUP1 PUSH1 0x1F DUP4 GT PUSH1 0x1 DUP2 EQ PUSH3 0x400 JUMPI PUSH0 DUP5 ISZERO PUSH3 0x3E8 JUMPI POP DUP6 DUP4 ADD MLOAD JUMPDEST PUSH0 NOT PUSH1 0x3 DUP7 SWAP1 SHL SHR NOT AND PUSH1 0x1 DUP6 SWAP1 SHL OR DUP6 SSTORE PUSH3 0x38D JUMP JUMPDEST PUSH0 DUP6 DUP2 MSTORE PUSH1 0x20 DUP2 KECCAK256 PUSH1 0x1F NOT DUP7 AND SWAP2 JUMPDEST DUP3 DUP2 LT ISZERO PUSH3 0x430 JUMPI DUP9 DUP7 ADD MLOAD DUP3 SSTORE SWAP5 DUP5 ADD SWAP5 PUSH1 0x1 SWAP1 SWAP2 ADD SWAP1 DUP5 ADD PUSH3 0x40F JUMP JUMPDEST POP DUP6 DUP3 LT ISZERO PUSH3 0x44E JUMPI DUP8 DUP6 ADD MLOAD PUSH0 NOT PUSH1 0x3 DUP9 SWAP1 SHL PUSH1 0xF8 AND SHR NOT AND DUP2 SSTORE JUMPDEST POP POP POP POP POP PUSH1 0x1 SWAP1 DUP2 SHL ADD SWAP1 SSTORE POP JUMP JUMPDEST PUSH1 0xFF DUP5 AND DUP2 MSTORE PUSH1 0xFF DUP4 AND PUSH1 0x20 DUP3 ADD MSTORE PUSH1 0x60 PUSH1 0x40 DUP3 ADD MSTORE PUSH0 DUP3 MLOAD DUP1 PUSH1 0x60 DUP5 ADD MSTORE PUSH3 0x490 DUP2 PUSH1 0x80 DUP6 ADD PUSH1 0x20 DUP8 ADD PUSH3 0x1F9 JUMP JUMPDEST PUSH1 0x1F ADD PUSH1 0x1F NOT AND SWAP2 SWAP1 SWAP2 ADD PUSH1 0x80 ADD SWAP5 SWAP4 POP POP POP POP JUMP JUMPDEST PUSH1 0x80 MLOAD PUSH1 0xA0 MLOAD PUSH1 0xC0 MLOAD PUSH1 0xE0 MLOAD PUSH2 0x55E PUSH3 0x51D PUSH0 CODECOPY PUSH0 DUP2 DUP2 PUSH1 0xC1 ADD MSTORE DUP2 DUP2 PUSH1 0xF6 ADD MSTORE PUSH2 0x2A1 ADD MSTORE PUSH0 DUP2 DUP2 PUSH1 0x9C ADD MSTORE DUP2 DUP2 PUSH2 0x1B7 ADD MSTORE PUSH2 0x280 ADD MSTORE PUSH0 DUP2 DUP2 PUSH2 0x153 ADD MSTORE DUP2 DUP2 PUSH2 0x182 ADD MSTORE DUP2 DUP2 PUSH2 0x25F ADD MSTORE PUSH2 0x381 ADD MSTORE PUSH0 DUP2 DUP2 PUSH2 0x130 ADD MSTORE DUP2 DUP2 PUSH2 0x20C ADD MSTORE DUP2 DUP2 PUSH2 0x23E ADD MSTORE PUSH2 0x360 ADD MSTORE PUSH2 0x55E PUSH0 RETURN INVALID PUSH1 0x80 PUSH1 0x40 MSTORE CALLVALUE DUP1 ISZERO PUSH2 0xF JUMPI PUSH0 DUP1 REVERT JUMPDEST POP PUSH1 0x4 CALLDATASIZE LT PUSH2 0x90 JUMPI PUSH0 CALLDATALOAD PUSH1 0xE0 SHR DUP1 PUSH4 0x76F64FCA GT PUSH2 0x63 JUMPI DUP1 PUSH4 0x76F64FCA EQ PUSH2 0x1B2 JUMPI DUP1 PUSH4 0xA170052E EQ PUSH2 0x1D9 JUMPI DUP1 PUSH4 0xACAE9FEE EQ PUSH2 0x1F2 JUMPI DUP1 PUSH4 0xB71302CE EQ PUSH2 0x207 JUMPI DUP1 PUSH4 0xDB82BF1B EQ PUSH2 0x22E JUMPI PUSH0 DUP1 REVERT JUMPDEST DUP1 PUSH4 0x46515A7 EQ PUSH2 0x94 JUMPI DUP1 PUSH4 0x8BA798A EQ PUSH2 0xF1 JUMPI DUP1 PUSH4 0x2E334452 EQ PUSH2 0x12A JUMPI DUP1 PUSH4 0x3CB0FC7D EQ PUSH2 0x17D JUMPI JUMPDEST PUSH0 DUP1 REVERT JUMPDEST PUSH1 0x40 DUP1 MLOAD PUSH1 0xFF PUSH32 0x0 DUP2 AND DUP3 MSTORE PUSH32 0x0 AND PUSH1 0x20 DUP3 ADD MSTORE ADD JUMPDEST PUSH1 0x40 MLOAD DUP1 SWAP2 SUB SWAP1 RETURN JUMPDEST PUSH2 0x118 PUSH32 0x0 DUP2 JUMP JUMPDEST PUSH1 0x40 MLOAD PUSH1 0xFF SWAP1 SWAP2 AND DUP2 MSTORE PUSH1 0x20 ADD PUSH2 0xE8 JUMP JUMPDEST PUSH1 0x40 DUP1 MLOAD PUSH32 0x0 DUP2 MSTORE PUSH32 0x0 PUSH1 0x20 DUP3 ADD MSTORE ADD PUSH2 0xE8 JUMP JUMPDEST PUSH2 0x1A4 PUSH32 0x0 DUP2 JUMP JUMPDEST PUSH1 0x40 MLOAD SWAP1 DUP2 MSTORE PUSH1 0x20 ADD PUSH2 0xE8 JUMP JUMPDEST PUSH2 0x118 PUSH32 0x0 DUP2 JUMP JUMPDEST PUSH2 0x1E1 PUSH2 0x236 JUMP JUMPDEST PUSH1 0x40 MLOAD PUSH2 0xE8 SWAP6 SWAP5 SWAP4 SWAP3 SWAP2 SWAP1 PUSH2 0x49C JUMP JUMPDEST PUSH2 0x1FA PUSH2 0x35C JUMP JUMPDEST PUSH1 0x40 MLOAD PUSH2 0xE8 SWAP2 SWAP1 PUSH2 0x4D7 JUMP JUMPDEST PUSH2 0x1A4 PUSH32 0x0 DUP2 JUMP JUMPDEST PUSH2 0x1FA PUSH2 0x3CE JUMP JUMPDEST PUSH0 DUP1 PUSH0 DUP1 PUSH1 0x60 PUSH32 0x0 PUSH32 0x0 PUSH32 0x0 PUSH32 0x0 PUSH0 DUP1 DUP1 SLOAD PUSH2 0x2CD SWAP1 PUSH2 0x4F0 JUMP JUMPDEST DUP1 PUSH1 0x1F ADD PUSH1 0x20 DUP1 SWAP2 DIV MUL PUSH1 0x20 ADD PUSH1 0x40 MLOAD SWAP1 DUP2 ADD PUSH1 0x40 MSTORE DUP1 SWAP3 SWAP2 SWAP1 DUP2 DUP2 MSTORE PUSH1 0x20 ADD DUP3 DUP1 SLOAD PUSH2 0x2F9 SWAP1 PUSH2 0x4F0 JUMP JUMPDEST DUP1 ISZERO PUSH2 0x344 JUMPI DUP1 PUSH1 0x1F LT PUSH2 0x31B JUMPI PUSH2 0x100 DUP1 DUP4 SLOAD DIV MUL DUP4 MSTORE SWAP2 PUSH1 0x20 ADD SWAP2 PUSH2 0x344 JUMP JUMPDEST DUP3 ADD SWAP2 SWAP1 PUSH0 MSTORE PUSH1 0x20 PUSH0 KECCAK256 SWAP1 JUMPDEST DUP2 SLOAD DUP2 MSTORE SWAP1 PUSH1 0x1 ADD SWAP1 PUSH1 0x20 ADD DUP1 DUP4 GT PUSH2 0x327 JUMPI DUP3 SWAP1 SUB PUSH1 0x1F AND DUP3 ADD SWAP2 JUMPDEST POP POP POP POP POP SWAP1 POP SWAP5 POP SWAP5 POP SWAP5 POP SWAP5 POP SWAP5 POP SWAP1 SWAP2 SWAP3 SWAP4 SWAP5 JUMP JUMPDEST PUSH1 0x60 PUSH32 0x0 PUSH32 0x0 PUSH1 0x40 MLOAD PUSH1 0x20 ADD PUSH2 0x3BA SWAP3 SWAP2 SWAP1 SWAP2 DUP3 MSTORE PUSH1 0x20 DUP3 ADD MSTORE PUSH1 0x40 ADD SWAP1 JUMP JUMPDEST PUSH1 0x40 MLOAD PUSH1 0x20 DUP2 DUP4 SUB SUB DUP2 MSTORE SWAP1 PUSH1 0x40 MSTORE SWAP1 POP SWAP1 JUMP JUMPDEST PUSH0 DUP1 SLOAD PUSH2 0x3DA SWAP1 PUSH2 0x4F0 JUMP JUMPDEST DUP1 PUSH1 0x1F ADD PUSH1 0x20 DUP1 SWAP2 DIV MUL PUSH1 0x20 ADD PUSH1 0x40 MLOAD SWAP1 DUP2 ADD PUSH1 0x40 MSTORE DUP1 SWAP3 SWAP2 SWAP1 DUP2 DUP2 MSTORE PUSH1 0x20 ADD DUP3 DUP1 SLOAD PUSH2 0x406 SWAP1 PUSH2 0x4F0 JUMP JUMPDEST DUP1 ISZERO PUSH2 0x451 JUMPI DUP1 PUSH1 0x1F LT PUSH2 0x428 JUMPI PUSH2 0x100 DUP1 DUP4 SLOAD DIV MUL DUP4 MSTORE SWAP2 PUSH1 0x20 ADD SWAP2 PUSH2 0x451 JUMP JUMPDEST DUP3 ADD SWAP2 SWAP1 PUSH0 MSTORE PUSH1 0x20 PUSH0 KECCAK256 SWAP1 JUMPDEST DUP2 SLOAD DUP2 MSTORE SWAP1 PUSH1 0x1 ADD SWAP1 PUSH1 0x20 ADD DUP1 DUP4 GT PUSH2 0x434 JUMPI DUP3 SWAP1 SUB PUSH1 0x1F AND DUP3 ADD SWAP2 JUMPDEST POP POP POP POP POP DUP2 JUMP JUMPDEST PUSH0 DUP2 MLOAD DUP1 DUP5 MSTORE PUSH0 JUMPDEST DUP2 DUP2 LT ISZERO PUSH2 0x47D JUMPI PUSH1 0x20 DUP2 DUP6 ADD DUP2 ADD MLOAD DUP7 DUP4 ADD DUP3 ADD MSTORE ADD PUSH2 0x461 JUMP JUMPDEST POP PUSH0 PUSH1 0x20 DUP3 DUP7 ADD ADD MSTORE PUSH1 0x20 PUSH1 0x1F NOT PUSH1 0x1F DUP4 ADD AND DUP6 ADD ADD SWAP2 POP POP SWAP3 SWAP2 POP POP JUMP JUMPDEST DUP6 DUP2 MSTORE DUP5 PUSH1 0x20 DUP3 ADD MSTORE PUSH1 0xFF DUP5 AND PUSH1 0x40 DUP3 ADD MSTORE PUSH1 0xFF DUP4 AND PUSH1 0x60 DUP3 ADD MSTORE PUSH1 0xA0 PUSH1 0x80 DUP3 ADD MSTORE PUSH0 PUSH2 0x4CC PUSH1 0xA0 DUP4 ADD DUP5 PUSH2 0x459 JUMP JUMPDEST SWAP8 SWAP7 POP POP POP POP POP POP POP JUMP JUMPDEST PUSH1 0x20 DUP2 MSTORE PUSH0 PUSH2 0x4E9 PUSH1 0x20 DUP4 ADD DUP5 PUSH2 0x459 JUMP JUMPDEST SWAP4 SWAP3 POP POP POP JUMP JUMPDEST PUSH1 0x1 DUP2 DUP2 SHR SWAP1 DUP3 AND DUP1 PUSH2 0x504 JUMPI PUSH1 0x7F DUP3 AND SWAP2 POP JUMPDEST PUSH1 0x20 DUP3 LT DUP2 SUB PUSH2 0x522 JUMPI PUSH4 0x4E487B71 PUSH1 0xE0 SHL PUSH0 MSTORE PUSH1 0x22 PUSH1 0x4 MSTORE PUSH1 0x24 PUSH0 REVERT JUMPDEST POP SWAP2 SWAP1 POP JUMP INVALID LOG2 PUSH5 0x6970667358 0x22 SLT KECCAK256 0xA7 LT PUSH11 0xD02369C7C65EB88DFF67E7 0xF8 MULMOD LOG2 PUSH18 0xE7B9EAAFEF6562179647032C156564736F6C PUSH4 0x43000814 STOP CALLER "
				},
				"gasEstimates": {
					"creation": {
						"codeDepositCost": "274800",
						"executionCost": "infinite",
						"totalCost": "infinite"
					},
					"external": {
						"getAllParams()": "infinite",
						"getPublicKey()": "infinite",
						"getPublicKeyBytes()": "infinite",
						"getThresholdConfig()": "infinite",
						"hashSpec()": "infinite",
						"pkCA_x()": "infinite",
						"pkCA_y()": "infinite",
						"thresholdT()": "infinite",
						"totalNodesN()": "infinite"
					}
				},
				"methodIdentifiers": {
					"getAllParams()": "a170052e",
					"getPublicKey()": "2e334452",
					"getPublicKeyBytes()": "acae9fee",
					"getThresholdConfig()": "046515a7",
					"hashSpec()": "db82bf1b",
					"pkCA_x()": "b71302ce",
					"pkCA_y()": "3cb0fc7d",
					"thresholdT()": "76f64fca",
					"totalNodesN()": "08ba798a"
				}
			},
			"storageLayout": {
				"storage": [
					{
						"astId": 12,
						"contract": "contracts/ParamRegistry.sol:ParamRegistry",
						"label": "hashSpec",
						"offset": 0,
						"slot": "0",
						"type": "t_string_storage"
					}
				],
				"types": {
					"t_string_storage": {
						"encoding": "bytes",
						"label": "string",
						"numberOfBytes": "32"
					}
				}
			},
			"userdoc": {
				"kind": "user",
				"methods": {
					"constructor": {
						"notice": "Deploy with CA public key split into x and y coordinates"
					},
					"getAllParams()": {
						"notice": "Get all parameters at once (gas efficient)"
					},
					"getPublicKey()": {
						"notice": "Get CA public key as separate coordinates"
					},
					"getPublicKeyBytes()": {
						"notice": "Get CA public key as concatenated bytes (64 bytes)"
					},
					"getThresholdConfig()": {
						"notice": "Get threshold configuration"
					}
				},
				"notice": "Stores immutable CA consortium public key and threshold configuration",
				"version": 1
			}
		}
	}
}