{
	"contracts/BiometricWallet.sol": {
		"BiometricWallet": {
			"abi": [
				{
					"inputs": [
						{
							"internalType": "address",
							"name": "ownerAddr",
							"type": "address"
						},
						{
							"internalType": "address",
							"name": "_spentSet",
							"type": "address"
						}
					],
					"stateMutability": "nonpayable",
					"type": "constructor"
				},
				{
					"anonymous": false,
					"inputs": [
						{
							"indexed": true,
							"internalType": "address",
							"name": "key",
							"type": "address"
						}
					],
					"name": "AuthorizedKeyAdded",
					"type": "event"
				},
				{
					"anonymous": false,
					"inputs": [
						{
							"indexed": true,
							"internalType": "address",
							"name": "key",
							"type": "address"
						}
					],
					"name": "AuthorizedKeyRemoved",
					"type": "event"
				},
				{
					"anonymous": false,
					"inputs": [
						{
							"indexed": true,
							"internalType": "bytes32",
							"name": "tokenId",
							"type": "bytes32"
						},
						{
							"indexed": false,
							"internalType": "bool",
							"name": "success",
							"type": "bool"
						}
					],
					"name": "OperationExecuted",
					"type": "event"
				},
				{
					"anonymous": false,
					"inputs": [
						{
							"indexed": true,
							"internalType": "address",
							"name": "owner",
							"type": "address"
						},
						{
							"indexed": true,
							"internalType": "address",
							"name": "spentSet",
							"type": "address"
						}
					],
					"name": "WalletDeployed",
					"type": "event"
				},
				{
					"stateMutability": "payable",
					"type": "fallback"
				},
				{
					"inputs": [
						{
							"internalType": "address",
							"name": "key",
							"type": "address"
						}
					],
					"name": "addAuthorizedKey",
					"outputs": [],
					"stateMutability": "nonpayable",
					"type": "function"
				},
				{
					"inputs": [],
					"name": "authMessageTypehash",
					"outputs": [
						{
							"internalType": "bytes32",
							"name": "",
							"type": "bytes32"
						}
					],
					"stateMutability": "pure",
					"type": "function"
				},
				{
					"inputs": [
						{
							"internalType": "address",
							"name": "",
							"type": "address"
						}
					],
					"name": "authorizedKey",
					"outputs": [
						{
							"internalType": "bool",
							"name": "",
							"type": "bool"
						}
					],
					"stateMutability": "view",
					"type": "function"
				},
				{
					"inputs": [],
					"name": "domainSeparator",
					"outputs": [
						{
							"internalType": "bytes32",
							"name": "",
							"type": "bytes32"
						}
					],
					"stateMutability": "view",
					"type": "function"
				},
				{
					"inputs": [
						{
							"internalType": "address",
							"name": "key",
							"type": "address"
						}
					],
					"name": "isAuthorized",
					"outputs": [
						{
							"internalType": "bool",
							"name": "",
							"type": "bool"
						}
					],
					"stateMutability": "view",
					"type": "function"
				},
				{
					"inputs": [
						{
							"internalType": "bytes32",
							"name": "hash",
							"type": "bytes32"
						},
						{
							"internalType": "bytes",
							"name": "signature",
							"type": "bytes"
						}
					],
					"name": "isValidSignature",
					"outputs": [
						{
							"internalType": "bytes4",
							"name": "magicValue",
							"type": "bytes4"
						}
					],
					"stateMutability": "view",
					"type": "function"
				},
				{
					"inputs": [],
					"name": "owner",
					"outputs": [
						{
							"internalType": "address",
							"name": "",
							"type": "address"
						}
					],
					"stateMutability": "view",
					"type": "function"
				},
				{
					"inputs": [
						{
							"internalType": "address",
							"name": "key",
							"type": "address"
						}
					],
					"name": "removeAuthorizedKey",
					"outputs": [],
					"stateMutability": "nonpayable",
					"type": "function"
				},
				{
					"inputs": [],
					"name": "spentSet",
					"outputs": [
						{
							"internalType": "contract ISpentSet",
							"name": "",
							"type": "address"
						}
					],
					"stateMutability": "view",
					"type": "function"
				},
				{
					"inputs": [
						{
							"internalType": "bytes32",
							"name": "rho",
							"type": "bytes32"
						},
						{
							"internalType": "bytes32",
							"name": "userOpHash",
							"type": "bytes32"
						},
						{
							"internalType": "bytes",
							"name": "signature",
							"type": "bytes"
						}
					],
					"name": "validateUserOp",
					"outputs": [
						{
							"internalType": "bool",
							"name": "success",
							"type": "bool"
						}
					],
					"stateMutability": "nonpayable",
					"type": "function"
				},
				{
					"inputs": [
						{
							"internalType": "bytes32",
							"name": "rho",
							"type": "bytes32"
						},
						{
							"internalType": "bytes",
							"name": "signature",
							"type": "bytes"
						}
					],
					"name": "validateUserOpSimple",
					"outputs": [
						{
							"internalType": "bool",
							"name": "success",
							"type": "bool"
						}
					],
					"stateMutability": "nonpayable",
					"type": "function"
				},
				{
					"stateMutability": "payable",
					"type": "receive"
				}
			],
			"devdoc": {
				"kind": "dev",
				"methods": {
					"addAuthorizedKey(address)": {
						"params": {
							"key": "Address to authorize"
						}
					},
					"constructor": {
						"params": {
							"_spentSet": "Address of deployed SpentSet contract",
							"ownerAddr": "Address derived from K = g^k (biometric key)"
						}
					},
					"isValidSignature(bytes32,bytes)": {
						"params": {
							"hash": "Message hash",
							"signature": "ECDSA signature"
						},
						"returns": {
							"magicValue": "0x1626ba7e if valid, 0xffffffff otherwise"
						}
					},
					"removeAuthorizedKey(address)": {
						"params": {
							"key": "Address to revoke"
						}
					},
					"validateUserOp(bytes32,bytes32,bytes)": {
						"params": {
							"rho": "Token identifier (keccak256(R0))",
							"signature": "ECDSA signature (65 bytes: r, s, v)",
							"userOpHash": "Hash of the user operation"
						},
						"returns": {
							"success": "True if validation succeeds"
						}
					},
					"validateUserOpSimple(bytes32,bytes)": {
						"details": "Useful for testing"
					}
				},
				"version": 1
			},
			"evm": {
				"assembly": "    /* \"contracts/BiometricWallet.sol\":374:7908  contract BiometricWallet {... */\n  mstore(0x40, 0xc0)\n    /* \"contracts/BiometricWallet.sol\":1654:2500  constructor(address ownerAddr, address _spentSet) {... */\n  callvalue\n  dup1\n  iszero\n  tag_1\n  jumpi\n  revert(0x00, 0x00)\ntag_1:\n  pop\n  mload(0x40)\n  sub(codesize, bytecodeSize)\n  dup1\n  bytecodeSize\n  dup4\n  codecopy\n  dup2\n  dup2\n  add\n  0x40\n  mstore\n  dup2\n  add\n  swap1\n  tag_2\n  swap2\n  swap1\n  tag_3\n  jump\t// in\ntag_2:\n    /* \"contracts/BiometricWallet.sol\":1744:1745  0 */\n  0x00\n    /* \"contracts/BiometricWallet.sol\":1723:1746  ownerAddr != address(0) */\n  0xffffffffffffffffffffffffffffffffffffffff\n  and\n    /* \"contracts/BiometricWallet.sol\":1723:1732  ownerAddr */\n  dup3\n    /* \"contracts/BiometricWallet.sol\":1723:1746  ownerAddr != address(0) */\n  0xffffffffffffffffffffffffffffffffffffffff\n  and\n  sub\n    /* \"contracts/BiometricWallet.sol\":1715:1772  require(ownerAddr != address(0), \"Invalid owner address\") */\n  tag_6\n  jumpi\n  mload(0x40)\n  0x08c379a000000000000000000000000000000000000000000000000000000000\n  dup2\n  mstore\n  0x04\n  add\n  tag_7\n  swap1\n  tag_8\n  jump\t// in\ntag_7:\n  mload(0x40)\n  dup1\n  swap2\n  sub\n  swap1\n  revert\ntag_6:\n    /* \"contracts/BiometricWallet.sol\":1812:1813  0 */\n  0x00\n    /* \"contracts/BiometricWallet.sol\":1791:1814  _spentSet != address(0) */\n  0xffffffffffffffffffffffffffffffffffffffff\n  and\n    /* \"contracts/BiometricWallet.sol\":1791:1800  _spentSet */\n  dup2\n    /* \"contracts/BiometricWallet.sol\":1791:1814  _spentSet != address(0) */\n  0xffffffffffffffffffffffffffffffffffffffff\n  and\n  sub\n    /* \"contracts/BiometricWallet.sol\":1783:1843  require(_spentSet != address(0), \"Invalid SpentSet address\") */\n  tag_9\n  jumpi\n  mload(0x40)\n  0x08c379a000000000000000000000000000000000000000000000000000000000\n  dup2\n  mstore\n  0x04\n  add\n  tag_10\n  swap1\n  tag_11\n  jump\t// in\ntag_10:\n  mload(0x40)\n  dup1\n  swap2\n  sub\n  swap1\n  revert\ntag_9:\n    /* \"contracts/BiometricWallet.sol\":1872:1881  ownerAddr */\n  dup2\n    /* \"contracts/BiometricWallet.sol\":1864:1869  owner */\n  0x01\n  0x00\n    /* \"contracts/BiometricWallet.sol\":1864:1881  owner = ownerAddr */\n  0x0100\n  exp\n  dup2\n  sload\n  dup2\n  0xffffffffffffffffffffffffffffffffffffffff\n  mul\n  not\n  and\n  swap1\n  dup4\n  0xffffffffffffffffffffffffffffffffffffffff\n  and\n  mul\n  or\n  swap1\n  sstore\n  pop\n    /* \"contracts/BiometricWallet.sol\":1913:1922  _spentSet */\n  dup1\n    /* \"contracts/BiometricWallet.sol\":1892:1923  spentSet = ISpentSet(_spentSet) */\n  0xffffffffffffffffffffffffffffffffffffffff\n  and\n  0x80\n  dup2\n  0xffffffffffffffffffffffffffffffffffffffff\n  and\n  dup2\n  mstore\n  pop\n  pop\n    /* \"contracts/BiometricWallet.sol\":1961:1965  true */\n  0x01\n    /* \"contracts/BiometricWallet.sol\":1934:1947  authorizedKey */\n  0x00\n    /* \"contracts/BiometricWallet.sol\":1934:1958  authorizedKey[ownerAddr] */\n  0x00\n    /* \"contracts/BiometricWallet.sol\":1948:1957  ownerAddr */\n  dup5\n    /* \"contracts/BiometricWallet.sol\":1934:1958  authorizedKey[ownerAddr] */\n  0xffffffffffffffffffffffffffffffffffffffff\n  and\n  0xffffffffffffffffffffffffffffffffffffffff\n  and\n  dup2\n  mstore\n  0x20\n  add\n  swap1\n  dup2\n  mstore\n  0x20\n  add\n  0x00\n  keccak256\n  0x00\n    /* \"contracts/BiometricWallet.sol\":1934:1965  authorizedKey[ownerAddr] = true */\n  0x0100\n  exp\n  dup2\n  sload\n  dup2\n  0xff\n  mul\n  not\n  and\n  swap1\n  dup4\n  iszero\n  iszero\n  mul\n  or\n  swap1\n  sstore\n  pop\n    /* \"contracts/BiometricWallet.sol\":2106:2201  keccak256(\"EIP712Domain(string name,string version,uint256 chainId,address verifyingContract)\") */\n  0x8b73c3c69bb8fe3d512ecc4cf759cc79239f7b179b0ffacaa9a75d522b39400f\n    /* \"contracts/BiometricWallet.sol\":2230:2254  bytes(\"BiometricWallet\") */\n  mload(0x40)\n  dup1\n  0x40\n  add\n  0x40\n  mstore\n  dup1\n  0x0f\n  dup2\n  mstore\n  0x20\n  add\n  0x42696f6d657472696357616c6c65740000000000000000000000000000000000\n  dup2\n  mstore\n  pop\n    /* \"contracts/BiometricWallet.sol\":2220:2255  keccak256(bytes(\"BiometricWallet\")) */\n  dup1\n  mload\n  swap1\n  0x20\n  add\n  keccak256\n    /* \"contracts/BiometricWallet.sol\":2284:2294  bytes(\"1\") */\n  mload(0x40)\n  dup1\n  0x40\n  add\n  0x40\n  mstore\n  dup1\n  0x01\n  dup2\n  mstore\n  0x20\n  add\n  0x3100000000000000000000000000000000000000000000000000000000000000\n  dup2\n  mstore\n  pop\n    /* \"contracts/BiometricWallet.sol\":2274:2295  keccak256(bytes(\"1\")) */\n  dup1\n  mload\n  swap1\n  0x20\n  add\n  keccak256\n    /* \"contracts/BiometricWallet.sol\":2314:2327  block.chainid */\n  chainid\n    /* \"contracts/BiometricWallet.sol\":2354:2358  this */\n  address\n    /* \"contracts/BiometricWallet.sol\":2077:2374  abi.encode(... */\n  add(0x20, mload(0x40))\n  tag_12\n  swap6\n  swap5\n  swap4\n  swap3\n  swap2\n  swap1\n  tag_13\n  jump\t// in\ntag_12:\n  mload(0x40)\n  0x20\n  dup2\n  dup4\n  sub\n  sub\n  dup2\n  mstore\n  swap1\n  0x40\n  mstore\n    /* \"contracts/BiometricWallet.sol\":2053:2385  keccak256(... */\n  dup1\n  mload\n  swap1\n  0x20\n  add\n  keccak256\n    /* \"contracts/BiometricWallet.sol\":2034:2385  DOMAIN_SEPARATOR = keccak256(... */\n  0xa0\n  dup2\n  dup2\n  mstore\n  pop\n  pop\n    /* \"contracts/BiometricWallet.sol\":2430:2439  ownerAddr */\n  dup2\n    /* \"contracts/BiometricWallet.sol\":2411:2440  AuthorizedKeyAdded(ownerAddr) */\n  0xffffffffffffffffffffffffffffffffffffffff\n  and\n  0xcd196ed3fe0b915032d44f7a350619b55156091d4c5cb9cdc31e5a90cbdc645a\n  mload(0x40)\n  mload(0x40)\n  dup1\n  swap2\n  sub\n  swap1\n  log2\n    /* \"contracts/BiometricWallet.sol\":2482:2491  _spentSet */\n  dup1\n    /* \"contracts/BiometricWallet.sol\":2456:2492  WalletDeployed(ownerAddr, _spentSet) */\n  0xffffffffffffffffffffffffffffffffffffffff\n  and\n    /* \"contracts/BiometricWallet.sol\":2471:2480  ownerAddr */\n  dup3\n    /* \"contracts/BiometricWallet.sol\":2456:2492  WalletDeployed(ownerAddr, _spentSet) */\n  0xffffffffffffffffffffffffffffffffffffffff\n  and\n  0xf25144576b87c0db53fd13e964c2b18299ee19d7d44d4b2636144644acff745b\n  mload(0x40)\n  mload(0x40)\n  dup1\n  swap2\n  sub\n  swap1\n  log3\n    /* \"contracts/BiometricWallet.sol\":1654:2500  constructor(address ownerAddr, address _spentSet) {... */\n  pop\n  pop\n    /* \"contracts/BiometricWallet.sol\":374:7908  contract BiometricWallet {... */\n  jump(tag_14)\n    /* \"#utility.yul\":88:205   */\ntag_16:\n    /* \"#utility.yul\":197:198   */\n  0x00\n    /* \"#utility.yul\":194:195   */\n  0x00\n    /* \"#utility.yul\":187:199   */\n  revert\n    /* \"#utility.yul\":334:460   */\ntag_18:\n    /* \"#utility.yul\":371:378   */\n  0x00\n    /* \"#utility.yul\":411:453   */\n  0xffffffffffffffffffffffffffffffffffffffff\n    /* \"#utility.yul\":404:409   */\n  dup3\n    /* \"#utility.yul\":400:454   */\n  and\n    /* \"#utility.yul\":389:454   */\n  swap1\n  pop\n    /* \"#utility.yul\":334:460   */\n  swap2\n  swap1\n  pop\n  jump\t// out\n    /* \"#utility.yul\":466:562   */\ntag_19:\n    /* \"#utility.yul\":503:510   */\n  0x00\n    /* \"#utility.yul\":532:556   */\n  tag_38\n    /* \"#utility.yul\":550:555   */\n  dup3\n    /* \"#utility.yul\":532:556   */\n  tag_18\n  jump\t// in\ntag_38:\n    /* \"#utility.yul\":521:556   */\n  swap1\n  pop\n    /* \"#utility.yul\":466:562   */\n  swap2\n  swap1\n  pop\n  jump\t// out\n    /* \"#utility.yul\":568:690   */\ntag_20:\n    /* \"#utility.yul\":641:665   */\n  tag_40\n    /* \"#utility.yul\":659:664   */\n  dup2\n    /* \"#utility.yul\":641:665   */\n  tag_19\n  jump\t// in\ntag_40:\n    /* \"#utility.yul\":634:639   */\n  dup2\n    /* \"#utility.yul\":631:666   */\n  eq\n    /* \"#utility.yul\":621:684   */\n  tag_41\n  jumpi\n    /* \"#utility.yul\":680:681   */\n  0x00\n    /* \"#utility.yul\":677:678   */\n  0x00\n    /* \"#utility.yul\":670:682   */\n  revert\n    /* \"#utility.yul\":621:684   */\ntag_41:\n    /* \"#utility.yul\":568:690   */\n  pop\n  jump\t// out\n    /* \"#utility.yul\":696:839   */\ntag_21:\n    /* \"#utility.yul\":753:758   */\n  0x00\n    /* \"#utility.yul\":784:790   */\n  dup2\n    /* \"#utility.yul\":778:791   */\n  mload\n    /* \"#utility.yul\":769:791   */\n  swap1\n  pop\n    /* \"#utility.yul\":800:833   */\n  tag_43\n    /* \"#utility.yul\":827:832   */\n  dup2\n    /* \"#utility.yul\":800:833   */\n  tag_20\n  jump\t// in\ntag_43:\n    /* \"#utility.yul\":696:839   */\n  swap3\n  swap2\n  pop\n  pop\n  jump\t// out\n    /* \"#utility.yul\":845:1352   */\ntag_3:\n    /* \"#utility.yul\":924:930   */\n  0x00\n    /* \"#utility.yul\":932:938   */\n  0x00\n    /* \"#utility.yul\":981:983   */\n  0x40\n    /* \"#utility.yul\":969:978   */\n  dup4\n    /* \"#utility.yul\":960:967   */\n  dup6\n    /* \"#utility.yul\":956:979   */\n  sub\n    /* \"#utility.yul\":952:984   */\n  slt\n    /* \"#utility.yul\":949:1068   */\n  iszero\n  tag_45\n  jumpi\n    /* \"#utility.yul\":987:1066   */\n  tag_46\n  tag_16\n  jump\t// in\ntag_46:\n    /* \"#utility.yul\":949:1068   */\ntag_45:\n    /* \"#utility.yul\":1107:1108   */\n  0x00\n    /* \"#utility.yul\":1132:1196   */\n  tag_47\n    /* \"#utility.yul\":1188:1195   */\n  dup6\n    /* \"#utility.yul\":1179:1185   */\n  dup3\n    /* \"#utility.yul\":1168:1177   */\n  dup7\n    /* \"#utility.yul\":1164:1186   */\n  add\n    /* \"#utility.yul\":1132:1196   */\n  tag_21\n  jump\t// in\ntag_47:\n    /* \"#utility.yul\":1122:1196   */\n  swap3\n  pop\n    /* \"#utility.yul\":1078:1206   */\n  pop\n    /* \"#utility.yul\":1245:1247   */\n  0x20\n    /* \"#utility.yul\":1271:1335   */\n  tag_48\n    /* \"#utility.yul\":1327:1334   */\n  dup6\n    /* \"#utility.yul\":1318:1324   */\n  dup3\n    /* \"#utility.yul\":1307:1316   */\n  dup7\n    /* \"#utility.yul\":1303:1325   */\n  add\n    /* \"#utility.yul\":1271:1335   */\n  tag_21\n  jump\t// in\ntag_48:\n    /* \"#utility.yul\":1261:1335   */\n  swap2\n  pop\n    /* \"#utility.yul\":1216:1345   */\n  pop\n    /* \"#utility.yul\":845:1352   */\n  swap3\n  pop\n  swap3\n  swap1\n  pop\n  jump\t// out\n    /* \"#utility.yul\":1358:1527   */\ntag_22:\n    /* \"#utility.yul\":1442:1453   */\n  0x00\n    /* \"#utility.yul\":1476:1482   */\n  dup3\n    /* \"#utility.yul\":1471:1474   */\n  dup3\n    /* \"#utility.yul\":1464:1483   */\n  mstore\n    /* \"#utility.yul\":1516:1520   */\n  0x20\n    /* \"#utility.yul\":1511:1514   */\n  dup3\n    /* \"#utility.yul\":1507:1521   */\n  add\n    /* \"#utility.yul\":1492:1521   */\n  swap1\n  pop\n    /* \"#utility.yul\":1358:1527   */\n  swap3\n  swap2\n  pop\n  pop\n  jump\t// out\n    /* \"#utility.yul\":1533:1704   */\ntag_23:\n    /* \"#utility.yul\":1673:1696   */\n  0x496e76616c6964206f776e657220616464726573730000000000000000000000\n    /* \"#utility.yul\":1669:1670   */\n  0x00\n    /* \"#utility.yul\":1661:1667   */\n  dup3\n    /* \"#utility.yul\":1657:1671   */\n  add\n    /* \"#utility.yul\":1650:1697   */\n  mstore\n    /* \"#utility.yul\":1533:1704   */\n  pop\n  jump\t// out\n    /* \"#utility.yul\":1710:2076   */\ntag_24:\n    /* \"#utility.yul\":1852:1855   */\n  0x00\n    /* \"#utility.yul\":1873:1940   */\n  tag_52\n    /* \"#utility.yul\":1937:1939   */\n  0x15\n    /* \"#utility.yul\":1932:1935   */\n  dup4\n    /* \"#utility.yul\":1873:1940   */\n  tag_22\n  jump\t// in\ntag_52:\n    /* \"#utility.yul\":1866:1940   */\n  swap2\n  pop\n    /* \"#utility.yul\":1949:2042   */\n  tag_53\n    /* \"#utility.yul\":2038:2041   */\n  dup3\n    /* \"#utility.yul\":1949:2042   */\n  tag_23\n  jump\t// in\ntag_53:\n    /* \"#utility.yul\":2067:2069   */\n  0x20\n    /* \"#utility.yul\":2062:2065   */\n  dup3\n    /* \"#utility.yul\":2058:2070   */\n  add\n    /* \"#utility.yul\":2051:2070   */\n  swap1\n  pop\n    /* \"#utility.yul\":1710:2076   */\n  swap2\n  swap1\n  pop\n  jump\t// out\n    /* \"#utility.yul\":2082:2501   */\ntag_8:\n    /* \"#utility.yul\":2248:2252   */\n  0x00\n    /* \"#utility.yul\":2286:2288   */\n  0x20\n    /* \"#utility.yul\":2275:2284   */\n  dup3\n    /* \"#utility.yul\":2271:2289   */\n  add\n    /* \"#utility.yul\":2263:2289   */\n  swap1\n  pop\n    /* \"#utility.yul\":2335:2344   */\n  dup2\n    /* \"#utility.yul\":2329:2333   */\n  dup2\n    /* \"#utility.yul\":2325:2345   */\n  sub\n    /* \"#utility.yul\":2321:2322   */\n  0x00\n    /* \"#utility.yul\":2310:2319   */\n  dup4\n    /* \"#utility.yul\":2306:2323   */\n  add\n    /* \"#utility.yul\":2299:2346   */\n  mstore\n    /* \"#utility.yul\":2363:2494   */\n  tag_55\n    /* \"#utility.yul\":2489:2493   */\n  dup2\n    /* \"#utility.yul\":2363:2494   */\n  tag_24\n  jump\t// in\ntag_55:\n    /* \"#utility.yul\":2355:2494   */\n  swap1\n  pop\n    /* \"#utility.yul\":2082:2501   */\n  swap2\n  swap1\n  pop\n  jump\t// out\n    /* \"#utility.yul\":2507:2681   */\ntag_25:\n    /* \"#utility.yul\":2647:2673   */\n  0x496e76616c6964205370656e7453657420616464726573730000000000000000\n    /* \"#utility.yul\":2643:2644   */\n  0x00\n    /* \"#utility.yul\":2635:2641   */\n  dup3\n    /* \"#utility.yul\":2631:2645   */\n  add\n    /* \"#utility.yul\":2624:2674   */\n  mstore\n    /* \"#utility.yul\":2507:2681   */\n  pop\n  jump\t// out\n    /* \"#utility.yul\":2687:3053   */\ntag_26:\n    /* \"#utility.yul\":2829:2832   */\n  0x00\n    /* \"#utility.yul\":2850:2917   */\n  tag_58\n    /* \"#utility.yul\":2914:2916   */\n  0x18\n    /* \"#utility.yul\":2909:2912   */\n  dup4\n    /* \"#utility.yul\":2850:2917   */\n  tag_22\n  jump\t// in\ntag_58:\n    /* \"#utility.yul\":2843:2917   */\n  swap2\n  pop\n    /* \"#utility.yul\":2926:3019   */\n  tag_59\n    /* \"#utility.yul\":3015:3018   */\n  dup3\n    /* \"#utility.yul\":2926:3019   */\n  tag_25\n  jump\t// in\ntag_59:\n    /* \"#utility.yul\":3044:3046   */\n  0x20\n    /* \"#utility.yul\":3039:3042   */\n  dup3\n    /* \"#utility.yul\":3035:3047   */\n  add\n    /* \"#utility.yul\":3028:3047   */\n  swap1\n  pop\n    /* \"#utility.yul\":2687:3053   */\n  swap2\n  swap1\n  pop\n  jump\t// out\n    /* \"#utility.yul\":3059:3478   */\ntag_11:\n    /* \"#utility.yul\":3225:3229   */\n  0x00\n    /* \"#utility.yul\":3263:3265   */\n  0x20\n    /* \"#utility.yul\":3252:3261   */\n  dup3\n    /* \"#utility.yul\":3248:3266   */\n  add\n    /* \"#utility.yul\":3240:3266   */\n  swap1\n  pop\n    /* \"#utility.yul\":3312:3321   */\n  dup2\n    /* \"#utility.yul\":3306:3310   */\n  dup2\n    /* \"#utility.yul\":3302:3322   */\n  sub\n    /* \"#utility.yul\":3298:3299   */\n  0x00\n    /* \"#utility.yul\":3287:3296   */\n  dup4\n    /* \"#utility.yul\":3283:3300   */\n  add\n    /* \"#utility.yul\":3276:3323   */\n  mstore\n    /* \"#utility.yul\":3340:3471   */\n  tag_61\n    /* \"#utility.yul\":3466:3470   */\n  dup2\n    /* \"#utility.yul\":3340:3471   */\n  tag_26\n  jump\t// in\ntag_61:\n    /* \"#utility.yul\":3332:3471   */\n  swap1\n  pop\n    /* \"#utility.yul\":3059:3478   */\n  swap2\n  swap1\n  pop\n  jump\t// out\n    /* \"#utility.yul\":3484:3561   */\ntag_27:\n    /* \"#utility.yul\":3521:3528   */\n  0x00\n    /* \"#utility.yul\":3550:3555   */\n  dup2\n    /* \"#utility.yul\":3539:3555   */\n  swap1\n  pop\n    /* \"#utility.yul\":3484:3561   */\n  swap2\n  swap1\n  pop\n  jump\t// out\n    /* \"#utility.yul\":3567:3685   */\ntag_28:\n    /* \"#utility.yul\":3654:3678   */\n  tag_64\n    /* \"#utility.yul\":3672:3677   */\n  dup2\n    /* \"#utility.yul\":3654:3678   */\n  tag_27\n  jump\t// in\ntag_64:\n    /* \"#utility.yul\":3649:3652   */\n  dup3\n    /* \"#utility.yul\":3642:3679   */\n  mstore\n    /* \"#utility.yul\":3567:3685   */\n  pop\n  pop\n  jump\t// out\n    /* \"#utility.yul\":3691:3768   */\ntag_29:\n    /* \"#utility.yul\":3728:3735   */\n  0x00\n    /* \"#utility.yul\":3757:3762   */\n  dup2\n    /* \"#utility.yul\":3746:3762   */\n  swap1\n  pop\n    /* \"#utility.yul\":3691:3768   */\n  swap2\n  swap1\n  pop\n  jump\t// out\n    /* \"#utility.yul\":3774:3892   */\ntag_30:\n    /* \"#utility.yul\":3861:3885   */\n  tag_67\n    /* \"#utility.yul\":3879:3884   */\n  dup2\n    /* \"#utility.yul\":3861:3885   */\n  tag_29\n  jump\t// in\ntag_67:\n    /* \"#utility.yul\":3856:3859   */\n  dup3\n    /* \"#utility.yul\":3849:3886   */\n  mstore\n    /* \"#utility.yul\":3774:3892   */\n  pop\n  pop\n  jump\t// out\n    /* \"#utility.yul\":3898:4016   */\ntag_31:\n    /* \"#utility.yul\":3985:4009   */\n  tag_69\n    /* \"#utility.yul\":4003:4008   */\n  dup2\n    /* \"#utility.yul\":3985:4009   */\n  tag_19\n  jump\t// in\ntag_69:\n    /* \"#utility.yul\":3980:3983   */\n  dup3\n    /* \"#utility.yul\":3973:4010   */\n  mstore\n    /* \"#utility.yul\":3898:4016   */\n  pop\n  pop\n  jump\t// out\n    /* \"#utility.yul\":4022:4686   */\ntag_13:\n    /* \"#utility.yul\":4227:4231   */\n  0x00\n    /* \"#utility.yul\":4265:4268   */\n  0xa0\n    /* \"#utility.yul\":4254:4263   */\n  dup3\n    /* \"#utility.yul\":4250:4269   */\n  add\n    /* \"#utility.yul\":4242:4269   */\n  swap1\n  pop\n    /* \"#utility.yul\":4279:4350   */\n  tag_71\n    /* \"#utility.yul\":4347:4348   */\n  0x00\n    /* \"#utility.yul\":4336:4345   */\n  dup4\n    /* \"#utility.yul\":4332:4349   */\n  add\n    /* \"#utility.yul\":4323:4329   */\n  dup9\n    /* \"#utility.yul\":4279:4350   */\n  tag_28\n  jump\t// in\ntag_71:\n    /* \"#utility.yul\":4360:4432   */\n  tag_72\n    /* \"#utility.yul\":4428:4430   */\n  0x20\n    /* \"#utility.yul\":4417:4426   */\n  dup4\n    /* \"#utility.yul\":4413:4431   */\n  add\n    /* \"#utility.yul\":4404:4410   */\n  dup8\n    /* \"#utility.yul\":4360:4432   */\n  tag_28\n  jump\t// in\ntag_72:\n    /* \"#utility.yul\":4442:4514   */\n  tag_73\n    /* \"#utility.yul\":4510:4512   */\n  0x40\n    /* \"#utility.yul\":4499:4508   */\n  dup4\n    /* \"#utility.yul\":4495:4513   */\n  add\n    /* \"#utility.yul\":4486:4492   */\n  dup7\n    /* \"#utility.yul\":4442:4514   */\n  tag_28\n  jump\t// in\ntag_73:\n    /* \"#utility.yul\":4524:4596   */\n  tag_74\n    /* \"#utility.yul\":4592:4594   */\n  0x60\n    /* \"#utility.yul\":4581:4590   */\n  dup4\n    /* \"#utility.yul\":4577:4595   */\n  add\n    /* \"#utility.yul\":4568:4574   */\n  dup6\n    /* \"#utility.yul\":4524:4596   */\n  tag_30\n  jump\t// in\ntag_74:\n    /* \"#utility.yul\":4606:4679   */\n  tag_75\n    /* \"#utility.yul\":4674:4677   */\n  0x80\n    /* \"#utility.yul\":4663:4672   */\n  dup4\n    /* \"#utility.yul\":4659:4678   */\n  add\n    /* \"#utility.yul\":4650:4656   */\n  dup5\n    /* \"#utility.yul\":4606:4679   */\n  tag_31\n  jump\t// in\ntag_75:\n    /* \"#utility.yul\":4022:4686   */\n  swap7\n  swap6\n  pop\n  pop\n  pop\n  pop\n  pop\n  pop\n  jump\t// out\n    /* \"contracts/BiometricWallet.sol\":374:7908  contract BiometricWallet {... */\ntag_14:\n  mload(0x80)\n  mload(0xa0)\n  codecopy(0x00, dataOffset(sub_0), dataSize(sub_0))\n  0x00\n  assignImmutable(\"0x9cce9eb03c9f29c6481fca9f0f942b15bef0bbbc47fda0ddb44df157019835d9\")\n  0x00\n  assignImmutable(\"0x6585423cb6456b1d4957f6454d2f004f0c4f58d53a00082412d5c2ef4b1b31fd\")\n  return(0x00, dataSize(sub_0))\nstop\n\nsub_0: assembly {\n        /* \"contracts/BiometricWallet.sol\":374:7908  contract BiometricWallet {... */\n      mstore(0x40, 0x80)\n      jumpi(tag_1, lt(calldatasize, 0x04))\n      shr(0xe0, calldataload(0x00))\n      dup1\n      0xb3597fa9\n      gt\n      tag_14\n      jumpi\n      dup1\n      0xb3597fa9\n      eq\n      tag_8\n      jumpi\n      dup1\n      0xcad50f57\n      eq\n      tag_9\n      jumpi\n      dup1\n      0xecaca880\n      eq\n      tag_10\n      jumpi\n      dup1\n      0xeec6e99b\n      eq\n      tag_11\n      jumpi\n      dup1\n      0xf698da25\n      eq\n      tag_12\n      jumpi\n      dup1\n      0xfe9fbb80\n      eq\n      tag_13\n      jumpi\n      jump(tag_2)\n    tag_14:\n      dup1\n      0x1626ba7e\n      eq\n      tag_3\n      jumpi\n      dup1\n      0x3e85eed0\n      eq\n      tag_4\n      jumpi\n      dup1\n      0x715e2393\n      eq\n      tag_5\n      jumpi\n      dup1\n      0x7d81dd57\n      eq\n      tag_6\n      jumpi\n      dup1\n      0x8da5cb5b\n      eq\n      tag_7\n      jumpi\n      jump(tag_2)\n    tag_1:\n    tag_2:\n      stop\n        /* \"contracts/BiometricWallet.sol\":5104:5461  function isValidSignature(... */\n    tag_3:\n      callvalue\n      dup1\n      iszero\n      tag_19\n      jumpi\n      revert(0x00, 0x00)\n    tag_19:\n      pop\n      tag_20\n      0x04\n      dup1\n      calldatasize\n      sub\n      dup2\n      add\n      swap1\n      tag_21\n      swap2\n      swap1\n      tag_22\n      jump\t// in\n    tag_21:\n      tag_23\n      jump\t// in\n    tag_20:\n      mload(0x40)\n      tag_24\n      swap2\n      swap1\n      tag_25\n      jump\t// in\n    tag_24:\n      mload(0x40)\n      dup1\n      swap2\n      sub\n      swap1\n      return\n        /* \"contracts/BiometricWallet.sol\":3701:4480  function validateUserOp(... */\n    tag_4:\n      callvalue\n      dup1\n      iszero\n      tag_26\n      jumpi\n      revert(0x00, 0x00)\n    tag_26:\n      pop\n      tag_27\n      0x04\n      dup1\n      calldatasize\n      sub\n      dup2\n      add\n      swap1\n      tag_28\n      swap2\n      swap1\n      tag_29\n      jump\t// in\n    tag_28:\n      tag_30\n      jump\t// in\n    tag_27:\n      mload(0x40)\n      tag_31\n      swap2\n      swap1\n      tag_32\n      jump\t// in\n    tag_31:\n      mload(0x40)\n      dup1\n      swap2\n      sub\n      swap1\n      return\n        /* \"contracts/BiometricWallet.sol\":2664:2933  function addAuthorizedKey(address key) external {... */\n    tag_5:\n      callvalue\n      dup1\n      iszero\n      tag_33\n      jumpi\n      revert(0x00, 0x00)\n    tag_33:\n      pop\n      tag_34\n      0x04\n      dup1\n      calldatasize\n      sub\n      dup2\n      add\n      swap1\n      tag_35\n      swap2\n      swap1\n      tag_36\n      jump\t// in\n    tag_35:\n      tag_37\n      jump\t// in\n    tag_34:\n      stop\n        /* \"contracts/BiometricWallet.sol\":523:568  mapping(address => bool) public authorizedKey */\n    tag_6:\n      callvalue\n      dup1\n      iszero\n      tag_38\n      jumpi\n      revert(0x00, 0x00)\n    tag_38:\n      pop\n      tag_39\n      0x04\n      dup1\n      calldatasize\n      sub\n      dup2\n      add\n      swap1\n      tag_40\n      swap2\n      swap1\n      tag_36\n      jump\t// in\n    tag_40:\n      tag_41\n      jump\t// in\n    tag_39:\n      mload(0x40)\n      tag_42\n      swap2\n      swap1\n      tag_32\n      jump\t// in\n    tag_42:\n      mload(0x40)\n      dup1\n      swap2\n      sub\n      swap1\n      return\n        /* \"contracts/BiometricWallet.sol\":581:601  address public owner */\n    tag_7:\n      callvalue\n      dup1\n      iszero\n      tag_43\n      jumpi\n      revert(0x00, 0x00)\n    tag_43:\n      pop\n      tag_44\n      tag_45\n      jump\t// in\n    tag_44:\n      mload(0x40)\n      tag_46\n      swap2\n      swap1\n      tag_47\n      jump\t// in\n    tag_46:\n      mload(0x40)\n      dup1\n      swap2\n      sub\n      swap1\n      return\n        /* \"contracts/BiometricWallet.sol\":7664:7774  function authMessageTypehash() external pure returns (bytes32) {... */\n    tag_8:\n      callvalue\n      dup1\n      iszero\n      tag_48\n      jumpi\n      revert(0x00, 0x00)\n    tag_48:\n      pop\n      tag_49\n      tag_50\n      jump\t// in\n    tag_49:\n      mload(0x40)\n      tag_51\n      swap2\n      swap1\n      tag_52\n      jump\t// in\n    tag_51:\n      mload(0x40)\n      dup1\n      swap2\n      sub\n      swap1\n      return\n        /* \"contracts/BiometricWallet.sol\":4601:4798  function validateUserOpSimple(... */\n    tag_9:\n      callvalue\n      dup1\n      iszero\n      tag_53\n      jumpi\n      revert(0x00, 0x00)\n    tag_53:\n      pop\n      tag_54\n      0x04\n      dup1\n      calldatasize\n      sub\n      dup2\n      add\n      swap1\n      tag_55\n      swap2\n      swap1\n      tag_22\n      jump\t// in\n    tag_55:\n      tag_56\n      jump\t// in\n    tag_54:\n      mload(0x40)\n      tag_57\n      swap2\n      swap1\n      tag_32\n      jump\t// in\n    tag_57:\n      mload(0x40)\n      dup1\n      swap2\n      sub\n      swap1\n      return\n        /* \"contracts/BiometricWallet.sol\":3046:3324  function removeAuthorizedKey(address key) external {... */\n    tag_10:\n      callvalue\n      dup1\n      iszero\n      tag_58\n      jumpi\n      revert(0x00, 0x00)\n    tag_58:\n      pop\n      tag_59\n      0x04\n      dup1\n      calldatasize\n      sub\n      dup2\n      add\n      swap1\n      tag_60\n      swap2\n      swap1\n      tag_36\n      jump\t// in\n    tag_60:\n      tag_61\n      jump\t// in\n    tag_59:\n      stop\n        /* \"contracts/BiometricWallet.sol\":608:643  ISpentSet public immutable spentSet */\n    tag_11:\n      callvalue\n      dup1\n      iszero\n      tag_62\n      jumpi\n      revert(0x00, 0x00)\n    tag_62:\n      pop\n      tag_63\n      tag_64\n      jump\t// in\n    tag_63:\n      mload(0x40)\n      tag_65\n      swap2\n      swap1\n      tag_66\n      jump\t// in\n    tag_65:\n      mload(0x40)\n      dup1\n      swap2\n      sub\n      swap1\n      return\n        /* \"contracts/BiometricWallet.sol\":7491:7592  function domainSeparator() external view returns (bytes32) {... */\n    tag_12:\n      callvalue\n      dup1\n      iszero\n      tag_67\n      jumpi\n      revert(0x00, 0x00)\n    tag_67:\n      pop\n      tag_68\n      tag_69\n      jump\t// in\n    tag_68:\n      mload(0x40)\n      tag_70\n      swap2\n      swap1\n      tag_52\n      jump\t// in\n    tag_70:\n      mload(0x40)\n      dup1\n      swap2\n      sub\n      swap1\n      return\n        /* \"contracts/BiometricWallet.sol\":7316:7424  function isAuthorized(address key) external view returns (bool) {... */\n    tag_13:\n      callvalue\n      dup1\n      iszero\n      tag_71\n      jumpi\n      revert(0x00, 0x00)\n    tag_71:\n      pop\n      tag_72\n      0x04\n      dup1\n      calldatasize\n      sub\n      dup2\n      add\n      swap1\n      tag_73\n      swap2\n      swap1\n      tag_36\n      jump\t// in\n    tag_73:\n      tag_74\n      jump\t// in\n    tag_72:\n      mload(0x40)\n      tag_75\n      swap2\n      swap1\n      tag_32\n      jump\t// in\n    tag_75:\n      mload(0x40)\n      dup1\n      swap2\n      sub\n      swap1\n      return\n        /* \"contracts/BiometricWallet.sol\":5104:5461  function isValidSignature(... */\n    tag_23:\n        /* \"contracts/BiometricWallet.sol\":5214:5231  bytes4 magicValue */\n      0x00\n        /* \"contracts/BiometricWallet.sol\":5244:5258  address signer */\n      0x00\n        /* \"contracts/BiometricWallet.sol\":5261:5292  _recoverSigner(hash, signature) */\n      tag_77\n        /* \"contracts/BiometricWallet.sol\":5276:5280  hash */\n      dup5\n        /* \"contracts/BiometricWallet.sol\":5282:5291  signature */\n      dup5\n        /* \"contracts/BiometricWallet.sol\":5261:5275  _recoverSigner */\n      tag_78\n        /* \"contracts/BiometricWallet.sol\":5261:5292  _recoverSigner(hash, signature) */\n      jump\t// in\n    tag_77:\n        /* \"contracts/BiometricWallet.sol\":5244:5292  address signer = _recoverSigner(hash, signature) */\n      swap1\n      pop\n        /* \"contracts/BiometricWallet.sol\":5335:5336  0 */\n      0x00\n        /* \"contracts/BiometricWallet.sol\":5317:5337  signer != address(0) */\n      0xffffffffffffffffffffffffffffffffffffffff\n      and\n        /* \"contracts/BiometricWallet.sol\":5317:5323  signer */\n      dup2\n        /* \"contracts/BiometricWallet.sol\":5317:5337  signer != address(0) */\n      0xffffffffffffffffffffffffffffffffffffffff\n      and\n      eq\n      iszero\n        /* \"contracts/BiometricWallet.sol\":5317:5362  signer != address(0) && authorizedKey[signer] */\n      dup1\n      iszero\n      tag_79\n      jumpi\n      pop\n        /* \"contracts/BiometricWallet.sol\":5341:5354  authorizedKey */\n      0x00\n        /* \"contracts/BiometricWallet.sol\":5341:5362  authorizedKey[signer] */\n      0x00\n        /* \"contracts/BiometricWallet.sol\":5355:5361  signer */\n      dup3\n        /* \"contracts/BiometricWallet.sol\":5341:5362  authorizedKey[signer] */\n      0xffffffffffffffffffffffffffffffffffffffff\n      and\n      0xffffffffffffffffffffffffffffffffffffffff\n      and\n      dup2\n      mstore\n      0x20\n      add\n      swap1\n      dup2\n      mstore\n      0x20\n      add\n      0x00\n      keccak256\n      0x00\n      swap1\n      sload\n      swap1\n      0x0100\n      exp\n      swap1\n      div\n      0xff\n      and\n        /* \"contracts/BiometricWallet.sol\":5317:5362  signer != address(0) && authorizedKey[signer] */\n    tag_79:\n        /* \"contracts/BiometricWallet.sol\":5313:5409  if (signer != address(0) && authorizedKey[signer]) {... */\n      iszero\n      tag_80\n      jumpi\n        /* \"contracts/BiometricWallet.sol\":1012:1022  0x1626ba7e */\n      0x1626ba7e\n        /* \"contracts/BiometricWallet.sol\":5386:5397  MAGIC_VALUE */\n      0xe0\n      shl\n        /* \"contracts/BiometricWallet.sol\":5379:5397  return MAGIC_VALUE */\n      swap2\n      pop\n      pop\n      jump(tag_76)\n        /* \"contracts/BiometricWallet.sol\":5313:5409  if (signer != address(0) && authorizedKey[signer]) {... */\n    tag_80:\n        /* \"contracts/BiometricWallet.sol\":1073:1083  0xffffffff */\n      0xffffffff\n        /* \"contracts/BiometricWallet.sol\":5436:5453  INVALID_SIGNATURE */\n      0xe0\n      shl\n        /* \"contracts/BiometricWallet.sol\":5429:5453  return INVALID_SIGNATURE */\n      swap2\n      pop\n      pop\n        /* \"contracts/BiometricWallet.sol\":5104:5461  function isValidSignature(... */\n    tag_76:\n      swap3\n      swap2\n      pop\n      pop\n      jump\t// out\n        /* \"contracts/BiometricWallet.sol\":3701:4480  function validateUserOp(... */\n    tag_30:\n        /* \"contracts/BiometricWallet.sol\":3834:3846  bool success */\n      0x00\n        /* \"contracts/BiometricWallet.sol\":3910:3918  spentSet */\n      immutable(\"0x6585423cb6456b1d4957f6454d2f004f0c4f58d53a00082412d5c2ef4b1b31fd\")\n        /* \"contracts/BiometricWallet.sol\":3910:3925  spentSet.isUsed */\n      0xffffffffffffffffffffffffffffffffffffffff\n      and\n      0xfe255a18\n        /* \"contracts/BiometricWallet.sol\":3926:3929  rho */\n      dup6\n        /* \"contracts/BiometricWallet.sol\":3910:3930  spentSet.isUsed(rho) */\n      mload(0x40)\n      dup3\n      0xffffffff\n      and\n      0xe0\n      shl\n      dup2\n      mstore\n      0x04\n      add\n      tag_82\n      swap2\n      swap1\n      tag_52\n      jump\t// in\n    tag_82:\n      0x20\n      mload(0x40)\n      dup1\n      dup4\n      sub\n      dup2\n      dup7\n      gas\n      staticcall\n      iszero\n      dup1\n      iszero\n      tag_84\n      jumpi\n      returndatacopy(0x00, 0x00, returndatasize)\n      revert(0x00, returndatasize)\n    tag_84:\n      pop\n      pop\n      pop\n      pop\n      mload(0x40)\n      returndatasize\n      not(0x1f)\n      0x1f\n      dup3\n      add\n      and\n      dup3\n      add\n      dup1\n      0x40\n      mstore\n      pop\n      dup2\n      add\n      swap1\n      tag_85\n      swap2\n      swap1\n      tag_86\n      jump\t// in\n    tag_85:\n        /* \"contracts/BiometricWallet.sol\":3909:3930  !spentSet.isUsed(rho) */\n      iszero\n        /* \"contracts/BiometricWallet.sol\":3901:3954  require(!spentSet.isUsed(rho), \"Token already spent\") */\n      tag_87\n      jumpi\n      mload(0x40)\n      0x08c379a000000000000000000000000000000000000000000000000000000000\n      dup2\n      mstore\n      0x04\n      add\n      tag_88\n      swap1\n      tag_89\n      jump\t// in\n    tag_88:\n      mload(0x40)\n      dup1\n      swap2\n      sub\n      swap1\n      revert\n    tag_87:\n        /* \"contracts/BiometricWallet.sol\":4022:4039  bytes32 typedHash */\n      0x00\n        /* \"contracts/BiometricWallet.sol\":4042:4075  _hashTypedDataV4(rho, userOpHash) */\n      tag_90\n        /* \"contracts/BiometricWallet.sol\":4059:4062  rho */\n      dup6\n        /* \"contracts/BiometricWallet.sol\":4064:4074  userOpHash */\n      dup6\n        /* \"contracts/BiometricWallet.sol\":4042:4058  _hashTypedDataV4 */\n      tag_91\n        /* \"contracts/BiometricWallet.sol\":4042:4075  _hashTypedDataV4(rho, userOpHash) */\n      jump\t// in\n    tag_90:\n        /* \"contracts/BiometricWallet.sol\":4022:4075  bytes32 typedHash = _hashTypedDataV4(rho, userOpHash) */\n      swap1\n      pop\n        /* \"contracts/BiometricWallet.sol\":4133:4147  address signer */\n      0x00\n        /* \"contracts/BiometricWallet.sol\":4150:4186  _recoverSigner(typedHash, signature) */\n      tag_92\n        /* \"contracts/BiometricWallet.sol\":4165:4174  typedHash */\n      dup3\n        /* \"contracts/BiometricWallet.sol\":4176:4185  signature */\n      dup6\n        /* \"contracts/BiometricWallet.sol\":4150:4164  _recoverSigner */\n      tag_78\n        /* \"contracts/BiometricWallet.sol\":4150:4186  _recoverSigner(typedHash, signature) */\n      jump\t// in\n    tag_92:\n        /* \"contracts/BiometricWallet.sol\":4133:4186  address signer = _recoverSigner(typedHash, signature) */\n      swap1\n      pop\n        /* \"contracts/BiometricWallet.sol\":4223:4224  0 */\n      0x00\n        /* \"contracts/BiometricWallet.sol\":4205:4225  signer != address(0) */\n      0xffffffffffffffffffffffffffffffffffffffff\n      and\n        /* \"contracts/BiometricWallet.sol\":4205:4211  signer */\n      dup2\n        /* \"contracts/BiometricWallet.sol\":4205:4225  signer != address(0) */\n      0xffffffffffffffffffffffffffffffffffffffff\n      and\n      sub\n        /* \"contracts/BiometricWallet.sol\":4197:4247  require(signer != address(0), \"Invalid signature\") */\n      tag_93\n      jumpi\n      mload(0x40)\n      0x08c379a000000000000000000000000000000000000000000000000000000000\n      dup2\n      mstore\n      0x04\n      add\n      tag_94\n      swap1\n      tag_95\n      jump\t// in\n    tag_94:\n      mload(0x40)\n      dup1\n      swap2\n      sub\n      swap1\n      revert\n    tag_93:\n        /* \"contracts/BiometricWallet.sol\":4266:4279  authorizedKey */\n      0x00\n        /* \"contracts/BiometricWallet.sol\":4266:4287  authorizedKey[signer] */\n      0x00\n        /* \"contracts/BiometricWallet.sol\":4280:4286  signer */\n      dup3\n        /* \"contracts/BiometricWallet.sol\":4266:4287  authorizedKey[signer] */\n      0xffffffffffffffffffffffffffffffffffffffff\n      and\n      0xffffffffffffffffffffffffffffffffffffffff\n      and\n      dup2\n      mstore\n      0x20\n      add\n      swap1\n      dup2\n      mstore\n      0x20\n      add\n      0x00\n      keccak256\n      0x00\n      swap1\n      sload\n      swap1\n      0x0100\n      exp\n      swap1\n      div\n      0xff\n      and\n        /* \"contracts/BiometricWallet.sol\":4258:4311  require(authorizedKey[signer], \"Unauthorized signer\") */\n      tag_96\n      jumpi\n      mload(0x40)\n      0x08c379a000000000000000000000000000000000000000000000000000000000\n      dup2\n      mstore\n      0x04\n      add\n      tag_97\n      swap1\n      tag_98\n      jump\t// in\n    tag_97:\n      mload(0x40)\n      dup1\n      swap2\n      sub\n      swap1\n      revert\n    tag_96:\n        /* \"contracts/BiometricWallet.sol\":4374:4382  spentSet */\n      immutable(\"0x6585423cb6456b1d4957f6454d2f004f0c4f58d53a00082412d5c2ef4b1b31fd\")\n        /* \"contracts/BiometricWallet.sol\":4374:4391  spentSet.markUsed */\n      0xffffffffffffffffffffffffffffffffffffffff\n      and\n      0xe21e9e0e\n        /* \"contracts/BiometricWallet.sol\":4392:4395  rho */\n      dup8\n        /* \"contracts/BiometricWallet.sol\":4374:4396  spentSet.markUsed(rho) */\n      mload(0x40)\n      dup3\n      0xffffffff\n      and\n      0xe0\n      shl\n      dup2\n      mstore\n      0x04\n      add\n      tag_99\n      swap2\n      swap1\n      tag_52\n      jump\t// in\n    tag_99:\n      0x00\n      mload(0x40)\n      dup1\n      dup4\n      sub\n      dup2\n      0x00\n      dup8\n      dup1\n      extcodesize\n      iszero\n      dup1\n      iszero\n      tag_100\n      jumpi\n      revert(0x00, 0x00)\n    tag_100:\n      pop\n      gas\n      call\n      iszero\n      dup1\n      iszero\n      tag_102\n      jumpi\n      returndatacopy(0x00, 0x00, returndatasize)\n      revert(0x00, returndatasize)\n    tag_102:\n      pop\n      pop\n      pop\n      pop\n        /* \"contracts/BiometricWallet.sol\":4440:4443  rho */\n      dup6\n        /* \"contracts/BiometricWallet.sol\":4422:4450  OperationExecuted(rho, true) */\n      0x1d14a3e696bb4d8779eaae342540fc3207c9a38d1ac7d987f623f3181df06c42\n        /* \"contracts/BiometricWallet.sol\":4445:4449  true */\n      0x01\n        /* \"contracts/BiometricWallet.sol\":4422:4450  OperationExecuted(rho, true) */\n      mload(0x40)\n      tag_103\n      swap2\n      swap1\n      tag_32\n      jump\t// in\n    tag_103:\n      mload(0x40)\n      dup1\n      swap2\n      sub\n      swap1\n      log2\n        /* \"contracts/BiometricWallet.sol\":4468:4472  true */\n      0x01\n        /* \"contracts/BiometricWallet.sol\":4461:4472  return true */\n      swap3\n      pop\n      pop\n      pop\n        /* \"contracts/BiometricWallet.sol\":3701:4480  function validateUserOp(... */\n      swap4\n      swap3\n      pop\n      pop\n      pop\n      jump\t// out\n        /* \"contracts/BiometricWallet.sol\":2664:2933  function addAuthorizedKey(address key) external {... */\n    tag_37:\n        /* \"contracts/BiometricWallet.sol\":2745:2750  owner */\n      0x01\n      0x00\n      swap1\n      sload\n      swap1\n      0x0100\n      exp\n      swap1\n      div\n      0xffffffffffffffffffffffffffffffffffffffff\n      and\n        /* \"contracts/BiometricWallet.sol\":2731:2750  msg.sender == owner */\n      0xffffffffffffffffffffffffffffffffffffffff\n      and\n        /* \"contracts/BiometricWallet.sol\":2731:2741  msg.sender */\n      caller\n        /* \"contracts/BiometricWallet.sol\":2731:2750  msg.sender == owner */\n      0xffffffffffffffffffffffffffffffffffffffff\n      and\n      eq\n        /* \"contracts/BiometricWallet.sol\":2731:2781  msg.sender == owner || msg.sender == address(this) */\n      dup1\n      tag_105\n      jumpi\n      pop\n        /* \"contracts/BiometricWallet.sol\":2776:2780  this */\n      address\n        /* \"contracts/BiometricWallet.sol\":2754:2781  msg.sender == address(this) */\n      0xffffffffffffffffffffffffffffffffffffffff\n      and\n        /* \"contracts/BiometricWallet.sol\":2754:2764  msg.sender */\n      caller\n        /* \"contracts/BiometricWallet.sol\":2754:2781  msg.sender == address(this) */\n      0xffffffffffffffffffffffffffffffffffffffff\n      and\n      eq\n        /* \"contracts/BiometricWallet.sol\":2731:2781  msg.sender == owner || msg.sender == address(this) */\n    tag_105:\n        /* \"contracts/BiometricWallet.sol\":2723:2798  require(msg.sender == owner || msg.sender == address(this), \"Unauthorized\") */\n      tag_106\n      jumpi\n      mload(0x40)\n      0x08c379a000000000000000000000000000000000000000000000000000000000\n      dup2\n      mstore\n      0x04\n      add\n      tag_107\n      swap1\n      tag_108\n      jump\t// in\n    tag_107:\n      mload(0x40)\n      dup1\n      swap2\n      sub\n      swap1\n      revert\n    tag_106:\n        /* \"contracts/BiometricWallet.sol\":2832:2833  0 */\n      0x00\n        /* \"contracts/BiometricWallet.sol\":2817:2834  key != address(0) */\n      0xffffffffffffffffffffffffffffffffffffffff\n      and\n        /* \"contracts/BiometricWallet.sol\":2817:2820  key */\n      dup2\n        /* \"contracts/BiometricWallet.sol\":2817:2834  key != address(0) */\n      0xffffffffffffffffffffffffffffffffffffffff\n      and\n      sub\n        /* \"contracts/BiometricWallet.sol\":2809:2850  require(key != address(0), \"Invalid key\") */\n      tag_109\n      jumpi\n      mload(0x40)\n      0x08c379a000000000000000000000000000000000000000000000000000000000\n      dup2\n      mstore\n      0x04\n      add\n      tag_110\n      swap1\n      tag_111\n      jump\t// in\n    tag_110:\n      mload(0x40)\n      dup1\n      swap2\n      sub\n      swap1\n      revert\n    tag_109:\n        /* \"contracts/BiometricWallet.sol\":2882:2886  true */\n      0x01\n        /* \"contracts/BiometricWallet.sol\":2861:2874  authorizedKey */\n      0x00\n        /* \"contracts/BiometricWallet.sol\":2861:2879  authorizedKey[key] */\n      0x00\n        /* \"contracts/BiometricWallet.sol\":2875:2878  key */\n      dup4\n        /* \"contracts/BiometricWallet.sol\":2861:2879  authorizedKey[key] */\n      0xffffffffffffffffffffffffffffffffffffffff\n      and\n      0xffffffffffffffffffffffffffffffffffffffff\n      and\n      dup2\n      mstore\n      0x20\n      add\n      swap1\n      dup2\n      mstore\n      0x20\n      add\n      0x00\n      keccak256\n      0x00\n        /* \"contracts/BiometricWallet.sol\":2861:2886  authorizedKey[key] = true */\n      0x0100\n      exp\n      dup2\n      sload\n      dup2\n      0xff\n      mul\n      not\n      and\n      swap1\n      dup4\n      iszero\n      iszero\n      mul\n      or\n      swap1\n      sstore\n      pop\n        /* \"contracts/BiometricWallet.sol\":2921:2924  key */\n      dup1\n        /* \"contracts/BiometricWallet.sol\":2902:2925  AuthorizedKeyAdded(key) */\n      0xffffffffffffffffffffffffffffffffffffffff\n      and\n      0xcd196ed3fe0b915032d44f7a350619b55156091d4c5cb9cdc31e5a90cbdc645a\n      mload(0x40)\n      mload(0x40)\n      dup1\n      swap2\n      sub\n      swap1\n      log2\n        /* \"contracts/BiometricWallet.sol\":2664:2933  function addAuthorizedKey(address key) external {... */\n      pop\n      jump\t// out\n        /* \"contracts/BiometricWallet.sol\":523:568  mapping(address => bool) public authorizedKey */\n    tag_41:\n      mstore(0x20, 0x00)\n      dup1\n      0x00\n      mstore\n      keccak256(0x00, 0x40)\n      0x00\n      swap2\n      pop\n      sload\n      swap1\n      0x0100\n      exp\n      swap1\n      div\n      0xff\n      and\n      dup2\n      jump\t// out\n        /* \"contracts/BiometricWallet.sol\":581:601  address public owner */\n    tag_45:\n      0x01\n      0x00\n      swap1\n      sload\n      swap1\n      0x0100\n      exp\n      swap1\n      div\n      0xffffffffffffffffffffffffffffffffffffffff\n      and\n      dup2\n      jump\t// out\n        /* \"contracts/BiometricWallet.sol\":7664:7774  function authMessageTypehash() external pure returns (bytes32) {... */\n    tag_50:\n        /* \"contracts/BiometricWallet.sol\":7718:7725  bytes32 */\n      0x00\n        /* \"contracts/BiometricWallet.sol\":871:931  keccak256(\"AuthMessage(bytes32 tokenId,bytes32 userOpHash)\") */\n      0x435093e3334ab5b3f5d72718bbeb82b89e8e027577df7111dcc90d20ea7e5f1c\n        /* \"contracts/BiometricWallet.sol\":7738:7766  return AUTH_MESSAGE_TYPEHASH */\n      swap1\n      pop\n        /* \"contracts/BiometricWallet.sol\":7664:7774  function authMessageTypehash() external pure returns (bytes32) {... */\n      swap1\n      jump\t// out\n        /* \"contracts/BiometricWallet.sol\":4601:4798  function validateUserOpSimple(... */\n    tag_56:\n        /* \"contracts/BiometricWallet.sol\":4711:4723  bool success */\n      0x00\n        /* \"contracts/BiometricWallet.sol\":4743:4747  this */\n      address\n        /* \"contracts/BiometricWallet.sol\":4743:4762  this.validateUserOp */\n      0xffffffffffffffffffffffffffffffffffffffff\n      and\n      0x3e85eed0\n        /* \"contracts/BiometricWallet.sol\":4763:4766  rho */\n      dup5\n        /* \"contracts/BiometricWallet.sol\":4776:4777  0 */\n      0x00\n        /* \"contracts/BiometricWallet.sol\":4768:4778  bytes32(0) */\n      0x00\n      shl\n        /* \"contracts/BiometricWallet.sol\":4780:4789  signature */\n      dup6\n        /* \"contracts/BiometricWallet.sol\":4743:4790  this.validateUserOp(rho, bytes32(0), signature) */\n      mload(0x40)\n      dup5\n      0xffffffff\n      and\n      0xe0\n      shl\n      dup2\n      mstore\n      0x04\n      add\n      tag_114\n      swap4\n      swap3\n      swap2\n      swap1\n      tag_115\n      jump\t// in\n    tag_114:\n      0x20\n      mload(0x40)\n      dup1\n      dup4\n      sub\n      dup2\n      0x00\n      dup8\n      gas\n      call\n      iszero\n      dup1\n      iszero\n      tag_117\n      jumpi\n      returndatacopy(0x00, 0x00, returndatasize)\n      revert(0x00, returndatasize)\n    tag_117:\n      pop\n      pop\n      pop\n      pop\n      mload(0x40)\n      returndatasize\n      not(0x1f)\n      0x1f\n      dup3\n      add\n      and\n      dup3\n      add\n      dup1\n      0x40\n      mstore\n      pop\n      dup2\n      add\n      swap1\n      tag_118\n      swap2\n      swap1\n      tag_86\n      jump\t// in\n    tag_118:\n        /* \"contracts/BiometricWallet.sol\":4736:4790  return this.validateUserOp(rho, bytes32(0), signature) */\n      swap1\n      pop\n        /* \"contracts/BiometricWallet.sol\":4601:4798  function validateUserOpSimple(... */\n      swap3\n      swap2\n      pop\n      pop\n      jump\t// out\n        /* \"contracts/BiometricWallet.sol\":3046:3324  function removeAuthorizedKey(address key) external {... */\n    tag_61:\n        /* \"contracts/BiometricWallet.sol\":3130:3135  owner */\n      0x01\n      0x00\n      swap1\n      sload\n      swap1\n      0x0100\n      exp\n      swap1\n      div\n      0xffffffffffffffffffffffffffffffffffffffff\n      and\n        /* \"contracts/BiometricWallet.sol\":3116:3135  msg.sender == owner */\n      0xffffffffffffffffffffffffffffffffffffffff\n      and\n        /* \"contracts/BiometricWallet.sol\":3116:3126  msg.sender */\n      caller\n        /* \"contracts/BiometricWallet.sol\":3116:3135  msg.sender == owner */\n      0xffffffffffffffffffffffffffffffffffffffff\n      and\n      eq\n        /* \"contracts/BiometricWallet.sol\":3116:3166  msg.sender == owner || msg.sender == address(this) */\n      dup1\n      tag_120\n      jumpi\n      pop\n        /* \"contracts/BiometricWallet.sol\":3161:3165  this */\n      address\n        /* \"contracts/BiometricWallet.sol\":3139:3166  msg.sender == address(this) */\n      0xffffffffffffffffffffffffffffffffffffffff\n      and\n        /* \"contracts/BiometricWallet.sol\":3139:3149  msg.sender */\n      caller\n        /* \"contracts/BiometricWallet.sol\":3139:3166  msg.sender == address(this) */\n      0xffffffffffffffffffffffffffffffffffffffff\n      and\n      eq\n        /* \"contracts/BiometricWallet.sol\":3116:3166  msg.sender == owner || msg.sender == address(this) */\n    tag_120:\n        /* \"contracts/BiometricWallet.sol\":3108:3183  require(msg.sender == owner || msg.sender == address(this), \"Unauthorized\") */\n      tag_121\n      jumpi\n      mload(0x40)\n      0x08c379a000000000000000000000000000000000000000000000000000000000\n      dup2\n      mstore\n      0x04\n      add\n      tag_122\n      swap1\n      tag_108\n      jump\t// in\n    tag_122:\n      mload(0x40)\n      dup1\n      swap2\n      sub\n      swap1\n      revert\n    tag_121:\n        /* \"contracts/BiometricWallet.sol\":3209:3214  owner */\n      0x01\n      0x00\n      swap1\n      sload\n      swap1\n      0x0100\n      exp\n      swap1\n      div\n      0xffffffffffffffffffffffffffffffffffffffff\n      and\n        /* \"contracts/BiometricWallet.sol\":3202:3214  key != owner */\n      0xffffffffffffffffffffffffffffffffffffffff\n      and\n        /* \"contracts/BiometricWallet.sol\":3202:3205  key */\n      dup2\n        /* \"contracts/BiometricWallet.sol\":3202:3214  key != owner */\n      0xffffffffffffffffffffffffffffffffffffffff\n      and\n      sub\n        /* \"contracts/BiometricWallet.sol\":3194:3238  require(key != owner, \"Cannot revoke owner\") */\n      tag_123\n      jumpi\n      mload(0x40)\n      0x08c379a000000000000000000000000000000000000000000000000000000000\n      dup2\n      mstore\n      0x04\n      add\n      tag_124\n      swap1\n      tag_125\n      jump\t// in\n    tag_124:\n      mload(0x40)\n      dup1\n      swap2\n      sub\n      swap1\n      revert\n    tag_123:\n        /* \"contracts/BiometricWallet.sol\":3270:3275  false */\n      0x00\n        /* \"contracts/BiometricWallet.sol\":3249:3262  authorizedKey */\n      0x00\n        /* \"contracts/BiometricWallet.sol\":3249:3267  authorizedKey[key] */\n      0x00\n        /* \"contracts/BiometricWallet.sol\":3263:3266  key */\n      dup4\n        /* \"contracts/BiometricWallet.sol\":3249:3267  authorizedKey[key] */\n      0xffffffffffffffffffffffffffffffffffffffff\n      and\n      0xffffffffffffffffffffffffffffffffffffffff\n      and\n      dup2\n      mstore\n      0x20\n      add\n      swap1\n      dup2\n      mstore\n      0x20\n      add\n      0x00\n      keccak256\n      0x00\n        /* \"contracts/BiometricWallet.sol\":3249:3275  authorizedKey[key] = false */\n      0x0100\n      exp\n      dup2\n      sload\n      dup2\n      0xff\n      mul\n      not\n      and\n      swap1\n      dup4\n      iszero\n      iszero\n      mul\n      or\n      swap1\n      sstore\n      pop\n        /* \"contracts/BiometricWallet.sol\":3312:3315  key */\n      dup1\n        /* \"contracts/BiometricWallet.sol\":3291:3316  AuthorizedKeyRemoved(key) */\n      0xffffffffffffffffffffffffffffffffffffffff\n      and\n      0xa4961ab7db186b01af2eca2010a24b0745d70dd18a946e095490491a12faf7a4\n      mload(0x40)\n      mload(0x40)\n      dup1\n      swap2\n      sub\n      swap1\n      log2\n        /* \"contracts/BiometricWallet.sol\":3046:3324  function removeAuthorizedKey(address key) external {... */\n      pop\n      jump\t// out\n        /* \"contracts/BiometricWallet.sol\":608:643  ISpentSet public immutable spentSet */\n    tag_64:\n      immutable(\"0x6585423cb6456b1d4957f6454d2f004f0c4f58d53a00082412d5c2ef4b1b31fd\")\n      dup2\n      jump\t// out\n        /* \"contracts/BiometricWallet.sol\":7491:7592  function domainSeparator() external view returns (bytes32) {... */\n    tag_69:\n        /* \"contracts/BiometricWallet.sol\":7541:7548  bytes32 */\n      0x00\n        /* \"contracts/BiometricWallet.sol\":7568:7584  DOMAIN_SEPARATOR */\n      immutable(\"0x9cce9eb03c9f29c6481fca9f0f942b15bef0bbbc47fda0ddb44df157019835d9\")\n        /* \"contracts/BiometricWallet.sol\":7561:7584  return DOMAIN_SEPARATOR */\n      swap1\n      pop\n        /* \"contracts/BiometricWallet.sol\":7491:7592  function domainSeparator() external view returns (bytes32) {... */\n      swap1\n      jump\t// out\n        /* \"contracts/BiometricWallet.sol\":7316:7424  function isAuthorized(address key) external view returns (bool) {... */\n    tag_74:\n        /* \"contracts/BiometricWallet.sol\":7374:7378  bool */\n      0x00\n        /* \"contracts/BiometricWallet.sol\":7398:7411  authorizedKey */\n      0x00\n        /* \"contracts/BiometricWallet.sol\":7398:7416  authorizedKey[key] */\n      0x00\n        /* \"contracts/BiometricWallet.sol\":7412:7415  key */\n      dup4\n        /* \"contracts/BiometricWallet.sol\":7398:7416  authorizedKey[key] */\n      0xffffffffffffffffffffffffffffffffffffffff\n      and\n      0xffffffffffffffffffffffffffffffffffffffff\n      and\n      dup2\n      mstore\n      0x20\n      add\n      swap1\n      dup2\n      mstore\n      0x20\n      add\n      0x00\n      keccak256\n      0x00\n      swap1\n      sload\n      swap1\n      0x0100\n      exp\n      swap1\n      div\n      0xff\n      and\n        /* \"contracts/BiometricWallet.sol\":7391:7416  return authorizedKey[key] */\n      swap1\n      pop\n        /* \"contracts/BiometricWallet.sol\":7316:7424  function isAuthorized(address key) external view returns (bool) {... */\n      swap2\n      swap1\n      pop\n      jump\t// out\n        /* \"contracts/BiometricWallet.sol\":6453:7185  function _recoverSigner(... */\n    tag_78:\n        /* \"contracts/BiometricWallet.sol\":6563:6577  address signer */\n      0x00\n        /* \"contracts/BiometricWallet.sol\":6614:6616  65 */\n      0x41\n        /* \"contracts/BiometricWallet.sol\":6594:6603  signature */\n      dup3\n        /* \"contracts/BiometricWallet.sol\":6594:6610  signature.length */\n      mload\n        /* \"contracts/BiometricWallet.sol\":6594:6616  signature.length != 65 */\n      eq\n        /* \"contracts/BiometricWallet.sol\":6590:6662  if (signature.length != 65) {... */\n      tag_129\n      jumpi\n        /* \"contracts/BiometricWallet.sol\":6648:6649  0 */\n      0x00\n        /* \"contracts/BiometricWallet.sol\":6633:6650  return address(0) */\n      swap1\n      pop\n      jump(tag_128)\n        /* \"contracts/BiometricWallet.sol\":6590:6662  if (signature.length != 65) {... */\n    tag_129:\n        /* \"contracts/BiometricWallet.sol\":6682:6691  bytes32 r */\n      0x00\n        /* \"contracts/BiometricWallet.sol\":6702:6711  bytes32 s */\n      0x00\n        /* \"contracts/BiometricWallet.sol\":6722:6729  uint8 v */\n      0x00\n        /* \"contracts/BiometricWallet.sol\":6800:6804  0x20 */\n      0x20\n        /* \"contracts/BiometricWallet.sol\":6789:6798  signature */\n      dup6\n        /* \"contracts/BiometricWallet.sol\":6785:6805  add(signature, 0x20) */\n      add\n        /* \"contracts/BiometricWallet.sol\":6779:6806  mload(add(signature, 0x20)) */\n      mload\n        /* \"contracts/BiometricWallet.sol\":6774:6806  r := mload(add(signature, 0x20)) */\n      swap3\n      pop\n        /* \"contracts/BiometricWallet.sol\":6846:6850  0x40 */\n      0x40\n        /* \"contracts/BiometricWallet.sol\":6835:6844  signature */\n      dup6\n        /* \"contracts/BiometricWallet.sol\":6831:6851  add(signature, 0x40) */\n      add\n        /* \"contracts/BiometricWallet.sol\":6825:6852  mload(add(signature, 0x40)) */\n      mload\n        /* \"contracts/BiometricWallet.sol\":6820:6852  s := mload(add(signature, 0x40)) */\n      swap2\n      pop\n        /* \"contracts/BiometricWallet.sol\":6900:6904  0x60 */\n      0x60\n        /* \"contracts/BiometricWallet.sol\":6889:6898  signature */\n      dup6\n        /* \"contracts/BiometricWallet.sol\":6885:6905  add(signature, 0x60) */\n      add\n        /* \"contracts/BiometricWallet.sol\":6879:6906  mload(add(signature, 0x60)) */\n      mload\n        /* \"contracts/BiometricWallet.sol\":6876:6877  0 */\n      0x00\n        /* \"contracts/BiometricWallet.sol\":6871:6907  byte(0, mload(add(signature, 0x60))) */\n      byte\n        /* \"contracts/BiometricWallet.sol\":6866:6907  v := byte(0, mload(add(signature, 0x60))) */\n      swap1\n      pop\n        /* \"contracts/BiometricWallet.sol\":7000:7002  27 */\n      0x1b\n        /* \"contracts/BiometricWallet.sol\":6996:6997  v */\n      dup2\n        /* \"contracts/BiometricWallet.sol\":6996:7002  v < 27 */\n      0xff\n      and\n      lt\n        /* \"contracts/BiometricWallet.sol\":6992:7038  if (v < 27) {... */\n      iszero\n      tag_130\n      jumpi\n        /* \"contracts/BiometricWallet.sol\":7024:7026  27 */\n      0x1b\n        /* \"contracts/BiometricWallet.sol\":7019:7026  v += 27 */\n      dup2\n      tag_131\n      swap2\n      swap1\n      tag_132\n      jump\t// in\n    tag_131:\n      swap1\n      pop\n        /* \"contracts/BiometricWallet.sol\":6992:7038  if (v < 27) {... */\n    tag_130:\n        /* \"contracts/BiometricWallet.sol\":7067:7069  27 */\n      0x1b\n        /* \"contracts/BiometricWallet.sol\":7062:7063  v */\n      dup2\n        /* \"contracts/BiometricWallet.sol\":7062:7069  v != 27 */\n      0xff\n      and\n      eq\n      iszero\n        /* \"contracts/BiometricWallet.sol\":7062:7080  v != 27 && v != 28 */\n      dup1\n      iszero\n      tag_133\n      jumpi\n      pop\n        /* \"contracts/BiometricWallet.sol\":7078:7080  28 */\n      0x1c\n        /* \"contracts/BiometricWallet.sol\":7073:7074  v */\n      dup2\n        /* \"contracts/BiometricWallet.sol\":7073:7080  v != 28 */\n      0xff\n      and\n      eq\n      iszero\n        /* \"contracts/BiometricWallet.sol\":7062:7080  v != 27 && v != 28 */\n    tag_133:\n        /* \"contracts/BiometricWallet.sol\":7058:7126  if (v != 27 && v != 28) {... */\n      iszero\n      tag_134\n      jumpi\n        /* \"contracts/BiometricWallet.sol\":7112:7113  0 */\n      0x00\n        /* \"contracts/BiometricWallet.sol\":7097:7114  return address(0) */\n      swap4\n      pop\n      pop\n      pop\n      pop\n      jump(tag_128)\n        /* \"contracts/BiometricWallet.sol\":7058:7126  if (v != 27 && v != 28) {... */\n    tag_134:\n        /* \"contracts/BiometricWallet.sol\":7153:7177  ecrecover(hash, v, r, s) */\n      0x01\n        /* \"contracts/BiometricWallet.sol\":7163:7167  hash */\n      dup7\n        /* \"contracts/BiometricWallet.sol\":7169:7170  v */\n      dup3\n        /* \"contracts/BiometricWallet.sol\":7172:7173  r */\n      dup6\n        /* \"contracts/BiometricWallet.sol\":7175:7176  s */\n      dup6\n        /* \"contracts/BiometricWallet.sol\":7153:7177  ecrecover(hash, v, r, s) */\n      mload(0x40)\n      0x00\n      dup2\n      mstore\n      0x20\n      add\n      0x40\n      mstore\n      mload(0x40)\n      tag_135\n      swap5\n      swap4\n      swap3\n      swap2\n      swap1\n      tag_136\n      jump\t// in\n    tag_135:\n      0x20\n      mload(0x40)\n      0x20\n      dup2\n      sub\n      swap1\n      dup1\n      dup5\n      sub\n      swap1\n      dup6\n      gas\n      staticcall\n      iszero\n      dup1\n      iszero\n      tag_138\n      jumpi\n      returndatacopy(0x00, 0x00, returndatasize)\n      revert(0x00, returndatasize)\n    tag_138:\n      pop\n      pop\n      pop\n      mload(sub(mload(0x40), 0x20))\n        /* \"contracts/BiometricWallet.sol\":7146:7177  return ecrecover(hash, v, r, s) */\n      swap4\n      pop\n      pop\n      pop\n      pop\n        /* \"contracts/BiometricWallet.sol\":6453:7185  function _recoverSigner(... */\n    tag_128:\n      swap3\n      swap2\n      pop\n      pop\n      jump\t// out\n        /* \"contracts/BiometricWallet.sol\":5718:6220  function _hashTypedDataV4(... */\n    tag_91:\n        /* \"contracts/BiometricWallet.sol\":5829:5836  bytes32 */\n      0x00\n        /* \"contracts/BiometricWallet.sol\":5849:5867  bytes32 structHash */\n      0x00\n        /* \"contracts/BiometricWallet.sol\":871:931  keccak256(\"AuthMessage(bytes32 tokenId,bytes32 userOpHash)\") */\n      0x435093e3334ab5b3f5d72718bbeb82b89e8e027577df7111dcc90d20ea7e5f1c\n        /* \"contracts/BiometricWallet.sol\":5963:5970  tokenId */\n      dup5\n        /* \"contracts/BiometricWallet.sol\":5989:5999  userOpHash */\n      dup5\n        /* \"contracts/BiometricWallet.sol\":5894:6014  abi.encode(... */\n      add(0x20, mload(0x40))\n      tag_140\n      swap4\n      swap3\n      swap2\n      swap1\n      tag_141\n      jump\t// in\n    tag_140:\n      mload(0x40)\n      0x20\n      dup2\n      dup4\n      sub\n      sub\n      dup2\n      mstore\n      swap1\n      0x40\n      mstore\n        /* \"contracts/BiometricWallet.sol\":5870:6025  keccak256(... */\n      dup1\n      mload\n      swap1\n      0x20\n      add\n      keccak256\n        /* \"contracts/BiometricWallet.sol\":5849:6025  bytes32 structHash = keccak256(... */\n      swap1\n      pop\n        /* \"contracts/BiometricWallet.sol\":6141:6157  DOMAIN_SEPARATOR */\n      immutable(\"0x9cce9eb03c9f29c6481fca9f0f942b15bef0bbbc47fda0ddb44df157019835d9\")\n        /* \"contracts/BiometricWallet.sol\":6176:6186  structHash */\n      dup2\n        /* \"contracts/BiometricWallet.sol\":6077:6201  abi.encodePacked(... */\n      add(0x20, mload(0x40))\n      tag_142\n      swap3\n      swap2\n      swap1\n      tag_143\n      jump\t// in\n    tag_142:\n      mload(0x40)\n      0x20\n      dup2\n      dup4\n      sub\n      sub\n      dup2\n      mstore\n      swap1\n      0x40\n      mstore\n        /* \"contracts/BiometricWallet.sol\":6053:6212  keccak256(... */\n      dup1\n      mload\n      swap1\n      0x20\n      add\n      keccak256\n        /* \"contracts/BiometricWallet.sol\":6046:6212  return keccak256(... */\n      swap2\n      pop\n      pop\n        /* \"contracts/BiometricWallet.sol\":5718:6220  function _hashTypedDataV4(... */\n      swap3\n      swap2\n      pop\n      pop\n      jump\t// out\n        /* \"#utility.yul\":7:82   */\n    tag_144:\n        /* \"#utility.yul\":40:46   */\n      0x00\n        /* \"#utility.yul\":73:75   */\n      0x40\n        /* \"#utility.yul\":67:76   */\n      mload\n        /* \"#utility.yul\":57:76   */\n      swap1\n      pop\n        /* \"#utility.yul\":7:82   */\n      swap1\n      jump\t// out\n        /* \"#utility.yul\":88:205   */\n    tag_145:\n        /* \"#utility.yul\":197:198   */\n      0x00\n        /* \"#utility.yul\":194:195   */\n      0x00\n        /* \"#utility.yul\":187:199   */\n      revert\n        /* \"#utility.yul\":211:328   */\n    tag_146:\n        /* \"#utility.yul\":320:321   */\n      0x00\n        /* \"#utility.yul\":317:318   */\n      0x00\n        /* \"#utility.yul\":310:322   */\n      revert\n        /* \"#utility.yul\":334:411   */\n    tag_147:\n        /* \"#utility.yul\":371:378   */\n      0x00\n        /* \"#utility.yul\":400:405   */\n      dup2\n        /* \"#utility.yul\":389:405   */\n      swap1\n      pop\n        /* \"#utility.yul\":334:411   */\n      swap2\n      swap1\n      pop\n      jump\t// out\n        /* \"#utility.yul\":417:539   */\n    tag_148:\n        /* \"#utility.yul\":490:514   */\n      tag_208\n        /* \"#utility.yul\":508:513   */\n      dup2\n        /* \"#utility.yul\":490:514   */\n      tag_147\n      jump\t// in\n    tag_208:\n        /* \"#utility.yul\":483:488   */\n      dup2\n        /* \"#utility.yul\":480:515   */\n      eq\n        /* \"#utility.yul\":470:533   */\n      tag_209\n      jumpi\n        /* \"#utility.yul\":529:530   */\n      0x00\n        /* \"#utility.yul\":526:527   */\n      0x00\n        /* \"#utility.yul\":519:531   */\n      revert\n        /* \"#utility.yul\":470:533   */\n    tag_209:\n        /* \"#utility.yul\":417:539   */\n      pop\n      jump\t// out\n        /* \"#utility.yul\":545:684   */\n    tag_149:\n        /* \"#utility.yul\":591:596   */\n      0x00\n        /* \"#utility.yul\":629:635   */\n      dup2\n        /* \"#utility.yul\":616:636   */\n      calldataload\n        /* \"#utility.yul\":607:636   */\n      swap1\n      pop\n        /* \"#utility.yul\":645:678   */\n      tag_211\n        /* \"#utility.yul\":672:677   */\n      dup2\n        /* \"#utility.yul\":645:678   */\n      tag_148\n      jump\t// in\n    tag_211:\n        /* \"#utility.yul\":545:684   */\n      swap3\n      swap2\n      pop\n      pop\n      jump\t// out\n        /* \"#utility.yul\":690:807   */\n    tag_150:\n        /* \"#utility.yul\":799:800   */\n      0x00\n        /* \"#utility.yul\":796:797   */\n      0x00\n        /* \"#utility.yul\":789:801   */\n      revert\n        /* \"#utility.yul\":813:930   */\n    tag_151:\n        /* \"#utility.yul\":922:923   */\n      0x00\n        /* \"#utility.yul\":919:920   */\n      0x00\n        /* \"#utility.yul\":912:924   */\n      revert\n        /* \"#utility.yul\":936:1038   */\n    tag_152:\n        /* \"#utility.yul\":977:983   */\n      0x00\n        /* \"#utility.yul\":1028:1030   */\n      0x1f\n        /* \"#utility.yul\":1024:1031   */\n      not\n        /* \"#utility.yul\":1019:1021   */\n      0x1f\n        /* \"#utility.yul\":1012:1017   */\n      dup4\n        /* \"#utility.yul\":1008:1022   */\n      add\n        /* \"#utility.yul\":1004:1032   */\n      and\n        /* \"#utility.yul\":994:1032   */\n      swap1\n      pop\n        /* \"#utility.yul\":936:1038   */\n      swap2\n      swap1\n      pop\n      jump\t// out\n        /* \"#utility.yul\":1044:1224   */\n    tag_153:\n        /* \"#utility.yul\":1092:1169   */\n      0x4e487b7100000000000000000000000000000000000000000000000000000000\n        /* \"#utility.yul\":1089:1090   */\n      0x00\n        /* \"#utility.yul\":1082:1170   */\n      mstore\n        /* \"#utility.yul\":1189:1193   */\n      0x41\n        /* \"#utility.yul\":1186:1187   */\n      0x04\n        /* \"#utility.yul\":1179:1194   */\n      mstore\n        /* \"#utility.yul\":1213:1217   */\n      0x24\n        /* \"#utility.yul\":1210:1211   */\n      0x00\n        /* \"#utility.yul\":1203:1218   */\n      revert\n        /* \"#utility.yul\":1230:1511   */\n    tag_154:\n        /* \"#utility.yul\":1313:1340   */\n      tag_217\n        /* \"#utility.yul\":1335:1339   */\n      dup3\n        /* \"#utility.yul\":1313:1340   */\n      tag_152\n      jump\t// in\n    tag_217:\n        /* \"#utility.yul\":1305:1311   */\n      dup2\n        /* \"#utility.yul\":1301:1341   */\n      add\n        /* \"#utility.yul\":1443:1449   */\n      dup2\n        /* \"#utility.yul\":1431:1441   */\n      dup2\n        /* \"#utility.yul\":1428:1450   */\n      lt\n        /* \"#utility.yul\":1407:1425   */\n      0xffffffffffffffff\n        /* \"#utility.yul\":1395:1405   */\n      dup3\n        /* \"#utility.yul\":1392:1426   */\n      gt\n        /* \"#utility.yul\":1389:1451   */\n      or\n        /* \"#utility.yul\":1386:1474   */\n      iszero\n      tag_218\n      jumpi\n        /* \"#utility.yul\":1454:1472   */\n      tag_219\n      tag_153\n      jump\t// in\n    tag_219:\n        /* \"#utility.yul\":1386:1474   */\n    tag_218:\n        /* \"#utility.yul\":1494:1504   */\n      dup1\n        /* \"#utility.yul\":1490:1492   */\n      0x40\n        /* \"#utility.yul\":1483:1505   */\n      mstore\n        /* \"#utility.yul\":1273:1511   */\n      pop\n        /* \"#utility.yul\":1230:1511   */\n      pop\n      pop\n      jump\t// out\n        /* \"#utility.yul\":1517:1646   */\n    tag_155:\n        /* \"#utility.yul\":1551:1557   */\n      0x00\n        /* \"#utility.yul\":1578:1598   */\n      tag_221\n      tag_144\n      jump\t// in\n    tag_221:\n        /* \"#utility.yul\":1568:1598   */\n      swap1\n      pop\n        /* \"#utility.yul\":1607:1640   */\n      tag_222\n        /* \"#utility.yul\":1635:1639   */\n      dup3\n        /* \"#utility.yul\":1627:1633   */\n      dup3\n        /* \"#utility.yul\":1607:1640   */\n      tag_154\n      jump\t// in\n    tag_222:\n        /* \"#utility.yul\":1517:1646   */\n      swap2\n      swap1\n      pop\n      jump\t// out\n        /* \"#utility.yul\":1652:1959   */\n    tag_156:\n        /* \"#utility.yul\":1713:1717   */\n      0x00\n        /* \"#utility.yul\":1803:1821   */\n      0xffffffffffffffff\n        /* \"#utility.yul\":1795:1801   */\n      dup3\n        /* \"#utility.yul\":1792:1822   */\n      gt\n        /* \"#utility.yul\":1789:1845   */\n      iszero\n      tag_224\n      jumpi\n        /* \"#utility.yul\":1825:1843   */\n      tag_225\n      tag_153\n      jump\t// in\n    tag_225:\n        /* \"#utility.yul\":1789:1845   */\n    tag_224:\n        /* \"#utility.yul\":1863:1892   */\n      tag_226\n        /* \"#utility.yul\":1885:1891   */\n      dup3\n        /* \"#utility.yul\":1863:1892   */\n      tag_152\n      jump\t// in\n    tag_226:\n        /* \"#utility.yul\":1855:1892   */\n      swap1\n      pop\n        /* \"#utility.yul\":1947:1951   */\n      0x20\n        /* \"#utility.yul\":1941:1945   */\n      dup2\n        /* \"#utility.yul\":1937:1952   */\n      add\n        /* \"#utility.yul\":1929:1952   */\n      swap1\n      pop\n        /* \"#utility.yul\":1652:1959   */\n      swap2\n      swap1\n      pop\n      jump\t// out\n        /* \"#utility.yul\":1965:2113   */\n    tag_157:\n        /* \"#utility.yul\":2063:2069   */\n      dup3\n        /* \"#utility.yul\":2058:2061   */\n      dup2\n        /* \"#utility.yul\":2053:2056   */\n      dup4\n        /* \"#utility.yul\":2040:2070   */\n      calldatacopy\n        /* \"#utility.yul\":2104:2105   */\n      0x00\n        /* \"#utility.yul\":2095:2101   */\n      dup4\n        /* \"#utility.yul\":2090:2093   */\n      dup4\n        /* \"#utility.yul\":2086:2102   */\n      add\n        /* \"#utility.yul\":2079:2106   */\n      mstore\n        /* \"#utility.yul\":1965:2113   */\n      pop\n      pop\n      pop\n      jump\t// out\n        /* \"#utility.yul\":2119:2542   */\n    tag_158:\n        /* \"#utility.yul\":2196:2201   */\n      0x00\n        /* \"#utility.yul\":2221:2286   */\n      tag_229\n        /* \"#utility.yul\":2237:2285   */\n      tag_230\n        /* \"#utility.yul\":2278:2284   */\n      dup5\n        /* \"#utility.yul\":2237:2285   */\n      tag_156\n      jump\t// in\n    tag_230:\n        /* \"#utility.yul\":2221:2286   */\n      tag_155\n      jump\t// in\n    tag_229:\n        /* \"#utility.yul\":2212:2286   */\n      swap1\n      pop\n        /* \"#utility.yul\":2309:2315   */\n      dup3\n        /* \"#utility.yul\":2302:2307   */\n      dup2\n        /* \"#utility.yul\":2295:2316   */\n      mstore\n        /* \"#utility.yul\":2347:2351   */\n      0x20\n        /* \"#utility.yul\":2340:2345   */\n      dup2\n        /* \"#utility.yul\":2336:2352   */\n      add\n        /* \"#utility.yul\":2385:2388   */\n      dup5\n        /* \"#utility.yul\":2376:2382   */\n      dup5\n        /* \"#utility.yul\":2371:2374   */\n      dup5\n        /* \"#utility.yul\":2367:2383   */\n      add\n        /* \"#utility.yul\":2364:2389   */\n      gt\n        /* \"#utility.yul\":2361:2473   */\n      iszero\n      tag_231\n      jumpi\n        /* \"#utility.yul\":2392:2471   */\n      tag_232\n      tag_151\n      jump\t// in\n    tag_232:\n        /* \"#utility.yul\":2361:2473   */\n    tag_231:\n        /* \"#utility.yul\":2482:2536   */\n      tag_233\n        /* \"#utility.yul\":2529:2535   */\n      dup5\n        /* \"#utility.yul\":2524:2527   */\n      dup3\n        /* \"#utility.yul\":2519:2522   */\n      dup6\n        /* \"#utility.yul\":2482:2536   */\n      tag_157\n      jump\t// in\n    tag_233:\n        /* \"#utility.yul\":2202:2542   */\n      pop\n        /* \"#utility.yul\":2119:2542   */\n      swap4\n      swap3\n      pop\n      pop\n      pop\n      jump\t// out\n        /* \"#utility.yul\":2561:2899   */\n    tag_159:\n        /* \"#utility.yul\":2616:2621   */\n      0x00\n        /* \"#utility.yul\":2665:2668   */\n      dup3\n        /* \"#utility.yul\":2658:2662   */\n      0x1f\n        /* \"#utility.yul\":2650:2656   */\n      dup4\n        /* \"#utility.yul\":2646:2663   */\n      add\n        /* \"#utility.yul\":2642:2669   */\n      slt\n        /* \"#utility.yul\":2632:2754   */\n      tag_235\n      jumpi\n        /* \"#utility.yul\":2673:2752   */\n      tag_236\n      tag_150\n      jump\t// in\n    tag_236:\n        /* \"#utility.yul\":2632:2754   */\n    tag_235:\n        /* \"#utility.yul\":2790:2796   */\n      dup2\n        /* \"#utility.yul\":2777:2797   */\n      calldataload\n        /* \"#utility.yul\":2815:2893   */\n      tag_237\n        /* \"#utility.yul\":2889:2892   */\n      dup5\n        /* \"#utility.yul\":2881:2887   */\n      dup3\n        /* \"#utility.yul\":2874:2878   */\n      0x20\n        /* \"#utility.yul\":2866:2872   */\n      dup7\n        /* \"#utility.yul\":2862:2879   */\n      add\n        /* \"#utility.yul\":2815:2893   */\n      tag_158\n      jump\t// in\n    tag_237:\n        /* \"#utility.yul\":2806:2893   */\n      swap2\n      pop\n        /* \"#utility.yul\":2622:2899   */\n      pop\n        /* \"#utility.yul\":2561:2899   */\n      swap3\n      swap2\n      pop\n      pop\n      jump\t// out\n        /* \"#utility.yul\":2905:3557   */\n    tag_22:\n        /* \"#utility.yul\":2982:2988   */\n      0x00\n        /* \"#utility.yul\":2990:2996   */\n      0x00\n        /* \"#utility.yul\":3039:3041   */\n      0x40\n        /* \"#utility.yul\":3027:3036   */\n      dup4\n        /* \"#utility.yul\":3018:3025   */\n      dup6\n        /* \"#utility.yul\":3014:3037   */\n      sub\n        /* \"#utility.yul\":3010:3042   */\n      slt\n        /* \"#utility.yul\":3007:3126   */\n      iszero\n      tag_239\n      jumpi\n        /* \"#utility.yul\":3045:3124   */\n      tag_240\n      tag_145\n      jump\t// in\n    tag_240:\n        /* \"#utility.yul\":3007:3126   */\n    tag_239:\n        /* \"#utility.yul\":3165:3166   */\n      0x00\n        /* \"#utility.yul\":3190:3243   */\n      tag_241\n        /* \"#utility.yul\":3235:3242   */\n      dup6\n        /* \"#utility.yul\":3226:3232   */\n      dup3\n        /* \"#utility.yul\":3215:3224   */\n      dup7\n        /* \"#utility.yul\":3211:3233   */\n      add\n        /* \"#utility.yul\":3190:3243   */\n      tag_149\n      jump\t// in\n    tag_241:\n        /* \"#utility.yul\":3180:3243   */\n      swap3\n      pop\n        /* \"#utility.yul\":3136:3253   */\n      pop\n        /* \"#utility.yul\":3320:3322   */\n      0x20\n        /* \"#utility.yul\":3309:3318   */\n      dup4\n        /* \"#utility.yul\":3305:3323   */\n      add\n        /* \"#utility.yul\":3292:3324   */\n      calldataload\n        /* \"#utility.yul\":3351:3369   */\n      0xffffffffffffffff\n        /* \"#utility.yul\":3343:3349   */\n      dup2\n        /* \"#utility.yul\":3340:3370   */\n      gt\n        /* \"#utility.yul\":3337:3454   */\n      iszero\n      tag_242\n      jumpi\n        /* \"#utility.yul\":3373:3452   */\n      tag_243\n      tag_146\n      jump\t// in\n    tag_243:\n        /* \"#utility.yul\":3337:3454   */\n    tag_242:\n        /* \"#utility.yul\":3478:3540   */\n      tag_244\n        /* \"#utility.yul\":3532:3539   */\n      dup6\n        /* \"#utility.yul\":3523:3529   */\n      dup3\n        /* \"#utility.yul\":3512:3521   */\n      dup7\n        /* \"#utility.yul\":3508:3530   */\n      add\n        /* \"#utility.yul\":3478:3540   */\n      tag_159\n      jump\t// in\n    tag_244:\n        /* \"#utility.yul\":3468:3540   */\n      swap2\n      pop\n        /* \"#utility.yul\":3263:3550   */\n      pop\n        /* \"#utility.yul\":2905:3557   */\n      swap3\n      pop\n      swap3\n      swap1\n      pop\n      jump\t// out\n        /* \"#utility.yul\":3563:3712   */\n    tag_160:\n        /* \"#utility.yul\":3599:3606   */\n      0x00\n        /* \"#utility.yul\":3639:3705   */\n      0xffffffff00000000000000000000000000000000000000000000000000000000\n        /* \"#utility.yul\":3632:3637   */\n      dup3\n        /* \"#utility.yul\":3628:3706   */\n      and\n        /* \"#utility.yul\":3617:3706   */\n      swap1\n      pop\n        /* \"#utility.yul\":3563:3712   */\n      swap2\n      swap1\n      pop\n      jump\t// out\n        /* \"#utility.yul\":3718:3833   */\n    tag_161:\n        /* \"#utility.yul\":3803:3826   */\n      tag_247\n        /* \"#utility.yul\":3820:3825   */\n      dup2\n        /* \"#utility.yul\":3803:3826   */\n      tag_160\n      jump\t// in\n    tag_247:\n        /* \"#utility.yul\":3798:3801   */\n      dup3\n        /* \"#utility.yul\":3791:3827   */\n      mstore\n        /* \"#utility.yul\":3718:3833   */\n      pop\n      pop\n      jump\t// out\n        /* \"#utility.yul\":3839:4057   */\n    tag_25:\n        /* \"#utility.yul\":3930:3934   */\n      0x00\n        /* \"#utility.yul\":3968:3970   */\n      0x20\n        /* \"#utility.yul\":3957:3966   */\n      dup3\n        /* \"#utility.yul\":3953:3971   */\n      add\n        /* \"#utility.yul\":3945:3971   */\n      swap1\n      pop\n        /* \"#utility.yul\":3981:4050   */\n      tag_249\n        /* \"#utility.yul\":4047:4048   */\n      0x00\n        /* \"#utility.yul\":4036:4045   */\n      dup4\n        /* \"#utility.yul\":4032:4049   */\n      add\n        /* \"#utility.yul\":4023:4029   */\n      dup5\n        /* \"#utility.yul\":3981:4050   */\n      tag_161\n      jump\t// in\n    tag_249:\n        /* \"#utility.yul\":3839:4057   */\n      swap3\n      swap2\n      pop\n      pop\n      jump\t// out\n        /* \"#utility.yul\":4063:4860   */\n    tag_29:\n        /* \"#utility.yul\":4149:4155   */\n      0x00\n        /* \"#utility.yul\":4157:4163   */\n      0x00\n        /* \"#utility.yul\":4165:4171   */\n      0x00\n        /* \"#utility.yul\":4214:4216   */\n      0x60\n        /* \"#utility.yul\":4202:4211   */\n      dup5\n        /* \"#utility.yul\":4193:4200   */\n      dup7\n        /* \"#utility.yul\":4189:4212   */\n      sub\n        /* \"#utility.yul\":4185:4217   */\n      slt\n        /* \"#utility.yul\":4182:4301   */\n      iszero\n      tag_251\n      jumpi\n        /* \"#utility.yul\":4220:4299   */\n      tag_252\n      tag_145\n      jump\t// in\n    tag_252:\n        /* \"#utility.yul\":4182:4301   */\n    tag_251:\n        /* \"#utility.yul\":4340:4341   */\n      0x00\n        /* \"#utility.yul\":4365:4418   */\n      tag_253\n        /* \"#utility.yul\":4410:4417   */\n      dup7\n        /* \"#utility.yul\":4401:4407   */\n      dup3\n        /* \"#utility.yul\":4390:4399   */\n      dup8\n        /* \"#utility.yul\":4386:4408   */\n      add\n        /* \"#utility.yul\":4365:4418   */\n      tag_149\n      jump\t// in\n    tag_253:\n        /* \"#utility.yul\":4355:4418   */\n      swap4\n      pop\n        /* \"#utility.yul\":4311:4428   */\n      pop\n        /* \"#utility.yul\":4467:4469   */\n      0x20\n        /* \"#utility.yul\":4493:4546   */\n      tag_254\n        /* \"#utility.yul\":4538:4545   */\n      dup7\n        /* \"#utility.yul\":4529:4535   */\n      dup3\n        /* \"#utility.yul\":4518:4527   */\n      dup8\n        /* \"#utility.yul\":4514:4536   */\n      add\n        /* \"#utility.yul\":4493:4546   */\n      tag_149\n      jump\t// in\n    tag_254:\n        /* \"#utility.yul\":4483:4546   */\n      swap3\n      pop\n        /* \"#utility.yul\":4438:4556   */\n      pop\n        /* \"#utility.yul\":4623:4625   */\n      0x40\n        /* \"#utility.yul\":4612:4621   */\n      dup5\n        /* \"#utility.yul\":4608:4626   */\n      add\n        /* \"#utility.yul\":4595:4627   */\n      calldataload\n        /* \"#utility.yul\":4654:4672   */\n      0xffffffffffffffff\n        /* \"#utility.yul\":4646:4652   */\n      dup2\n        /* \"#utility.yul\":4643:4673   */\n      gt\n        /* \"#utility.yul\":4640:4757   */\n      iszero\n      tag_255\n      jumpi\n        /* \"#utility.yul\":4676:4755   */\n      tag_256\n      tag_146\n      jump\t// in\n    tag_256:\n        /* \"#utility.yul\":4640:4757   */\n    tag_255:\n        /* \"#utility.yul\":4781:4843   */\n      tag_257\n        /* \"#utility.yul\":4835:4842   */\n      dup7\n        /* \"#utility.yul\":4826:4832   */\n      dup3\n        /* \"#utility.yul\":4815:4824   */\n      dup8\n        /* \"#utility.yul\":4811:4833   */\n      add\n        /* \"#utility.yul\":4781:4843   */\n      tag_159\n      jump\t// in\n    tag_257:\n        /* \"#utility.yul\":4771:4843   */\n      swap2\n      pop\n        /* \"#utility.yul\":4566:4853   */\n      pop\n        /* \"#utility.yul\":4063:4860   */\n      swap3\n      pop\n      swap3\n      pop\n      swap3\n      jump\t// out\n        /* \"#utility.yul\":4866:4956   */\n    tag_162:\n        /* \"#utility.yul\":4900:4907   */\n      0x00\n        /* \"#utility.yul\":4943:4948   */\n      dup2\n        /* \"#utility.yul\":4936:4949   */\n      iszero\n        /* \"#utility.yul\":4929:4950   */\n      iszero\n        /* \"#utility.yul\":4918:4950   */\n      swap1\n      pop\n        /* \"#utility.yul\":4866:4956   */\n      swap2\n      swap1\n      pop\n      jump\t// out\n        /* \"#utility.yul\":4962:5071   */\n    tag_163:\n        /* \"#utility.yul\":5043:5064   */\n      tag_260\n        /* \"#utility.yul\":5058:5063   */\n      dup2\n        /* \"#utility.yul\":5043:5064   */\n      tag_162\n      jump\t// in\n    tag_260:\n        /* \"#utility.yul\":5038:5041   */\n      dup3\n        /* \"#utility.yul\":5031:5065   */\n      mstore\n        /* \"#utility.yul\":4962:5071   */\n      pop\n      pop\n      jump\t// out\n        /* \"#utility.yul\":5077:5287   */\n    tag_32:\n        /* \"#utility.yul\":5164:5168   */\n      0x00\n        /* \"#utility.yul\":5202:5204   */\n      0x20\n        /* \"#utility.yul\":5191:5200   */\n      dup3\n        /* \"#utility.yul\":5187:5205   */\n      add\n        /* \"#utility.yul\":5179:5205   */\n      swap1\n      pop\n        /* \"#utility.yul\":5215:5280   */\n      tag_262\n        /* \"#utility.yul\":5277:5278   */\n      0x00\n        /* \"#utility.yul\":5266:5275   */\n      dup4\n        /* \"#utility.yul\":5262:5279   */\n      add\n        /* \"#utility.yul\":5253:5259   */\n      dup5\n        /* \"#utility.yul\":5215:5280   */\n      tag_163\n      jump\t// in\n    tag_262:\n        /* \"#utility.yul\":5077:5287   */\n      swap3\n      swap2\n      pop\n      pop\n      jump\t// out\n        /* \"#utility.yul\":5293:5419   */\n    tag_164:\n        /* \"#utility.yul\":5330:5337   */\n      0x00\n        /* \"#utility.yul\":5370:5412   */\n      0xffffffffffffffffffffffffffffffffffffffff\n        /* \"#utility.yul\":5363:5368   */\n      dup3\n        /* \"#utility.yul\":5359:5413   */\n      and\n        /* \"#utility.yul\":5348:5413   */\n      swap1\n      pop\n        /* \"#utility.yul\":5293:5419   */\n      swap2\n      swap1\n      pop\n      jump\t// out\n        /* \"#utility.yul\":5425:5521   */\n    tag_165:\n        /* \"#utility.yul\":5462:5469   */\n      0x00\n        /* \"#utility.yul\":5491:5515   */\n      tag_265\n        /* \"#utility.yul\":5509:5514   */\n      dup3\n        /* \"#utility.yul\":5491:5515   */\n      tag_164\n      jump\t// in\n    tag_265:\n        /* \"#utility.yul\":5480:5515   */\n      swap1\n      pop\n        /* \"#utility.yul\":5425:5521   */\n      swap2\n      swap1\n      pop\n      jump\t// out\n        /* \"#utility.yul\":5527:5649   */\n    tag_166:\n        /* \"#utility.yul\":5600:5624   */\n      tag_267\n        /* \"#utility.yul\":5618:5623   */\n      dup2\n        /* \"#utility.yul\":5600:5624   */\n      tag_165\n      jump\t// in\n    tag_267:\n        /* \"#utility.yul\":5593:5598   */\n      dup2\n        /* \"#utility.yul\":5590:5625   */\n      eq\n        /* \"#utility.yul\":5580:5643   */\n      tag_268\n      jumpi\n        /* \"#utility.yul\":5639:5640   */\n      0x00\n        /* \"#utility.yul\":5636:5637   */\n      0x00\n        /* \"#utility.yul\":5629:5641   */\n      revert\n        /* \"#utility.yul\":5580:5643   */\n    tag_268:\n        /* \"#utility.yul\":5527:5649   */\n      pop\n      jump\t// out\n        /* \"#utility.yul\":5655:5794   */\n    tag_167:\n        /* \"#utility.yul\":5701:5706   */\n      0x00\n        /* \"#utility.yul\":5739:5745   */\n      dup2\n        /* \"#utility.yul\":5726:5746   */\n      calldataload\n        /* \"#utility.yul\":5717:5746   */\n      swap1\n      pop\n        /* \"#utility.yul\":5755:5788   */\n      tag_270\n        /* \"#utility.yul\":5782:5787   */\n      dup2\n        /* \"#utility.yul\":5755:5788   */\n      tag_166\n      jump\t// in\n    tag_270:\n        /* \"#utility.yul\":5655:5794   */\n      swap3\n      swap2\n      pop\n      pop\n      jump\t// out\n        /* \"#utility.yul\":5800:6129   */\n    tag_36:\n        /* \"#utility.yul\":5859:5865   */\n      0x00\n        /* \"#utility.yul\":5908:5910   */\n      0x20\n        /* \"#utility.yul\":5896:5905   */\n      dup3\n        /* \"#utility.yul\":5887:5894   */\n      dup5\n        /* \"#utility.yul\":5883:5906   */\n      sub\n        /* \"#utility.yul\":5879:5911   */\n      slt\n        /* \"#utility.yul\":5876:5995   */\n      iszero\n      tag_272\n      jumpi\n        /* \"#utility.yul\":5914:5993   */\n      tag_273\n      tag_145\n      jump\t// in\n    tag_273:\n        /* \"#utility.yul\":5876:5995   */\n    tag_272:\n        /* \"#utility.yul\":6034:6035   */\n      0x00\n        /* \"#utility.yul\":6059:6112   */\n      tag_274\n        /* \"#utility.yul\":6104:6111   */\n      dup5\n        /* \"#utility.yul\":6095:6101   */\n      dup3\n        /* \"#utility.yul\":6084:6093   */\n      dup6\n        /* \"#utility.yul\":6080:6102   */\n      add\n        /* \"#utility.yul\":6059:6112   */\n      tag_167\n      jump\t// in\n    tag_274:\n        /* \"#utility.yul\":6049:6112   */\n      swap2\n      pop\n        /* \"#utility.yul\":6005:6122   */\n      pop\n        /* \"#utility.yul\":5800:6129   */\n      swap3\n      swap2\n      pop\n      pop\n      jump\t// out\n        /* \"#utility.yul\":6135:6253   */\n    tag_168:\n        /* \"#utility.yul\":6222:6246   */\n      tag_276\n        /* \"#utility.yul\":6240:6245   */\n      dup2\n        /* \"#utility.yul\":6222:6246   */\n      tag_165\n      jump\t// in\n    tag_276:\n        /* \"#utility.yul\":6217:6220   */\n      dup3\n        /* \"#utility.yul\":6210:6247   */\n      mstore\n        /* \"#utility.yul\":6135:6253   */\n      pop\n      pop\n      jump\t// out\n        /* \"#utility.yul\":6259:6481   */\n    tag_47:\n        /* \"#utility.yul\":6352:6356   */\n      0x00\n        /* \"#utility.yul\":6390:6392   */\n      0x20\n        /* \"#utility.yul\":6379:6388   */\n      dup3\n        /* \"#utility.yul\":6375:6393   */\n      add\n        /* \"#utility.yul\":6367:6393   */\n      swap1\n      pop\n        /* \"#utility.yul\":6403:6474   */\n      tag_278\n        /* \"#utility.yul\":6471:6472   */\n      0x00\n        /* \"#utility.yul\":6460:6469   */\n      dup4\n        /* \"#utility.yul\":6456:6473   */\n      add\n        /* \"#utility.yul\":6447:6453   */\n      dup5\n        /* \"#utility.yul\":6403:6474   */\n      tag_168\n      jump\t// in\n    tag_278:\n        /* \"#utility.yul\":6259:6481   */\n      swap3\n      swap2\n      pop\n      pop\n      jump\t// out\n        /* \"#utility.yul\":6487:6605   */\n    tag_169:\n        /* \"#utility.yul\":6574:6598   */\n      tag_280\n        /* \"#utility.yul\":6592:6597   */\n      dup2\n        /* \"#utility.yul\":6574:6598   */\n      tag_147\n      jump\t// in\n    tag_280:\n        /* \"#utility.yul\":6569:6572   */\n      dup3\n        /* \"#utility.yul\":6562:6599   */\n      mstore\n        /* \"#utility.yul\":6487:6605   */\n      pop\n      pop\n      jump\t// out\n        /* \"#utility.yul\":6611:6833   */\n    tag_52:\n        /* \"#utility.yul\":6704:6708   */\n      0x00\n        /* \"#utility.yul\":6742:6744   */\n      0x20\n        /* \"#utility.yul\":6731:6740   */\n      dup3\n        /* \"#utility.yul\":6727:6745   */\n      add\n        /* \"#utility.yul\":6719:6745   */\n      swap1\n      pop\n        /* \"#utility.yul\":6755:6826   */\n      tag_282\n        /* \"#utility.yul\":6823:6824   */\n      0x00\n        /* \"#utility.yul\":6812:6821   */\n      dup4\n        /* \"#utility.yul\":6808:6825   */\n      add\n        /* \"#utility.yul\":6799:6805   */\n      dup5\n        /* \"#utility.yul\":6755:6826   */\n      tag_169\n      jump\t// in\n    tag_282:\n        /* \"#utility.yul\":6611:6833   */\n      swap3\n      swap2\n      pop\n      pop\n      jump\t// out\n        /* \"#utility.yul\":6839:6899   */\n    tag_170:\n        /* \"#utility.yul\":6867:6870   */\n      0x00\n        /* \"#utility.yul\":6888:6893   */\n      dup2\n        /* \"#utility.yul\":6881:6893   */\n      swap1\n      pop\n        /* \"#utility.yul\":6839:6899   */\n      swap2\n      swap1\n      pop\n      jump\t// out\n        /* \"#utility.yul\":6905:7047   */\n    tag_171:\n        /* \"#utility.yul\":6955:6964   */\n      0x00\n        /* \"#utility.yul\":6988:7041   */\n      tag_285\n        /* \"#utility.yul\":7006:7040   */\n      tag_286\n        /* \"#utility.yul\":7015:7039   */\n      tag_287\n        /* \"#utility.yul\":7033:7038   */\n      dup5\n        /* \"#utility.yul\":7015:7039   */\n      tag_164\n      jump\t// in\n    tag_287:\n        /* \"#utility.yul\":7006:7040   */\n      tag_170\n      jump\t// in\n    tag_286:\n        /* \"#utility.yul\":6988:7041   */\n      tag_164\n      jump\t// in\n    tag_285:\n        /* \"#utility.yul\":6975:7041   */\n      swap1\n      pop\n        /* \"#utility.yul\":6905:7047   */\n      swap2\n      swap1\n      pop\n      jump\t// out\n        /* \"#utility.yul\":7053:7179   */\n    tag_172:\n        /* \"#utility.yul\":7103:7112   */\n      0x00\n        /* \"#utility.yul\":7136:7173   */\n      tag_289\n        /* \"#utility.yul\":7167:7172   */\n      dup3\n        /* \"#utility.yul\":7136:7173   */\n      tag_171\n      jump\t// in\n    tag_289:\n        /* \"#utility.yul\":7123:7173   */\n      swap1\n      pop\n        /* \"#utility.yul\":7053:7179   */\n      swap2\n      swap1\n      pop\n      jump\t// out\n        /* \"#utility.yul\":7185:7327   */\n    tag_173:\n        /* \"#utility.yul\":7251:7260   */\n      0x00\n        /* \"#utility.yul\":7284:7321   */\n      tag_291\n        /* \"#utility.yul\":7315:7320   */\n      dup3\n        /* \"#utility.yul\":7284:7321   */\n      tag_172\n      jump\t// in\n    tag_291:\n        /* \"#utility.yul\":7271:7321   */\n      swap1\n      pop\n        /* \"#utility.yul\":7185:7327   */\n      swap2\n      swap1\n      pop\n      jump\t// out\n        /* \"#utility.yul\":7333:7496   */\n    tag_174:\n        /* \"#utility.yul\":7436:7489   */\n      tag_293\n        /* \"#utility.yul\":7483:7488   */\n      dup2\n        /* \"#utility.yul\":7436:7489   */\n      tag_173\n      jump\t// in\n    tag_293:\n        /* \"#utility.yul\":7431:7434   */\n      dup3\n        /* \"#utility.yul\":7424:7490   */\n      mstore\n        /* \"#utility.yul\":7333:7496   */\n      pop\n      pop\n      jump\t// out\n        /* \"#utility.yul\":7502:7756   */\n    tag_66:\n        /* \"#utility.yul\":7611:7615   */\n      0x00\n        /* \"#utility.yul\":7649:7651   */\n      0x20\n        /* \"#utility.yul\":7638:7647   */\n      dup3\n        /* \"#utility.yul\":7634:7652   */\n      add\n        /* \"#utility.yul\":7626:7652   */\n      swap1\n      pop\n        /* \"#utility.yul\":7662:7749   */\n      tag_295\n        /* \"#utility.yul\":7746:7747   */\n      0x00\n        /* \"#utility.yul\":7735:7744   */\n      dup4\n        /* \"#utility.yul\":7731:7748   */\n      add\n        /* \"#utility.yul\":7722:7728   */\n      dup5\n        /* \"#utility.yul\":7662:7749   */\n      tag_174\n      jump\t// in\n    tag_295:\n        /* \"#utility.yul\":7502:7756   */\n      swap3\n      swap2\n      pop\n      pop\n      jump\t// out\n        /* \"#utility.yul\":7762:7878   */\n    tag_175:\n        /* \"#utility.yul\":7832:7853   */\n      tag_297\n        /* \"#utility.yul\":7847:7852   */\n      dup2\n        /* \"#utility.yul\":7832:7853   */\n      tag_162\n      jump\t// in\n    tag_297:\n        /* \"#utility.yul\":7825:7830   */\n      dup2\n        /* \"#utility.yul\":7822:7854   */\n      eq\n        /* \"#utility.yul\":7812:7872   */\n      tag_298\n      jumpi\n        /* \"#utility.yul\":7868:7869   */\n      0x00\n        /* \"#utility.yul\":7865:7866   */\n      0x00\n        /* \"#utility.yul\":7858:7870   */\n      revert\n        /* \"#utility.yul\":7812:7872   */\n    tag_298:\n        /* \"#utility.yul\":7762:7878   */\n      pop\n      jump\t// out\n        /* \"#utility.yul\":7884:8021   */\n    tag_176:\n        /* \"#utility.yul\":7938:7943   */\n      0x00\n        /* \"#utility.yul\":7969:7975   */\n      dup2\n        /* \"#utility.yul\":7963:7976   */\n      mload\n        /* \"#utility.yul\":7954:7976   */\n      swap1\n      pop\n        /* \"#utility.yul\":7985:8015   */\n      tag_300\n        /* \"#utility.yul\":8009:8014   */\n      dup2\n        /* \"#utility.yul\":7985:8015   */\n      tag_175\n      jump\t// in\n    tag_300:\n        /* \"#utility.yul\":7884:8021   */\n      swap3\n      swap2\n      pop\n      pop\n      jump\t// out\n        /* \"#utility.yul\":8027:8372   */\n    tag_86:\n        /* \"#utility.yul\":8094:8100   */\n      0x00\n        /* \"#utility.yul\":8143:8145   */\n      0x20\n        /* \"#utility.yul\":8131:8140   */\n      dup3\n        /* \"#utility.yul\":8122:8129   */\n      dup5\n        /* \"#utility.yul\":8118:8141   */\n      sub\n        /* \"#utility.yul\":8114:8146   */\n      slt\n        /* \"#utility.yul\":8111:8230   */\n      iszero\n      tag_302\n      jumpi\n        /* \"#utility.yul\":8149:8228   */\n      tag_303\n      tag_145\n      jump\t// in\n    tag_303:\n        /* \"#utility.yul\":8111:8230   */\n    tag_302:\n        /* \"#utility.yul\":8269:8270   */\n      0x00\n        /* \"#utility.yul\":8294:8355   */\n      tag_304\n        /* \"#utility.yul\":8347:8354   */\n      dup5\n        /* \"#utility.yul\":8338:8344   */\n      dup3\n        /* \"#utility.yul\":8327:8336   */\n      dup6\n        /* \"#utility.yul\":8323:8345   */\n      add\n        /* \"#utility.yul\":8294:8355   */\n      tag_176\n      jump\t// in\n    tag_304:\n        /* \"#utility.yul\":8284:8355   */\n      swap2\n      pop\n        /* \"#utility.yul\":8240:8365   */\n      pop\n        /* \"#utility.yul\":8027:8372   */\n      swap3\n      swap2\n      pop\n      pop\n      jump\t// out\n        /* \"#utility.yul\":8378:8547   */\n    tag_177:\n        /* \"#utility.yul\":8462:8473   */\n      0x00\n        /* \"#utility.yul\":8496:8502   */\n      dup3\n        /* \"#utility.yul\":8491:8494   */\n      dup3\n        /* \"#utility.yul\":8484:8503   */\n      mstore\n        /* \"#utility.yul\":8536:8540   */\n      0x20\n        /* \"#utility.yul\":8531:8534   */\n      dup3\n        /* \"#utility.yul\":8527:8541   */\n      add\n        /* \"#utility.yul\":8512:8541   */\n      swap1\n      pop\n        /* \"#utility.yul\":8378:8547   */\n      swap3\n      swap2\n      pop\n      pop\n      jump\t// out\n        /* \"#utility.yul\":8553:8722   */\n    tag_178:\n        /* \"#utility.yul\":8693:8714   */\n      0x546f6b656e20616c7265616479207370656e7400000000000000000000000000\n        /* \"#utility.yul\":8689:8690   */\n      0x00\n        /* \"#utility.yul\":8681:8687   */\n      dup3\n        /* \"#utility.yul\":8677:8691   */\n      add\n        /* \"#utility.yul\":8670:8715   */\n      mstore\n        /* \"#utility.yul\":8553:8722   */\n      pop\n      jump\t// out\n        /* \"#utility.yul\":8728:9094   */\n    tag_179:\n        /* \"#utility.yul\":8870:8873   */\n      0x00\n        /* \"#utility.yul\":8891:8958   */\n      tag_308\n        /* \"#utility.yul\":8955:8957   */\n      0x13\n        /* \"#utility.yul\":8950:8953   */\n      dup4\n        /* \"#utility.yul\":8891:8958   */\n      tag_177\n      jump\t// in\n    tag_308:\n        /* \"#utility.yul\":8884:8958   */\n      swap2\n      pop\n        /* \"#utility.yul\":8967:9060   */\n      tag_309\n        /* \"#utility.yul\":9056:9059   */\n      dup3\n        /* \"#utility.yul\":8967:9060   */\n      tag_178\n      jump\t// in\n    tag_309:\n        /* \"#utility.yul\":9085:9087   */\n      0x20\n        /* \"#utility.yul\":9080:9083   */\n      dup3\n        /* \"#utility.yul\":9076:9088   */\n      add\n        /* \"#utility.yul\":9069:9088   */\n      swap1\n      pop\n        /* \"#utility.yul\":8728:9094   */\n      swap2\n      swap1\n      pop\n      jump\t// out\n        /* \"#utility.yul\":9100:9519   */\n    tag_89:\n        /* \"#utility.yul\":9266:9270   */\n      0x00\n        /* \"#utility.yul\":9304:9306   */\n      0x20\n        /* \"#utility.yul\":9293:9302   */\n      dup3\n        /* \"#utility.yul\":9289:9307   */\n      add\n        /* \"#utility.yul\":9281:9307   */\n      swap1\n      pop\n        /* \"#utility.yul\":9353:9362   */\n      dup2\n        /* \"#utility.yul\":9347:9351   */\n      dup2\n        /* \"#utility.yul\":9343:9363   */\n      sub\n        /* \"#utility.yul\":9339:9340   */\n      0x00\n        /* \"#utility.yul\":9328:9337   */\n      dup4\n        /* \"#utility.yul\":9324:9341   */\n      add\n        /* \"#utility.yul\":9317:9364   */\n      mstore\n        /* \"#utility.yul\":9381:9512   */\n      tag_311\n        /* \"#utility.yul\":9507:9511   */\n      dup2\n        /* \"#utility.yul\":9381:9512   */\n      tag_179\n      jump\t// in\n    tag_311:\n        /* \"#utility.yul\":9373:9512   */\n      swap1\n      pop\n        /* \"#utility.yul\":9100:9519   */\n      swap2\n      swap1\n      pop\n      jump\t// out\n        /* \"#utility.yul\":9525:9692   */\n    tag_180:\n        /* \"#utility.yul\":9665:9684   */\n      0x496e76616c6964207369676e6174757265000000000000000000000000000000\n        /* \"#utility.yul\":9661:9662   */\n      0x00\n        /* \"#utility.yul\":9653:9659   */\n      dup3\n        /* \"#utility.yul\":9649:9663   */\n      add\n        /* \"#utility.yul\":9642:9685   */\n      mstore\n        /* \"#utility.yul\":9525:9692   */\n      pop\n      jump\t// out\n        /* \"#utility.yul\":9698:10064   */\n    tag_181:\n        /* \"#utility.yul\":9840:9843   */\n      0x00\n        /* \"#utility.yul\":9861:9928   */\n      tag_314\n        /* \"#utility.yul\":9925:9927   */\n      0x11\n        /* \"#utility.yul\":9920:9923   */\n      dup4\n        /* \"#utility.yul\":9861:9928   */\n      tag_177\n      jump\t// in\n    tag_314:\n        /* \"#utility.yul\":9854:9928   */\n      swap2\n      pop\n        /* \"#utility.yul\":9937:10030   */\n      tag_315\n        /* \"#utility.yul\":10026:10029   */\n      dup3\n        /* \"#utility.yul\":9937:10030   */\n      tag_180\n      jump\t// in\n    tag_315:\n        /* \"#utility.yul\":10055:10057   */\n      0x20\n        /* \"#utility.yul\":10050:10053   */\n      dup3\n        /* \"#utility.yul\":10046:10058   */\n      add\n        /* \"#utility.yul\":10039:10058   */\n      swap1\n      pop\n        /* \"#utility.yul\":9698:10064   */\n      swap2\n      swap1\n      pop\n      jump\t// out\n        /* \"#utility.yul\":10070:10489   */\n    tag_95:\n        /* \"#utility.yul\":10236:10240   */\n      0x00\n        /* \"#utility.yul\":10274:10276   */\n      0x20\n        /* \"#utility.yul\":10263:10272   */\n      dup3\n        /* \"#utility.yul\":10259:10277   */\n      add\n        /* \"#utility.yul\":10251:10277   */\n      swap1\n      pop\n        /* \"#utility.yul\":10323:10332   */\n      dup2\n        /* \"#utility.yul\":10317:10321   */\n      dup2\n        /* \"#utility.yul\":10313:10333   */\n      sub\n        /* \"#utility.yul\":10309:10310   */\n      0x00\n        /* \"#utility.yul\":10298:10307   */\n      dup4\n        /* \"#utility.yul\":10294:10311   */\n      add\n        /* \"#utility.yul\":10287:10334   */\n      mstore\n        /* \"#utility.yul\":10351:10482   */\n      tag_317\n        /* \"#utility.yul\":10477:10481   */\n      dup2\n        /* \"#utility.yul\":10351:10482   */\n      tag_181\n      jump\t// in\n    tag_317:\n        /* \"#utility.yul\":10343:10482   */\n      swap1\n      pop\n        /* \"#utility.yul\":10070:10489   */\n      swap2\n      swap1\n      pop\n      jump\t// out\n        /* \"#utility.yul\":10495:10664   */\n    tag_182:\n        /* \"#utility.yul\":10635:10656   */\n      0x556e617574686f72697a6564207369676e657200000000000000000000000000\n        /* \"#utility.yul\":10631:10632   */\n      0x00\n        /* \"#utility.yul\":10623:10629   */\n      dup3\n        /* \"#utility.yul\":10619:10633   */\n      add\n        /* \"#utility.yul\":10612:10657   */\n      mstore\n        /* \"#utility.yul\":10495:10664   */\n      pop\n      jump\t// out\n        /* \"#utility.yul\":10670:11036   */\n    tag_183:\n        /* \"#utility.yul\":10812:10815   */\n      0x00\n        /* \"#utility.yul\":10833:10900   */\n      tag_320\n        /* \"#utility.yul\":10897:10899   */\n      0x13\n        /* \"#utility.yul\":10892:10895   */\n      dup4\n        /* \"#utility.yul\":10833:10900   */\n      tag_177\n      jump\t// in\n    tag_320:\n        /* \"#utility.yul\":10826:10900   */\n      swap2\n      pop\n        /* \"#utility.yul\":10909:11002   */\n      tag_321\n        /* \"#utility.yul\":10998:11001   */\n      dup3\n        /* \"#utility.yul\":10909:11002   */\n      tag_182\n      jump\t// in\n    tag_321:\n        /* \"#utility.yul\":11027:11029   */\n      0x20\n        /* \"#utility.yul\":11022:11025   */\n      dup3\n        /* \"#utility.yul\":11018:11030   */\n      add\n        /* \"#utility.yul\":11011:11030   */\n      swap1\n      pop\n        /* \"#utility.yul\":10670:11036   */\n      swap2\n      swap1\n      pop\n      jump\t// out\n        /* \"#utility.yul\":11042:11461   */\n    tag_98:\n        /* \"#utility.yul\":11208:11212   */\n      0x00\n        /* \"#utility.yul\":11246:11248   */\n      0x20\n        /* \"#utility.yul\":11235:11244   */\n      dup3\n        /* \"#utility.yul\":11231:11249   */\n      add\n        /* \"#utility.yul\":11223:11249   */\n      swap1\n      pop\n        /* \"#utility.yul\":11295:11304   */\n      dup2\n        /* \"#utility.yul\":11289:11293   */\n      dup2\n        /* \"#utility.yul\":11285:11305   */\n      sub\n        /* \"#utility.yul\":11281:11282   */\n      0x00\n        /* \"#utility.yul\":11270:11279   */\n      dup4\n        /* \"#utility.yul\":11266:11283   */\n      add\n        /* \"#utility.yul\":11259:11306   */\n      mstore\n        /* \"#utility.yul\":11323:11454   */\n      tag_323\n        /* \"#utility.yul\":11449:11453   */\n      dup2\n        /* \"#utility.yul\":11323:11454   */\n      tag_183\n      jump\t// in\n    tag_323:\n        /* \"#utility.yul\":11315:11454   */\n      swap1\n      pop\n        /* \"#utility.yul\":11042:11461   */\n      swap2\n      swap1\n      pop\n      jump\t// out\n        /* \"#utility.yul\":11467:11629   */\n    tag_184:\n        /* \"#utility.yul\":11607:11621   */\n      0x556e617574686f72697a65640000000000000000000000000000000000000000\n        /* \"#utility.yul\":11603:11604   */\n      0x00\n        /* \"#utility.yul\":11595:11601   */\n      dup3\n        /* \"#utility.yul\":11591:11605   */\n      add\n        /* \"#utility.yul\":11584:11622   */\n      mstore\n        /* \"#utility.yul\":11467:11629   */\n      pop\n      jump\t// out\n        /* \"#utility.yul\":11635:12001   */\n    tag_185:\n        /* \"#utility.yul\":11777:11780   */\n      0x00\n        /* \"#utility.yul\":11798:11865   */\n      tag_326\n        /* \"#utility.yul\":11862:11864   */\n      0x0c\n        /* \"#utility.yul\":11857:11860   */\n      dup4\n        /* \"#utility.yul\":11798:11865   */\n      tag_177\n      jump\t// in\n    tag_326:\n        /* \"#utility.yul\":11791:11865   */\n      swap2\n      pop\n        /* \"#utility.yul\":11874:11967   */\n      tag_327\n        /* \"#utility.yul\":11963:11966   */\n      dup3\n        /* \"#utility.yul\":11874:11967   */\n      tag_184\n      jump\t// in\n    tag_327:\n        /* \"#utility.yul\":11992:11994   */\n      0x20\n        /* \"#utility.yul\":11987:11990   */\n      dup3\n        /* \"#utility.yul\":11983:11995   */\n      add\n        /* \"#utility.yul\":11976:11995   */\n      swap1\n      pop\n        /* \"#utility.yul\":11635:12001   */\n      swap2\n      swap1\n      pop\n      jump\t// out\n        /* \"#utility.yul\":12007:12426   */\n    tag_108:\n        /* \"#utility.yul\":12173:12177   */\n      0x00\n        /* \"#utility.yul\":12211:12213   */\n      0x20\n        /* \"#utility.yul\":12200:12209   */\n      dup3\n        /* \"#utility.yul\":12196:12214   */\n      add\n        /* \"#utility.yul\":12188:12214   */\n      swap1\n      pop\n        /* \"#utility.yul\":12260:12269   */\n      dup2\n        /* \"#utility.yul\":12254:12258   */\n      dup2\n        /* \"#utility.yul\":12250:12270   */\n      sub\n        /* \"#utility.yul\":12246:12247   */\n      0x00\n        /* \"#utility.yul\":12235:12244   */\n      dup4\n        /* \"#utility.yul\":12231:12248   */\n      add\n        /* \"#utility.yul\":12224:12271   */\n      mstore\n        /* \"#utility.yul\":12288:12419   */\n      tag_329\n        /* \"#utility.yul\":12414:12418   */\n      dup2\n        /* \"#utility.yul\":12288:12419   */\n      tag_185\n      jump\t// in\n    tag_329:\n        /* \"#utility.yul\":12280:12419   */\n      swap1\n      pop\n        /* \"#utility.yul\":12007:12426   */\n      swap2\n      swap1\n      pop\n      jump\t// out\n        /* \"#utility.yul\":12432:12593   */\n    tag_186:\n        /* \"#utility.yul\":12572:12585   */\n      0x496e76616c6964206b6579000000000000000000000000000000000000000000\n        /* \"#utility.yul\":12568:12569   */\n      0x00\n        /* \"#utility.yul\":12560:12566   */\n      dup3\n        /* \"#utility.yul\":12556:12570   */\n      add\n        /* \"#utility.yul\":12549:12586   */\n      mstore\n        /* \"#utility.yul\":12432:12593   */\n      pop\n      jump\t// out\n        /* \"#utility.yul\":12599:12965   */\n    tag_187:\n        /* \"#utility.yul\":12741:12744   */\n      0x00\n        /* \"#utility.yul\":12762:12829   */\n      tag_332\n        /* \"#utility.yul\":12826:12828   */\n      0x0b\n        /* \"#utility.yul\":12821:12824   */\n      dup4\n        /* \"#utility.yul\":12762:12829   */\n      tag_177\n      jump\t// in\n    tag_332:\n        /* \"#utility.yul\":12755:12829   */\n      swap2\n      pop\n        /* \"#utility.yul\":12838:12931   */\n      tag_333\n        /* \"#utility.yul\":12927:12930   */\n      dup3\n        /* \"#utility.yul\":12838:12931   */\n      tag_186\n      jump\t// in\n    tag_333:\n        /* \"#utility.yul\":12956:12958   */\n      0x20\n        /* \"#utility.yul\":12951:12954   */\n      dup3\n        /* \"#utility.yul\":12947:12959   */\n      add\n        /* \"#utility.yul\":12940:12959   */\n      swap1\n      pop\n        /* \"#utility.yul\":12599:12965   */\n      swap2\n      swap1\n      pop\n      jump\t// out\n        /* \"#utility.yul\":12971:13390   */\n    tag_111:\n        /* \"#utility.yul\":13137:13141   */\n      0x00\n        /* \"#utility.yul\":13175:13177   */\n      0x20\n        /* \"#utility.yul\":13164:13173   */\n      dup3\n        /* \"#utility.yul\":13160:13178   */\n      add\n        /* \"#utility.yul\":13152:13178   */\n      swap1\n      pop\n        /* \"#utility.yul\":13224:13233   */\n      dup2\n        /* \"#utility.yul\":13218:13222   */\n      dup2\n        /* \"#utility.yul\":13214:13234   */\n      sub\n        /* \"#utility.yul\":13210:13211   */\n      0x00\n        /* \"#utility.yul\":13199:13208   */\n      dup4\n        /* \"#utility.yul\":13195:13212   */\n      add\n        /* \"#utility.yul\":13188:13235   */\n      mstore\n        /* \"#utility.yul\":13252:13383   */\n      tag_335\n        /* \"#utility.yul\":13378:13382   */\n      dup2\n        /* \"#utility.yul\":13252:13383   */\n      tag_187\n      jump\t// in\n    tag_335:\n        /* \"#utility.yul\":13244:13383   */\n      swap1\n      pop\n        /* \"#utility.yul\":12971:13390   */\n      swap2\n      swap1\n      pop\n      jump\t// out\n        /* \"#utility.yul\":13396:13494   */\n    tag_188:\n        /* \"#utility.yul\":13447:13453   */\n      0x00\n        /* \"#utility.yul\":13481:13486   */\n      dup2\n        /* \"#utility.yul\":13475:13487   */\n      mload\n        /* \"#utility.yul\":13465:13487   */\n      swap1\n      pop\n        /* \"#utility.yul\":13396:13494   */\n      swap2\n      swap1\n      pop\n      jump\t// out\n        /* \"#utility.yul\":13500:13668   */\n    tag_189:\n        /* \"#utility.yul\":13583:13594   */\n      0x00\n        /* \"#utility.yul\":13617:13623   */\n      dup3\n        /* \"#utility.yul\":13612:13615   */\n      dup3\n        /* \"#utility.yul\":13605:13624   */\n      mstore\n        /* \"#utility.yul\":13657:13661   */\n      0x20\n        /* \"#utility.yul\":13652:13655   */\n      dup3\n        /* \"#utility.yul\":13648:13662   */\n      add\n        /* \"#utility.yul\":13633:13662   */\n      swap1\n      pop\n        /* \"#utility.yul\":13500:13668   */\n      swap3\n      swap2\n      pop\n      pop\n      jump\t// out\n        /* \"#utility.yul\":13674:13813   */\n    tag_190:\n        /* \"#utility.yul\":13763:13769   */\n      dup3\n        /* \"#utility.yul\":13758:13761   */\n      dup2\n        /* \"#utility.yul\":13753:13756   */\n      dup4\n        /* \"#utility.yul\":13747:13770   */\n      mcopy\n        /* \"#utility.yul\":13804:13805   */\n      0x00\n        /* \"#utility.yul\":13795:13801   */\n      dup4\n        /* \"#utility.yul\":13790:13793   */\n      dup4\n        /* \"#utility.yul\":13786:13802   */\n      add\n        /* \"#utility.yul\":13779:13806   */\n      mstore\n        /* \"#utility.yul\":13674:13813   */\n      pop\n      pop\n      pop\n      jump\t// out\n        /* \"#utility.yul\":13819:14192   */\n    tag_191:\n        /* \"#utility.yul\":13905:13908   */\n      0x00\n        /* \"#utility.yul\":13933:13971   */\n      tag_340\n        /* \"#utility.yul\":13965:13970   */\n      dup3\n        /* \"#utility.yul\":13933:13971   */\n      tag_188\n      jump\t// in\n    tag_340:\n        /* \"#utility.yul\":13987:14057   */\n      tag_341\n        /* \"#utility.yul\":14050:14056   */\n      dup2\n        /* \"#utility.yul\":14045:14048   */\n      dup6\n        /* \"#utility.yul\":13987:14057   */\n      tag_189\n      jump\t// in\n    tag_341:\n        /* \"#utility.yul\":13980:14057   */\n      swap4\n      pop\n        /* \"#utility.yul\":14066:14131   */\n      tag_342\n        /* \"#utility.yul\":14124:14130   */\n      dup2\n        /* \"#utility.yul\":14119:14122   */\n      dup6\n        /* \"#utility.yul\":14112:14116   */\n      0x20\n        /* \"#utility.yul\":14105:14110   */\n      dup7\n        /* \"#utility.yul\":14101:14117   */\n      add\n        /* \"#utility.yul\":14066:14131   */\n      tag_190\n      jump\t// in\n    tag_342:\n        /* \"#utility.yul\":14156:14185   */\n      tag_343\n        /* \"#utility.yul\":14178:14184   */\n      dup2\n        /* \"#utility.yul\":14156:14185   */\n      tag_152\n      jump\t// in\n    tag_343:\n        /* \"#utility.yul\":14151:14154   */\n      dup5\n        /* \"#utility.yul\":14147:14186   */\n      add\n        /* \"#utility.yul\":14140:14186   */\n      swap2\n      pop\n        /* \"#utility.yul\":13909:14192   */\n      pop\n        /* \"#utility.yul\":13819:14192   */\n      swap3\n      swap2\n      pop\n      pop\n      jump\t// out\n        /* \"#utility.yul\":14198:14727   */\n    tag_115:\n        /* \"#utility.yul\":14365:14369   */\n      0x00\n        /* \"#utility.yul\":14403:14405   */\n      0x60\n        /* \"#utility.yul\":14392:14401   */\n      dup3\n        /* \"#utility.yul\":14388:14406   */\n      add\n        /* \"#utility.yul\":14380:14406   */\n      swap1\n      pop\n        /* \"#utility.yul\":14416:14487   */\n      tag_345\n        /* \"#utility.yul\":14484:14485   */\n      0x00\n        /* \"#utility.yul\":14473:14482   */\n      dup4\n        /* \"#utility.yul\":14469:14486   */\n      add\n        /* \"#utility.yul\":14460:14466   */\n      dup7\n        /* \"#utility.yul\":14416:14487   */\n      tag_169\n      jump\t// in\n    tag_345:\n        /* \"#utility.yul\":14497:14569   */\n      tag_346\n        /* \"#utility.yul\":14565:14567   */\n      0x20\n        /* \"#utility.yul\":14554:14563   */\n      dup4\n        /* \"#utility.yul\":14550:14568   */\n      add\n        /* \"#utility.yul\":14541:14547   */\n      dup6\n        /* \"#utility.yul\":14497:14569   */\n      tag_169\n      jump\t// in\n    tag_346:\n        /* \"#utility.yul\":14616:14625   */\n      dup2\n        /* \"#utility.yul\":14610:14614   */\n      dup2\n        /* \"#utility.yul\":14606:14626   */\n      sub\n        /* \"#utility.yul\":14601:14603   */\n      0x40\n        /* \"#utility.yul\":14590:14599   */\n      dup4\n        /* \"#utility.yul\":14586:14604   */\n      add\n        /* \"#utility.yul\":14579:14627   */\n      mstore\n        /* \"#utility.yul\":14644:14720   */\n      tag_347\n        /* \"#utility.yul\":14715:14719   */\n      dup2\n        /* \"#utility.yul\":14706:14712   */\n      dup5\n        /* \"#utility.yul\":14644:14720   */\n      tag_191\n      jump\t// in\n    tag_347:\n        /* \"#utility.yul\":14636:14720   */\n      swap1\n      pop\n        /* \"#utility.yul\":14198:14727   */\n      swap5\n      swap4\n      pop\n      pop\n      pop\n      pop\n      jump\t// out\n        /* \"#utility.yul\":14733:14902   */\n    tag_192:\n        /* \"#utility.yul\":14873:14894   */\n      0x43616e6e6f74207265766f6b65206f776e657200000000000000000000000000\n        /* \"#utility.yul\":14869:14870   */\n      0x00\n        /* \"#utility.yul\":14861:14867   */\n      dup3\n        /* \"#utility.yul\":14857:14871   */\n      add\n        /* \"#utility.yul\":14850:14895   */\n      mstore\n        /* \"#utility.yul\":14733:14902   */\n      pop\n      jump\t// out\n        /* \"#utility.yul\":14908:15274   */\n    tag_193:\n        /* \"#utility.yul\":15050:15053   */\n      0x00\n        /* \"#utility.yul\":15071:15138   */\n      tag_350\n        /* \"#utility.yul\":15135:15137   */\n      0x13\n        /* \"#utility.yul\":15130:15133   */\n      dup4\n        /* \"#utility.yul\":15071:15138   */\n      tag_177\n      jump\t// in\n    tag_350:\n        /* \"#utility.yul\":15064:15138   */\n      swap2\n      pop\n        /* \"#utility.yul\":15147:15240   */\n      tag_351\n        /* \"#utility.yul\":15236:15239   */\n      dup3\n        /* \"#utility.yul\":15147:15240   */\n      tag_192\n      jump\t// in\n    tag_351:\n        /* \"#utility.yul\":15265:15267   */\n      0x20\n        /* \"#utility.yul\":15260:15263   */\n      dup3\n        /* \"#utility.yul\":15256:15268   */\n      add\n        /* \"#utility.yul\":15249:15268   */\n      swap1\n      pop\n        /* \"#utility.yul\":14908:15274   */\n      swap2\n      swap1\n      pop\n      jump\t// out\n        /* \"#utility.yul\":15280:15699   */\n    tag_125:\n        /* \"#utility.yul\":15446:15450   */\n      0x00\n        /* \"#utility.yul\":15484:15486   */\n      0x20\n        /* \"#utility.yul\":15473:15482   */\n      dup3\n        /* \"#utility.yul\":15469:15487   */\n      add\n        /* \"#utility.yul\":15461:15487   */\n      swap1\n      pop\n        /* \"#utility.yul\":15533:15542   */\n      dup2\n        /* \"#utility.yul\":15527:15531   */\n      dup2\n        /* \"#utility.yul\":15523:15543   */\n      sub\n        /* \"#utility.yul\":15519:15520   */\n      0x00\n        /* \"#utility.yul\":15508:15517   */\n      dup4\n        /* \"#utility.yul\":15504:15521   */\n      add\n        /* \"#utility.yul\":15497:15544   */\n      mstore\n        /* \"#utility.yul\":15561:15692   */\n      tag_353\n        /* \"#utility.yul\":15687:15691   */\n      dup2\n        /* \"#utility.yul\":15561:15692   */\n      tag_193\n      jump\t// in\n    tag_353:\n        /* \"#utility.yul\":15553:15692   */\n      swap1\n      pop\n        /* \"#utility.yul\":15280:15699   */\n      swap2\n      swap1\n      pop\n      jump\t// out\n        /* \"#utility.yul\":15705:15791   */\n    tag_194:\n        /* \"#utility.yul\":15740:15747   */\n      0x00\n        /* \"#utility.yul\":15780:15784   */\n      0xff\n        /* \"#utility.yul\":15773:15778   */\n      dup3\n        /* \"#utility.yul\":15769:15785   */\n      and\n        /* \"#utility.yul\":15758:15785   */\n      swap1\n      pop\n        /* \"#utility.yul\":15705:15791   */\n      swap2\n      swap1\n      pop\n      jump\t// out\n        /* \"#utility.yul\":15797:15977   */\n    tag_195:\n        /* \"#utility.yul\":15845:15922   */\n      0x4e487b7100000000000000000000000000000000000000000000000000000000\n        /* \"#utility.yul\":15842:15843   */\n      0x00\n        /* \"#utility.yul\":15835:15923   */\n      mstore\n        /* \"#utility.yul\":15942:15946   */\n      0x11\n        /* \"#utility.yul\":15939:15940   */\n      0x04\n        /* \"#utility.yul\":15932:15947   */\n      mstore\n        /* \"#utility.yul\":15966:15970   */\n      0x24\n        /* \"#utility.yul\":15963:15964   */\n      0x00\n        /* \"#utility.yul\":15956:15971   */\n      revert\n        /* \"#utility.yul\":15983:16171   */\n    tag_132:\n        /* \"#utility.yul\":16021:16024   */\n      0x00\n        /* \"#utility.yul\":16040:16058   */\n      tag_357\n        /* \"#utility.yul\":16056:16057   */\n      dup3\n        /* \"#utility.yul\":16040:16058   */\n      tag_194\n      jump\t// in\n    tag_357:\n        /* \"#utility.yul\":16035:16058   */\n      swap2\n      pop\n        /* \"#utility.yul\":16072:16090   */\n      tag_358\n        /* \"#utility.yul\":16088:16089   */\n      dup4\n        /* \"#utility.yul\":16072:16090   */\n      tag_194\n      jump\t// in\n    tag_358:\n        /* \"#utility.yul\":16067:16090   */\n      swap3\n      pop\n        /* \"#utility.yul\":16113:16114   */\n      dup3\n        /* \"#utility.yul\":16110:16111   */\n      dup3\n        /* \"#utility.yul\":16106:16115   */\n      add\n        /* \"#utility.yul\":16099:16115   */\n      swap1\n      pop\n        /* \"#utility.yul\":16136:16140   */\n      0xff\n        /* \"#utility.yul\":16131:16134   */\n      dup2\n        /* \"#utility.yul\":16128:16141   */\n      gt\n        /* \"#utility.yul\":16125:16164   */\n      iszero\n      tag_359\n      jumpi\n        /* \"#utility.yul\":16144:16162   */\n      tag_360\n      tag_195\n      jump\t// in\n    tag_360:\n        /* \"#utility.yul\":16125:16164   */\n    tag_359:\n        /* \"#utility.yul\":15983:16171   */\n      swap3\n      swap2\n      pop\n      pop\n      jump\t// out\n        /* \"#utility.yul\":16177:16289   */\n    tag_196:\n        /* \"#utility.yul\":16260:16282   */\n      tag_362\n        /* \"#utility.yul\":16276:16281   */\n      dup2\n        /* \"#utility.yul\":16260:16282   */\n      tag_194\n      jump\t// in\n    tag_362:\n        /* \"#utility.yul\":16255:16258   */\n      dup3\n        /* \"#utility.yul\":16248:16283   */\n      mstore\n        /* \"#utility.yul\":16177:16289   */\n      pop\n      pop\n      jump\t// out\n        /* \"#utility.yul\":16295:16840   */\n    tag_136:\n        /* \"#utility.yul\":16468:16472   */\n      0x00\n        /* \"#utility.yul\":16506:16509   */\n      0x80\n        /* \"#utility.yul\":16495:16504   */\n      dup3\n        /* \"#utility.yul\":16491:16510   */\n      add\n        /* \"#utility.yul\":16483:16510   */\n      swap1\n      pop\n        /* \"#utility.yul\":16520:16591   */\n      tag_364\n        /* \"#utility.yul\":16588:16589   */\n      0x00\n        /* \"#utility.yul\":16577:16586   */\n      dup4\n        /* \"#utility.yul\":16573:16590   */\n      add\n        /* \"#utility.yul\":16564:16570   */\n      dup8\n        /* \"#utility.yul\":16520:16591   */\n      tag_169\n      jump\t// in\n    tag_364:\n        /* \"#utility.yul\":16601:16669   */\n      tag_365\n        /* \"#utility.yul\":16665:16667   */\n      0x20\n        /* \"#utility.yul\":16654:16663   */\n      dup4\n        /* \"#utility.yul\":16650:16668   */\n      add\n        /* \"#utility.yul\":16641:16647   */\n      dup7\n        /* \"#utility.yul\":16601:16669   */\n      tag_196\n      jump\t// in\n    tag_365:\n        /* \"#utility.yul\":16679:16751   */\n      tag_366\n        /* \"#utility.yul\":16747:16749   */\n      0x40\n        /* \"#utility.yul\":16736:16745   */\n      dup4\n        /* \"#utility.yul\":16732:16750   */\n      add\n        /* \"#utility.yul\":16723:16729   */\n      dup6\n        /* \"#utility.yul\":16679:16751   */\n      tag_169\n      jump\t// in\n    tag_366:\n        /* \"#utility.yul\":16761:16833   */\n      tag_367\n        /* \"#utility.yul\":16829:16831   */\n      0x60\n        /* \"#utility.yul\":16818:16827   */\n      dup4\n        /* \"#utility.yul\":16814:16832   */\n      add\n        /* \"#utility.yul\":16805:16811   */\n      dup5\n        /* \"#utility.yul\":16761:16833   */\n      tag_169\n      jump\t// in\n    tag_367:\n        /* \"#utility.yul\":16295:16840   */\n      swap6\n      swap5\n      pop\n      pop\n      pop\n      pop\n      pop\n      jump\t// out\n        /* \"#utility.yul\":16846:17288   */\n    tag_141:\n        /* \"#utility.yul\":16995:16999   */\n      0x00\n        /* \"#utility.yul\":17033:17035   */\n      0x60\n        /* \"#utility.yul\":17022:17031   */\n      dup3\n        /* \"#utility.yul\":17018:17036   */\n      add\n        /* \"#utility.yul\":17010:17036   */\n      swap1\n      pop\n        /* \"#utility.yul\":17046:17117   */\n      tag_369\n        /* \"#utility.yul\":17114:17115   */\n      0x00\n        /* \"#utility.yul\":17103:17112   */\n      dup4\n        /* \"#utility.yul\":17099:17116   */\n      add\n        /* \"#utility.yul\":17090:17096   */\n      dup7\n        /* \"#utility.yul\":17046:17117   */\n      tag_169\n      jump\t// in\n    tag_369:\n        /* \"#utility.yul\":17127:17199   */\n      tag_370\n        /* \"#utility.yul\":17195:17197   */\n      0x20\n        /* \"#utility.yul\":17184:17193   */\n      dup4\n        /* \"#utility.yul\":17180:17198   */\n      add\n        /* \"#utility.yul\":17171:17177   */\n      dup6\n        /* \"#utility.yul\":17127:17199   */\n      tag_169\n      jump\t// in\n    tag_370:\n        /* \"#utility.yul\":17209:17281   */\n      tag_371\n        /* \"#utility.yul\":17277:17279   */\n      0x40\n        /* \"#utility.yul\":17266:17275   */\n      dup4\n        /* \"#utility.yul\":17262:17280   */\n      add\n        /* \"#utility.yul\":17253:17259   */\n      dup5\n        /* \"#utility.yul\":17209:17281   */\n      tag_169\n      jump\t// in\n    tag_371:\n        /* \"#utility.yul\":16846:17288   */\n      swap5\n      swap4\n      pop\n      pop\n      pop\n      pop\n      jump\t// out\n        /* \"#utility.yul\":17294:17442   */\n    tag_197:\n        /* \"#utility.yul\":17396:17407   */\n      0x00\n        /* \"#utility.yul\":17433:17436   */\n      dup2\n        /* \"#utility.yul\":17418:17436   */\n      swap1\n      pop\n        /* \"#utility.yul\":17294:17442   */\n      swap3\n      swap2\n      pop\n      pop\n      jump\t// out\n        /* \"#utility.yul\":17448:17662   */\n    tag_198:\n        /* \"#utility.yul\":17588:17654   */\n      0x1901000000000000000000000000000000000000000000000000000000000000\n        /* \"#utility.yul\":17584:17585   */\n      0x00\n        /* \"#utility.yul\":17576:17582   */\n      dup3\n        /* \"#utility.yul\":17572:17586   */\n      add\n        /* \"#utility.yul\":17565:17655   */\n      mstore\n        /* \"#utility.yul\":17448:17662   */\n      pop\n      jump\t// out\n        /* \"#utility.yul\":17668:18068   */\n    tag_199:\n        /* \"#utility.yul\":17828:17831   */\n      0x00\n        /* \"#utility.yul\":17849:17933   */\n      tag_375\n        /* \"#utility.yul\":17931:17932   */\n      0x02\n        /* \"#utility.yul\":17926:17929   */\n      dup4\n        /* \"#utility.yul\":17849:17933   */\n      tag_197\n      jump\t// in\n    tag_375:\n        /* \"#utility.yul\":17842:17933   */\n      swap2\n      pop\n        /* \"#utility.yul\":17942:18035   */\n      tag_376\n        /* \"#utility.yul\":18031:18034   */\n      dup3\n        /* \"#utility.yul\":17942:18035   */\n      tag_198\n      jump\t// in\n    tag_376:\n        /* \"#utility.yul\":18060:18061   */\n      0x02\n        /* \"#utility.yul\":18055:18058   */\n      dup3\n        /* \"#utility.yul\":18051:18062   */\n      add\n        /* \"#utility.yul\":18044:18062   */\n      swap1\n      pop\n        /* \"#utility.yul\":17668:18068   */\n      swap2\n      swap1\n      pop\n      jump\t// out\n        /* \"#utility.yul\":18074:18153   */\n    tag_200:\n        /* \"#utility.yul\":18113:18120   */\n      0x00\n        /* \"#utility.yul\":18142:18147   */\n      dup2\n        /* \"#utility.yul\":18131:18147   */\n      swap1\n      pop\n        /* \"#utility.yul\":18074:18153   */\n      swap2\n      swap1\n      pop\n      jump\t// out\n        /* \"#utility.yul\":18159:18316   */\n    tag_201:\n        /* \"#utility.yul\":18264:18309   */\n      tag_379\n        /* \"#utility.yul\":18284:18308   */\n      tag_380\n        /* \"#utility.yul\":18302:18307   */\n      dup3\n        /* \"#utility.yul\":18284:18308   */\n      tag_147\n      jump\t// in\n    tag_380:\n        /* \"#utility.yul\":18264:18309   */\n      tag_200\n      jump\t// in\n    tag_379:\n        /* \"#utility.yul\":18259:18262   */\n      dup3\n        /* \"#utility.yul\":18252:18310   */\n      mstore\n        /* \"#utility.yul\":18159:18316   */\n      pop\n      pop\n      jump\t// out\n        /* \"#utility.yul\":18322:18985   */\n    tag_143:\n        /* \"#utility.yul\":18563:18566   */\n      0x00\n        /* \"#utility.yul\":18585:18733   */\n      tag_382\n        /* \"#utility.yul\":18729:18732   */\n      dup3\n        /* \"#utility.yul\":18585:18733   */\n      tag_199\n      jump\t// in\n    tag_382:\n        /* \"#utility.yul\":18578:18733   */\n      swap2\n      pop\n        /* \"#utility.yul\":18743:18818   */\n      tag_383\n        /* \"#utility.yul\":18814:18817   */\n      dup3\n        /* \"#utility.yul\":18805:18811   */\n      dup6\n        /* \"#utility.yul\":18743:18818   */\n      tag_201\n      jump\t// in\n    tag_383:\n        /* \"#utility.yul\":18843:18845   */\n      0x20\n        /* \"#utility.yul\":18838:18841   */\n      dup3\n        /* \"#utility.yul\":18834:18846   */\n      add\n        /* \"#utility.yul\":18827:18846   */\n      swap2\n      pop\n        /* \"#utility.yul\":18856:18931   */\n      tag_384\n        /* \"#utility.yul\":18927:18930   */\n      dup3\n        /* \"#utility.yul\":18918:18924   */\n      dup5\n        /* \"#utility.yul\":18856:18931   */\n      tag_201\n      jump\t// in\n    tag_384:\n        /* \"#utility.yul\":18956:18958   */\n      0x20\n        /* \"#utility.yul\":18951:18954   */\n      dup3\n        /* \"#utility.yul\":18947:18959   */\n      add\n        /* \"#utility.yul\":18940:18959   */\n      swap2\n      pop\n        /* \"#utility.yul\":18976:18979   */\n      dup2\n        /* \"#utility.yul\":18969:18979   */\n      swap1\n      pop\n        /* \"#utility.yul\":18322:18985   */\n      swap4\n      swap3\n      pop\n      pop\n      pop\n      jump\t// out\n\n    auxdata: 0xa2646970667358221220926941643514d308a4f5bbef2e8ee4da9805785bdc34fa6302210bc8bebbf1bd64736f6c634300081e0033\n}\n",
				"bytecode": {
					"linkReferences": {},
					"object": "60c060405234801561000f575f5ffd5b50604051611bc3380380611bc3833981810160405281019061003191906103a5565b5f73ffffffffffffffffffffffffffffffffffffffff168273ffffffffffffffffffffffffffffffffffffffff160361009f576040517f08c379a00000000000000000000000000000000000000000000000000000000081526004016100969061043d565b60405180910390fd5b5f73ffffffffffffffffffffffffffffffffffffffff168173ffffffffffffffffffffffffffffffffffffffff160361010d576040517f08c379a0000000000000000000000000000000000000000000000000000000008152600401610104906104a5565b60405180910390fd5b8160015f6101000a81548173ffffffffffffffffffffffffffffffffffffffff021916908373ffffffffffffffffffffffffffffffffffffffff1602179055508073ffffffffffffffffffffffffffffffffffffffff1660808173ffffffffffffffffffffffffffffffffffffffff168152505060015f5f8473ffffffffffffffffffffffffffffffffffffffff1673ffffffffffffffffffffffffffffffffffffffff1681526020019081526020015f205f6101000a81548160ff0219169083151502179055507f8b73c3c69bb8fe3d512ecc4cf759cc79239f7b179b0ffacaa9a75d522b39400f6040518060400160405280600f81526020017f42696f6d657472696357616c6c65740000000000000000000000000000000000815250805190602001206040518060400160405280600181526020017f3100000000000000000000000000000000000000000000000000000000000000815250805190602001204630604051602001610286959493929190610502565b6040516020818303038152906040528051906020012060a081815250508173ffffffffffffffffffffffffffffffffffffffff167fcd196ed3fe0b915032d44f7a350619b55156091d4c5cb9cdc31e5a90cbdc645a60405160405180910390a28073ffffffffffffffffffffffffffffffffffffffff168273ffffffffffffffffffffffffffffffffffffffff167ff25144576b87c0db53fd13e964c2b18299ee19d7d44d4b2636144644acff745b60405160405180910390a35050610553565b5f5ffd5b5f73ffffffffffffffffffffffffffffffffffffffff82169050919050565b5f6103748261034b565b9050919050565b6103848161036a565b811461038e575f5ffd5b50565b5f8151905061039f8161037b565b92915050565b5f5f604083850312156103bb576103ba610347565b5b5f6103c885828601610391565b92505060206103d985828601610391565b9150509250929050565b5f82825260208201905092915050565b7f496e76616c6964206f776e6572206164647265737300000000000000000000005f82015250565b5f6104276015836103e3565b9150610432826103f3565b602082019050919050565b5f6020820190508181035f8301526104548161041b565b9050919050565b7f496e76616c6964205370656e74536574206164647265737300000000000000005f82015250565b5f61048f6018836103e3565b915061049a8261045b565b602082019050919050565b5f6020820190508181035f8301526104bc81610483565b9050919050565b5f819050919050565b6104d5816104c3565b82525050565b5f819050919050565b6104ed816104db565b82525050565b6104fc8161036a565b82525050565b5f60a0820190506105155f8301886104cc565b61052260208301876104cc565b61052f60408301866104cc565b61053c60608301856104e4565b61054960808301846104f3565b9695505050505050565b60805160a05161163a6105895f395f8181610b020152610c9001525f818161037f015281816105670152610add015261163a5ff3fe60806040526004361061009f575f3560e01c8063b3597fa911610063578063b3597fa9146101a8578063cad50f57146101d2578063ecaca8801461020e578063eec6e99b14610236578063f698da2514610260578063fe9fbb801461028a576100a0565b80631626ba7e146100a25780633e85eed0146100de578063715e23931461011a5780637d81dd57146101425780638da5cb5b1461017e576100a0565b5b005b3480156100ad575f5ffd5b506100c860048036038101906100c39190610e60565b6102c6565b6040516100d59190610ef4565b60405180910390f35b3480156100e9575f5ffd5b5061010460048036038101906100ff9190610f0d565b61037c565b6040516101119190610f93565b60405180910390f35b348015610125575f5ffd5b50610140600480360381019061013b9190611006565b610631565b005b34801561014d575f5ffd5b5061016860048036038101906101639190611006565b6107fe565b6040516101759190610f93565b60405180910390f35b348015610189575f5ffd5b5061019261081a565b60405161019f9190611040565b60405180910390f35b3480156101b3575f5ffd5b506101bc61083f565b6040516101c99190611068565b60405180910390f35b3480156101dd575f5ffd5b506101f860048036038101906101f39190610e60565b610866565b6040516102059190610f93565b60405180910390f35b348015610219575f5ffd5b50610234600480360381019061022f9190611006565b6108ee565b005b348015610241575f5ffd5b5061024a610adb565b60405161025791906110dc565b60405180910390f35b34801561026b575f5ffd5b50610274610aff565b6040516102819190611068565b60405180910390f35b348015610295575f5ffd5b506102b060048036038101906102ab9190611006565b610b26565b6040516102bd9190610f93565b60405180910390f35b5f5f6102d28484610b77565b90505f73ffffffffffffffffffffffffffffffffffffffff168173ffffffffffffffffffffffffffffffffffffffff161415801561035557505f5f8273ffffffffffffffffffffffffffffffffffffffff1673ffffffffffffffffffffffffffffffffffffffff1681526020019081526020015f205f9054906101000a900460ff165b1561036a57631626ba7e60e01b915050610376565b63ffffffff60e01b9150505b92915050565b5f7f000000000000000000000000000000000000000000000000000000000000000073ffffffffffffffffffffffffffffffffffffffff1663fe255a18856040518263ffffffff1660e01b81526004016103d69190611068565b602060405180830381865afa1580156103f1573d5f5f3e3d5ffd5b505050506040513d601f19601f82011682018060405250810190610415919061111f565b15610455576040517f08c379a000000000000000000000000000000000000000000000000000000000815260040161044c906111a4565b60405180910390fd5b5f6104608585610c3f565b90505f61046d8285610b77565b90505f73ffffffffffffffffffffffffffffffffffffffff168173ffffffffffffffffffffffffffffffffffffffff16036104dd576040517f08c379a00000000000000000000000000000000000000000000000000000000081526004016104d49061120c565b60405180910390fd5b5f5f8273ffffffffffffffffffffffffffffffffffffffff1673ffffffffffffffffffffffffffffffffffffffff1681526020019081526020015f205f9054906101000a900460ff16610565576040517f08c379a000000000000000000000000000000000000000000000000000000000815260040161055c90611274565b60405180910390fd5b7f000000000000000000000000000000000000000000000000000000000000000073ffffffffffffffffffffffffffffffffffffffff1663e21e9e0e876040518263ffffffff1660e01b81526004016105be9190611068565b5f604051808303815f87803b1580156105d5575f5ffd5b505af11580156105e7573d5f5f3e3d5ffd5b50505050857f1d14a3e696bb4d8779eaae342540fc3207c9a38d1ac7d987f623f3181df06c42600160405161061c9190610f93565b60405180910390a26001925050509392505050565b60015f9054906101000a900473ffffffffffffffffffffffffffffffffffffffff1673ffffffffffffffffffffffffffffffffffffffff163373ffffffffffffffffffffffffffffffffffffffff1614806106b757503073ffffffffffffffffffffffffffffffffffffffff163373ffffffffffffffffffffffffffffffffffffffff16145b6106f6576040517f08c379a00000000000000000000000000000000000000000000000000000000081526004016106ed906112dc565b60405180910390fd5b5f73ffffffffffffffffffffffffffffffffffffffff168173ffffffffffffffffffffffffffffffffffffffff1603610764576040517f08c379a000000000000000000000000000000000000000000000000000000000815260040161075b90611344565b60405180910390fd5b60015f5f8373ffffffffffffffffffffffffffffffffffffffff1673ffffffffffffffffffffffffffffffffffffffff1681526020019081526020015f205f6101000a81548160ff0219169083151502179055508073ffffffffffffffffffffffffffffffffffffffff167fcd196ed3fe0b915032d44f7a350619b55156091d4c5cb9cdc31e5a90cbdc645a60405160405180910390a250565b5f602052805f5260405f205f915054906101000a900460ff1681565b60015f9054906101000a900473ffffffffffffffffffffffffffffffffffffffff1681565b5f7f435093e3334ab5b3f5d72718bbeb82b89e8e027577df7111dcc90d20ea7e5f1c905090565b5f3073ffffffffffffffffffffffffffffffffffffffff16633e85eed0845f5f1b856040518463ffffffff1660e01b81526004016108a6939291906113c2565b6020604051808303815f875af11580156108c2573d5f5f3e3d5ffd5b505050506040513d601f19601f820116820180604052508101906108e6919061111f565b905092915050565b60015f9054906101000a900473ffffffffffffffffffffffffffffffffffffffff1673ffffffffffffffffffffffffffffffffffffffff163373ffffffffffffffffffffffffffffffffffffffff16148061097457503073ffffffffffffffffffffffffffffffffffffffff163373ffffffffffffffffffffffffffffffffffffffff16145b6109b3576040517f08c379a00000000000000000000000000000000000000000000000000000000081526004016109aa906112dc565b60405180910390fd5b60015f9054906101000a900473ffffffffffffffffffffffffffffffffffffffff1673ffffffffffffffffffffffffffffffffffffffff168173ffffffffffffffffffffffffffffffffffffffff1603610a42576040517f08c379a0000000000000000000000000000000000000000000000000000000008152600401610a3990611448565b60405180910390fd5b5f5f5f8373ffffffffffffffffffffffffffffffffffffffff1673ffffffffffffffffffffffffffffffffffffffff1681526020019081526020015f205f6101000a81548160ff0219169083151502179055508073ffffffffffffffffffffffffffffffffffffffff167fa4961ab7db186b01af2eca2010a24b0745d70dd18a946e095490491a12faf7a460405160405180910390a250565b7f000000000000000000000000000000000000000000000000000000000000000081565b5f7f0000000000000000000000000000000000000000000000000000000000000000905090565b5f5f5f8373ffffffffffffffffffffffffffffffffffffffff1673ffffffffffffffffffffffffffffffffffffffff1681526020019081526020015f205f9054906101000a900460ff169050919050565b5f6041825114610b89575f9050610c39565b5f5f5f602085015192506040850151915060608501515f1a9050601b8160ff161015610bbf57601b81610bbc919061149f565b90505b601b8160ff1614158015610bd75750601c8160ff1614155b15610be7575f9350505050610c39565b6001868285856040515f8152602001604052604051610c0994939291906114e2565b6020604051602081039080840390855afa158015610c29573d5f5f3e3d5ffd5b5050506020604051035193505050505b92915050565b5f5f7f435093e3334ab5b3f5d72718bbeb82b89e8e027577df7111dcc90d20ea7e5f1c8484604051602001610c7693929190611525565b6040516020818303038152906040528051906020012090507f000000000000000000000000000000000000000000000000000000000000000081604051602001610cc19291906115ce565b6040516020818303038152906040528051906020012091505092915050565b5f604051905090565b5f5ffd5b5f5ffd5b5f819050919050565b610d0381610cf1565b8114610d0d575f5ffd5b50565b5f81359050610d1e81610cfa565b92915050565b5f5ffd5b5f5ffd5b5f601f19601f8301169050919050565b7f4e487b71000000000000000000000000000000000000000000000000000000005f52604160045260245ffd5b610d7282610d2c565b810181811067ffffffffffffffff82111715610d9157610d90610d3c565b5b80604052505050565b5f610da3610ce0565b9050610daf8282610d69565b919050565b5f67ffffffffffffffff821115610dce57610dcd610d3c565b5b610dd782610d2c565b9050602081019050919050565b828183375f83830152505050565b5f610e04610dff84610db4565b610d9a565b905082815260208101848484011115610e2057610e1f610d28565b5b610e2b848285610de4565b509392505050565b5f82601f830112610e4757610e46610d24565b5b8135610e57848260208601610df2565b91505092915050565b5f5f60408385031215610e7657610e75610ce9565b5b5f610e8385828601610d10565b925050602083013567ffffffffffffffff811115610ea457610ea3610ced565b5b610eb085828601610e33565b9150509250929050565b5f7fffffffff0000000000000000000000000000000000000000000000000000000082169050919050565b610eee81610eba565b82525050565b5f602082019050610f075f830184610ee5565b92915050565b5f5f5f60608486031215610f2457610f23610ce9565b5b5f610f3186828701610d10565b9350506020610f4286828701610d10565b925050604084013567ffffffffffffffff811115610f6357610f62610ced565b5b610f6f86828701610e33565b9150509250925092565b5f8115159050919050565b610f8d81610f79565b82525050565b5f602082019050610fa65f830184610f84565b92915050565b5f73ffffffffffffffffffffffffffffffffffffffff82169050919050565b5f610fd582610fac565b9050919050565b610fe581610fcb565b8114610fef575f5ffd5b50565b5f8135905061100081610fdc565b92915050565b5f6020828403121561101b5761101a610ce9565b5b5f61102884828501610ff2565b91505092915050565b61103a81610fcb565b82525050565b5f6020820190506110535f830184611031565b92915050565b61106281610cf1565b82525050565b5f60208201905061107b5f830184611059565b92915050565b5f819050919050565b5f6110a461109f61109a84610fac565b611081565b610fac565b9050919050565b5f6110b58261108a565b9050919050565b5f6110c6826110ab565b9050919050565b6110d6816110bc565b82525050565b5f6020820190506110ef5f8301846110cd565b92915050565b6110fe81610f79565b8114611108575f5ffd5b50565b5f81519050611119816110f5565b92915050565b5f6020828403121561113457611133610ce9565b5b5f6111418482850161110b565b91505092915050565b5f82825260208201905092915050565b7f546f6b656e20616c7265616479207370656e74000000000000000000000000005f82015250565b5f61118e60138361114a565b91506111998261115a565b602082019050919050565b5f6020820190508181035f8301526111bb81611182565b9050919050565b7f496e76616c6964207369676e61747572650000000000000000000000000000005f82015250565b5f6111f660118361114a565b9150611201826111c2565b602082019050919050565b5f6020820190508181035f830152611223816111ea565b9050919050565b7f556e617574686f72697a6564207369676e6572000000000000000000000000005f82015250565b5f61125e60138361114a565b91506112698261122a565b602082019050919050565b5f6020820190508181035f83015261128b81611252565b9050919050565b7f556e617574686f72697a656400000000000000000000000000000000000000005f82015250565b5f6112c6600c8361114a565b91506112d182611292565b602082019050919050565b5f6020820190508181035f8301526112f3816112ba565b9050919050565b7f496e76616c6964206b65790000000000000000000000000000000000000000005f82015250565b5f61132e600b8361114a565b9150611339826112fa565b602082019050919050565b5f6020820190508181035f83015261135b81611322565b9050919050565b5f81519050919050565b5f82825260208201905092915050565b8281835e5f83830152505050565b5f61139482611362565b61139e818561136c565b93506113ae81856020860161137c565b6113b781610d2c565b840191505092915050565b5f6060820190506113d55f830186611059565b6113e26020830185611059565b81810360408301526113f4818461138a565b9050949350505050565b7f43616e6e6f74207265766f6b65206f776e6572000000000000000000000000005f82015250565b5f61143260138361114a565b915061143d826113fe565b602082019050919050565b5f6020820190508181035f83015261145f81611426565b9050919050565b5f60ff82169050919050565b7f4e487b71000000000000000000000000000000000000000000000000000000005f52601160045260245ffd5b5f6114a982611466565b91506114b483611466565b9250828201905060ff8111156114cd576114cc611472565b5b92915050565b6114dc81611466565b82525050565b5f6080820190506114f55f830187611059565b61150260208301866114d3565b61150f6040830185611059565b61151c6060830184611059565b95945050505050565b5f6060820190506115385f830186611059565b6115456020830185611059565b6115526040830184611059565b949350505050565b5f81905092915050565b7f19010000000000000000000000000000000000000000000000000000000000005f82015250565b5f61159860028361155a565b91506115a382611564565b600282019050919050565b5f819050919050565b6115c86115c382610cf1565b6115ae565b82525050565b5f6115d88261158c565b91506115e482856115b7565b6020820191506115f482846115b7565b602082019150819050939250505056fea2646970667358221220926941643514d308a4f5bbef2e8ee4da9805785bdc34fa6302210bc8bebbf1bd64736f6c634300081e0033",
					"opcodes": "PUSH1 0xC0 PUSH1 0x40 MSTORE CALLVALUE DUP1 ISZERO PUSH2 0xF JUMPI PUSH0 PUSH0 REVERT JUMPDEST POP PUSH1 0x40 MLOAD PUSH2 0x1BC3 CODESIZE SUB DUP1 PUSH2 0x1BC3 DUP4 CODECOPY DUP2 DUP2 ADD PUSH1 0x40 MSTORE DUP2 ADD SWAP1 PUSH2 0x31 SWAP2 SWAP1 PUSH2 0x3A5 JUMP JUMPDEST PUSH0 PUSH20 0xFFFFFFFFFFFFFFFFFFFFFFFFFFFFFFFFFFFFFFFF AND DUP3 PUSH20 0xFFFFFFFFFFFFFFFFFFFFFFFFFFFFFFFFFFFFFFFF AND SUB PUSH2 0x9F JUMPI PUSH1 0x40 MLOAD PUSH32 0x8C379A000000000000000000000000000000000000000000000000000000000 DUP2 MSTORE PUSH1 0x4 ADD PUSH2 0x96 SWAP1 PUSH2 0x43D JUMP JUMPDEST PUSH1 0x40 MLOAD DUP1 SWAP2 SUB SWAP1 REVERT JUMPDEST PUSH0 PUSH20 0xFFFFFFFFFFFFFFFFFFFFFFFFFFFFFFFFFFFFFFFF AND DUP2 PUSH20 0xFFFFFFFFFFFFFFFFFFFFFFFFFFFFFFFFFFFFFFFF AND SUB PUSH2 0x10D JUMPI PUSH1 0x40 MLOAD PUSH32 0x8C379A000000000000000000000000000000000000000000000000000000000 DUP2 MSTORE PUSH1 0x4 ADD PUSH2 0x104 SWAP1 PUSH2 0x4A5 JUMP JUMPDEST PUSH1 0x40 MLOAD DUP1 SWAP2 SUB SWAP1 REVERT JUMPDEST DUP2 PUSH1 0x1 PUSH0 PUSH2 0x100 EXP DUP2 SLOAD DUP2 PUSH20 0xFFFFFFFFFFFFFFFFFFFFFFFFFFFFFFFFFFFFFFFF MUL NOT AND SWAP1 DUP4 PUSH20 0xFFFFFFFFFFFFFFFFFFFFFFFFFFFFFFFFFFFFFFFF AND MUL OR SWAP1 SSTORE POP DUP1 PUSH20 0xFFFFFFFFFFFFFFFFFFFFFFFFFFFFFFFFFFFFFFFF AND PUSH1 0x80 DUP2 PUSH20 0xFFFFFFFFFFFFFFFFFFFFFFFFFFFFFFFFFFFFFFFF AND DUP2 MSTORE POP POP PUSH1 0x1 PUSH0 PUSH0 DUP5 PUSH20 0xFFFFFFFFFFFFFFFFFFFFFFFFFFFFFFFFFFFFFFFF AND PUSH20 0xFFFFFFFFFFFFFFFFFFFFFFFFFFFFFFFFFFFFFFFF AND DUP2 MSTORE PUSH1 0x20 ADD SWAP1 DUP2 MSTORE PUSH1 0x20 ADD PUSH0 KECCAK256 PUSH0 PUSH2 0x100 EXP DUP2 SLOAD DUP2 PUSH1 0xFF MUL NOT AND SWAP1 DUP4 ISZERO ISZERO MUL OR SWAP1 SSTORE POP PUSH32 0x8B73C3C69BB8FE3D512ECC4CF759CC79239F7B179B0FFACAA9A75D522B39400F PUSH1 0x40 MLOAD DUP1 PUSH1 0x40 ADD PUSH1 0x40 MSTORE DUP1 PUSH1 0xF DUP2 MSTORE PUSH1 0x20 ADD PUSH32 0x42696F6D657472696357616C6C65740000000000000000000000000000000000 DUP2 MSTORE POP DUP1 MLOAD SWAP1 PUSH1 0x20 ADD KECCAK256 PUSH1 0x40 MLOAD DUP1 PUSH1 0x40 ADD PUSH1 0x40 MSTORE DUP1 PUSH1 0x1 DUP2 MSTORE PUSH1 0x20 ADD PUSH32 0x3100000000000000000000000000000000000000000000000000000000000000 DUP2 MSTORE POP DUP1 MLOAD SWAP1 PUSH1 0x20 ADD KECCAK256 CHAINID ADDRESS PUSH1 0x40 MLOAD PUSH1 0x20 ADD PUSH2 0x286 SWAP6 SWAP5 SWAP4 SWAP3 SWAP2 SWAP1 PUSH2 0x502 JUMP JUMPDEST PUSH1 0x40 MLOAD PUSH1 0x20 DUP2 DUP4 SUB SUB DUP2 MSTORE SWAP1 PUSH1 0x40 MSTORE DUP1 MLOAD SWAP1 PUSH1 0x20 ADD KECCAK256 PUSH1 0xA0 DUP2 DUP2 MSTORE POP POP DUP2 PUSH20 0xFFFFFFFFFFFFFFFFFFFFFFFFFFFFFFFFFFFFFFFF AND PUSH32 0xCD196ED3FE0B915032D44F7A350619B55156091D4C5CB9CDC31E5A90CBDC645A PUSH1 0x40 MLOAD PUSH1 0x40 MLOAD DUP1 SWAP2 SUB SWAP1 LOG2 DUP1 PUSH20 0xFFFFFFFFFFFFFFFFFFFFFFFFFFFFFFFFFFFFFFFF AND DUP3 PUSH20 0xFFFFFFFFFFFFFFFFFFFFFFFFFFFFFFFFFFFFFFFF AND PUSH32 0xF25144576B87C0DB53FD13E964C2B18299EE19D7D44D4B2636144644ACFF745B PUSH1 0x40 MLOAD PUSH1 0x40 MLOAD DUP1 SWAP2 SUB SWAP1 LOG3 POP POP PUSH2 0x553 JUMP JUMPDEST PUSH0 PUSH0 REVERT JUMPDEST PUSH0 PUSH20 0xFFFFFFFFFFFFFFFFFFFFFFFFFFFFFFFFFFFFFFFF DUP3 AND SWAP1 POP SWAP2 SWAP1 POP JUMP JUMPDEST PUSH0 PUSH2 0x374 DUP3 PUSH2 0x34B JUMP JUMPDEST SWAP1 POP SWAP2 SWAP1 POP JUMP JUMPDEST PUSH2 0x384 DUP2 PUSH2 0x36A JUMP JUMPDEST DUP2 EQ PUSH2 0x38E JUMPI PUSH0 PUSH0 REVERT JUMPDEST POP JUMP JUMPDEST PUSH0 DUP2 MLOAD SWAP1 POP PUSH2 0x39F DUP2 PUSH2 0x37B JUMP JUMPDEST SWAP3 SWAP2 POP POP JUMP JUMPDEST PUSH0 PUSH0 PUSH1 0x40 DUP4 DUP6 SUB SLT ISZERO PUSH2 0x3BB JUMPI PUSH2 0x3BA PUSH2 0x347 JUMP JUMPDEST JUMPDEST PUSH0 PUSH2 0x3C8 DUP6 DUP3 DUP7 ADD PUSH2 0x391 JUMP JUMPDEST SWAP3 POP POP PUSH1 0x20 PUSH2 0x3D9 DUP6 DUP3 DUP7 ADD PUSH2 0x391 JUMP JUMPDEST SWAP2 POP POP SWAP3 POP SWAP3 SWAP1 POP JUMP JUMPDEST PUSH0 DUP3 DUP3 MSTORE PUSH1 0x20 DUP3 ADD SWAP1 POP SWAP3 SWAP2 POP POP JUMP JUMPDEST PUSH32 0x496E76616C6964206F776E657220616464726573730000000000000000000000 PUSH0 DUP3 ADD MSTORE POP JUMP JUMPDEST PUSH0 PUSH2 0x427 PUSH1 0x15 DUP4 PUSH2 0x3E3 JUMP JUMPDEST SWAP2 POP PUSH2 0x432 DUP3 PUSH2 0x3F3 JUMP JUMPDEST PUSH1 0x20 DUP3 ADD SWAP1 POP SWAP2 SWAP1 POP JUMP JUMPDEST PUSH0 PUSH1 0x20 DUP3 ADD SWAP1 POP DUP2 DUP2 SUB PUSH0 DUP4 ADD MSTORE PUSH2 0x454 DUP2 PUSH2 0x41B JUMP JUMPDEST SWAP1 POP SWAP2 SWAP1 POP JUMP JUMPDEST PUSH32 0x496E76616C6964205370656E7453657420616464726573730000000000000000 PUSH0 DUP3 ADD MSTORE POP JUMP JUMPDEST PUSH0 PUSH2 0x48F PUSH1 0x18 DUP4 PUSH2 0x3E3 JUMP JUMPDEST SWAP2 POP PUSH2 0x49A DUP3 PUSH2 0x45B JUMP JUMPDEST PUSH1 0x20 DUP3 ADD SWAP1 POP SWAP2 SWAP1 POP JUMP JUMPDEST PUSH0 PUSH1 0x20 DUP3 ADD SWAP1 POP DUP2 DUP2 SUB PUSH0 DUP4 ADD MSTORE PUSH2 0x4BC DUP2 PUSH2 0x483 JUMP JUMPDEST SWAP1 POP SWAP2 SWAP1 POP JUMP JUMPDEST PUSH0 DUP2 SWAP1 POP SWAP2 SWAP1 POP JUMP JUMPDEST PUSH2 0x4D5 DUP2 PUSH2 0x4C3 JUMP JUMPDEST DUP3 MSTORE POP POP JUMP JUMPDEST PUSH0 DUP2 SWAP1 POP SWAP2 SWAP1 POP JUMP JUMPDEST PUSH2 0x4ED DUP2 PUSH2 0x4DB JUMP JUMPDEST DUP3 MSTORE POP POP JUMP JUMPDEST PUSH2 0x4FC DUP2 PUSH2 0x36A JUMP JUMPDEST DUP3 MSTORE POP POP JUMP JUMPDEST PUSH0 PUSH1 0xA0 DUP3 ADD SWAP1 POP PUSH2 0x515 PUSH0 DUP4 ADD DUP9 PUSH2 0x4CC JUMP JUMPDEST PUSH2 0x522 PUSH1 0x20 DUP4 ADD DUP8 PUSH2 0x4CC JUMP JUMPDEST PUSH2 0x52F PUSH1 0x40 DUP4 ADD DUP7 PUSH2 0x4CC JUMP JUMPDEST PUSH2 0x53C PUSH1 0x60 DUP4 ADD DUP6 PUSH2 0x4E4 JUMP JUMPDEST PUSH2 0x549 PUSH1 0x80 DUP4 ADD DUP5 PUSH2 0x4F3 JUMP JUMPDEST SWAP7 SWAP6 POP POP POP POP POP POP JUMP JUMPDEST PUSH1 0x80 MLOAD PUSH1 0xA0 MLOAD PUSH2 0x163A PUSH2 0x589 PUSH0 CODECOPY PUSH0 DUP2 DUP2 PUSH2 0xB02 ADD MSTORE PUSH2 0xC90 ADD MSTORE PUSH0 DUP2 DUP2 PUSH2 0x37F ADD MSTORE DUP2 DUP2 PUSH2 0x567 ADD MSTORE PUSH2 0xADD ADD MSTORE PUSH2 0x163A PUSH0 RETURN INVALID PUSH1 0x80 PUSH1 0x40 MSTORE PUSH1 0x4 CALLDATASIZE LT PUSH2 0x9F JUMPI PUSH0 CALLDATALOAD PUSH1 0xE0 SHR DUP1 PUSH4 0xB3597FA9 GT PUSH2 0x63 JUMPI DUP1 PUSH4 0xB3597FA9 EQ PUSH2 0x1A8 JUMPI DUP1 PUSH4 0xCAD50F57 EQ PUSH2 0x1D2 JUMPI DUP1 PUSH4 0xECACA880 EQ PUSH2 0x20E JUMPI DUP1 PUSH4 0xEEC6E99B EQ PUSH2 0x236 JUMPI DUP1 PUSH4 0xF698DA25 EQ PUSH2 0x260 JUMPI DUP1 PUSH4 0xFE9FBB80 EQ PUSH2 0x28A JUMPI PUSH2 0xA0 JUMP JUMPDEST DUP1 PUSH4 0x1626BA7E EQ PUSH2 0xA2 JUMPI DUP1 PUSH4 0x3E85EED0 EQ PUSH2 0xDE JUMPI DUP1 PUSH4 0x715E2393 EQ PUSH2 0x11A JUMPI DUP1 PUSH4 0x7D81DD57 EQ PUSH2 0x142 JUMPI DUP1 PUSH4 0x8DA5CB5B EQ PUSH2 0x17E JUMPI PUSH2 0xA0 JUMP JUMPDEST JUMPDEST STOP JUMPDEST CALLVALUE DUP1 ISZERO PUSH2 0xAD JUMPI PUSH0 PUSH0 REVERT JUMPDEST POP PUSH2 0xC8 PUSH1 0x4 DUP1 CALLDATASIZE SUB DUP2 ADD SWAP1 PUSH2 0xC3 SWAP2 SWAP1 PUSH2 0xE60 JUMP JUMPDEST PUSH2 0x2C6 JUMP JUMPDEST PUSH1 0x40 MLOAD PUSH2 0xD5 SWAP2 SWAP1 PUSH2 0xEF4 JUMP JUMPDEST PUSH1 0x40 MLOAD DUP1 SWAP2 SUB SWAP1 RETURN JUMPDEST CALLVALUE DUP1 ISZERO PUSH2 0xE9 JUMPI PUSH0 PUSH0 REVERT JUMPDEST POP PUSH2 0x104 PUSH1 0x4 DUP1 CALLDATASIZE SUB DUP2 ADD SWAP1 PUSH2 0xFF SWAP2 SWAP1 PUSH2 0xF0D JUMP JUMPDEST PUSH2 0x37C JUMP JUMPDEST PUSH1 0x40 MLOAD PUSH2 0x111 SWAP2 SWAP1 PUSH2 0xF93 JUMP JUMPDEST PUSH1 0x40 MLOAD DUP1 SWAP2 SUB SWAP1 RETURN JUMPDEST CALLVALUE DUP1 ISZERO PUSH2 0x125 JUMPI PUSH0 PUSH0 REVERT JUMPDEST POP PUSH2 0x140 PUSH1 0x4 DUP1 CALLDATASIZE SUB DUP2 ADD SWAP1 PUSH2 0x13B SWAP2 SWAP1 PUSH2 0x1006 JUMP JUMPDEST PUSH2 0x631 JUMP JUMPDEST STOP JUMPDEST CALLVALUE DUP1 ISZERO PUSH2 0x14D JUMPI PUSH0 PUSH0 REVERT JUMPDEST POP PUSH2 0x168 PUSH1 0x4 DUP1 CALLDATASIZE SUB DUP2 ADD SWAP1 PUSH2 0x163 SWAP2 SWAP1 PUSH2 0x1006 JUMP JUMPDEST PUSH2 0x7FE JUMP JUMPDEST PUSH1 0x40 MLOAD PUSH2 0x175 SWAP2 SWAP1 PUSH2 0xF93 JUMP JUMPDEST PUSH1 0x40 MLOAD DUP1 SWAP2 SUB SWAP1 RETURN JUMPDEST CALLVALUE DUP1 ISZERO PUSH2 0x189 JUMPI PUSH0 PUSH0 REVERT JUMPDEST POP PUSH2 0x192 PUSH2 0x81A JUMP JUMPDEST PUSH1 0x40 MLOAD PUSH2 0x19F SWAP2 SWAP1 PUSH2 0x1040 JUMP JUMPDEST PUSH1 0x40 MLOAD DUP1 SWAP2 SUB SWAP1 RETURN JUMPDEST CALLVALUE DUP1 ISZERO PUSH2 0x1B3 JUMPI PUSH0 PUSH0 REVERT JUMPDEST POP PUSH2 0x1BC PUSH2 0x83F JUMP JUMPDEST PUSH1 0x40 MLOAD PUSH2 0x1C9 SWAP2 SWAP1 PUSH2 0x1068 JUMP JUMPDEST PUSH1 0x40 MLOAD DUP1 SWAP2 SUB SWAP1 RETURN JUMPDEST CALLVALUE DUP1 ISZERO PUSH2 0x1DD JUMPI PUSH0 PUSH0 REVERT JUMPDEST POP PUSH2 0x1F8 PUSH1 0x4 DUP1 CALLDATASIZE SUB DUP2 ADD SWAP1 PUSH2 0x1F3 SWAP2 SWAP1 PUSH2 0xE60 JUMP JUMPDEST PUSH2 0x866 JUMP JUMPDEST PUSH1 0x40 MLOAD PUSH2 0x205 SWAP2 SWAP1 PUSH2 0xF93 JUMP JUMPDEST PUSH1 0x40 MLOAD DUP1 SWAP2 SUB SWAP1 RETURN JUMPDEST CALLVALUE DUP1 ISZERO PUSH2 0x219 JUMPI PUSH0 PUSH0 REVERT JUMPDEST POP PUSH2 0x234 PUSH1 0x4 DUP1 CALLDATASIZE SUB DUP2 ADD SWAP1 PUSH2 0x22F SWAP2 SWAP1 PUSH2 0x1006 JUMP JUMPDEST PUSH2 0x8EE JUMP JUMPDEST STOP JUMPDEST CALLVALUE DUP1 ISZERO PUSH2 0x241 JUMPI PUSH0 PUSH0 REVERT JUMPDEST POP PUSH2 0x24A PUSH2 0xADB JUMP JUMPDEST PUSH1 0x40 MLOAD PUSH2 0x257 SWAP2 SWAP1 PUSH2 0x10DC JUMP JUMPDEST PUSH1 0x40 MLOAD DUP1 SWAP2 SUB SWAP1 RETURN JUMPDEST CALLVALUE DUP1 ISZERO PUSH2 0x26B JUMPI PUSH0 PUSH0 REVERT JUMPDEST POP PUSH2 0x274 PUSH2 0xAFF JUMP JUMPDEST PUSH1 0x40 MLOAD PUSH2 0x281 SWAP2 SWAP1 PUSH2 0x1068 JUMP JUMPDEST PUSH1 0x40 MLOAD DUP1 SWAP2 SUB SWAP1 RETURN JUMPDEST CALLVALUE DUP1 ISZERO PUSH2 0x295 JUMPI PUSH0 PUSH0 REVERT JUMPDEST POP PUSH2 0x2B0 PUSH1 0x4 DUP1 CALLDATASIZE SUB DUP2 ADD SWAP1 PUSH2 0x2AB SWAP2 SWAP1 PUSH2 0x1006 JUMP JUMPDEST PUSH2 0xB26 JUMP JUMPDEST PUSH1 0x40 MLOAD PUSH2 0x2BD SWAP2 SWAP1 PUSH2 0xF93 JUMP JUMPDEST PUSH1 0x40 MLOAD DUP1 SWAP2 SUB SWAP1 RETURN JUMPDEST PUSH0 PUSH0 PUSH2 0x2D2 DUP5 DUP5 PUSH2 0xB77 JUMP JUMPDEST SWAP1 POP PUSH0 PUSH20 0xFFFFFFFFFFFFFFFFFFFFFFFFFFFFFFFFFFFFFFFF AND DUP2 PUSH20 0xFFFFFFFFFFFFFFFFFFFFFFFFFFFFFFFFFFFFFFFF AND EQ ISZERO DUP1 ISZERO PUSH2 0x355 JUMPI POP PUSH0 PUSH0 DUP3 PUSH20 0xFFFFFFFFFFFFFFFFFFFFFFFFFFFFFFFFFFFFFFFF AND PUSH20 0xFFFFFFFFFFFFFFFFFFFFFFFFFFFFFFFFFFFFFFFF AND DUP2 MSTORE PUSH1 0x20 ADD SWAP1 DUP2 MSTORE PUSH1 0x20 ADD PUSH0 KECCAK256 PUSH0 SWAP1 SLOAD SWAP1 PUSH2 0x100 EXP SWAP1 DIV PUSH1 0xFF AND JUMPDEST ISZERO PUSH2 0x36A JUMPI PUSH4 0x1626BA7E PUSH1 0xE0 SHL SWAP2 POP POP PUSH2 0x376 JUMP JUMPDEST PUSH4 0xFFFFFFFF PUSH1 0xE0 SHL SWAP2 POP POP JUMPDEST SWAP3 SWAP2 POP POP JUMP JUMPDEST PUSH0 PUSH32 0x0 PUSH20 0xFFFFFFFFFFFFFFFFFFFFFFFFFFFFFFFFFFFFFFFF AND PUSH4 0xFE255A18 DUP6 PUSH1 0x40 MLOAD DUP3 PUSH4 0xFFFFFFFF AND PUSH1 0xE0 SHL DUP2 MSTORE PUSH1 0x4 ADD PUSH2 0x3D6 SWAP2 SWAP1 PUSH2 0x1068 JUMP JUMPDEST PUSH1 0x20 PUSH1 0x40 MLOAD DUP1 DUP4 SUB DUP2 DUP7 GAS STATICCALL ISZERO DUP1 ISZERO PUSH2 0x3F1 JUMPI RETURNDATASIZE PUSH0 PUSH0 RETURNDATACOPY RETURNDATASIZE PUSH0 REVERT JUMPDEST POP POP POP POP PUSH1 0x40 MLOAD RETURNDATASIZE PUSH1 0x1F NOT PUSH1 0x1F DUP3 ADD AND DUP3 ADD DUP1 PUSH1 0x40 MSTORE POP DUP2 ADD SWAP1 PUSH2 0x415 SWAP2 SWAP1 PUSH2 0x111F JUMP JUMPDEST ISZERO PUSH2 0x455 JUMPI PUSH1 0x40 MLOAD PUSH32 0x8C379A000000000000000000000000000000000000000000000000000000000 DUP2 MSTORE PUSH1 0x4 ADD PUSH2 0x44C SWAP1 PUSH2 0x11A4 JUMP JUMPDEST PUSH1 0x40 MLOAD DUP1 SWAP2 SUB SWAP1 REVERT JUMPDEST PUSH0 PUSH2 0x460 DUP6 DUP6 PUSH2 0xC3F JUMP JUMPDEST SWAP1 POP PUSH0 PUSH2 0x46D DUP3 DUP6 PUSH2 0xB77 JUMP JUMPDEST SWAP1 POP PUSH0 PUSH20 0xFFFFFFFFFFFFFFFFFFFFFFFFFFFFFFFFFFFFFFFF AND DUP2 PUSH20 0xFFFFFFFFFFFFFFFFFFFFFFFFFFFFFFFFFFFFFFFF AND SUB PUSH2 0x4DD JUMPI PUSH1 0x40 MLOAD PUSH32 0x8C379A000000000000000000000000000000000000000000000000000000000 DUP2 MSTORE PUSH1 0x4 ADD PUSH2 0x4D4 SWAP1 PUSH2 0x120C JUMP JUMPDEST PUSH1 0x40 MLOAD DUP1 SWAP2 SUB SWAP1 REVERT JUMPDEST PUSH0 PUSH0 DUP3 PUSH20 0xFFFFFFFFFFFFFFFFFFFFFFFFFFFFFFFFFFFFFFFF AND PUSH20 0xFFFFFFFFFFFFFFFFFFFFFFFFFFFFFFFFFFFFFFFF AND DUP2 MSTORE PUSH1 0x20 ADD SWAP1 DUP2 MSTORE PUSH1 0x20 ADD PUSH0 KECCAK256 PUSH0 SWAP1 SLOAD SWAP1 PUSH2 0x100 EXP SWAP1 DIV PUSH1 0xFF AND PUSH2 0x565 JUMPI PUSH1 0x40 MLOAD PUSH32 0x8C379A000000000000000000000000000000000000000000000000000000000 DUP2 MSTORE PUSH1 0x4 ADD PUSH2 0x55C SWAP1 PUSH2 0x1274 JUMP JUMPDEST PUSH1 0x40 MLOAD DUP1 SWAP2 SUB SWAP1 REVERT JUMPDEST PUSH32 0x0 PUSH20 0xFFFFFFFFFFFFFFFFFFFFFFFFFFFFFFFFFFFFFFFF AND PUSH4 0xE21E9E0E DUP8 PUSH1 0x40 MLOAD DUP3 PUSH4 0xFFFFFFFF AND PUSH1 0xE0 SHL DUP2 MSTORE PUSH1 0x4 ADD PUSH2 0x5BE SWAP2 SWAP1 PUSH2 0x1068 JUMP JUMPDEST PUSH0 PUSH1 0x40 MLOAD DUP1 DUP4 SUB DUP2 PUSH0 DUP8 DUP1 EXTCODESIZE ISZERO DUP1 ISZERO PUSH2 0x5D5 JUMPI PUSH0 PUSH0 REVERT JUMPDEST POP GAS CALL ISZERO DUP1 ISZERO PUSH2 0x5E7 JUMPI RETURNDATASIZE PUSH0 PUSH0 RETURNDATACOPY RETURNDATASIZE PUSH0 REVERT JUMPDEST POP POP POP POP DUP6 PUSH32 0x1D14A3E696BB4D8779EAAE342540FC3207C9A38D1AC7D987F623F3181DF06C42 PUSH1 0x1 PUSH1 0x40 MLOAD PUSH2 0x61C SWAP2 SWAP1 PUSH2 0xF93 JUMP JUMPDEST PUSH1 0x40 MLOAD DUP1 SWAP2 SUB SWAP1 LOG2 PUSH1 0x1 SWAP3 POP POP POP SWAP4 SWAP3 POP POP POP JUMP JUMPDEST PUSH1 0x1 PUSH0 SWAP1 SLOAD SWAP1 PUSH2 0x100 EXP SWAP1 DIV PUSH20 0xFFFFFFFFFFFFFFFFFFFFFFFFFFFFFFFFFFFFFFFF AND PUSH20 0xFFFFFFFFFFFFFFFFFFFFFFFFFFFFFFFFFFFFFFFF AND CALLER PUSH20 0xFFFFFFFFFFFFFFFFFFFFFFFFFFFFFFFFFFFFFFFF AND EQ DUP1 PUSH2 0x6B7 JUMPI POP ADDRESS PUSH20 0xFFFFFFFFFFFFFFFFFFFFFFFFFFFFFFFFFFFFFFFF AND CALLER PUSH20 0xFFFFFFFFFFFFFFFFFFFFFFFFFFFFFFFFFFFFFFFF AND EQ JUMPDEST PUSH2 0x6F6 JUMPI PUSH1 0x40 MLOAD PUSH32 0x8C379A000000000000000000000000000000000000000000000000000000000 DUP2 MSTORE PUSH1 0x4 ADD PUSH2 0x6ED SWAP1 PUSH2 0x12DC JUMP JUMPDEST PUSH1 0x40 MLOAD DUP1 SWAP2 SUB SWAP1 REVERT JUMPDEST PUSH0 PUSH20 0xFFFFFFFFFFFFFFFFFFFFFFFFFFFFFFFFFFFFFFFF AND DUP2 PUSH20 0xFFFFFFFFFFFFFFFFFFFFFFFFFFFFFFFFFFFFFFFF AND SUB PUSH2 0x764 JUMPI PUSH1 0x40 MLOAD PUSH32 0x8C379A000000000000000000000000000000000000000000000000000000000 DUP2 MSTORE PUSH1 0x4 ADD PUSH2 0x75B SWAP1 PUSH2 0x1344 JUMP JUMPDEST PUSH1 0x40 MLOAD DUP1 SWAP2 SUB SWAP1 REVERT JUMPDEST PUSH1 0x1 PUSH0 PUSH0 DUP4 PUSH20 0xFFFFFFFFFFFFFFFFFFFFFFFFFFFFFFFFFFFFFFFF AND PUSH20 0xFFFFFFFFFFFFFFFFFFFFFFFFFFFFFFFFFFFFFFFF AND DUP2 MSTORE PUSH1 0x20 ADD SWAP1 DUP2 MSTORE PUSH1 0x20 ADD PUSH0 KECCAK256 PUSH0 PUSH2 0x100 EXP DUP2 SLOAD DUP2 PUSH1 0xFF MUL NOT AND SWAP1 DUP4 ISZERO ISZERO MUL OR SWAP1 SSTORE POP DUP1 PUSH20 0xFFFFFFFFFFFFFFFFFFFFFFFFFFFFFFFFFFFFFFFF AND PUSH32 0xCD196ED3FE0B915032D44F7A350619B55156091D4C5CB9CDC31E5A90CBDC645A PUSH1 0x40 MLOAD PUSH1 0x40 MLOAD DUP1 SWAP2 SUB SWAP1 LOG2 POP JUMP JUMPDEST PUSH0 PUSH1 0x20 MSTORE DUP1 PUSH0 MSTORE PUSH1 0x40 PUSH0 KECCAK256 PUSH0 SWAP2 POP SLOAD SWAP1 PUSH2 0x100 EXP SWAP1 DIV PUSH1 0xFF AND DUP2 JUMP JUMPDEST PUSH1 0x1 PUSH0 SWAP1 SLOAD SWAP1 PUSH2 0x100 EXP SWAP1 DIV PUSH20 0xFFFFFFFFFFFFFFFFFFFFFFFFFFFFFFFFFFFFFFFF AND DUP2 JUMP JUMPDEST PUSH0 PUSH32 0x435093E3334AB5B3F5D72718BBEB82B89E8E027577DF7111DCC90D20EA7E5F1C SWAP1 POP SWAP1 JUMP JUMPDEST PUSH0 ADDRESS PUSH20 0xFFFFFFFFFFFFFFFFFFFFFFFFFFFFFFFFFFFFFFFF AND PUSH4 0x3E85EED0 DUP5 PUSH0 PUSH0 SHL DUP6 PUSH1 0x40 MLOAD DUP5 PUSH4 0xFFFFFFFF AND PUSH1 0xE0 SHL DUP2 MSTORE PUSH1 0x4 ADD PUSH2 0x8A6 SWAP4 SWAP3 SWAP2 SWAP1 PUSH2 0x13C2 JUMP JUMPDEST PUSH1 0x20 PUSH1 0x40 MLOAD DUP1 DUP4 SUB DUP2 PUSH0 DUP8 GAS CALL ISZERO DUP1 ISZERO PUSH2 0x8C2 JUMPI RETURNDATASIZE PUSH0 PUSH0 RETURNDATACOPY RETURNDATASIZE PUSH0 REVERT JUMPDEST POP POP POP POP PUSH1 0x40 MLOAD RETURNDATASIZE PUSH1 0x1F NOT PUSH1 0x1F DUP3 ADD AND DUP3 ADD DUP1 PUSH1 0x40 MSTORE POP DUP2 ADD SWAP1 PUSH2 0x8E6 SWAP2 SWAP1 PUSH2 0x111F JUMP JUMPDEST SWAP1 POP SWAP3 SWAP2 POP POP JUMP JUMPDEST PUSH1 0x1 PUSH0 SWAP1 SLOAD SWAP1 PUSH2 0x100 EXP SWAP1 DIV PUSH20 0xFFFFFFFFFFFFFFFFFFFFFFFFFFFFFFFFFFFFFFFF AND PUSH20 0xFFFFFFFFFFFFFFFFFFFFFFFFFFFFFFFFFFFFFFFF AND CALLER PUSH20 0xFFFFFFFFFFFFFFFFFFFFFFFFFFFFFFFFFFFFFFFF AND EQ DUP1 PUSH2 0x974 JUMPI POP ADDRESS PUSH20 0xFFFFFFFFFFFFFFFFFFFFFFFFFFFFFFFFFFFFFFFF AND CALLER PUSH20 0xFFFFFFFFFFFFFFFFFFFFFFFFFFFFFFFFFFFFFFFF AND EQ JUMPDEST PUSH2 0x9B3 JUMPI PUSH1 0x40 MLOAD PUSH32 0x8C379A000000000000000000000000000000000000000000000000000000000 DUP2 MSTORE PUSH1 0x4 ADD PUSH2 0x9AA SWAP1 PUSH2 0x12DC JUMP JUMPDEST PUSH1 0x40 MLOAD DUP1 SWAP2 SUB SWAP1 REVERT JUMPDEST PUSH1 0x1 PUSH0 SWAP1 SLOAD SWAP1 PUSH2 0x100 EXP SWAP1 DIV PUSH20 0xFFFFFFFFFFFFFFFFFFFFFFFFFFFFFFFFFFFFFFFF AND PUSH20 0xFFFFFFFFFFFFFFFFFFFFFFFFFFFFFFFFFFFFFFFF AND DUP2 PUSH20 0xFFFFFFFFFFFFFFFFFFFFFFFFFFFFFFFFFFFFFFFF AND SUB PUSH2 0xA42 JUMPI PUSH1 0x40 MLOAD PUSH32 0x8C379A000000000000000000000000000000000000000000000000000000000 DUP2 MSTORE PUSH1 0x4 ADD PUSH2 0xA39 SWAP1 PUSH2 0x1448 JUMP JUMPDEST PUSH1 0x40 MLOAD DUP1 SWAP2 SUB SWAP1 REVERT JUMPDEST PUSH0 PUSH0 PUSH0 DUP4 PUSH20 0xFFFFFFFFFFFFFFFFFFFFFFFFFFFFFFFFFFFFFFFF AND PUSH20 0xFFFFFFFFFFFFFFFFFFFFFFFFFFFFFFFFFFFFFFFF AND DUP2 MSTORE PUSH1 0x20 ADD SWAP1 DUP2 MSTORE PUSH1 0x20 ADD PUSH0 KECCAK256 PUSH0 PUSH2 0x100 EXP DUP2 SLOAD DUP2 PUSH1 0xFF MUL NOT AND SWAP1 DUP4 ISZERO ISZERO MUL OR SWAP1 SSTORE POP DUP1 PUSH20 0xFFFFFFFFFFFFFFFFFFFFFFFFFFFFFFFFFFFFFFFF AND PUSH32 0xA4961AB7DB186B01AF2ECA2010A24B0745D70DD18A946E095490491A12FAF7A4 PUSH1 0x40 MLOAD PUSH1 0x40 MLOAD DUP1 SWAP2 SUB SWAP1 LOG2 POP JUMP JUMPDEST PUSH32 0x0 DUP2 JUMP JUMPDEST PUSH0 PUSH32 0x0 SWAP1 POP SWAP1 JUMP JUMPDEST PUSH0 PUSH0 PUSH0 DUP4 PUSH20 0xFFFFFFFFFFFFFFFFFFFFFFFFFFFFFFFFFFFFFFFF AND PUSH20 0xFFFFFFFFFFFFFFFFFFFFFFFFFFFFFFFFFFFFFFFF AND DUP2 MSTORE PUSH1 0x20 ADD SWAP1 DUP2 MSTORE PUSH1 0x20 ADD PUSH0 KECCAK256 PUSH0 SWAP1 SLOAD SWAP1 PUSH2 0x100 EXP SWAP1 DIV PUSH1 0xFF AND SWAP1 POP SWAP2 SWAP1 POP JUMP JUMPDEST PUSH0 PUSH1 0x41 DUP3 MLOAD EQ PUSH2 0xB89 JUMPI PUSH0 SWAP1 POP PUSH2 0xC39 JUMP JUMPDEST PUSH0 PUSH0 PUSH0 PUSH1 0x20 DUP6 ADD MLOAD SWAP3 POP PUSH1 0x40 DUP6 ADD MLOAD SWAP2 POP PUSH1 0x60 DUP6 ADD MLOAD PUSH0 BYTE SWAP1 POP PUSH1 0x1B DUP2 PUSH1 0xFF AND LT ISZERO PUSH2 0xBBF JUMPI PUSH1 0x1B DUP2 PUSH2 0xBBC SWAP2 SWAP1 PUSH2 0x149F JUMP JUMPDEST SWAP1 POP JUMPDEST PUSH1 0x1B DUP2 PUSH1 0xFF AND EQ ISZERO DUP1 ISZERO PUSH2 0xBD7 JUMPI POP PUSH1 0x1C DUP2 PUSH1 0xFF AND EQ ISZERO JUMPDEST ISZERO PUSH2 0xBE7 JUMPI PUSH0 SWAP4 POP POP POP POP PUSH2 0xC39 JUMP JUMPDEST PUSH1 0x1 DUP7 DUP3 DUP6 DUP6 PUSH1 0x40 MLOAD PUSH0 DUP2 MSTORE PUSH1 0x20 ADD PUSH1 0x40 MSTORE PUSH1 0x40 MLOAD PUSH2 0xC09 SWAP5 SWAP4 SWAP3 SWAP2 SWAP1 PUSH2 0x14E2 JUMP JUMPDEST PUSH1 0x20 PUSH1 0x40 MLOAD PUSH1 0x20 DUP2 SUB SWAP1 DUP1 DUP5 SUB SWAP1 DUP6 GAS STATICCALL ISZERO DUP1 ISZERO PUSH2 0xC29 JUMPI RETURNDATASIZE PUSH0 PUSH0 RETURNDATACOPY RETURNDATASIZE PUSH0 REVERT JUMPDEST POP POP POP PUSH1 0x20 PUSH1 0x40 MLOAD SUB MLOAD SWAP4 POP POP POP POP JUMPDEST SWAP3 SWAP2 POP POP JUMP JUMPDEST PUSH0 PUSH0 PUSH32 0x435093E3334AB5B3F5D72718BBEB82B89E8E027577DF7111DCC90D20EA7E5F1C DUP5 DUP5 PUSH1 0x40 MLOAD PUSH1 0x20 ADD PUSH2 0xC76 SWAP4 SWAP3 SWAP2 SWAP1 PUSH2 0x1525 JUMP JUMPDEST PUSH1 0x40 MLOAD PUSH1 0x20 DUP2 DUP4 SUB SUB DUP2 MSTORE SWAP1 PUSH1 0x40 MSTORE DUP1 MLOAD SWAP1 PUSH1 0x20 ADD KECCAK256 SWAP1 POP PUSH32 0x0 DUP2 PUSH1 0x40 MLOAD PUSH1 0x20 ADD PUSH2 0xCC1 SWAP3 SWAP2 SWAP1 PUSH2 0x15CE JUMP JUMPDEST PUSH1 0x40 MLOAD PUSH1 0x20 DUP2 DUP4 SUB SUB DUP2 MSTORE SWAP1 PUSH1 0x40 MSTORE DUP1 MLOAD SWAP1 PUSH1 0x20 ADD KECCAK256 SWAP2 POP POP SWAP3 SWAP2 POP POP JUMP JUMPDEST PUSH0 PUSH1 0x40 MLOAD SWAP1 POP SWAP1 JUMP JUMPDEST PUSH0 PUSH0 REVERT JUMPDEST PUSH0 PUSH0 REVERT JUMPDEST PUSH0 DUP2 SWAP1 POP SWAP2 SWAP1 POP JUMP JUMPDEST PUSH2 0xD03 DUP2 PUSH2 0xCF1 JUMP JUMPDEST DUP2 EQ PUSH2 0xD0D JUMPI PUSH0 PUSH0 REVERT JUMPDEST POP JUMP JUMPDEST PUSH0 DUP2 CALLDATALOAD SWAP1 POP PUSH2 0xD1E DUP2 PUSH2 0xCFA JUMP JUMPDEST SWAP3 SWAP2 POP POP JUMP JUMPDEST PUSH0 PUSH0 REVERT JUMPDEST PUSH0 PUSH0 REVERT JUMPDEST PUSH0 PUSH1 0x1F NOT PUSH1 0x1F DUP4 ADD AND SWAP1 POP SWAP2 SWAP1 POP JUMP JUMPDEST PUSH32 0x4E487B7100000000000000000000000000000000000000000000000000000000 PUSH0 MSTORE PUSH1 0x41 PUSH1 0x4 MSTORE PUSH1 0x24 PUSH0 REVERT JUMPDEST PUSH2 0xD72 DUP3 PUSH2 0xD2C JUMP JUMPDEST DUP2 ADD DUP2 DUP2 LT PUSH8 0xFFFFFFFFFFFFFFFF DUP3 GT OR ISZERO PUSH2 0xD91 JUMPI PUSH2 0xD90 PUSH2 0xD3C JUMP JUMPDEST JUMPDEST DUP1 PUSH1 0x40 MSTORE POP POP POP JUMP JUMPDEST PUSH0 PUSH2 0xDA3 PUSH2 0xCE0 JUMP JUMPDEST SWAP1 POP PUSH2 0xDAF DUP3 DUP3 PUSH2 0xD69 JUMP JUMPDEST SWAP2 SWAP1 POP JUMP JUMPDEST PUSH0 PUSH8 0xFFFFFFFFFFFFFFFF DUP3 GT ISZERO PUSH2 0xDCE JUMPI PUSH2 0xDCD PUSH2 0xD3C JUMP JUMPDEST JUMPDEST PUSH2 0xDD7 DUP3 PUSH2 0xD2C JUMP JUMPDEST SWAP1 POP PUSH1 0x20 DUP2 ADD SWAP1 POP SWAP2 SWAP1 POP JUMP JUMPDEST DUP3 DUP2 DUP4 CALLDATACOPY PUSH0 DUP4 DUP4 ADD MSTORE POP POP POP JUMP JUMPDEST PUSH0 PUSH2 0xE04 PUSH2 0xDFF DUP5 PUSH2 0xDB4 JUMP JUMPDEST PUSH2 0xD9A JUMP JUMPDEST SWAP1 POP DUP3 DUP2 MSTORE PUSH1 0x20 DUP2 ADD DUP5 DUP5 DUP5 ADD GT ISZERO PUSH2 0xE20 JUMPI PUSH2 0xE1F PUSH2 0xD28 JUMP JUMPDEST JUMPDEST PUSH2 0xE2B DUP5 DUP3 DUP6 PUSH2 0xDE4 JUMP JUMPDEST POP SWAP4 SWAP3 POP POP POP JUMP JUMPDEST PUSH0 DUP3 PUSH1 0x1F DUP4 ADD SLT PUSH2 0xE47 JUMPI PUSH2 0xE46 PUSH2 0xD24 JUMP JUMPDEST JUMPDEST DUP2 CALLDATALOAD PUSH2 0xE57 DUP5 DUP3 PUSH1 0x20 DUP7 ADD PUSH2 0xDF2 JUMP JUMPDEST SWAP2 POP POP SWAP3 SWAP2 POP POP JUMP JUMPDEST PUSH0 PUSH0 PUSH1 0x40 DUP4 DUP6 SUB SLT ISZERO PUSH2 0xE76 JUMPI PUSH2 0xE75 PUSH2 0xCE9 JUMP JUMPDEST JUMPDEST PUSH0 PUSH2 0xE83 DUP6 DUP3 DUP7 ADD PUSH2 0xD10 JUMP JUMPDEST SWAP3 POP POP PUSH1 0x20 DUP4 ADD CALLDATALOAD PUSH8 0xFFFFFFFFFFFFFFFF DUP2 GT ISZERO PUSH2 0xEA4 JUMPI PUSH2 0xEA3 PUSH2 0xCED JUMP JUMPDEST JUMPDEST PUSH2 0xEB0 DUP6 DUP3 DUP7 ADD PUSH2 0xE33 JUMP JUMPDEST SWAP2 POP POP SWAP3 POP SWAP3 SWAP1 POP JUMP JUMPDEST PUSH0 PUSH32 0xFFFFFFFF00000000000000000000000000000000000000000000000000000000 DUP3 AND SWAP1 POP SWAP2 SWAP1 POP JUMP JUMPDEST PUSH2 0xEEE DUP2 PUSH2 0xEBA JUMP JUMPDEST DUP3 MSTORE POP POP JUMP JUMPDEST PUSH0 PUSH1 0x20 DUP3 ADD SWAP1 POP PUSH2 0xF07 PUSH0 DUP4 ADD DUP5 PUSH2 0xEE5 JUMP JUMPDEST SWAP3 SWAP2 POP POP JUMP JUMPDEST PUSH0 PUSH0 PUSH0 PUSH1 0x60 DUP5 DUP7 SUB SLT ISZERO PUSH2 0xF24 JUMPI PUSH2 0xF23 PUSH2 0xCE9 JUMP JUMPDEST JUMPDEST PUSH0 PUSH2 0xF31 DUP7 DUP3 DUP8 ADD PUSH2 0xD10 JUMP JUMPDEST SWAP4 POP POP PUSH1 0x20 PUSH2 0xF42 DUP7 DUP3 DUP8 ADD PUSH2 0xD10 JUMP JUMPDEST SWAP3 POP POP PUSH1 0x40 DUP5 ADD CALLDATALOAD PUSH8 0xFFFFFFFFFFFFFFFF DUP2 GT ISZERO PUSH2 0xF63 JUMPI PUSH2 0xF62 PUSH2 0xCED JUMP JUMPDEST JUMPDEST PUSH2 0xF6F DUP7 DUP3 DUP8 ADD PUSH2 0xE33 JUMP JUMPDEST SWAP2 POP POP SWAP3 POP SWAP3 POP SWAP3 JUMP JUMPDEST PUSH0 DUP2 ISZERO ISZERO SWAP1 POP SWAP2 SWAP1 POP JUMP JUMPDEST PUSH2 0xF8D DUP2 PUSH2 0xF79 JUMP JUMPDEST DUP3 MSTORE POP POP JUMP JUMPDEST PUSH0 PUSH1 0x20 DUP3 ADD SWAP1 POP PUSH2 0xFA6 PUSH0 DUP4 ADD DUP5 PUSH2 0xF84 JUMP JUMPDEST SWAP3 SWAP2 POP POP JUMP JUMPDEST PUSH0 PUSH20 0xFFFFFFFFFFFFFFFFFFFFFFFFFFFFFFFFFFFFFFFF DUP3 AND SWAP1 POP SWAP2 SWAP1 POP JUMP JUMPDEST PUSH0 PUSH2 0xFD5 DUP3 PUSH2 0xFAC JUMP JUMPDEST SWAP1 POP SWAP2 SWAP1 POP JUMP JUMPDEST PUSH2 0xFE5 DUP2 PUSH2 0xFCB JUMP JUMPDEST DUP2 EQ PUSH2 0xFEF JUMPI PUSH0 PUSH0 REVERT JUMPDEST POP JUMP JUMPDEST PUSH0 DUP2 CALLDATALOAD SWAP1 POP PUSH2 0x1000 DUP2 PUSH2 0xFDC JUMP JUMPDEST SWAP3 SWAP2 POP POP JUMP JUMPDEST PUSH0 PUSH1 0x20 DUP3 DUP5 SUB SLT ISZERO PUSH2 0x101B JUMPI PUSH2 0x101A PUSH2 0xCE9 JUMP JUMPDEST JUMPDEST PUSH0 PUSH2 0x1028 DUP5 DUP3 DUP6 ADD PUSH2 0xFF2 JUMP JUMPDEST SWAP2 POP POP SWAP3 SWAP2 POP POP JUMP JUMPDEST PUSH2 0x103A DUP2 PUSH2 0xFCB JUMP JUMPDEST DUP3 MSTORE POP POP JUMP JUMPDEST PUSH0 PUSH1 0x20 DUP3 ADD SWAP1 POP PUSH2 0x1053 PUSH0 DUP4 ADD DUP5 PUSH2 0x1031 JUMP JUMPDEST SWAP3 SWAP2 POP POP JUMP JUMPDEST PUSH2 0x1062 DUP2 PUSH2 0xCF1 JUMP JUMPDEST DUP3 MSTORE POP POP JUMP JUMPDEST PUSH0 PUSH1 0x20 DUP3 ADD SWAP1 POP PUSH2 0x107B PUSH0 DUP4 ADD DUP5 PUSH2 0x1059 JUMP JUMPDEST SWAP3 SWAP2 POP POP JUMP JUMPDEST PUSH0 DUP2 SWAP1 POP SWAP2 SWAP1 POP JUMP JUMPDEST PUSH0 PUSH2 0x10A4 PUSH2 0x109F PUSH2 0x109A DUP5 PUSH2 0xFAC JUMP JUMPDEST PUSH2 0x1081 JUMP JUMPDEST PUSH2 0xFAC JUMP JUMPDEST SWAP1 POP SWAP2 SWAP1 POP JUMP JUMPDEST PUSH0 PUSH2 0x10B5 DUP3 PUSH2 0x108A JUMP JUMPDEST SWAP1 POP SWAP2 SWAP1 POP JUMP JUMPDEST PUSH0 PUSH2 0x10C6 DUP3 PUSH2 0x10AB JUMP JUMPDEST SWAP1 POP SWAP2 SWAP1 POP JUMP JUMPDEST PUSH2 0x10D6 DUP2 PUSH2 0x10BC JUMP JUMPDEST DUP3 MSTORE POP POP JUMP JUMPDEST PUSH0 PUSH1 0x20 DUP3 ADD SWAP1 POP PUSH2 0x10EF PUSH0 DUP4 ADD DUP5 PUSH2 0x10CD JUMP JUMPDEST SWAP3 SWAP2 POP POP JUMP JUMPDEST PUSH2 0x10FE DUP2 PUSH2 0xF79 JUMP JUMPDEST DUP2 EQ PUSH2 0x1108 JUMPI PUSH0 PUSH0 REVERT JUMPDEST POP JUMP JUMPDEST PUSH0 DUP2 MLOAD SWAP1 POP PUSH2 0x1119 DUP2 PUSH2 0x10F5 JUMP JUMPDEST SWAP3 SWAP2 POP POP JUMP JUMPDEST PUSH0 PUSH1 0x20 DUP3 DUP5 SUB SLT ISZERO PUSH2 0x1134 JUMPI PUSH2 0x1133 PUSH2 0xCE9 JUMP JUMPDEST JUMPDEST PUSH0 PUSH2 0x1141 DUP5 DUP3 DUP6 ADD PUSH2 0x110B JUMP JUMPDEST SWAP2 POP POP SWAP3 SWAP2 POP POP JUMP JUMPDEST PUSH0 DUP3 DUP3 MSTORE PUSH1 0x20 DUP3 ADD SWAP1 POP SWAP3 SWAP2 POP POP JUMP JUMPDEST PUSH32 0x546F6B656E20616C7265616479207370656E7400000000000000000000000000 PUSH0 DUP3 ADD MSTORE POP JUMP JUMPDEST PUSH0 PUSH2 0x118E PUSH1 0x13 DUP4 PUSH2 0x114A JUMP JUMPDEST SWAP2 POP PUSH2 0x1199 DUP3 PUSH2 0x115A JUMP JUMPDEST PUSH1 0x20 DUP3 ADD SWAP1 POP SWAP2 SWAP1 POP JUMP JUMPDEST PUSH0 PUSH1 0x20 DUP3 ADD SWAP1 POP DUP2 DUP2 SUB PUSH0 DUP4 ADD MSTORE PUSH2 0x11BB DUP2 PUSH2 0x1182 JUMP JUMPDEST SWAP1 POP SWAP2 SWAP1 POP JUMP JUMPDEST PUSH32 0x496E76616C6964207369676E6174757265000000000000000000000000000000 PUSH0 DUP3 ADD MSTORE POP JUMP JUMPDEST PUSH0 PUSH2 0x11F6 PUSH1 0x11 DUP4 PUSH2 0x114A JUMP JUMPDEST SWAP2 POP PUSH2 0x1201 DUP3 PUSH2 0x11C2 JUMP JUMPDEST PUSH1 0x20 DUP3 ADD SWAP1 POP SWAP2 SWAP1 POP JUMP JUMPDEST PUSH0 PUSH1 0x20 DUP3 ADD SWAP1 POP DUP2 DUP2 SUB PUSH0 DUP4 ADD MSTORE PUSH2 0x1223 DUP2 PUSH2 0x11EA JUMP JUMPDEST SWAP1 POP SWAP2 SWAP1 POP JUMP JUMPDEST PUSH32 0x556E617574686F72697A6564207369676E657200000000000000000000000000 PUSH0 DUP3 ADD MSTORE POP JUMP JUMPDEST PUSH0 PUSH2 0x125E PUSH1 0x13 DUP4 PUSH2 0x114A JUMP JUMPDEST SWAP2 POP PUSH2 0x1269 DUP3 PUSH2 0x122A JUMP JUMPDEST PUSH1 0x20 DUP3 ADD SWAP1 POP SWAP2 SWAP1 POP JUMP JUMPDEST PUSH0 PUSH1 0x20 DUP3 ADD SWAP1 POP DUP2 DUP2 SUB PUSH0 DUP4 ADD MSTORE PUSH2 0x128B DUP2 PUSH2 0x1252 JUMP JUMPDEST SWAP1 POP SWAP2 SWAP1 POP JUMP JUMPDEST PUSH32 0x556E617574686F72697A65640000000000000000000000000000000000000000 PUSH0 DUP3 ADD MSTORE POP JUMP JUMPDEST PUSH0 PUSH2 0x12C6 PUSH1 0xC DUP4 PUSH2 0x114A JUMP JUMPDEST SWAP2 POP PUSH2 0x12D1 DUP3 PUSH2 0x1292 JUMP JUMPDEST PUSH1 0x20 DUP3 ADD SWAP1 POP SWAP2 SWAP1 POP JUMP JUMPDEST PUSH0 PUSH1 0x20 DUP3 ADD SWAP1 POP DUP2 DUP2 SUB PUSH0 DUP4 ADD MSTORE PUSH2 0x12F3 DUP2 PUSH2 0x12BA JUMP JUMPDEST SWAP1 POP SWAP2 SWAP1 POP JUMP JUMPDEST PUSH32 0x496E76616C6964206B6579000000000000000000000000000000000000000000 PUSH0 DUP3 ADD MSTORE POP JUMP JUMPDEST PUSH0 PUSH2 0x132E PUSH1 0xB DUP4 PUSH2 0x114A JUMP JUMPDEST SWAP2 POP PUSH2 0x1339 DUP3 PUSH2 0x12FA JUMP JUMPDEST PUSH1 0x20 DUP3 ADD SWAP1 POP SWAP2 SWAP1 POP JUMP JUMPDEST PUSH0 PUSH1 0x20 DUP3 ADD SWAP1 POP DUP2 DUP2 SUB PUSH0 DUP4 ADD MSTORE PUSH2 0x135B DUP2 PUSH2 0x1322 JUMP JUMPDEST SWAP1 POP SWAP2 SWAP1 POP JUMP JUMPDEST PUSH0 DUP2 MLOAD SWAP1 POP SWAP2 SWAP1 POP JUMP JUMPDEST PUSH0 DUP3 DUP3 MSTORE PUSH1 0x20 DUP3 ADD SWAP1 POP SWAP3 SWAP2 POP POP JUMP JUMPDEST DUP3 DUP2 DUP4 MCOPY PUSH0 DUP4 DUP4 ADD MSTORE POP POP POP JUMP JUMPDEST PUSH0 PUSH2 0x1394 DUP3 PUSH2 0x1362 JUMP JUMPDEST PUSH2 0x139E DUP2 DUP6 PUSH2 0x136C JUMP JUMPDEST SWAP4 POP PUSH2 0x13AE DUP2 DUP6 PUSH1 0x20 DUP7 ADD PUSH2 0x137C JUMP JUMPDEST PUSH2 0x13B7 DUP2 PUSH2 0xD2C JUMP JUMPDEST DUP5 ADD SWAP2 POP POP SWAP3 SWAP2 POP POP JUMP JUMPDEST PUSH0 PUSH1 0x60 DUP3 ADD SWAP1 POP PUSH2 0x13D5 PUSH0 DUP4 ADD DUP7 PUSH2 0x1059 JUMP JUMPDEST PUSH2 0x13E2 PUSH1 0x20 DUP4 ADD DUP6 PUSH2 0x1059 JUMP JUMPDEST DUP2 DUP2 SUB PUSH1 0x40 DUP4 ADD MSTORE PUSH2 0x13F4 DUP2 DUP5 PUSH2 0x138A JUMP JUMPDEST SWAP1 POP SWAP5 SWAP4 POP POP POP POP JUMP JUMPDEST PUSH32 0x43616E6E6F74207265766F6B65206F776E657200000000000000000000000000 PUSH0 DUP3 ADD MSTORE POP JUMP JUMPDEST PUSH0 PUSH2 0x1432 PUSH1 0x13 DUP4 PUSH2 0x114A JUMP JUMPDEST SWAP2 POP PUSH2 0x143D DUP3 PUSH2 0x13FE JUMP JUMPDEST PUSH1 0x20 DUP3 ADD SWAP1 POP SWAP2 SWAP1 POP JUMP JUMPDEST PUSH0 PUSH1 0x20 DUP3 ADD SWAP1 POP DUP2 DUP2 SUB PUSH0 DUP4 ADD MSTORE PUSH2 0x145F DUP2 PUSH2 0x1426 JUMP JUMPDEST SWAP1 POP SWAP2 SWAP1 POP JUMP JUMPDEST PUSH0 PUSH1 0xFF DUP3 AND SWAP1 POP SWAP2 SWAP1 POP JUMP JUMPDEST PUSH32 0x4E487B7100000000000000000000000000000000000000000000000000000000 PUSH0 MSTORE PUSH1 0x11 PUSH1 0x4 MSTORE PUSH1 0x24 PUSH0 REVERT JUMPDEST PUSH0 PUSH2 0x14A9 DUP3 PUSH2 0x1466 JUMP JUMPDEST SWAP2 POP PUSH2 0x14B4 DUP4 PUSH2 0x1466 JUMP JUMPDEST SWAP3 POP DUP3 DUP3 ADD SWAP1 POP PUSH1 0xFF DUP2 GT ISZERO PUSH2 0x14CD JUMPI PUSH2 0x14CC PUSH2 0x1472 JUMP JUMPDEST JUMPDEST SWAP3 SWAP2 POP POP JUMP JUMPDEST PUSH2 0x14DC DUP2 PUSH2 0x1466 JUMP JUMPDEST DUP3 MSTORE POP POP JUMP JUMPDEST PUSH0 PUSH1 0x80 DUP3 ADD SWAP1 POP PUSH2 0x14F5 PUSH0 DUP4 ADD DUP8 PUSH2 0x1059 JUMP JUMPDEST PUSH2 0x1502 PUSH1 0x20 DUP4 ADD DUP7 PUSH2 0x14D3 JUMP JUMPDEST PUSH2 0x150F PUSH1 0x40 DUP4 ADD DUP6 PUSH2 0x1059 JUMP JUMPDEST PUSH2 0x151C PUSH1 0x60 DUP4 ADD DUP5 PUSH2 0x1059 JUMP JUMPDEST SWAP6 SWAP5 POP POP POP POP POP JUMP JUMPDEST PUSH0 PUSH1 0x60 DUP3 ADD SWAP1 POP PUSH2 0x1538 PUSH0 DUP4 ADD DUP7 PUSH2 0x1059 JUMP JUMPDEST PUSH2 0x1545 PUSH1 0x20 DUP4 ADD DUP6 PUSH2 0x1059 JUMP JUMPDEST PUSH2 0x1552 PUSH1 0x40 DUP4 ADD DUP5 PUSH2 0x1059 JUMP JUMPDEST SWAP5 SWAP4 POP POP POP POP JUMP JUMPDEST PUSH0 DUP2 SWAP1 POP SWAP3 SWAP2 POP POP JUMP JUMPDEST PUSH32 0x1901000000000000000000000000000000000000000000000000000000000000 PUSH0 DUP3 ADD MSTORE POP JUMP JUMPDEST PUSH0 PUSH2 0x1598 PUSH1 0x2 DUP4 PUSH2 0x155A JUMP JUMPDEST SWAP2 POP PUSH2 0x15A3 DUP3 PUSH2 0x1564 JUMP JUMPDEST PUSH1 0x2 DUP3 ADD SWAP1 POP SWAP2 SWAP1 POP JUMP JUMPDEST PUSH0 DUP2 SWAP1 POP SWAP2 SWAP1 POP JUMP JUMPDEST PUSH2 0x15C8 PUSH2 0x15C3 DUP3 PUSH2 0xCF1 JUMP JUMPDEST PUSH2 0x15AE JUMP JUMPDEST DUP3 MSTORE POP POP JUMP JUMPDEST PUSH0 PUSH2 0x15D8 DUP3 PUSH2 0x158C JUMP JUMPDEST SWAP2 POP PUSH2 0x15E4 DUP3 DUP6 PUSH2 0x15B7 JUMP JUMPDEST PUSH1 0x20 DUP3 ADD SWAP2 POP PUSH2 0x15F4 DUP3 DUP5 PUSH2 0x15B7 JUMP JUMPDEST PUSH1 0x20 DUP3 ADD SWAP2 POP DUP2 SWAP1 POP SWAP4 SWAP3 POP POP POP JUMP INVALID LOG2 PUSH5 0x6970667358 0x22 SLT KECCAK256 SWAP3 PUSH10 0x41643514D308A4F5BBEF 0x2E DUP15 RETF 0xDA SWAP9 SDIV PUSH25 0x5BDC34FA6302210BC8BEBBF1BD64736F6C634300081E003300 "
				},
				"gasEstimates": {
					"creation": {
						"codeDepositCost": "1138000",
						"executionCost": "infinite",
						"totalCost": "infinite"
					},
					"external": {
						"": "195",
						"addAuthorizedKey(address)": "28249",
						"authMessageTypehash()": "332",
						"authorizedKey(address)": "2899",
						"domainSeparator()": "infinite",
						"isAuthorized(address)": "2979",
						"isValidSignature(bytes32,bytes)": "infinite",
						"owner()": "2597",
						"removeAuthorizedKey(address)": "30383",
						"spentSet()": "infinite",
						"validateUserOp(bytes32,bytes32,bytes)": "infinite",
						"validateUserOpSimple(bytes32,bytes)": "infinite"
					},
					"internal": {
						"_hashTypedDataV4(bytes32,bytes32)": "infinite",
						"_recoverSigner(bytes32,bytes memory)": "infinite"
					}
				},
				"methodIdentifiers": {
					"addAuthorizedKey(address)": "715e2393",
					"authMessageTypehash()": "b3597fa9",
					"authorizedKey(address)": "7d81dd57",
					"domainSeparator()": "f698da25",
					"isAuthorized(address)": "fe9fbb80",
					"isValidSignature(bytes32,bytes)": "1626ba7e",
					"owner()": "8da5cb5b",
					"removeAuthorizedKey(address)": "ecaca880",
					"spentSet()": "eec6e99b",
					"validateUserOp(bytes32,bytes32,bytes)": "3e85eed0",
					"validateUserOpSimple(bytes32,bytes)": "cad50f57"
				}
			},
			"storageLayout": {
				"storage": [
					{
						"astId": 19,
						"contract": "contracts/BiometricWallet.sol:BiometricWallet",
						"label": "authorizedKey",
						"offset": 0,
						"slot": "0",
						"type": "t_mapping(t_address,t_bool)"
					},
					{
						"astId": 21,
						"contract": "contracts/BiometricWallet.sol:BiometricWallet",
						"label": "owner",
						"offset": 0,
						"slot": "1",
						"type": "t_address"
					}
				],
				"types": {
					"t_address": {
						"encoding": "inplace",
						"label": "address",
						"numberOfBytes": "20"
					},
					"t_bool": {
						"encoding": "inplace",
						"label": "bool",
						"numberOfBytes": "1"
					},
					"t_mapping(t_address,t_bool)": {
						"encoding": "mapping",
						"key": "t_address",
						"label": "mapping(address => bool)",
						"numberOfBytes": "32",
						"value": "t_bool"
					}
				}
			},
			"userdoc": {
				"kind": "user",
				"methods": {
					"addAuthorizedKey(address)": {
						"notice": "Add authorized signing key"
					},
					"authMessageTypehash()": {
						"notice": "Get auth message typehash"
					},
					"constructor": {
						"notice": "Deploy wallet with biometric-derived owner"
					},
					"domainSeparator()": {
						"notice": "Get domain separator"
					},
					"isAuthorized(address)": {
						"notice": "Check if an address is authorized"
					},
					"isValidSignature(bytes32,bytes)": {
						"notice": "Validate signature according to EIP-1271"
					},
					"removeAuthorizedKey(address)": {
						"notice": "Remove authorized signing key"
					},
					"validateUserOp(bytes32,bytes32,bytes)": {
						"notice": "Validate user operation with biometric token"
					},
					"validateUserOpSimple(bytes32,bytes)": {
						"notice": "Simplified validation (without userOpHash)"
					}
				},
				"version": 1
			}
		}
	}
}