{
	"contracts/SpentSet.sol": {
		"SpentSet": {
			"abi": [
				{
					"inputs": [],
					"stateMutability": "nonpayable",
					"type": "constructor"
				},
				{
					"anonymous": false,
					"inputs": [
						{
							"indexed": true,
							"internalType": "bytes32",
							"name": "rho",
							"type": "bytes32"
						},
						{
							"indexed": false,
							"internalType": "uint256",
							"name": "timestamp",
							"type": "uint256"
						},
						{
							"indexed": true,
							"internalType": "address",
							"name": "wallet",
							"type": "address"
						}
					],
					"name": "TokenBurned",
					"type": "event"
				},
				{
					"anonymous": false,
					"inputs": [
						{
							"indexed": true,
							"internalType": "address",
							"name": "wallet",
							"type": "address"
						}
					],
					"name": "WalletAuthorized",
					"type": "event"
				},
				{
					"anonymous": false,
					"inputs": [
						{
							"indexed": true,
							"internalType": "address",
							"name": "wallet",
							"type": "address"
						}
					],
					"name": "WalletRevoked",
					"type": "event"
				},
				{
					"inputs": [
						{
							"internalType": "address",
							"name": "wallet",
							"type": "address"
						}
					],
					"name": "authorizeWallet",
					"outputs": [],
					"stateMutability": "nonpayable",
					"type": "function"
				},
				{
					"inputs": [
						{
							"internalType": "address",
							"name": "",
							"type": "address"
						}
					],
					"name": "authorizedWallet",
					"outputs": [
						{
							"internalType": "bool",
							"name": "",
							"type": "bool"
						}
					],
					"stateMutability": "view",
					"type": "function"
				},
				{
					"inputs": [
						{
							"internalType": "bytes32[]",
							"name": "rhos",
							"type": "bytes32[]"
						}
					],
					"name": "batchIsUsed",
					"outputs": [
						{
							"internalType": "bool[]",
							"name": "",
							"type": "bool[]"
						}
					],
					"stateMutability": "view",
					"type": "function"
				},
				{
					"inputs": [
						{
							"internalType": "bytes32",
							"name": "rho",
							"type": "bytes32"
						}
					],
					"name": "isUsed",
					"outputs": [
						{
							"internalType": "bool",
							"name": "",
							"type": "bool"
						}
					],
					"stateMutability": "view",
					"type": "function"
				},
				{
					"inputs": [
						{
							"internalType": "bytes32",
							"name": "rho",
							"type": "bytes32"
						}
					],
					"name": "markUsed",
					"outputs": [],
					"stateMutability": "nonpayable",
					"type": "function"
				},
				{
					"inputs": [],
					"name": "owner",
					"outputs": [
						{
							"internalType": "address",
							"name": "",
							"type": "address"
						}
					],
					"stateMutability": "view",
					"type": "function"
				},
				{
					"inputs": [
						{
							"internalType": "address",
							"name": "wallet",
							"type": "address"
						}
					],
					"name": "revokeWallet",
					"outputs": [],
					"stateMutability": "nonpayable",
					"type": "function"
				},
				{
					"inputs": [
						{
							"internalType": "bytes32",
							"name": "",
							"type": "bytes32"
						}
					],
					"name": "used",
					"outputs": [
						{
							"internalType": "bool",
							"name": "",
							"type": "bool"
						}
					],
					"stateMutability": "view",
					"type": "function"
				}
			],
			"devdoc": {
				"details": "Gas-optimized using bool mapping instead of uint256",
				"kind": "dev",
				"methods": {
					"authorizeWallet(address)": {
						"params": {
							"wallet": "Address of the BiometricWallet contract"
						}
					},
					"batchIsUsed(bytes32[])": {
						"params": {
							"rhos": "Array of token identifiers"
						},
						"returns": {
							"_0": "Array of spent status for each token"
						}
					},
					"isUsed(bytes32)": {
						"params": {
							"rho": "Token identifier"
						},
						"returns": {
							"_0": "True if token is spent, false otherwise"
						}
					},
					"markUsed(bytes32)": {
						"details": "Can only be called by authorized wallet contracts",
						"params": {
							"rho": "Token identifier (keccak256(R0))"
						}
					},
					"revokeWallet(address)": {
						"params": {
							"wallet": "Address to revoke"
						}
					}
				},
				"title": "SpentSet",
				"version": 1
			},
			"evm": {
				"assembly": "    /* \"contracts/SpentSet.sol\":224:2746  contract SpentSet {... */\n  mstore(0x40, 0x80)\n    /* \"contracts/SpentSet.sol\":934:985  constructor() {... */\n  callvalue\n  dup1\n  iszero\n  tag_1\n  jumpi\n  revert(0x00, 0x00)\ntag_1:\n  pop\n    /* \"contracts/SpentSet.sol\":967:977  msg.sender */\n  caller\n    /* \"contracts/SpentSet.sol\":959:964  owner */\n  0x02\n  0x00\n    /* \"contracts/SpentSet.sol\":959:977  owner = msg.sender */\n  0x0100\n  exp\n  dup2\n  sload\n  dup2\n  0xffffffffffffffffffffffffffffffffffffffff\n  mul\n  not\n  and\n  swap1\n  dup4\n  0xffffffffffffffffffffffffffffffffffffffff\n  and\n  mul\n  or\n  swap1\n  sstore\n  pop\n    /* \"contracts/SpentSet.sol\":224:2746  contract SpentSet {... */\n  dataSize(sub_0)\n  dup1\n  dataOffset(sub_0)\n  0x00\n  codecopy\n  0x00\n  return\nstop\n\nsub_0: assembly {\n        /* \"contracts/SpentSet.sol\":224:2746  contract SpentSet {... */\n      mstore(0x40, 0x80)\n      callvalue\n      dup1\n      iszero\n      tag_1\n      jumpi\n      revert(0x00, 0x00)\n    tag_1:\n      pop\n      jumpi(tag_2, lt(calldatasize, 0x04))\n      shr(0xe0, calldataload(0x00))\n      dup1\n      0xb07c411f\n      gt\n      tag_11\n      jumpi\n      dup1\n      0xb07c411f\n      eq\n      tag_7\n      jumpi\n      dup1\n      0xe21e9e0e\n      eq\n      tag_8\n      jumpi\n      dup1\n      0xfbeaa8b1\n      eq\n      tag_9\n      jumpi\n      dup1\n      0xfe255a18\n      eq\n      tag_10\n      jumpi\n      jump(tag_2)\n    tag_11:\n      dup1\n      0x340378ed\n      eq\n      tag_3\n      jumpi\n      dup1\n      0x79e5b64a\n      eq\n      tag_4\n      jumpi\n      dup1\n      0x808a9d40\n      eq\n      tag_5\n      jumpi\n      dup1\n      0x8da5cb5b\n      eq\n      tag_6\n      jumpi\n    tag_2:\n      revert(0x00, 0x00)\n        /* \"contracts/SpentSet.sol\":2463:2743  function batchIsUsed(bytes32[] calldata rhos) external view returns (bool[] memory) {... */\n    tag_3:\n      tag_12\n      0x04\n      dup1\n      calldatasize\n      sub\n      dup2\n      add\n      swap1\n      tag_13\n      swap2\n      swap1\n      tag_14\n      jump\t// in\n    tag_13:\n      tag_15\n      jump\t// in\n    tag_12:\n      mload(0x40)\n      tag_16\n      swap2\n      swap1\n      tag_17\n      jump\t// in\n    tag_16:\n      mload(0x40)\n      dup1\n      swap2\n      sub\n      swap1\n      return\n        /* \"contracts/SpentSet.sol\":403:451  mapping(address => bool) public authorizedWallet */\n    tag_4:\n      tag_18\n      0x04\n      dup1\n      calldatasize\n      sub\n      dup2\n      add\n      swap1\n      tag_19\n      swap2\n      swap1\n      tag_20\n      jump\t// in\n    tag_19:\n      tag_21\n      jump\t// in\n    tag_18:\n      mload(0x40)\n      tag_22\n      swap2\n      swap1\n      tag_23\n      jump\t// in\n    tag_22:\n      mload(0x40)\n      dup1\n      swap2\n      sub\n      swap1\n      return\n        /* \"contracts/SpentSet.sol\":1458:1603  function revokeWallet(address wallet) external onlyOwner {... */\n    tag_5:\n      tag_24\n      0x04\n      dup1\n      calldatasize\n      sub\n      dup2\n      add\n      swap1\n      tag_25\n      swap2\n      swap1\n      tag_20\n      jump\t// in\n    tag_25:\n      tag_26\n      jump\t// in\n    tag_24:\n      stop\n        /* \"contracts/SpentSet.sol\":464:484  address public owner */\n    tag_6:\n      tag_27\n      tag_28\n      jump\t// in\n    tag_27:\n      mload(0x40)\n      tag_29\n      swap2\n      swap1\n      tag_30\n      jump\t// in\n    tag_29:\n      mload(0x40)\n      dup1\n      swap2\n      sub\n      swap1\n      return\n        /* \"contracts/SpentSet.sol\":295:331  mapping(bytes32 => bool) public used */\n    tag_7:\n      tag_31\n      0x04\n      dup1\n      calldatasize\n      sub\n      dup2\n      add\n      swap1\n      tag_32\n      swap2\n      swap1\n      tag_33\n      jump\t// in\n    tag_32:\n      tag_34\n      jump\t// in\n    tag_31:\n      mload(0x40)\n      tag_35\n      swap2\n      swap1\n      tag_23\n      jump\t// in\n    tag_35:\n      mload(0x40)\n      dup1\n      swap2\n      sub\n      swap1\n      return\n        /* \"contracts/SpentSet.sol\":1804:2014  function markUsed(bytes32 rho) external onlyAuthorizedWallet {... */\n    tag_8:\n      tag_36\n      0x04\n      dup1\n      calldatasize\n      sub\n      dup2\n      add\n      swap1\n      tag_37\n      swap2\n      swap1\n      tag_33\n      jump\t// in\n    tag_37:\n      tag_38\n      jump\t// in\n    tag_36:\n      stop\n        /* \"contracts/SpentSet.sol\":1132:1348  function authorizeWallet(address wallet) external onlyOwner {... */\n    tag_9:\n      tag_39\n      0x04\n      dup1\n      calldatasize\n      sub\n      dup2\n      add\n      swap1\n      tag_40\n      swap2\n      swap1\n      tag_20\n      jump\t// in\n    tag_40:\n      tag_41\n      jump\t// in\n    tag_39:\n      stop\n        /* \"contracts/SpentSet.sol\":2180:2273  function isUsed(bytes32 rho) external view returns (bool) {... */\n    tag_10:\n      tag_42\n      0x04\n      dup1\n      calldatasize\n      sub\n      dup2\n      add\n      swap1\n      tag_43\n      swap2\n      swap1\n      tag_33\n      jump\t// in\n    tag_43:\n      tag_44\n      jump\t// in\n    tag_42:\n      mload(0x40)\n      tag_45\n      swap2\n      swap1\n      tag_23\n      jump\t// in\n    tag_45:\n      mload(0x40)\n      dup1\n      swap2\n      sub\n      swap1\n      return\n        /* \"contracts/SpentSet.sol\":2463:2743  function batchIsUsed(bytes32[] calldata rhos) external view returns (bool[] memory) {... */\n    tag_15:\n        /* \"contracts/SpentSet.sol\":2532:2545  bool[] memory */\n      0x60\n        /* \"contracts/SpentSet.sol\":2558:2579  bool[] memory results */\n      0x00\n        /* \"contracts/SpentSet.sol\":2593:2597  rhos */\n      dup4\n      dup4\n        /* \"contracts/SpentSet.sol\":2593:2604  rhos.length */\n      swap1\n      pop\n        /* \"contracts/SpentSet.sol\":2582:2605  new bool[](rhos.length) */\n      0xffffffffffffffff\n      dup2\n      gt\n      iszero\n      tag_47\n      jumpi\n      tag_48\n      tag_49\n      jump\t// in\n    tag_48:\n    tag_47:\n      mload(0x40)\n      swap1\n      dup1\n      dup3\n      mstore\n      dup1\n      0x20\n      mul\n      0x20\n      add\n      dup3\n      add\n      0x40\n      mstore\n      dup1\n      iszero\n      tag_50\n      jumpi\n      dup2\n      0x20\n      add\n      0x20\n      dup3\n      mul\n      dup1\n      calldatasize\n      dup4\n      calldatacopy\n      dup1\n      dup3\n      add\n      swap2\n      pop\n      pop\n      swap1\n      pop\n    tag_50:\n      pop\n        /* \"contracts/SpentSet.sol\":2558:2605  bool[] memory results = new bool[](rhos.length) */\n      swap1\n      pop\n        /* \"contracts/SpentSet.sol\":2621:2630  uint256 i */\n      0x00\n        /* \"contracts/SpentSet.sol\":2633:2634  0 */\n      0x00\n        /* \"contracts/SpentSet.sol\":2621:2634  uint256 i = 0 */\n      swap1\n      pop\n        /* \"contracts/SpentSet.sol\":2616:2711  for (uint256 i = 0; i < rhos.length; i++) {... */\n    tag_51:\n        /* \"contracts/SpentSet.sol\":2640:2644  rhos */\n      dup5\n      dup5\n        /* \"contracts/SpentSet.sol\":2640:2651  rhos.length */\n      swap1\n      pop\n        /* \"contracts/SpentSet.sol\":2636:2637  i */\n      dup2\n        /* \"contracts/SpentSet.sol\":2636:2651  i < rhos.length */\n      lt\n        /* \"contracts/SpentSet.sol\":2616:2711  for (uint256 i = 0; i < rhos.length; i++) {... */\n      iszero\n      tag_52\n      jumpi\n        /* \"contracts/SpentSet.sol\":2686:2690  used */\n      0x00\n        /* \"contracts/SpentSet.sol\":2686:2699  used[rhos[i]] */\n      0x00\n        /* \"contracts/SpentSet.sol\":2691:2695  rhos */\n      dup7\n      dup7\n        /* \"contracts/SpentSet.sol\":2696:2697  i */\n      dup5\n        /* \"contracts/SpentSet.sol\":2691:2698  rhos[i] */\n      dup2\n      dup2\n      lt\n      tag_54\n      jumpi\n      tag_55\n      tag_56\n      jump\t// in\n    tag_55:\n    tag_54:\n      swap1\n      pop\n      0x20\n      mul\n      add\n      calldataload\n        /* \"contracts/SpentSet.sol\":2686:2699  used[rhos[i]] */\n      dup2\n      mstore\n      0x20\n      add\n      swap1\n      dup2\n      mstore\n      0x20\n      add\n      0x00\n      keccak256\n      0x00\n      swap1\n      sload\n      swap1\n      0x0100\n      exp\n      swap1\n      div\n      0xff\n      and\n        /* \"contracts/SpentSet.sol\":2673:2680  results */\n      dup3\n        /* \"contracts/SpentSet.sol\":2681:2682  i */\n      dup3\n        /* \"contracts/SpentSet.sol\":2673:2683  results[i] */\n      dup2\n      mload\n      dup2\n      lt\n      tag_57\n      jumpi\n      tag_58\n      tag_56\n      jump\t// in\n    tag_58:\n    tag_57:\n      0x20\n      mul\n      0x20\n      add\n      add\n        /* \"contracts/SpentSet.sol\":2673:2699  results[i] = used[rhos[i]] */\n      swap1\n      iszero\n      iszero\n      swap1\n      dup2\n      iszero\n      iszero\n      dup2\n      mstore\n      pop\n      pop\n        /* \"contracts/SpentSet.sol\":2653:2656  i++ */\n      dup1\n      dup1\n      0x01\n      add\n      swap2\n      pop\n      pop\n        /* \"contracts/SpentSet.sol\":2616:2711  for (uint256 i = 0; i < rhos.length; i++) {... */\n      jump(tag_51)\n    tag_52:\n      pop\n        /* \"contracts/SpentSet.sol\":2728:2735  results */\n      dup1\n        /* \"contracts/SpentSet.sol\":2721:2735  return results */\n      swap2\n      pop\n      pop\n        /* \"contracts/SpentSet.sol\":2463:2743  function batchIsUsed(bytes32[] calldata rhos) external view returns (bool[] memory) {... */\n      swap3\n      swap2\n      pop\n      pop\n      jump\t// out\n        /* \"contracts/SpentSet.sol\":403:451  mapping(address => bool) public authorizedWallet */\n    tag_21:\n      mstore(0x20, 0x01)\n      dup1\n      0x00\n      mstore\n      keccak256(0x00, 0x40)\n      0x00\n      swap2\n      pop\n      sload\n      swap1\n      0x0100\n      exp\n      swap1\n      div\n      0xff\n      and\n      dup2\n      jump\t// out\n        /* \"contracts/SpentSet.sol\":1458:1603  function revokeWallet(address wallet) external onlyOwner {... */\n    tag_26:\n        /* \"contracts/SpentSet.sol\":744:749  owner */\n      0x02\n      0x00\n      swap1\n      sload\n      swap1\n      0x0100\n      exp\n      swap1\n      div\n      0xffffffffffffffffffffffffffffffffffffffff\n      and\n        /* \"contracts/SpentSet.sol\":730:749  msg.sender == owner */\n      0xffffffffffffffffffffffffffffffffffffffff\n      and\n        /* \"contracts/SpentSet.sol\":730:740  msg.sender */\n      caller\n        /* \"contracts/SpentSet.sol\":730:749  msg.sender == owner */\n      0xffffffffffffffffffffffffffffffffffffffff\n      and\n      eq\n        /* \"contracts/SpentSet.sol\":722:773  require(msg.sender == owner, \"Only owner can call\") */\n      tag_60\n      jumpi\n      mload(0x40)\n      0x08c379a000000000000000000000000000000000000000000000000000000000\n      dup2\n      mstore\n      0x04\n      add\n      tag_61\n      swap1\n      tag_62\n      jump\t// in\n    tag_61:\n      mload(0x40)\n      dup1\n      swap2\n      sub\n      swap1\n      revert\n    tag_60:\n        /* \"contracts/SpentSet.sol\":1553:1558  false */\n      0x00\n        /* \"contracts/SpentSet.sol\":1526:1542  authorizedWallet */\n      0x01\n        /* \"contracts/SpentSet.sol\":1526:1550  authorizedWallet[wallet] */\n      0x00\n        /* \"contracts/SpentSet.sol\":1543:1549  wallet */\n      dup4\n        /* \"contracts/SpentSet.sol\":1526:1550  authorizedWallet[wallet] */\n      0xffffffffffffffffffffffffffffffffffffffff\n      and\n      0xffffffffffffffffffffffffffffffffffffffff\n      and\n      dup2\n      mstore\n      0x20\n      add\n      swap1\n      dup2\n      mstore\n      0x20\n      add\n      0x00\n      keccak256\n      0x00\n        /* \"contracts/SpentSet.sol\":1526:1558  authorizedWallet[wallet] = false */\n      0x0100\n      exp\n      dup2\n      sload\n      dup2\n      0xff\n      mul\n      not\n      and\n      swap1\n      dup4\n      iszero\n      iszero\n      mul\n      or\n      swap1\n      sstore\n      pop\n        /* \"contracts/SpentSet.sol\":1588:1594  wallet */\n      dup1\n        /* \"contracts/SpentSet.sol\":1574:1595  WalletRevoked(wallet) */\n      0xffffffffffffffffffffffffffffffffffffffff\n      and\n      0x6e439c1129851c7aeb071225f567b51170a74259fb78b95132d3981f1d06a6ee\n      mload(0x40)\n      mload(0x40)\n      dup1\n      swap2\n      sub\n      swap1\n      log2\n        /* \"contracts/SpentSet.sol\":1458:1603  function revokeWallet(address wallet) external onlyOwner {... */\n      pop\n      jump\t// out\n        /* \"contracts/SpentSet.sol\":464:484  address public owner */\n    tag_28:\n      0x02\n      0x00\n      swap1\n      sload\n      swap1\n      0x0100\n      exp\n      swap1\n      div\n      0xffffffffffffffffffffffffffffffffffffffff\n      and\n      dup2\n      jump\t// out\n        /* \"contracts/SpentSet.sol\":295:331  mapping(bytes32 => bool) public used */\n    tag_34:\n      mstore(0x20, 0x00)\n      dup1\n      0x00\n      mstore\n      keccak256(0x00, 0x40)\n      0x00\n      swap2\n      pop\n      sload\n      swap1\n      0x0100\n      exp\n      swap1\n      div\n      0xff\n      and\n      dup2\n      jump\t// out\n        /* \"contracts/SpentSet.sol\":1804:2014  function markUsed(bytes32 rho) external onlyAuthorizedWallet {... */\n    tag_38:\n        /* \"contracts/SpentSet.sol\":852:868  authorizedWallet */\n      0x01\n        /* \"contracts/SpentSet.sol\":852:880  authorizedWallet[msg.sender] */\n      0x00\n        /* \"contracts/SpentSet.sol\":869:879  msg.sender */\n      caller\n        /* \"contracts/SpentSet.sol\":852:880  authorizedWallet[msg.sender] */\n      0xffffffffffffffffffffffffffffffffffffffff\n      and\n      0xffffffffffffffffffffffffffffffffffffffff\n      and\n      dup2\n      mstore\n      0x20\n      add\n      swap1\n      dup2\n      mstore\n      0x20\n      add\n      0x00\n      keccak256\n      0x00\n      swap1\n      sload\n      swap1\n      0x0100\n      exp\n      swap1\n      div\n      0xff\n      and\n        /* \"contracts/SpentSet.sol\":844:906  require(authorizedWallet[msg.sender], \"Wallet not authorized\") */\n      tag_65\n      jumpi\n      mload(0x40)\n      0x08c379a000000000000000000000000000000000000000000000000000000000\n      dup2\n      mstore\n      0x04\n      add\n      tag_66\n      swap1\n      tag_67\n      jump\t// in\n    tag_66:\n      mload(0x40)\n      dup1\n      swap2\n      sub\n      swap1\n      revert\n    tag_65:\n        /* \"contracts/SpentSet.sol\":1885:1889  used */\n      0x00\n        /* \"contracts/SpentSet.sol\":1885:1894  used[rho] */\n      0x00\n        /* \"contracts/SpentSet.sol\":1890:1893  rho */\n      dup3\n        /* \"contracts/SpentSet.sol\":1885:1894  used[rho] */\n      dup2\n      mstore\n      0x20\n      add\n      swap1\n      dup2\n      mstore\n      0x20\n      add\n      0x00\n      keccak256\n      0x00\n      swap1\n      sload\n      swap1\n      0x0100\n      exp\n      swap1\n      div\n      0xff\n      and\n        /* \"contracts/SpentSet.sol\":1884:1894  !used[rho] */\n      iszero\n        /* \"contracts/SpentSet.sol\":1876:1918  require(!used[rho], \"Token already spent\") */\n      tag_69\n      jumpi\n      mload(0x40)\n      0x08c379a000000000000000000000000000000000000000000000000000000000\n      dup2\n      mstore\n      0x04\n      add\n      tag_70\n      swap1\n      tag_71\n      jump\t// in\n    tag_70:\n      mload(0x40)\n      dup1\n      swap2\n      sub\n      swap1\n      revert\n    tag_69:\n        /* \"contracts/SpentSet.sol\":1941:1945  true */\n      0x01\n        /* \"contracts/SpentSet.sol\":1929:1933  used */\n      0x00\n        /* \"contracts/SpentSet.sol\":1929:1938  used[rho] */\n      0x00\n        /* \"contracts/SpentSet.sol\":1934:1937  rho */\n      dup4\n        /* \"contracts/SpentSet.sol\":1929:1938  used[rho] */\n      dup2\n      mstore\n      0x20\n      add\n      swap1\n      dup2\n      mstore\n      0x20\n      add\n      0x00\n      keccak256\n      0x00\n        /* \"contracts/SpentSet.sol\":1929:1945  used[rho] = true */\n      0x0100\n      exp\n      dup2\n      sload\n      dup2\n      0xff\n      mul\n      not\n      and\n      swap1\n      dup4\n      iszero\n      iszero\n      mul\n      or\n      swap1\n      sstore\n      pop\n        /* \"contracts/SpentSet.sol\":1995:2005  msg.sender */\n      caller\n        /* \"contracts/SpentSet.sol\":1961:2006  TokenBurned(rho, block.timestamp, msg.sender) */\n      0xffffffffffffffffffffffffffffffffffffffff\n      and\n        /* \"contracts/SpentSet.sol\":1973:1976  rho */\n      dup2\n        /* \"contracts/SpentSet.sol\":1961:2006  TokenBurned(rho, block.timestamp, msg.sender) */\n      0xaa4b54a91187ccc813f970716578d4ad3542ea35db3ab74d6d24791cbffa24df\n        /* \"contracts/SpentSet.sol\":1978:1993  block.timestamp */\n      timestamp\n        /* \"contracts/SpentSet.sol\":1961:2006  TokenBurned(rho, block.timestamp, msg.sender) */\n      mload(0x40)\n      tag_72\n      swap2\n      swap1\n      tag_73\n      jump\t// in\n    tag_72:\n      mload(0x40)\n      dup1\n      swap2\n      sub\n      swap1\n      log3\n        /* \"contracts/SpentSet.sol\":1804:2014  function markUsed(bytes32 rho) external onlyAuthorizedWallet {... */\n      pop\n      jump\t// out\n        /* \"contracts/SpentSet.sol\":1132:1348  function authorizeWallet(address wallet) external onlyOwner {... */\n    tag_41:\n        /* \"contracts/SpentSet.sol\":744:749  owner */\n      0x02\n      0x00\n      swap1\n      sload\n      swap1\n      0x0100\n      exp\n      swap1\n      div\n      0xffffffffffffffffffffffffffffffffffffffff\n      and\n        /* \"contracts/SpentSet.sol\":730:749  msg.sender == owner */\n      0xffffffffffffffffffffffffffffffffffffffff\n      and\n        /* \"contracts/SpentSet.sol\":730:740  msg.sender */\n      caller\n        /* \"contracts/SpentSet.sol\":730:749  msg.sender == owner */\n      0xffffffffffffffffffffffffffffffffffffffff\n      and\n      eq\n        /* \"contracts/SpentSet.sol\":722:773  require(msg.sender == owner, \"Only owner can call\") */\n      tag_75\n      jumpi\n      mload(0x40)\n      0x08c379a000000000000000000000000000000000000000000000000000000000\n      dup2\n      mstore\n      0x04\n      add\n      tag_76\n      swap1\n      tag_62\n      jump\t// in\n    tag_76:\n      mload(0x40)\n      dup1\n      swap2\n      sub\n      swap1\n      revert\n    tag_75:\n        /* \"contracts/SpentSet.sol\":1229:1230  0 */\n      0x00\n        /* \"contracts/SpentSet.sol\":1211:1231  wallet != address(0) */\n      0xffffffffffffffffffffffffffffffffffffffff\n      and\n        /* \"contracts/SpentSet.sol\":1211:1217  wallet */\n      dup2\n        /* \"contracts/SpentSet.sol\":1211:1231  wallet != address(0) */\n      0xffffffffffffffffffffffffffffffffffffffff\n      and\n      sub\n        /* \"contracts/SpentSet.sol\":1203:1258  require(wallet != address(0), \"Invalid wallet address\") */\n      tag_78\n      jumpi\n      mload(0x40)\n      0x08c379a000000000000000000000000000000000000000000000000000000000\n      dup2\n      mstore\n      0x04\n      add\n      tag_79\n      swap1\n      tag_80\n      jump\t// in\n    tag_79:\n      mload(0x40)\n      dup1\n      swap2\n      sub\n      swap1\n      revert\n    tag_78:\n        /* \"contracts/SpentSet.sol\":1296:1300  true */\n      0x01\n        /* \"contracts/SpentSet.sol\":1269:1285  authorizedWallet */\n      dup1\n        /* \"contracts/SpentSet.sol\":1269:1293  authorizedWallet[wallet] */\n      0x00\n        /* \"contracts/SpentSet.sol\":1286:1292  wallet */\n      dup4\n        /* \"contracts/SpentSet.sol\":1269:1293  authorizedWallet[wallet] */\n      0xffffffffffffffffffffffffffffffffffffffff\n      and\n      0xffffffffffffffffffffffffffffffffffffffff\n      and\n      dup2\n      mstore\n      0x20\n      add\n      swap1\n      dup2\n      mstore\n      0x20\n      add\n      0x00\n      keccak256\n      0x00\n        /* \"contracts/SpentSet.sol\":1269:1300  authorizedWallet[wallet] = true */\n      0x0100\n      exp\n      dup2\n      sload\n      dup2\n      0xff\n      mul\n      not\n      and\n      swap1\n      dup4\n      iszero\n      iszero\n      mul\n      or\n      swap1\n      sstore\n      pop\n        /* \"contracts/SpentSet.sol\":1333:1339  wallet */\n      dup1\n        /* \"contracts/SpentSet.sol\":1316:1340  WalletAuthorized(wallet) */\n      0xffffffffffffffffffffffffffffffffffffffff\n      and\n      0x6adc51adeb121fe2cd9ad017e91270d6368986ac7ef38921131a66b86eb632bc\n      mload(0x40)\n      mload(0x40)\n      dup1\n      swap2\n      sub\n      swap1\n      log2\n        /* \"contracts/SpentSet.sol\":1132:1348  function authorizeWallet(address wallet) external onlyOwner {... */\n      pop\n      jump\t// out\n        /* \"contracts/SpentSet.sol\":2180:2273  function isUsed(bytes32 rho) external view returns (bool) {... */\n    tag_44:\n        /* \"contracts/SpentSet.sol\":2232:2236  bool */\n      0x00\n        /* \"contracts/SpentSet.sol\":2256:2260  used */\n      0x00\n        /* \"contracts/SpentSet.sol\":2256:2265  used[rho] */\n      0x00\n        /* \"contracts/SpentSet.sol\":2261:2264  rho */\n      dup4\n        /* \"contracts/SpentSet.sol\":2256:2265  used[rho] */\n      dup2\n      mstore\n      0x20\n      add\n      swap1\n      dup2\n      mstore\n      0x20\n      add\n      0x00\n      keccak256\n      0x00\n      swap1\n      sload\n      swap1\n      0x0100\n      exp\n      swap1\n      div\n      0xff\n      and\n        /* \"contracts/SpentSet.sol\":2249:2265  return used[rho] */\n      swap1\n      pop\n        /* \"contracts/SpentSet.sol\":2180:2273  function isUsed(bytes32 rho) external view returns (bool) {... */\n      swap2\n      swap1\n      pop\n      jump\t// out\n        /* \"#utility.yul\":88:205   */\n    tag_83:\n        /* \"#utility.yul\":197:198   */\n      0x00\n        /* \"#utility.yul\":194:195   */\n      0x00\n        /* \"#utility.yul\":187:199   */\n      revert\n        /* \"#utility.yul\":211:328   */\n    tag_84:\n        /* \"#utility.yul\":320:321   */\n      0x00\n        /* \"#utility.yul\":317:318   */\n      0x00\n        /* \"#utility.yul\":310:322   */\n      revert\n        /* \"#utility.yul\":334:451   */\n    tag_85:\n        /* \"#utility.yul\":443:444   */\n      0x00\n        /* \"#utility.yul\":440:441   */\n      0x00\n        /* \"#utility.yul\":433:445   */\n      revert\n        /* \"#utility.yul\":457:574   */\n    tag_86:\n        /* \"#utility.yul\":566:567   */\n      0x00\n        /* \"#utility.yul\":563:564   */\n      0x00\n        /* \"#utility.yul\":556:568   */\n      revert\n        /* \"#utility.yul\":580:697   */\n    tag_87:\n        /* \"#utility.yul\":689:690   */\n      0x00\n        /* \"#utility.yul\":686:687   */\n      0x00\n        /* \"#utility.yul\":679:691   */\n      revert\n        /* \"#utility.yul\":720:1288   */\n    tag_88:\n        /* \"#utility.yul\":793:801   */\n      0x00\n        /* \"#utility.yul\":803:809   */\n      0x00\n        /* \"#utility.yul\":853:856   */\n      dup4\n        /* \"#utility.yul\":846:850   */\n      0x1f\n        /* \"#utility.yul\":838:844   */\n      dup5\n        /* \"#utility.yul\":834:851   */\n      add\n        /* \"#utility.yul\":830:857   */\n      slt\n        /* \"#utility.yul\":820:942   */\n      tag_125\n      jumpi\n        /* \"#utility.yul\":861:940   */\n      tag_126\n      tag_85\n      jump\t// in\n    tag_126:\n        /* \"#utility.yul\":820:942   */\n    tag_125:\n        /* \"#utility.yul\":974:980   */\n      dup3\n        /* \"#utility.yul\":961:981   */\n      calldataload\n        /* \"#utility.yul\":951:981   */\n      swap1\n      pop\n        /* \"#utility.yul\":1004:1022   */\n      0xffffffffffffffff\n        /* \"#utility.yul\":996:1002   */\n      dup2\n        /* \"#utility.yul\":993:1023   */\n      gt\n        /* \"#utility.yul\":990:1107   */\n      iszero\n      tag_127\n      jumpi\n        /* \"#utility.yul\":1026:1105   */\n      tag_128\n      tag_86\n      jump\t// in\n    tag_128:\n        /* \"#utility.yul\":990:1107   */\n    tag_127:\n        /* \"#utility.yul\":1140:1144   */\n      0x20\n        /* \"#utility.yul\":1132:1138   */\n      dup4\n        /* \"#utility.yul\":1128:1145   */\n      add\n        /* \"#utility.yul\":1116:1145   */\n      swap2\n      pop\n        /* \"#utility.yul\":1194:1197   */\n      dup4\n        /* \"#utility.yul\":1186:1190   */\n      0x20\n        /* \"#utility.yul\":1178:1184   */\n      dup3\n        /* \"#utility.yul\":1174:1191   */\n      mul\n        /* \"#utility.yul\":1164:1172   */\n      dup4\n        /* \"#utility.yul\":1160:1192   */\n      add\n        /* \"#utility.yul\":1157:1198   */\n      gt\n        /* \"#utility.yul\":1154:1282   */\n      iszero\n      tag_129\n      jumpi\n        /* \"#utility.yul\":1201:1280   */\n      tag_130\n      tag_87\n      jump\t// in\n    tag_130:\n        /* \"#utility.yul\":1154:1282   */\n    tag_129:\n        /* \"#utility.yul\":720:1288   */\n      swap3\n      pop\n      swap3\n      swap1\n      pop\n      jump\t// out\n        /* \"#utility.yul\":1294:1853   */\n    tag_14:\n        /* \"#utility.yul\":1380:1386   */\n      0x00\n        /* \"#utility.yul\":1388:1394   */\n      0x00\n        /* \"#utility.yul\":1437:1439   */\n      0x20\n        /* \"#utility.yul\":1425:1434   */\n      dup4\n        /* \"#utility.yul\":1416:1423   */\n      dup6\n        /* \"#utility.yul\":1412:1435   */\n      sub\n        /* \"#utility.yul\":1408:1440   */\n      slt\n        /* \"#utility.yul\":1405:1524   */\n      iszero\n      tag_132\n      jumpi\n        /* \"#utility.yul\":1443:1522   */\n      tag_133\n      tag_83\n      jump\t// in\n    tag_133:\n        /* \"#utility.yul\":1405:1524   */\n    tag_132:\n        /* \"#utility.yul\":1591:1592   */\n      0x00\n        /* \"#utility.yul\":1580:1589   */\n      dup4\n        /* \"#utility.yul\":1576:1593   */\n      add\n        /* \"#utility.yul\":1563:1594   */\n      calldataload\n        /* \"#utility.yul\":1621:1639   */\n      0xffffffffffffffff\n        /* \"#utility.yul\":1613:1619   */\n      dup2\n        /* \"#utility.yul\":1610:1640   */\n      gt\n        /* \"#utility.yul\":1607:1724   */\n      iszero\n      tag_134\n      jumpi\n        /* \"#utility.yul\":1643:1722   */\n      tag_135\n      tag_84\n      jump\t// in\n    tag_135:\n        /* \"#utility.yul\":1607:1724   */\n    tag_134:\n        /* \"#utility.yul\":1756:1836   */\n      tag_136\n        /* \"#utility.yul\":1828:1835   */\n      dup6\n        /* \"#utility.yul\":1819:1825   */\n      dup3\n        /* \"#utility.yul\":1808:1817   */\n      dup7\n        /* \"#utility.yul\":1804:1826   */\n      add\n        /* \"#utility.yul\":1756:1836   */\n      tag_88\n      jump\t// in\n    tag_136:\n        /* \"#utility.yul\":1738:1836   */\n      swap3\n      pop\n      swap3\n      pop\n        /* \"#utility.yul\":1534:1846   */\n      pop\n        /* \"#utility.yul\":1294:1853   */\n      swap3\n      pop\n      swap3\n      swap1\n      pop\n      jump\t// out\n        /* \"#utility.yul\":1859:1970   */\n    tag_89:\n        /* \"#utility.yul\":1923:1929   */\n      0x00\n        /* \"#utility.yul\":1957:1962   */\n      dup2\n        /* \"#utility.yul\":1951:1963   */\n      mload\n        /* \"#utility.yul\":1941:1963   */\n      swap1\n      pop\n        /* \"#utility.yul\":1859:1970   */\n      swap2\n      swap1\n      pop\n      jump\t// out\n        /* \"#utility.yul\":1976:2157   */\n    tag_90:\n        /* \"#utility.yul\":2072:2083   */\n      0x00\n        /* \"#utility.yul\":2106:2112   */\n      dup3\n        /* \"#utility.yul\":2101:2104   */\n      dup3\n        /* \"#utility.yul\":2094:2113   */\n      mstore\n        /* \"#utility.yul\":2146:2150   */\n      0x20\n        /* \"#utility.yul\":2141:2144   */\n      dup3\n        /* \"#utility.yul\":2137:2151   */\n      add\n        /* \"#utility.yul\":2122:2151   */\n      swap1\n      pop\n        /* \"#utility.yul\":1976:2157   */\n      swap3\n      swap2\n      pop\n      pop\n      jump\t// out\n        /* \"#utility.yul\":2163:2292   */\n    tag_91:\n        /* \"#utility.yul\":2227:2231   */\n      0x00\n        /* \"#utility.yul\":2250:2253   */\n      dup2\n        /* \"#utility.yul\":2242:2253   */\n      swap1\n      pop\n        /* \"#utility.yul\":2280:2284   */\n      0x20\n        /* \"#utility.yul\":2275:2278   */\n      dup3\n        /* \"#utility.yul\":2271:2285   */\n      add\n        /* \"#utility.yul\":2263:2285   */\n      swap1\n      pop\n        /* \"#utility.yul\":2163:2292   */\n      swap2\n      swap1\n      pop\n      jump\t// out\n        /* \"#utility.yul\":2298:2388   */\n    tag_92:\n        /* \"#utility.yul\":2332:2339   */\n      0x00\n        /* \"#utility.yul\":2375:2380   */\n      dup2\n        /* \"#utility.yul\":2368:2381   */\n      iszero\n        /* \"#utility.yul\":2361:2382   */\n      iszero\n        /* \"#utility.yul\":2350:2382   */\n      swap1\n      pop\n        /* \"#utility.yul\":2298:2388   */\n      swap2\n      swap1\n      pop\n      jump\t// out\n        /* \"#utility.yul\":2394:2493   */\n    tag_93:\n        /* \"#utility.yul\":2465:2486   */\n      tag_142\n        /* \"#utility.yul\":2480:2485   */\n      dup2\n        /* \"#utility.yul\":2465:2486   */\n      tag_92\n      jump\t// in\n    tag_142:\n        /* \"#utility.yul\":2460:2463   */\n      dup3\n        /* \"#utility.yul\":2453:2487   */\n      mstore\n        /* \"#utility.yul\":2394:2493   */\n      pop\n      pop\n      jump\t// out\n        /* \"#utility.yul\":2499:2666   */\n    tag_94:\n        /* \"#utility.yul\":2562:2572   */\n      0x00\n        /* \"#utility.yul\":2583:2623   */\n      tag_144\n        /* \"#utility.yul\":2619:2622   */\n      dup4\n        /* \"#utility.yul\":2611:2617   */\n      dup4\n        /* \"#utility.yul\":2583:2623   */\n      tag_93\n      jump\t// in\n    tag_144:\n        /* \"#utility.yul\":2655:2659   */\n      0x20\n        /* \"#utility.yul\":2650:2653   */\n      dup4\n        /* \"#utility.yul\":2646:2660   */\n      add\n        /* \"#utility.yul\":2632:2660   */\n      swap1\n      pop\n        /* \"#utility.yul\":2499:2666   */\n      swap3\n      swap2\n      pop\n      pop\n      jump\t// out\n        /* \"#utility.yul\":2672:2782   */\n    tag_95:\n        /* \"#utility.yul\":2739:2743   */\n      0x00\n        /* \"#utility.yul\":2771:2775   */\n      0x20\n        /* \"#utility.yul\":2766:2769   */\n      dup3\n        /* \"#utility.yul\":2762:2776   */\n      add\n        /* \"#utility.yul\":2754:2776   */\n      swap1\n      pop\n        /* \"#utility.yul\":2672:2782   */\n      swap2\n      swap1\n      pop\n      jump\t// out\n        /* \"#utility.yul\":2812:3520   */\n    tag_96:\n        /* \"#utility.yul\":2925:2928   */\n      0x00\n        /* \"#utility.yul\":2954:3005   */\n      tag_147\n        /* \"#utility.yul\":2999:3004   */\n      dup3\n        /* \"#utility.yul\":2954:3005   */\n      tag_89\n      jump\t// in\n    tag_147:\n        /* \"#utility.yul\":3021:3104   */\n      tag_148\n        /* \"#utility.yul\":3097:3103   */\n      dup2\n        /* \"#utility.yul\":3092:3095   */\n      dup6\n        /* \"#utility.yul\":3021:3104   */\n      tag_90\n      jump\t// in\n    tag_148:\n        /* \"#utility.yul\":3014:3104   */\n      swap4\n      pop\n        /* \"#utility.yul\":3128:3181   */\n      tag_149\n        /* \"#utility.yul\":3175:3180   */\n      dup4\n        /* \"#utility.yul\":3128:3181   */\n      tag_91\n      jump\t// in\n    tag_149:\n        /* \"#utility.yul\":3204:3211   */\n      dup1\n        /* \"#utility.yul\":3235:3236   */\n      0x00\n        /* \"#utility.yul\":3220:3495   */\n    tag_150:\n        /* \"#utility.yul\":3245:3251   */\n      dup4\n        /* \"#utility.yul\":3242:3243   */\n      dup2\n        /* \"#utility.yul\":3239:3252   */\n      lt\n        /* \"#utility.yul\":3220:3495   */\n      iszero\n      tag_152\n      jumpi\n        /* \"#utility.yul\":3321:3327   */\n      dup2\n        /* \"#utility.yul\":3315:3328   */\n      mload\n        /* \"#utility.yul\":3348:3405   */\n      tag_153\n        /* \"#utility.yul\":3401:3404   */\n      dup9\n        /* \"#utility.yul\":3386:3399   */\n      dup3\n        /* \"#utility.yul\":3348:3405   */\n      tag_94\n      jump\t// in\n    tag_153:\n        /* \"#utility.yul\":3341:3405   */\n      swap8\n      pop\n        /* \"#utility.yul\":3428:3485   */\n      tag_154\n        /* \"#utility.yul\":3478:3484   */\n      dup4\n        /* \"#utility.yul\":3428:3485   */\n      tag_95\n      jump\t// in\n    tag_154:\n        /* \"#utility.yul\":3418:3485   */\n      swap3\n      pop\n        /* \"#utility.yul\":3280:3495   */\n      pop\n        /* \"#utility.yul\":3267:3268   */\n      0x01\n        /* \"#utility.yul\":3264:3265   */\n      dup2\n        /* \"#utility.yul\":3260:3269   */\n      add\n        /* \"#utility.yul\":3255:3269   */\n      swap1\n      pop\n        /* \"#utility.yul\":3220:3495   */\n      jump(tag_150)\n    tag_152:\n        /* \"#utility.yul\":3224:3238   */\n      pop\n        /* \"#utility.yul\":3511:3514   */\n      dup6\n        /* \"#utility.yul\":3504:3514   */\n      swap4\n      pop\n        /* \"#utility.yul\":2930:3520   */\n      pop\n      pop\n      pop\n        /* \"#utility.yul\":2812:3520   */\n      swap3\n      swap2\n      pop\n      pop\n      jump\t// out\n        /* \"#utility.yul\":3526:3887   */\n    tag_17:\n        /* \"#utility.yul\":3663:3667   */\n      0x00\n        /* \"#utility.yul\":3701:3703   */\n      0x20\n        /* \"#utility.yul\":3690:3699   */\n      dup3\n        /* \"#utility.yul\":3686:3704   */\n      add\n        /* \"#utility.yul\":3678:3704   */\n      swap1\n      pop\n        /* \"#utility.yul\":3750:3759   */\n      dup2\n        /* \"#utility.yul\":3744:3748   */\n      dup2\n        /* \"#utility.yul\":3740:3760   */\n      sub\n        /* \"#utility.yul\":3736:3737   */\n      0x00\n        /* \"#utility.yul\":3725:3734   */\n      dup4\n        /* \"#utility.yul\":3721:3738   */\n      add\n        /* \"#utility.yul\":3714:3761   */\n      mstore\n        /* \"#utility.yul\":3778:3880   */\n      tag_156\n        /* \"#utility.yul\":3875:3879   */\n      dup2\n        /* \"#utility.yul\":3866:3872   */\n      dup5\n        /* \"#utility.yul\":3778:3880   */\n      tag_96\n      jump\t// in\n    tag_156:\n        /* \"#utility.yul\":3770:3880   */\n      swap1\n      pop\n        /* \"#utility.yul\":3526:3887   */\n      swap3\n      swap2\n      pop\n      pop\n      jump\t// out\n        /* \"#utility.yul\":3893:4019   */\n    tag_97:\n        /* \"#utility.yul\":3930:3937   */\n      0x00\n        /* \"#utility.yul\":3970:4012   */\n      0xffffffffffffffffffffffffffffffffffffffff\n        /* \"#utility.yul\":3963:3968   */\n      dup3\n        /* \"#utility.yul\":3959:4013   */\n      and\n        /* \"#utility.yul\":3948:4013   */\n      swap1\n      pop\n        /* \"#utility.yul\":3893:4019   */\n      swap2\n      swap1\n      pop\n      jump\t// out\n        /* \"#utility.yul\":4025:4121   */\n    tag_98:\n        /* \"#utility.yul\":4062:4069   */\n      0x00\n        /* \"#utility.yul\":4091:4115   */\n      tag_159\n        /* \"#utility.yul\":4109:4114   */\n      dup3\n        /* \"#utility.yul\":4091:4115   */\n      tag_97\n      jump\t// in\n    tag_159:\n        /* \"#utility.yul\":4080:4115   */\n      swap1\n      pop\n        /* \"#utility.yul\":4025:4121   */\n      swap2\n      swap1\n      pop\n      jump\t// out\n        /* \"#utility.yul\":4127:4249   */\n    tag_99:\n        /* \"#utility.yul\":4200:4224   */\n      tag_161\n        /* \"#utility.yul\":4218:4223   */\n      dup2\n        /* \"#utility.yul\":4200:4224   */\n      tag_98\n      jump\t// in\n    tag_161:\n        /* \"#utility.yul\":4193:4198   */\n      dup2\n        /* \"#utility.yul\":4190:4225   */\n      eq\n        /* \"#utility.yul\":4180:4243   */\n      tag_162\n      jumpi\n        /* \"#utility.yul\":4239:4240   */\n      0x00\n        /* \"#utility.yul\":4236:4237   */\n      0x00\n        /* \"#utility.yul\":4229:4241   */\n      revert\n        /* \"#utility.yul\":4180:4243   */\n    tag_162:\n        /* \"#utility.yul\":4127:4249   */\n      pop\n      jump\t// out\n        /* \"#utility.yul\":4255:4394   */\n    tag_100:\n        /* \"#utility.yul\":4301:4306   */\n      0x00\n        /* \"#utility.yul\":4339:4345   */\n      dup2\n        /* \"#utility.yul\":4326:4346   */\n      calldataload\n        /* \"#utility.yul\":4317:4346   */\n      swap1\n      pop\n        /* \"#utility.yul\":4355:4388   */\n      tag_164\n        /* \"#utility.yul\":4382:4387   */\n      dup2\n        /* \"#utility.yul\":4355:4388   */\n      tag_99\n      jump\t// in\n    tag_164:\n        /* \"#utility.yul\":4255:4394   */\n      swap3\n      swap2\n      pop\n      pop\n      jump\t// out\n        /* \"#utility.yul\":4400:4729   */\n    tag_20:\n        /* \"#utility.yul\":4459:4465   */\n      0x00\n        /* \"#utility.yul\":4508:4510   */\n      0x20\n        /* \"#utility.yul\":4496:4505   */\n      dup3\n        /* \"#utility.yul\":4487:4494   */\n      dup5\n        /* \"#utility.yul\":4483:4506   */\n      sub\n        /* \"#utility.yul\":4479:4511   */\n      slt\n        /* \"#utility.yul\":4476:4595   */\n      iszero\n      tag_166\n      jumpi\n        /* \"#utility.yul\":4514:4593   */\n      tag_167\n      tag_83\n      jump\t// in\n    tag_167:\n        /* \"#utility.yul\":4476:4595   */\n    tag_166:\n        /* \"#utility.yul\":4634:4635   */\n      0x00\n        /* \"#utility.yul\":4659:4712   */\n      tag_168\n        /* \"#utility.yul\":4704:4711   */\n      dup5\n        /* \"#utility.yul\":4695:4701   */\n      dup3\n        /* \"#utility.yul\":4684:4693   */\n      dup6\n        /* \"#utility.yul\":4680:4702   */\n      add\n        /* \"#utility.yul\":4659:4712   */\n      tag_100\n      jump\t// in\n    tag_168:\n        /* \"#utility.yul\":4649:4712   */\n      swap2\n      pop\n        /* \"#utility.yul\":4605:4722   */\n      pop\n        /* \"#utility.yul\":4400:4729   */\n      swap3\n      swap2\n      pop\n      pop\n      jump\t// out\n        /* \"#utility.yul\":4735:4844   */\n    tag_101:\n        /* \"#utility.yul\":4816:4837   */\n      tag_170\n        /* \"#utility.yul\":4831:4836   */\n      dup2\n        /* \"#utility.yul\":4816:4837   */\n      tag_92\n      jump\t// in\n    tag_170:\n        /* \"#utility.yul\":4811:4814   */\n      dup3\n        /* \"#utility.yul\":4804:4838   */\n      mstore\n        /* \"#utility.yul\":4735:4844   */\n      pop\n      pop\n      jump\t// out\n        /* \"#utility.yul\":4850:5060   */\n    tag_23:\n        /* \"#utility.yul\":4937:4941   */\n      0x00\n        /* \"#utility.yul\":4975:4977   */\n      0x20\n        /* \"#utility.yul\":4964:4973   */\n      dup3\n        /* \"#utility.yul\":4960:4978   */\n      add\n        /* \"#utility.yul\":4952:4978   */\n      swap1\n      pop\n        /* \"#utility.yul\":4988:5053   */\n      tag_172\n        /* \"#utility.yul\":5050:5051   */\n      0x00\n        /* \"#utility.yul\":5039:5048   */\n      dup4\n        /* \"#utility.yul\":5035:5052   */\n      add\n        /* \"#utility.yul\":5026:5032   */\n      dup5\n        /* \"#utility.yul\":4988:5053   */\n      tag_101\n      jump\t// in\n    tag_172:\n        /* \"#utility.yul\":4850:5060   */\n      swap3\n      swap2\n      pop\n      pop\n      jump\t// out\n        /* \"#utility.yul\":5066:5184   */\n    tag_102:\n        /* \"#utility.yul\":5153:5177   */\n      tag_174\n        /* \"#utility.yul\":5171:5176   */\n      dup2\n        /* \"#utility.yul\":5153:5177   */\n      tag_98\n      jump\t// in\n    tag_174:\n        /* \"#utility.yul\":5148:5151   */\n      dup3\n        /* \"#utility.yul\":5141:5178   */\n      mstore\n        /* \"#utility.yul\":5066:5184   */\n      pop\n      pop\n      jump\t// out\n        /* \"#utility.yul\":5190:5412   */\n    tag_30:\n        /* \"#utility.yul\":5283:5287   */\n      0x00\n        /* \"#utility.yul\":5321:5323   */\n      0x20\n        /* \"#utility.yul\":5310:5319   */\n      dup3\n        /* \"#utility.yul\":5306:5324   */\n      add\n        /* \"#utility.yul\":5298:5324   */\n      swap1\n      pop\n        /* \"#utility.yul\":5334:5405   */\n      tag_176\n        /* \"#utility.yul\":5402:5403   */\n      0x00\n        /* \"#utility.yul\":5391:5400   */\n      dup4\n        /* \"#utility.yul\":5387:5404   */\n      add\n        /* \"#utility.yul\":5378:5384   */\n      dup5\n        /* \"#utility.yul\":5334:5405   */\n      tag_102\n      jump\t// in\n    tag_176:\n        /* \"#utility.yul\":5190:5412   */\n      swap3\n      swap2\n      pop\n      pop\n      jump\t// out\n        /* \"#utility.yul\":5418:5495   */\n    tag_103:\n        /* \"#utility.yul\":5455:5462   */\n      0x00\n        /* \"#utility.yul\":5484:5489   */\n      dup2\n        /* \"#utility.yul\":5473:5489   */\n      swap1\n      pop\n        /* \"#utility.yul\":5418:5495   */\n      swap2\n      swap1\n      pop\n      jump\t// out\n        /* \"#utility.yul\":5501:5623   */\n    tag_104:\n        /* \"#utility.yul\":5574:5598   */\n      tag_179\n        /* \"#utility.yul\":5592:5597   */\n      dup2\n        /* \"#utility.yul\":5574:5598   */\n      tag_103\n      jump\t// in\n    tag_179:\n        /* \"#utility.yul\":5567:5572   */\n      dup2\n        /* \"#utility.yul\":5564:5599   */\n      eq\n        /* \"#utility.yul\":5554:5617   */\n      tag_180\n      jumpi\n        /* \"#utility.yul\":5613:5614   */\n      0x00\n        /* \"#utility.yul\":5610:5611   */\n      0x00\n        /* \"#utility.yul\":5603:5615   */\n      revert\n        /* \"#utility.yul\":5554:5617   */\n    tag_180:\n        /* \"#utility.yul\":5501:5623   */\n      pop\n      jump\t// out\n        /* \"#utility.yul\":5629:5768   */\n    tag_105:\n        /* \"#utility.yul\":5675:5680   */\n      0x00\n        /* \"#utility.yul\":5713:5719   */\n      dup2\n        /* \"#utility.yul\":5700:5720   */\n      calldataload\n        /* \"#utility.yul\":5691:5720   */\n      swap1\n      pop\n        /* \"#utility.yul\":5729:5762   */\n      tag_182\n        /* \"#utility.yul\":5756:5761   */\n      dup2\n        /* \"#utility.yul\":5729:5762   */\n      tag_104\n      jump\t// in\n    tag_182:\n        /* \"#utility.yul\":5629:5768   */\n      swap3\n      swap2\n      pop\n      pop\n      jump\t// out\n        /* \"#utility.yul\":5774:6103   */\n    tag_33:\n        /* \"#utility.yul\":5833:5839   */\n      0x00\n        /* \"#utility.yul\":5882:5884   */\n      0x20\n        /* \"#utility.yul\":5870:5879   */\n      dup3\n        /* \"#utility.yul\":5861:5868   */\n      dup5\n        /* \"#utility.yul\":5857:5880   */\n      sub\n        /* \"#utility.yul\":5853:5885   */\n      slt\n        /* \"#utility.yul\":5850:5969   */\n      iszero\n      tag_184\n      jumpi\n        /* \"#utility.yul\":5888:5967   */\n      tag_185\n      tag_83\n      jump\t// in\n    tag_185:\n        /* \"#utility.yul\":5850:5969   */\n    tag_184:\n        /* \"#utility.yul\":6008:6009   */\n      0x00\n        /* \"#utility.yul\":6033:6086   */\n      tag_186\n        /* \"#utility.yul\":6078:6085   */\n      dup5\n        /* \"#utility.yul\":6069:6075   */\n      dup3\n        /* \"#utility.yul\":6058:6067   */\n      dup6\n        /* \"#utility.yul\":6054:6076   */\n      add\n        /* \"#utility.yul\":6033:6086   */\n      tag_105\n      jump\t// in\n    tag_186:\n        /* \"#utility.yul\":6023:6086   */\n      swap2\n      pop\n        /* \"#utility.yul\":5979:6096   */\n      pop\n        /* \"#utility.yul\":5774:6103   */\n      swap3\n      swap2\n      pop\n      pop\n      jump\t// out\n        /* \"#utility.yul\":6109:6289   */\n    tag_49:\n        /* \"#utility.yul\":6157:6234   */\n      0x4e487b7100000000000000000000000000000000000000000000000000000000\n        /* \"#utility.yul\":6154:6155   */\n      0x00\n        /* \"#utility.yul\":6147:6235   */\n      mstore\n        /* \"#utility.yul\":6254:6258   */\n      0x41\n        /* \"#utility.yul\":6251:6252   */\n      0x04\n        /* \"#utility.yul\":6244:6259   */\n      mstore\n        /* \"#utility.yul\":6278:6282   */\n      0x24\n        /* \"#utility.yul\":6275:6276   */\n      0x00\n        /* \"#utility.yul\":6268:6283   */\n      revert\n        /* \"#utility.yul\":6295:6475   */\n    tag_56:\n        /* \"#utility.yul\":6343:6420   */\n      0x4e487b7100000000000000000000000000000000000000000000000000000000\n        /* \"#utility.yul\":6340:6341   */\n      0x00\n        /* \"#utility.yul\":6333:6421   */\n      mstore\n        /* \"#utility.yul\":6440:6444   */\n      0x32\n        /* \"#utility.yul\":6437:6438   */\n      0x04\n        /* \"#utility.yul\":6430:6445   */\n      mstore\n        /* \"#utility.yul\":6464:6468   */\n      0x24\n        /* \"#utility.yul\":6461:6462   */\n      0x00\n        /* \"#utility.yul\":6454:6469   */\n      revert\n        /* \"#utility.yul\":6481:6650   */\n    tag_106:\n        /* \"#utility.yul\":6565:6576   */\n      0x00\n        /* \"#utility.yul\":6599:6605   */\n      dup3\n        /* \"#utility.yul\":6594:6597   */\n      dup3\n        /* \"#utility.yul\":6587:6606   */\n      mstore\n        /* \"#utility.yul\":6639:6643   */\n      0x20\n        /* \"#utility.yul\":6634:6637   */\n      dup3\n        /* \"#utility.yul\":6630:6644   */\n      add\n        /* \"#utility.yul\":6615:6644   */\n      swap1\n      pop\n        /* \"#utility.yul\":6481:6650   */\n      swap3\n      swap2\n      pop\n      pop\n      jump\t// out\n        /* \"#utility.yul\":6656:6825   */\n    tag_107:\n        /* \"#utility.yul\":6796:6817   */\n      0x4f6e6c79206f776e65722063616e2063616c6c00000000000000000000000000\n        /* \"#utility.yul\":6792:6793   */\n      0x00\n        /* \"#utility.yul\":6784:6790   */\n      dup3\n        /* \"#utility.yul\":6780:6794   */\n      add\n        /* \"#utility.yul\":6773:6818   */\n      mstore\n        /* \"#utility.yul\":6656:6825   */\n      pop\n      jump\t// out\n        /* \"#utility.yul\":6831:7197   */\n    tag_108:\n        /* \"#utility.yul\":6973:6976   */\n      0x00\n        /* \"#utility.yul\":6994:7061   */\n      tag_192\n        /* \"#utility.yul\":7058:7060   */\n      0x13\n        /* \"#utility.yul\":7053:7056   */\n      dup4\n        /* \"#utility.yul\":6994:7061   */\n      tag_106\n      jump\t// in\n    tag_192:\n        /* \"#utility.yul\":6987:7061   */\n      swap2\n      pop\n        /* \"#utility.yul\":7070:7163   */\n      tag_193\n        /* \"#utility.yul\":7159:7162   */\n      dup3\n        /* \"#utility.yul\":7070:7163   */\n      tag_107\n      jump\t// in\n    tag_193:\n        /* \"#utility.yul\":7188:7190   */\n      0x20\n        /* \"#utility.yul\":7183:7186   */\n      dup3\n        /* \"#utility.yul\":7179:7191   */\n      add\n        /* \"#utility.yul\":7172:7191   */\n      swap1\n      pop\n        /* \"#utility.yul\":6831:7197   */\n      swap2\n      swap1\n      pop\n      jump\t// out\n        /* \"#utility.yul\":7203:7622   */\n    tag_62:\n        /* \"#utility.yul\":7369:7373   */\n      0x00\n        /* \"#utility.yul\":7407:7409   */\n      0x20\n        /* \"#utility.yul\":7396:7405   */\n      dup3\n        /* \"#utility.yul\":7392:7410   */\n      add\n        /* \"#utility.yul\":7384:7410   */\n      swap1\n      pop\n        /* \"#utility.yul\":7456:7465   */\n      dup2\n        /* \"#utility.yul\":7450:7454   */\n      dup2\n        /* \"#utility.yul\":7446:7466   */\n      sub\n        /* \"#utility.yul\":7442:7443   */\n      0x00\n        /* \"#utility.yul\":7431:7440   */\n      dup4\n        /* \"#utility.yul\":7427:7444   */\n      add\n        /* \"#utility.yul\":7420:7467   */\n      mstore\n        /* \"#utility.yul\":7484:7615   */\n      tag_195\n        /* \"#utility.yul\":7610:7614   */\n      dup2\n        /* \"#utility.yul\":7484:7615   */\n      tag_108\n      jump\t// in\n    tag_195:\n        /* \"#utility.yul\":7476:7615   */\n      swap1\n      pop\n        /* \"#utility.yul\":7203:7622   */\n      swap2\n      swap1\n      pop\n      jump\t// out\n        /* \"#utility.yul\":7628:7799   */\n    tag_109:\n        /* \"#utility.yul\":7768:7791   */\n      0x57616c6c6574206e6f7420617574686f72697a65640000000000000000000000\n        /* \"#utility.yul\":7764:7765   */\n      0x00\n        /* \"#utility.yul\":7756:7762   */\n      dup3\n        /* \"#utility.yul\":7752:7766   */\n      add\n        /* \"#utility.yul\":7745:7792   */\n      mstore\n        /* \"#utility.yul\":7628:7799   */\n      pop\n      jump\t// out\n        /* \"#utility.yul\":7805:8171   */\n    tag_110:\n        /* \"#utility.yul\":7947:7950   */\n      0x00\n        /* \"#utility.yul\":7968:8035   */\n      tag_198\n        /* \"#utility.yul\":8032:8034   */\n      0x15\n        /* \"#utility.yul\":8027:8030   */\n      dup4\n        /* \"#utility.yul\":7968:8035   */\n      tag_106\n      jump\t// in\n    tag_198:\n        /* \"#utility.yul\":7961:8035   */\n      swap2\n      pop\n        /* \"#utility.yul\":8044:8137   */\n      tag_199\n        /* \"#utility.yul\":8133:8136   */\n      dup3\n        /* \"#utility.yul\":8044:8137   */\n      tag_109\n      jump\t// in\n    tag_199:\n        /* \"#utility.yul\":8162:8164   */\n      0x20\n        /* \"#utility.yul\":8157:8160   */\n      dup3\n        /* \"#utility.yul\":8153:8165   */\n      add\n        /* \"#utility.yul\":8146:8165   */\n      swap1\n      pop\n        /* \"#utility.yul\":7805:8171   */\n      swap2\n      swap1\n      pop\n      jump\t// out\n        /* \"#utility.yul\":8177:8596   */\n    tag_67:\n        /* \"#utility.yul\":8343:8347   */\n      0x00\n        /* \"#utility.yul\":8381:8383   */\n      0x20\n        /* \"#utility.yul\":8370:8379   */\n      dup3\n        /* \"#utility.yul\":8366:8384   */\n      add\n        /* \"#utility.yul\":8358:8384   */\n      swap1\n      pop\n        /* \"#utility.yul\":8430:8439   */\n      dup2\n        /* \"#utility.yul\":8424:8428   */\n      dup2\n        /* \"#utility.yul\":8420:8440   */\n      sub\n        /* \"#utility.yul\":8416:8417   */\n      0x00\n        /* \"#utility.yul\":8405:8414   */\n      dup4\n        /* \"#utility.yul\":8401:8418   */\n      add\n        /* \"#utility.yul\":8394:8441   */\n      mstore\n        /* \"#utility.yul\":8458:8589   */\n      tag_201\n        /* \"#utility.yul\":8584:8588   */\n      dup2\n        /* \"#utility.yul\":8458:8589   */\n      tag_110\n      jump\t// in\n    tag_201:\n        /* \"#utility.yul\":8450:8589   */\n      swap1\n      pop\n        /* \"#utility.yul\":8177:8596   */\n      swap2\n      swap1\n      pop\n      jump\t// out\n        /* \"#utility.yul\":8602:8771   */\n    tag_111:\n        /* \"#utility.yul\":8742:8763   */\n      0x546f6b656e20616c7265616479207370656e7400000000000000000000000000\n        /* \"#utility.yul\":8738:8739   */\n      0x00\n        /* \"#utility.yul\":8730:8736   */\n      dup3\n        /* \"#utility.yul\":8726:8740   */\n      add\n        /* \"#utility.yul\":8719:8764   */\n      mstore\n        /* \"#utility.yul\":8602:8771   */\n      pop\n      jump\t// out\n        /* \"#utility.yul\":8777:9143   */\n    tag_112:\n        /* \"#utility.yul\":8919:8922   */\n      0x00\n        /* \"#utility.yul\":8940:9007   */\n      tag_204\n        /* \"#utility.yul\":9004:9006   */\n      0x13\n        /* \"#utility.yul\":8999:9002   */\n      dup4\n        /* \"#utility.yul\":8940:9007   */\n      tag_106\n      jump\t// in\n    tag_204:\n        /* \"#utility.yul\":8933:9007   */\n      swap2\n      pop\n        /* \"#utility.yul\":9016:9109   */\n      tag_205\n        /* \"#utility.yul\":9105:9108   */\n      dup3\n        /* \"#utility.yul\":9016:9109   */\n      tag_111\n      jump\t// in\n    tag_205:\n        /* \"#utility.yul\":9134:9136   */\n      0x20\n        /* \"#utility.yul\":9129:9132   */\n      dup3\n        /* \"#utility.yul\":9125:9137   */\n      add\n        /* \"#utility.yul\":9118:9137   */\n      swap1\n      pop\n        /* \"#utility.yul\":8777:9143   */\n      swap2\n      swap1\n      pop\n      jump\t// out\n        /* \"#utility.yul\":9149:9568   */\n    tag_71:\n        /* \"#utility.yul\":9315:9319   */\n      0x00\n        /* \"#utility.yul\":9353:9355   */\n      0x20\n        /* \"#utility.yul\":9342:9351   */\n      dup3\n        /* \"#utility.yul\":9338:9356   */\n      add\n        /* \"#utility.yul\":9330:9356   */\n      swap1\n      pop\n        /* \"#utility.yul\":9402:9411   */\n      dup2\n        /* \"#utility.yul\":9396:9400   */\n      dup2\n        /* \"#utility.yul\":9392:9412   */\n      sub\n        /* \"#utility.yul\":9388:9389   */\n      0x00\n        /* \"#utility.yul\":9377:9386   */\n      dup4\n        /* \"#utility.yul\":9373:9390   */\n      add\n        /* \"#utility.yul\":9366:9413   */\n      mstore\n        /* \"#utility.yul\":9430:9561   */\n      tag_207\n        /* \"#utility.yul\":9556:9560   */\n      dup2\n        /* \"#utility.yul\":9430:9561   */\n      tag_112\n      jump\t// in\n    tag_207:\n        /* \"#utility.yul\":9422:9561   */\n      swap1\n      pop\n        /* \"#utility.yul\":9149:9568   */\n      swap2\n      swap1\n      pop\n      jump\t// out\n        /* \"#utility.yul\":9574:9651   */\n    tag_113:\n        /* \"#utility.yul\":9611:9618   */\n      0x00\n        /* \"#utility.yul\":9640:9645   */\n      dup2\n        /* \"#utility.yul\":9629:9645   */\n      swap1\n      pop\n        /* \"#utility.yul\":9574:9651   */\n      swap2\n      swap1\n      pop\n      jump\t// out\n        /* \"#utility.yul\":9657:9775   */\n    tag_114:\n        /* \"#utility.yul\":9744:9768   */\n      tag_210\n        /* \"#utility.yul\":9762:9767   */\n      dup2\n        /* \"#utility.yul\":9744:9768   */\n      tag_113\n      jump\t// in\n    tag_210:\n        /* \"#utility.yul\":9739:9742   */\n      dup3\n        /* \"#utility.yul\":9732:9769   */\n      mstore\n        /* \"#utility.yul\":9657:9775   */\n      pop\n      pop\n      jump\t// out\n        /* \"#utility.yul\":9781:10003   */\n    tag_73:\n        /* \"#utility.yul\":9874:9878   */\n      0x00\n        /* \"#utility.yul\":9912:9914   */\n      0x20\n        /* \"#utility.yul\":9901:9910   */\n      dup3\n        /* \"#utility.yul\":9897:9915   */\n      add\n        /* \"#utility.yul\":9889:9915   */\n      swap1\n      pop\n        /* \"#utility.yul\":9925:9996   */\n      tag_212\n        /* \"#utility.yul\":9993:9994   */\n      0x00\n        /* \"#utility.yul\":9982:9991   */\n      dup4\n        /* \"#utility.yul\":9978:9995   */\n      add\n        /* \"#utility.yul\":9969:9975   */\n      dup5\n        /* \"#utility.yul\":9925:9996   */\n      tag_114\n      jump\t// in\n    tag_212:\n        /* \"#utility.yul\":9781:10003   */\n      swap3\n      swap2\n      pop\n      pop\n      jump\t// out\n        /* \"#utility.yul\":10009:10181   */\n    tag_115:\n        /* \"#utility.yul\":10149:10173   */\n      0x496e76616c69642077616c6c6574206164647265737300000000000000000000\n        /* \"#utility.yul\":10145:10146   */\n      0x00\n        /* \"#utility.yul\":10137:10143   */\n      dup3\n        /* \"#utility.yul\":10133:10147   */\n      add\n        /* \"#utility.yul\":10126:10174   */\n      mstore\n        /* \"#utility.yul\":10009:10181   */\n      pop\n      jump\t// out\n        /* \"#utility.yul\":10187:10553   */\n    tag_116:\n        /* \"#utility.yul\":10329:10332   */\n      0x00\n        /* \"#utility.yul\":10350:10417   */\n      tag_215\n        /* \"#utility.yul\":10414:10416   */\n      0x16\n        /* \"#utility.yul\":10409:10412   */\n      dup4\n        /* \"#utility.yul\":10350:10417   */\n      tag_106\n      jump\t// in\n    tag_215:\n        /* \"#utility.yul\":10343:10417   */\n      swap2\n      pop\n        /* \"#utility.yul\":10426:10519   */\n      tag_216\n        /* \"#utility.yul\":10515:10518   */\n      dup3\n        /* \"#utility.yul\":10426:10519   */\n      tag_115\n      jump\t// in\n    tag_216:\n        /* \"#utility.yul\":10544:10546   */\n      0x20\n        /* \"#utility.yul\":10539:10542   */\n      dup3\n        /* \"#utility.yul\":10535:10547   */\n      add\n        /* \"#utility.yul\":10528:10547   */\n      swap1\n      pop\n        /* \"#utility.yul\":10187:10553   */\n      swap2\n      swap1\n      pop\n      jump\t// out\n        /* \"#utility.yul\":10559:10978   */\n    tag_80:\n        /* \"#utility.yul\":10725:10729   */\n      0x00\n        /* \"#utility.yul\":10763:10765   */\n      0x20\n        /* \"#utility.yul\":10752:10761   */\n      dup3\n        /* \"#utility.yul\":10748:10766   */\n      add\n        /* \"#utility.yul\":10740:10766   */\n      swap1\n      pop\n        /* \"#utility.yul\":10812:10821   */\n      dup2\n        /* \"#utility.yul\":10806:10810   */\n      dup2\n        /* \"#utility.yul\":10802:10822   */\n      sub\n        /* \"#utility.yul\":10798:10799   */\n      0x00\n        /* \"#utility.yul\":10787:10796   */\n      dup4\n        /* \"#utility.yul\":10783:10800   */\n      add\n        /* \"#utility.yul\":10776:10823   */\n      mstore\n        /* \"#utility.yul\":10840:10971   */\n      tag_218\n        /* \"#utility.yul\":10966:10970   */\n      dup2\n        /* \"#utility.yul\":10840:10971   */\n      tag_116\n      jump\t// in\n    tag_218:\n        /* \"#utility.yul\":10832:10971   */\n      swap1\n      pop\n        /* \"#utility.yul\":10559:10978   */\n      swap2\n      swap1\n      pop\n      jump\t// out\n\n    auxdata: 0xa2646970667358221220e8f033757b76e12f3e755e6fb99857183f62a7e7cda540f025d69623aab1034364736f6c634300081e0033\n}\n",
				"bytecode": {
					"linkReferences": {},
					"object": "6080604052348015600e575f5ffd5b503360025f6101000a81548173ffffffffffffffffffffffffffffffffffffffff021916908373ffffffffffffffffffffffffffffffffffffffff160217905550610c6d8061005c5f395ff3fe608060405234801561000f575f5ffd5b5060043610610086575f3560e01c8063b07c411f11610059578063b07c411f14610124578063e21e9e0e14610154578063fbeaa8b114610170578063fe255a181461018c57610086565b8063340378ed1461008a57806379e5b64a146100ba578063808a9d40146100ea5780638da5cb5b14610106575b5f5ffd5b6100a4600480360381019061009f919061079c565b6101bc565b6040516100b191906108a9565b60405180910390f35b6100d460048036038101906100cf9190610923565b610290565b6040516100e1919061095d565b60405180910390f35b61010460048036038101906100ff9190610923565b6102ad565b005b61010e6103d6565b60405161011b9190610985565b60405180910390f35b61013e600480360381019061013991906109d1565b6103fb565b60405161014b919061095d565b60405180910390f35b61016e600480360381019061016991906109d1565b610417565b005b61018a60048036038101906101859190610923565b610577565b005b6101a660048036038101906101a191906109d1565b61070e565b6040516101b3919061095d565b60405180910390f35b60605f8383905067ffffffffffffffff8111156101dc576101db6109fc565b5b60405190808252806020026020018201604052801561020a5781602001602082028036833780820191505090505b5090505f5f90505b84849050811015610285575f5f86868481811061023257610231610a29565b5b9050602002013581526020019081526020015f205f9054906101000a900460ff1682828151811061026657610265610a29565b5b6020026020010190151590811515815250508080600101915050610212565b508091505092915050565b6001602052805f5260405f205f915054906101000a900460ff1681565b60025f9054906101000a900473ffffffffffffffffffffffffffffffffffffffff1673ffffffffffffffffffffffffffffffffffffffff163373ffffffffffffffffffffffffffffffffffffffff161461033c576040517f08c379a000000000000000000000000000000000000000000000000000000000815260040161033390610ab0565b60405180910390fd5b5f60015f8373ffffffffffffffffffffffffffffffffffffffff1673ffffffffffffffffffffffffffffffffffffffff1681526020019081526020015f205f6101000a81548160ff0219169083151502179055508073ffffffffffffffffffffffffffffffffffffffff167f6e439c1129851c7aeb071225f567b51170a74259fb78b95132d3981f1d06a6ee60405160405180910390a250565b60025f9054906101000a900473ffffffffffffffffffffffffffffffffffffffff1681565b5f602052805f5260405f205f915054906101000a900460ff1681565b60015f3373ffffffffffffffffffffffffffffffffffffffff1673ffffffffffffffffffffffffffffffffffffffff1681526020019081526020015f205f9054906101000a900460ff166104a0576040517f08c379a000000000000000000000000000000000000000000000000000000000815260040161049790610b18565b60405180910390fd5b5f5f8281526020019081526020015f205f9054906101000a900460ff16156104fd576040517f08c379a00000000000000000000000000000000000000000000000000000000081526004016104f490610b80565b60405180910390fd5b60015f5f8381526020019081526020015f205f6101000a81548160ff0219169083151502179055503373ffffffffffffffffffffffffffffffffffffffff16817faa4b54a91187ccc813f970716578d4ad3542ea35db3ab74d6d24791cbffa24df4260405161056c9190610bb6565b60405180910390a350565b60025f9054906101000a900473ffffffffffffffffffffffffffffffffffffffff1673ffffffffffffffffffffffffffffffffffffffff163373ffffffffffffffffffffffffffffffffffffffff1614610606576040517f08c379a00000000000000000000000000000000000000000000000000000000081526004016105fd90610ab0565b60405180910390fd5b5f73ffffffffffffffffffffffffffffffffffffffff168173ffffffffffffffffffffffffffffffffffffffff1603610674576040517f08c379a000000000000000000000000000000000000000000000000000000000815260040161066b90610c19565b60405180910390fd5b6001805f8373ffffffffffffffffffffffffffffffffffffffff1673ffffffffffffffffffffffffffffffffffffffff1681526020019081526020015f205f6101000a81548160ff0219169083151502179055508073ffffffffffffffffffffffffffffffffffffffff167f6adc51adeb121fe2cd9ad017e91270d6368986ac7ef38921131a66b86eb632bc60405160405180910390a250565b5f5f5f8381526020019081526020015f205f9054906101000a900460ff169050919050565b5f5ffd5b5f5ffd5b5f5ffd5b5f5ffd5b5f5ffd5b5f5f83601f84011261075c5761075b61073b565b5b8235905067ffffffffffffffff8111156107795761077861073f565b5b60208301915083602082028301111561079557610794610743565b5b9250929050565b5f5f602083850312156107b2576107b1610733565b5b5f83013567ffffffffffffffff8111156107cf576107ce610737565b5b6107db85828601610747565b92509250509250929050565b5f81519050919050565b5f82825260208201905092915050565b5f819050602082019050919050565b5f8115159050919050565b61082481610810565b82525050565b5f610835838361081b565b60208301905092915050565b5f602082019050919050565b5f610857826107e7565b61086181856107f1565b935061086c83610801565b805f5b8381101561089c578151610883888261082a565b975061088e83610841565b92505060018101905061086f565b5085935050505092915050565b5f6020820190508181035f8301526108c1818461084d565b905092915050565b5f73ffffffffffffffffffffffffffffffffffffffff82169050919050565b5f6108f2826108c9565b9050919050565b610902816108e8565b811461090c575f5ffd5b50565b5f8135905061091d816108f9565b92915050565b5f6020828403121561093857610937610733565b5b5f6109458482850161090f565b91505092915050565b61095781610810565b82525050565b5f6020820190506109705f83018461094e565b92915050565b61097f816108e8565b82525050565b5f6020820190506109985f830184610976565b92915050565b5f819050919050565b6109b08161099e565b81146109ba575f5ffd5b50565b5f813590506109cb816109a7565b92915050565b5f602082840312156109e6576109e5610733565b5b5f6109f3848285016109bd565b91505092915050565b7f4e487b71000000000000000000000000000000000000000000000000000000005f52604160045260245ffd5b7f4e487b71000000000000000000000000000000000000000000000000000000005f52603260045260245ffd5b5f82825260208201905092915050565b7f4f6e6c79206f776e65722063616e2063616c6c000000000000000000000000005f82015250565b5f610a9a601383610a56565b9150610aa582610a66565b602082019050919050565b5f6020820190508181035f830152610ac781610a8e565b9050919050565b7f57616c6c6574206e6f7420617574686f72697a656400000000000000000000005f82015250565b5f610b02601583610a56565b9150610b0d82610ace565b602082019050919050565b5f6020820190508181035f830152610b2f81610af6565b9050919050565b7f546f6b656e20616c7265616479207370656e74000000000000000000000000005f82015250565b5f610b6a601383610a56565b9150610b7582610b36565b602082019050919050565b5f6020820190508181035f830152610b9781610b5e565b9050919050565b5f819050919050565b610bb081610b9e565b82525050565b5f602082019050610bc95f830184610ba7565b92915050565b7f496e76616c69642077616c6c65742061646472657373000000000000000000005f82015250565b5f610c03601683610a56565b9150610c0e82610bcf565b602082019050919050565b5f6020820190508181035f830152610c3081610bf7565b905091905056fea2646970667358221220e8f033757b76e12f3e755e6fb99857183f62a7e7cda540f025d69623aab1034364736f6c634300081e0033",
					"opcodes": "PUSH1 0x80 PUSH1 0x40 MSTORE CALLVALUE DUP1 ISZERO PUSH1 0xE JUMPI PUSH0 PUSH0 REVERT JUMPDEST POP CALLER PUSH1 0x2 PUSH0 PUSH2 0x100 EXP DUP2 SLOAD DUP2 PUSH20 0xFFFFFFFFFFFFFFFFFFFFFFFFFFFFFFFFFFFFFFFF MUL NOT AND SWAP1 DUP4 PUSH20 0xFFFFFFFFFFFFFFFFFFFFFFFFFFFFFFFFFFFFFFFF AND MUL OR SWAP1 SSTORE POP PUSH2 0xC6D DUP1 PUSH2 0x5C PUSH0 CODECOPY PUSH0 RETURN INVALID PUSH1 0x80 PUSH1 0x40 MSTORE CALLVALUE DUP1 ISZERO PUSH2 0xF JUMPI PUSH0 PUSH0 REVERT JUMPDEST POP PUSH1 0x4 CALLDATASIZE LT PUSH2 0x86 JUMPI PUSH0 CALLDATALOAD PUSH1 0xE0 SHR DUP1 PUSH4 0xB07C411F GT PUSH2 0x59 JUMPI DUP1 PUSH4 0xB07C411F EQ PUSH2 0x124 JUMPI DUP1 PUSH4 0xE21E9E0E EQ PUSH2 0x154 JUMPI DUP1 PUSH4 0xFBEAA8B1 EQ PUSH2 0x170 JUMPI DUP1 PUSH4 0xFE255A18 EQ PUSH2 0x18C JUMPI PUSH2 0x86 JUMP JUMPDEST DUP1 PUSH4 0x340378ED EQ PUSH2 0x8A JUMPI DUP1 PUSH4 0x79E5B64A EQ PUSH2 0xBA JUMPI DUP1 PUSH4 0x808A9D40 EQ PUSH2 0xEA JUMPI DUP1 PUSH4 0x8DA5CB5B EQ PUSH2 0x106 JUMPI JUMPDEST PUSH0 PUSH0 REVERT JUMPDEST PUSH2 0xA4 PUSH1 0x4 DUP1 CALLDATASIZE SUB DUP2 ADD SWAP1 PUSH2 0x9F SWAP2 SWAP1 PUSH2 0x79C JUMP JUMPDEST PUSH2 0x1BC JUMP JUMPDEST PUSH1 0x40 MLOAD PUSH2 0xB1 SWAP2 SWAP1 PUSH2 0x8A9 JUMP JUMPDEST PUSH1 0x40 MLOAD DUP1 SWAP2 SUB SWAP1 RETURN JUMPDEST PUSH2 0xD4 PUSH1 0x4 DUP1 CALLDATASIZE SUB DUP2 ADD SWAP1 PUSH2 0xCF SWAP2 SWAP1 PUSH2 0x923 JUMP JUMPDEST PUSH2 0x290 JUMP JUMPDEST PUSH1 0x40 MLOAD PUSH2 0xE1 SWAP2 SWAP1 PUSH2 0x95D JUMP JUMPDEST PUSH1 0x40 MLOAD DUP1 SWAP2 SUB SWAP1 RETURN JUMPDEST PUSH2 0x104 PUSH1 0x4 DUP1 CALLDATASIZE SUB DUP2 ADD SWAP1 PUSH2 0xFF SWAP2 SWAP1 PUSH2 0x923 JUMP JUMPDEST PUSH2 0x2AD JUMP JUMPDEST STOP JUMPDEST PUSH2 0x10E PUSH2 0x3D6 JUMP JUMPDEST PUSH1 0x40 MLOAD PUSH2 0x11B SWAP2 SWAP1 PUSH2 0x985 JUMP JUMPDEST PUSH1 0x40 MLOAD DUP1 SWAP2 SUB SWAP1 RETURN JUMPDEST PUSH2 0x13E PUSH1 0x4 DUP1 CALLDATASIZE SUB DUP2 ADD SWAP1 PUSH2 0x139 SWAP2 SWAP1 PUSH2 0x9D1 JUMP JUMPDEST PUSH2 0x3FB JUMP JUMPDEST PUSH1 0x40 MLOAD PUSH2 0x14B SWAP2 SWAP1 PUSH2 0x95D JUMP JUMPDEST PUSH1 0x40 MLOAD DUP1 SWAP2 SUB SWAP1 RETURN JUMPDEST PUSH2 0x16E PUSH1 0x4 DUP1 CALLDATASIZE SUB DUP2 ADD SWAP1 PUSH2 0x169 SWAP2 SWAP1 PUSH2 0x9D1 JUMP JUMPDEST PUSH2 0x417 JUMP JUMPDEST STOP JUMPDEST PUSH2 0x18A PUSH1 0x4 DUP1 CALLDATASIZE SUB DUP2 ADD SWAP1 PUSH2 0x185 SWAP2 SWAP1 PUSH2 0x923 JUMP JUMPDEST PUSH2 0x577 JUMP JUMPDEST STOP JUMPDEST PUSH2 0x1A6 PUSH1 0x4 DUP1 CALLDATASIZE SUB DUP2 ADD SWAP1 PUSH2 0x1A1 SWAP2 SWAP1 PUSH2 0x9D1 JUMP JUMPDEST PUSH2 0x70E JUMP JUMPDEST PUSH1 0x40 MLOAD PUSH2 0x1B3 SWAP2 SWAP1 PUSH2 0x95D JUMP JUMPDEST PUSH1 0x40 MLOAD DUP1 SWAP2 SUB SWAP1 RETURN JUMPDEST PUSH1 0x60 PUSH0 DUP4 DUP4 SWAP1 POP PUSH8 0xFFFFFFFFFFFFFFFF DUP2 GT ISZERO PUSH2 0x1DC JUMPI PUSH2 0x1DB PUSH2 0x9FC JUMP JUMPDEST JUMPDEST PUSH1 0x40 MLOAD SWAP1 DUP1 DUP3 MSTORE DUP1 PUSH1 0x20 MUL PUSH1 0x20 ADD DUP3 ADD PUSH1 0x40 MSTORE DUP1 ISZERO PUSH2 0x20A JUMPI DUP2 PUSH1 0x20 ADD PUSH1 0x20 DUP3 MUL DUP1 CALLDATASIZE DUP4 CALLDATACOPY DUP1 DUP3 ADD SWAP2 POP POP SWAP1 POP JUMPDEST POP SWAP1 POP PUSH0 PUSH0 SWAP1 POP JUMPDEST DUP5 DUP5 SWAP1 POP DUP2 LT ISZERO PUSH2 0x285 JUMPI PUSH0 PUSH0 DUP7 DUP7 DUP5 DUP2 DUP2 LT PUSH2 0x232 JUMPI PUSH2 0x231 PUSH2 0xA29 JUMP JUMPDEST JUMPDEST SWAP1 POP PUSH1 0x20 MUL ADD CALLDATALOAD DUP2 MSTORE PUSH1 0x20 ADD SWAP1 DUP2 MSTORE PUSH1 0x20 ADD PUSH0 KECCAK256 PUSH0 SWAP1 SLOAD SWAP1 PUSH2 0x100 EXP SWAP1 DIV PUSH1 0xFF AND DUP3 DUP3 DUP2 MLOAD DUP2 LT PUSH2 0x266 JUMPI PUSH2 0x265 PUSH2 0xA29 JUMP JUMPDEST JUMPDEST PUSH1 0x20 MUL PUSH1 0x20 ADD ADD SWAP1 ISZERO ISZERO SWAP1 DUP2 ISZERO ISZERO DUP2 MSTORE POP POP DUP1 DUP1 PUSH1 0x1 ADD SWAP2 POP POP PUSH2 0x212 JUMP JUMPDEST POP DUP1 SWAP2 POP POP SWAP3 SWAP2 POP POP JUMP JUMPDEST PUSH1 0x1 PUSH1 0x20 MSTORE DUP1 PUSH0 MSTORE PUSH1 0x40 PUSH0 KECCAK256 PUSH0 SWAP2 POP SLOAD SWAP1 PUSH2 0x100 EXP SWAP1 DIV PUSH1 0xFF AND DUP2 JUMP JUMPDEST PUSH1 0x2 PUSH0 SWAP1 SLOAD SWAP1 PUSH2 0x100 EXP SWAP1 DIV PUSH20 0xFFFFFFFFFFFFFFFFFFFFFFFFFFFFFFFFFFFFFFFF AND PUSH20 0xFFFFFFFFFFFFFFFFFFFFFFFFFFFFFFFFFFFFFFFF AND CALLER PUSH20 0xFFFFFFFFFFFFFFFFFFFFFFFFFFFFFFFFFFFFFFFF AND EQ PUSH2 0x33C JUMPI PUSH1 0x40 MLOAD PUSH32 0x8C379A000000000000000000000000000000000000000000000000000000000 DUP2 MSTORE PUSH1 0x4 ADD PUSH2 0x333 SWAP1 PUSH2 0xAB0 JUMP JUMPDEST PUSH1 0x40 MLOAD DUP1 SWAP2 SUB SWAP1 REVERT JUMPDEST PUSH0 PUSH1 0x1 PUSH0 DUP4 PUSH20 0xFFFFFFFFFFFFFFFFFFFFFFFFFFFFFFFFFFFFFFFF AND PUSH20 0xFFFFFFFFFFFFFFFFFFFFFFFFFFFFFFFFFFFFFFFF AND DUP2 MSTORE PUSH1 0x20 ADD SWAP1 DUP2 MSTORE PUSH1 0x20 ADD PUSH0 KECCAK256 PUSH0 PUSH2 0x100 EXP DUP2 SLOAD DUP2 PUSH1 0xFF MUL NOT AND SWAP1 DUP4 ISZERO ISZERO MUL OR SWAP1 SSTORE POP DUP1 PUSH20 0xFFFFFFFFFFFFFFFFFFFFFFFFFFFFFFFFFFFFFFFF AND PUSH32 0x6E439C1129851C7AEB071225F567B51170A74259FB78B95132D3981F1D06A6EE PUSH1 0x40 MLOAD PUSH1 0x40 MLOAD DUP1 SWAP2 SUB SWAP1 LOG2 POP JUMP JUMPDEST PUSH1 0x2 PUSH0 SWAP1 SLOAD SWAP1 PUSH2 0x100 EXP SWAP1 DIV PUSH20 0xFFFFFFFFFFFFFFFFFFFFFFFFFFFFFFFFFFFFFFFF AND DUP2 JUMP JUMPDEST PUSH0 PUSH1 0x20 MSTORE DUP1 PUSH0 MSTORE PUSH1 0x40 PUSH0 KECCAK256 PUSH0 SWAP2 POP SLOAD SWAP1 PUSH2 0x100 EXP SWAP1 DIV PUSH1 0xFF AND DUP2 JUMP JUMPDEST PUSH1 0x1 PUSH0 CALLER PUSH20 0xFFFFFFFFFFFFFFFFFFFFFFFFFFFFFFFFFFFFFFFF AND PUSH20 0xFFFFFFFFFFFFFFFFFFFFFFFFFFFFFFFFFFFFFFFF AND DUP2 MSTORE PUSH1 0x20 ADD SWAP1 DUP2 MSTORE PUSH1 0x20 ADD PUSH0 KECCAK256 PUSH0 SWAP1 SLOAD SWAP1 PUSH2 0x100 EXP SWAP1 DIV PUSH1 0xFF AND PUSH2 0x4A0 JUMPI PUSH1 0x40 MLOAD PUSH32 0x8C379A000000000000000000000000000000000000000000000000000000000 DUP2 MSTORE PUSH1 0x4 ADD PUSH2 0x497 SWAP1 PUSH2 0xB18 JUMP JUMPDEST PUSH1 0x40 MLOAD DUP1 SWAP2 SUB SWAP1 REVERT JUMPDEST PUSH0 PUSH0 DUP3 DUP2 MSTORE PUSH1 0x20 ADD SWAP1 DUP2 MSTORE PUSH1 0x20 ADD PUSH0 KECCAK256 PUSH0 SWAP1 SLOAD SWAP1 PUSH2 0x100 EXP SWAP1 DIV PUSH1 0xFF AND ISZERO PUSH2 0x4FD JUMPI PUSH1 0x40 MLOAD PUSH32 0x8C379A000000000000000000000000000000000000000000000000000000000 DUP2 MSTORE PUSH1 0x4 ADD PUSH2 0x4F4 SWAP1 PUSH2 0xB80 JUMP JUMPDEST PUSH1 0x40 MLOAD DUP1 SWAP2 SUB SWAP1 REVERT JUMPDEST PUSH1 0x1 PUSH0 PUSH0 DUP4 DUP2 MSTORE PUSH1 0x20 ADD SWAP1 DUP2 MSTORE PUSH1 0x20 ADD PUSH0 KECCAK256 PUSH0 PUSH2 0x100 EXP DUP2 SLOAD DUP2 PUSH1 0xFF MUL NOT AND SWAP1 DUP4 ISZERO ISZERO MUL OR SWAP1 SSTORE POP CALLER PUSH20 0xFFFFFFFFFFFFFFFFFFFFFFFFFFFFFFFFFFFFFFFF AND DUP2 PUSH32 0xAA4B54A91187CCC813F970716578D4AD3542EA35DB3AB74D6D24791CBFFA24DF TIMESTAMP PUSH1 0x40 MLOAD PUSH2 0x56C SWAP2 SWAP1 PUSH2 0xBB6 JUMP JUMPDEST PUSH1 0x40 MLOAD DUP1 SWAP2 SUB SWAP1 LOG3 POP JUMP JUMPDEST PUSH1 0x2 PUSH0 SWAP1 SLOAD SWAP1 PUSH2 0x100 EXP SWAP1 DIV PUSH20 0xFFFFFFFFFFFFFFFFFFFFFFFFFFFFFFFFFFFFFFFF AND PUSH20 0xFFFFFFFFFFFFFFFFFFFFFFFFFFFFFFFFFFFFFFFF AND CALLER PUSH20 0xFFFFFFFFFFFFFFFFFFFFFFFFFFFFFFFFFFFFFFFF AND EQ PUSH2 0x606 JUMPI PUSH1 0x40 MLOAD PUSH32 0x8C379A000000000000000000000000000000000000000000000000000000000 DUP2 MSTORE PUSH1 0x4 ADD PUSH2 0x5FD SWAP1 PUSH2 0xAB0 JUMP JUMPDEST PUSH1 0x40 MLOAD DUP1 SWAP2 SUB SWAP1 REVERT JUMPDEST PUSH0 PUSH20 0xFFFFFFFFFFFFFFFFFFFFFFFFFFFFFFFFFFFFFFFF AND DUP2 PUSH20 0xFFFFFFFFFFFFFFFFFFFFFFFFFFFFFFFFFFFFFFFF AND SUB PUSH2 0x674 JUMPI PUSH1 0x40 MLOAD PUSH32 0x8C379A000000000000000000000000000000000000000000000000000000000 DUP2 MSTORE PUSH1 0x4 ADD PUSH2 0x66B SWAP1 PUSH2 0xC19 JUMP JUMPDEST PUSH1 0x40 MLOAD DUP1 SWAP2 SUB SWAP1 REVERT JUMPDEST PUSH1 0x1 DUP1 PUSH0 DUP4 PUSH20 0xFFFFFFFFFFFFFFFFFFFFFFFFFFFFFFFFFFFFFFFF AND PUSH20 0xFFFFFFFFFFFFFFFFFFFFFFFFFFFFFFFFFFFFFFFF AND DUP2 MSTORE PUSH1 0x20 ADD SWAP1 DUP2 MSTORE PUSH1 0x20 ADD PUSH0 KECCAK256 PUSH0 PUSH2 0x100 EXP DUP2 SLOAD DUP2 PUSH1 0xFF MUL NOT AND SWAP1 DUP4 ISZERO ISZERO MUL OR SWAP1 SSTORE POP DUP1 PUSH20 0xFFFFFFFFFFFFFFFFFFFFFFFFFFFFFFFFFFFFFFFF AND PUSH32 0x6ADC51ADEB121FE2CD9AD017E91270D6368986AC7EF38921131A66B86EB632BC PUSH1 0x40 MLOAD PUSH1 0x40 MLOAD DUP1 SWAP2 SUB SWAP1 LOG2 POP JUMP JUMPDEST PUSH0 PUSH0 PUSH0 DUP4 DUP2 MSTORE PUSH1 0x20 ADD SWAP1 DUP2 MSTORE PUSH1 0x20 ADD PUSH0 KECCAK256 PUSH0 SWAP1 SLOAD SWAP1 PUSH2 0x100 EXP SWAP1 DIV PUSH1 0xFF AND SWAP1 POP SWAP2 SWAP1 POP JUMP JUMPDEST PUSH0 PUSH0 REVERT JUMPDEST PUSH0 PUSH0 REVERT JUMPDEST PUSH0 PUSH0 REVERT JUMPDEST PUSH0 PUSH0 REVERT JUMPDEST PUSH0 PUSH0 REVERT JUMPDEST PUSH0 PUSH0 DUP4 PUSH1 0x1F DUP5 ADD SLT PUSH2 0x75C JUMPI PUSH2 0x75B PUSH2 0x73B JUMP JUMPDEST JUMPDEST DUP3 CALLDATALOAD SWAP1 POP PUSH8 0xFFFFFFFFFFFFFFFF DUP2 GT ISZERO PUSH2 0x779 JUMPI PUSH2 0x778 PUSH2 0x73F JUMP JUMPDEST JUMPDEST PUSH1 0x20 DUP4 ADD SWAP2 POP DUP4 PUSH1 0x20 DUP3 MUL DUP4 ADD GT ISZERO PUSH2 0x795 JUMPI PUSH2 0x794 PUSH2 0x743 JUMP JUMPDEST JUMPDEST SWAP3 POP SWAP3 SWAP1 POP JUMP JUMPDEST PUSH0 PUSH0 PUSH1 0x20 DUP4 DUP6 SUB SLT ISZERO PUSH2 0x7B2 JUMPI PUSH2 0x7B1 PUSH2 0x733 JUMP JUMPDEST JUMPDEST PUSH0 DUP4 ADD CALLDATALOAD PUSH8 0xFFFFFFFFFFFFFFFF DUP2 GT ISZERO PUSH2 0x7CF JUMPI PUSH2 0x7CE PUSH2 0x737 JUMP JUMPDEST JUMPDEST PUSH2 0x7DB DUP6 DUP3 DUP7 ADD PUSH2 0x747 JUMP JUMPDEST SWAP3 POP SWAP3 POP POP SWAP3 POP SWAP3 SWAP1 POP JUMP JUMPDEST PUSH0 DUP2 MLOAD SWAP1 POP SWAP2 SWAP1 POP JUMP JUMPDEST PUSH0 DUP3 DUP3 MSTORE PUSH1 0x20 DUP3 ADD SWAP1 POP SWAP3 SWAP2 POP POP JUMP JUMPDEST PUSH0 DUP2 SWAP1 POP PUSH1 0x20 DUP3 ADD SWAP1 POP SWAP2 SWAP1 POP JUMP JUMPDEST PUSH0 DUP2 ISZERO ISZERO SWAP1 POP SWAP2 SWAP1 POP JUMP JUMPDEST PUSH2 0x824 DUP2 PUSH2 0x810 JUMP JUMPDEST DUP3 MSTORE POP POP JUMP JUMPDEST PUSH0 PUSH2 0x835 DUP4 DUP4 PUSH2 0x81B JUMP JUMPDEST PUSH1 0x20 DUP4 ADD SWAP1 POP SWAP3 SWAP2 POP POP JUMP JUMPDEST PUSH0 PUSH1 0x20 DUP3 ADD SWAP1 POP SWAP2 SWAP1 POP JUMP JUMPDEST PUSH0 PUSH2 0x857 DUP3 PUSH2 0x7E7 JUMP JUMPDEST PUSH2 0x861 DUP2 DUP6 PUSH2 0x7F1 JUMP JUMPDEST SWAP4 POP PUSH2 0x86C DUP4 PUSH2 0x801 JUMP JUMPDEST DUP1 PUSH0 JUMPDEST DUP4 DUP2 LT ISZERO PUSH2 0x89C JUMPI DUP2 MLOAD PUSH2 0x883 DUP9 DUP3 PUSH2 0x82A JUMP JUMPDEST SWAP8 POP PUSH2 0x88E DUP4 PUSH2 0x841 JUMP JUMPDEST SWAP3 POP POP PUSH1 0x1 DUP2 ADD SWAP1 POP PUSH2 0x86F JUMP JUMPDEST POP DUP6 SWAP4 POP POP POP POP SWAP3 SWAP2 POP POP JUMP JUMPDEST PUSH0 PUSH1 0x20 DUP3 ADD SWAP1 POP DUP2 DUP2 SUB PUSH0 DUP4 ADD MSTORE PUSH2 0x8C1 DUP2 DUP5 PUSH2 0x84D JUMP JUMPDEST SWAP1 POP SWAP3 SWAP2 POP POP JUMP JUMPDEST PUSH0 PUSH20 0xFFFFFFFFFFFFFFFFFFFFFFFFFFFFFFFFFFFFFFFF DUP3 AND SWAP1 POP SWAP2 SWAP1 POP JUMP JUMPDEST PUSH0 PUSH2 0x8F2 DUP3 PUSH2 0x8C9 JUMP JUMPDEST SWAP1 POP SWAP2 SWAP1 POP JUMP JUMPDEST PUSH2 0x902 DUP2 PUSH2 0x8E8 JUMP JUMPDEST DUP2 EQ PUSH2 0x90C JUMPI PUSH0 PUSH0 REVERT JUMPDEST POP JUMP JUMPDEST PUSH0 DUP2 CALLDATALOAD SWAP1 POP PUSH2 0x91D DUP2 PUSH2 0x8F9 JUMP JUMPDEST SWAP3 SWAP2 POP POP JUMP JUMPDEST PUSH0 PUSH1 0x20 DUP3 DUP5 SUB SLT ISZERO PUSH2 0x938 JUMPI PUSH2 0x937 PUSH2 0x733 JUMP JUMPDEST JUMPDEST PUSH0 PUSH2 0x945 DUP5 DUP3 DUP6 ADD PUSH2 0x90F JUMP JUMPDEST SWAP2 POP POP SWAP3 SWAP2 POP POP JUMP JUMPDEST PUSH2 0x957 DUP2 PUSH2 0x810 JUMP JUMPDEST DUP3 MSTORE POP POP JUMP JUMPDEST PUSH0 PUSH1 0x20 DUP3 ADD SWAP1 POP PUSH2 0x970 PUSH0 DUP4 ADD DUP5 PUSH2 0x94E JUMP JUMPDEST SWAP3 SWAP2 POP POP JUMP JUMPDEST PUSH2 0x97F DUP2 PUSH2 0x8E8 JUMP JUMPDEST DUP3 MSTORE POP POP JUMP JUMPDEST PUSH0 PUSH1 0x20 DUP3 ADD SWAP1 POP PUSH2 0x998 PUSH0 DUP4 ADD DUP5 PUSH2 0x976 JUMP JUMPDEST SWAP3 SWAP2 POP POP JUMP JUMPDEST PUSH0 DUP2 SWAP1 POP SWAP2 SWAP1 POP JUMP JUMPDEST PUSH2 0x9B0 DUP2 PUSH2 0x99E JUMP JUMPDEST DUP2 EQ PUSH2 0x9BA JUMPI PUSH0 PUSH0 REVERT JUMPDEST POP JUMP JUMPDEST PUSH0 DUP2 CALLDATALOAD SWAP1 POP PUSH2 0x9CB DUP2 PUSH2 0x9A7 JUMP JUMPDEST SWAP3 SWAP2 POP POP JUMP JUMPDEST PUSH0 PUSH1 0x20 DUP3 DUP5 SUB SLT ISZERO PUSH2 0x9E6 JUMPI PUSH2 0x9E5 PUSH2 0x733 JUMP JUMPDEST JUMPDEST PUSH0 PUSH2 0x9F3 DUP5 DUP3 DUP6 ADD PUSH2 0x9BD JUMP JUMPDEST SWAP2 POP POP SWAP3 SWAP2 POP POP JUMP JUMPDEST PUSH32 0x4E487B7100000000000000000000000000000000000000000000000000000000 PUSH0 MSTORE PUSH1 0x41 PUSH1 0x4 MSTORE PUSH1 0x24 PUSH0 REVERT JUMPDEST PUSH32 0x4E487B7100000000000000000000000000000000000000000000000000000000 PUSH0 MSTORE PUSH1 0x32 PUSH1 0x4 MSTORE PUSH1 0x24 PUSH0 REVERT JUMPDEST PUSH0 DUP3 DUP3 MSTORE PUSH1 0x20 DUP3 ADD SWAP1 POP SWAP3 SWAP2 POP POP JUMP JUMPDEST PUSH32 0x4F6E6C79206F776E65722063616E2063616C6C00000000000000000000000000 PUSH0 DUP3 ADD MSTORE POP JUMP JUMPDEST PUSH0 PUSH2 0xA9A PUSH1 0x13 DUP4 PUSH2 0xA56 JUMP JUMPDEST SWAP2 POP PUSH2 0xAA5 DUP3 PUSH2 0xA66 JUMP JUMPDEST PUSH1 0x20 DUP3 ADD SWAP1 POP SWAP2 SWAP1 POP JUMP JUMPDEST PUSH0 PUSH1 0x20 DUP3 ADD SWAP1 POP DUP2 DUP2 SUB PUSH0 DUP4 ADD MSTORE PUSH2 0xAC7 DUP2 PUSH2 0xA8E JUMP JUMPDEST SWAP1 POP SWAP2 SWAP1 POP JUMP JUMPDEST PUSH32 0x57616C6C6574206E6F7420617574686F72697A65640000000000000000000000 PUSH0 DUP3 ADD MSTORE POP JUMP JUMPDEST PUSH0 PUSH2 0xB02 PUSH1 0x15 DUP4 PUSH2 0xA56 JUMP JUMPDEST SWAP2 POP PUSH2 0xB0D DUP3 PUSH2 0xACE JUMP JUMPDEST PUSH1 0x20 DUP3 ADD SWAP1 POP SWAP2 SWAP1 POP JUMP JUMPDEST PUSH0 PUSH1 0x20 DUP3 ADD SWAP1 POP DUP2 DUP2 SUB PUSH0 DUP4 ADD MSTORE PUSH2 0xB2F DUP2 PUSH2 0xAF6 JUMP JUMPDEST SWAP1 POP SWAP2 SWAP1 POP JUMP JUMPDEST PUSH32 0x546F6B656E20616C7265616479207370656E7400000000000000000000000000 PUSH0 DUP3 ADD MSTORE POP JUMP JUMPDEST PUSH0 PUSH2 0xB6A PUSH1 0x13 DUP4 PUSH2 0xA56 JUMP JUMPDEST SWAP2 POP PUSH2 0xB75 DUP3 PUSH2 0xB36 JUMP JUMPDEST PUSH1 0x20 DUP3 ADD SWAP1 POP SWAP2 SWAP1 POP JUMP JUMPDEST PUSH0 PUSH1 0x20 DUP3 ADD SWAP1 POP DUP2 DUP2 SUB PUSH0 DUP4 ADD MSTORE PUSH2 0xB97 DUP2 PUSH2 0xB5E JUMP JUMPDEST SWAP1 POP SWAP2 SWAP1 POP JUMP JUMPDEST PUSH0 DUP2 SWAP1 POP SWAP2 SWAP1 POP JUMP JUMPDEST PUSH2 0xBB0 DUP2 PUSH2 0xB9E JUMP JUMPDEST DUP3 MSTORE POP POP JUMP JUMPDEST PUSH0 PUSH1 0x20 DUP3 ADD SWAP1 POP PUSH2 0xBC9 PUSH0 DUP4 ADD DUP5 PUSH2 0xBA7 JUMP JUMPDEST SWAP3 SWAP2 POP POP JUMP JUMPDEST PUSH32 0x496E76616C69642077616C6C6574206164647265737300000000000000000000 PUSH0 DUP3 ADD MSTORE POP JUMP JUMPDEST PUSH0 PUSH2 0xC03 PUSH1 0x16 DUP4 PUSH2 0xA56 JUMP JUMPDEST SWAP2 POP PUSH2 0xC0E DUP3 PUSH2 0xBCF JUMP JUMPDEST PUSH1 0x20 DUP3 ADD SWAP1 POP SWAP2 SWAP1 POP JUMP JUMPDEST PUSH0 PUSH1 0x20 DUP3 ADD SWAP1 POP DUP2 DUP2 SUB PUSH0 DUP4 ADD MSTORE PUSH2 0xC30 DUP2 PUSH2 0xBF7 JUMP JUMPDEST SWAP1 POP SWAP2 SWAP1 POP JUMP INVALID LOG2 PUSH5 0x6970667358 0x22 SLT KECCAK256 0xE8 CREATE CALLER PUSH22 0x7B76E12F3E755E6FB99857183F62A7E7CDA540F025D6 SWAP7 0x23 0xAA 0xB1 SUB NUMBER PUSH5 0x736F6C6343 STOP ADDMOD 0x1E STOP CALLER "
				},
				"gasEstimates": {
					"creation": {
						"codeDepositCost": "636200",
						"executionCost": "24933",
						"totalCost": "661133"
					},
					"external": {
						"authorizeWallet(address)": "28211",
						"authorizedWallet(address)": "2856",
						"batchIsUsed(bytes32[])": "infinite",
						"isUsed(bytes32)": "2875",
						"markUsed(bytes32)": "31181",
						"owner()": "2575",
						"revokeWallet(address)": "28177",
						"used(bytes32)": "2784"
					}
				},
				"methodIdentifiers": {
					"authorizeWallet(address)": "fbeaa8b1",
					"authorizedWallet(address)": "79e5b64a",
					"batchIsUsed(bytes32[])": "340378ed",
					"isUsed(bytes32)": "fe255a18",
					"markUsed(bytes32)": "e21e9e0e",
					"owner()": "8da5cb5b",
					"revokeWallet(address)": "808a9d40",
					"used(bytes32)": "b07c411f"
				}
			},
			"storageLayout": {
				"storage": [
					{
						"astId": 6,
						"contract": "contracts/SpentSet.sol:SpentSet",
						"label": "used",
						"offset": 0,
						"slot": "0",
						"type": "t_mapping(t_bytes32,t_bool)"
					},
					{
						"astId": 10,
						"contract": "contracts/SpentSet.sol:SpentSet",
						"label": "authorizedWallet",
						"offset": 0,
						"slot": "1",
						"type": "t_mapping(t_address,t_bool)"
					},
					{
						"astId": 12,
						"contract": "contracts/SpentSet.sol:SpentSet",
						"label": "owner",
						"offset": 0,
						"slot": "2",
						"type": "t_address"
					}
				],
				"types": {
					"t_address": {
						"encoding": "inplace",
						"label": "address",
						"numberOfBytes": "20"
					},
					"t_bool": {
						"encoding": "inplace",
						"label": "bool",
						"numberOfBytes": "1"
					},
					"t_bytes32": {
						"encoding": "inplace",
						"label": "bytes32",
						"numberOfBytes": "32"
					},
					"t_mapping(t_address,t_bool)": {
						"encoding": "mapping",
						"key": "t_address",
						"label": "mapping(address => bool)",
						"numberOfBytes": "32",
						"value": "t_bool"
					},
					"t_mapping(t_bytes32,t_bool)": {
						"encoding": "mapping",
						"key": "t_bytes32",
						"label": "mapping(bytes32 => bool)",
						"numberOfBytes": "32",
						"value": "t_bool"
					}
				}
			},
			"userdoc": {
				"kind": "user",
				"methods": {
					"authorizeWallet(address)": {
						"notice": "Authorize a wallet contract to burn tokens"
					},
					"batchIsUsed(bytes32[])": {
						"notice": "Batch check multiple tokens (gas efficient)"
					},
					"isUsed(bytes32)": {
						"notice": "Check if a token has been spent"
					},
					"markUsed(bytes32)": {
						"notice": "Mark a token as spent (burn it permanently)"
					},
					"revokeWallet(address)": {
						"notice": "Revoke wallet authorization"
					}
				},
				"notice": "Enforces one-time token use through atomic freshness checks",
				"version": 1
			}
		}
	}
}